{"abi":[{"type":"constructor","inputs":[{"name":"_inscriptionVerifier","type":"address","internalType":"contract IVerifier"},{"name":"_votingVerifier","type":"address","internalType":"contract IVerifier"},{"name":"_numberOfVoters","type":"uint256","internalType":"uint256"},{"name":"generator","type":"bytes32","internalType":"bytes32"}],"stateMutability":"nonpayable"},{"type":"function","name":"enscribeVoter","inputs":[{"name":"proof","type":"bytes","internalType":"bytes"},{"name":"encrypted_random_value","type":"bytes32","internalType":"bytes32"}],"outputs":[],"stateMutability":"nonpayable"},{"type":"function","name":"evaluateDecryptionValues","inputs":[],"outputs":[],"stateMutability":"nonpayable"},{"type":"function","name":"evaluates_finalVote","inputs":[],"outputs":[],"stateMutability":"nonpayable"},{"type":"function","name":"gets_finalVote","inputs":[],"outputs":[{"name":"","type":"bool","internalType":"bool"}],"stateMutability":"view"},{"type":"function","name":"owner","inputs":[],"outputs":[{"name":"","type":"address","internalType":"address"}],"stateMutability":"view"},{"type":"function","name":"renounceOwnership","inputs":[],"outputs":[],"stateMutability":"nonpayable"},{"type":"function","name":"s_aggregated_division","inputs":[{"name":"","type":"uint256","internalType":"uint256"}],"outputs":[{"name":"","type":"uint256","internalType":"uint256"}],"stateMutability":"view"},{"type":"function","name":"s_aggregated_multiplication","inputs":[{"name":"","type":"uint256","internalType":"uint256"}],"outputs":[{"name":"","type":"uint256","internalType":"uint256"}],"stateMutability":"view"},{"type":"function","name":"s_decryption_shares","inputs":[{"name":"","type":"uint256","internalType":"uint256"}],"outputs":[{"name":"","type":"uint256","internalType":"uint256"}],"stateMutability":"view"},{"type":"function","name":"s_encrypted_random_values","inputs":[{"name":"","type":"address","internalType":"address"}],"outputs":[{"name":"","type":"bytes32","internalType":"bytes32"}],"stateMutability":"view"},{"type":"function","name":"s_encrypted_votes","inputs":[{"name":"","type":"address","internalType":"address"}],"outputs":[{"name":"","type":"bytes32","internalType":"bytes32"}],"stateMutability":"view"},{"type":"function","name":"s_enscribedVoters","inputs":[],"outputs":[{"name":"","type":"uint256","internalType":"uint256"}],"stateMutability":"view"},{"type":"function","name":"s_finalVote","inputs":[],"outputs":[{"name":"","type":"bool","internalType":"bool"}],"stateMutability":"view"},{"type":"function","name":"s_generator","inputs":[],"outputs":[{"name":"","type":"bytes32","internalType":"bytes32"}],"stateMutability":"view"},{"type":"function","name":"s_inscriptionVerifier","inputs":[],"outputs":[{"name":"","type":"address","internalType":"contract IVerifier"}],"stateMutability":"view"},{"type":"function","name":"s_maximalNumberOfVoters","inputs":[],"outputs":[{"name":"","type":"uint256","internalType":"uint256"}],"stateMutability":"view"},{"type":"function","name":"s_votedVoters","inputs":[],"outputs":[{"name":"","type":"uint256","internalType":"uint256"}],"stateMutability":"view"},{"type":"function","name":"s_voters","inputs":[{"name":"","type":"uint256","internalType":"uint256"}],"outputs":[{"name":"","type":"address","internalType":"address"}],"stateMutability":"view"},{"type":"function","name":"s_votingVerifier","inputs":[],"outputs":[{"name":"","type":"address","internalType":"contract IVerifier"}],"stateMutability":"view"},{"type":"function","name":"transferOwnership","inputs":[{"name":"newOwner","type":"address","internalType":"address"}],"outputs":[],"stateMutability":"nonpayable"},{"type":"function","name":"verifyInscription","inputs":[{"name":"proof","type":"bytes","internalType":"bytes"},{"name":"encrypted_random_value","type":"bytes32","internalType":"bytes32"}],"outputs":[{"name":"","type":"bool","internalType":"bool"}],"stateMutability":"nonpayable"},{"type":"function","name":"verifyVoting","inputs":[{"name":"proof","type":"bytes","internalType":"bytes"},{"name":"encrypted_vote","type":"bytes32","internalType":"bytes32"}],"outputs":[{"name":"","type":"bool","internalType":"bool"}],"stateMutability":"nonpayable"},{"type":"function","name":"vote","inputs":[{"name":"proof","type":"bytes","internalType":"bytes"},{"name":"encrypted_vote","type":"bytes32","internalType":"bytes32"}],"outputs":[],"stateMutability":"nonpayable"},{"type":"event","name":"Inscription__ProofSucceeded","inputs":[{"name":"result","type":"bool","indexed":false,"internalType":"bool"}],"anonymous":false},{"type":"event","name":"Inscription__VoterEnscribed","inputs":[{"name":"voter","type":"address","indexed":false,"internalType":"address"},{"name":"voterIndex","type":"uint256","indexed":false,"internalType":"uint256"}],"anonymous":false},{"type":"event","name":"OwnershipTransferred","inputs":[{"name":"previousOwner","type":"address","indexed":true,"internalType":"address"},{"name":"newOwner","type":"address","indexed":true,"internalType":"address"}],"anonymous":false},{"type":"event","name":"Voting__ProofSucceeded","inputs":[{"name":"result","type":"bool","indexed":false,"internalType":"bool"}],"anonymous":false},{"type":"event","name":"Voting__Starting","inputs":[{"name":"","type":"uint256[]","indexed":false,"internalType":"uint256[]"}],"anonymous":false},{"type":"error","name":"Constructor__InvalidDeadline","inputs":[{"name":"currentTime","type":"uint256","internalType":"uint256"},{"name":"providedDeadline","type":"uint256","internalType":"uint256"}]},{"type":"error","name":"Inscription__Closed","inputs":[{"name":"currentTime","type":"uint256","internalType":"uint256"},{"name":"deadline","type":"uint256","internalType":"uint256"}]},{"type":"error","name":"Inscription__InvalidProof","inputs":[{"name":"voter","type":"address","internalType":"address"}]},{"type":"error","name":"Inscription__IsNotClosed","inputs":[{"name":"currentTime","type":"uint256","internalType":"uint256"},{"name":"deadline","type":"uint256","internalType":"uint256"}]},{"type":"error","name":"OwnableInvalidOwner","inputs":[{"name":"owner","type":"address","internalType":"address"}]},{"type":"error","name":"OwnableUnauthorizedAccount","inputs":[{"name":"account","type":"address","internalType":"address"}]},{"type":"error","name":"Voting__InvalidProof","inputs":[{"name":"voter","type":"address","internalType":"address"}]},{"type":"error","name":"Voting__IsClosed","inputs":[]},{"type":"error","name":"Voting__IsNotFinalized","inputs":[]}],"bytecode":{"object":"0x60806040525f6004555f600655348015610017575f5ffd5b5060405161158338038061158383398101604081905261003691610191565b338061005b57604051631e4fbdf760e01b81525f600482015260240160405180910390fd5b6100648161011e565b50600180546001600160a01b038087166001600160a01b03199283161790925560028054928616929091169190911790556007829055600981905560405181907f30644e72e131a029b85045b68181585d2833e84879b9709143e1f593f0000001906100cf9061016d565b9182526020820152604001604051809103905ff0801580156100f3573d5f5f3e3d5ffd5b50600a80546001600160a01b0319166001600160a01b0392909216919091179055506101d692505050565b5f80546001600160a01b038381166001600160a01b0319831681178455604051919092169283917f8be0079c531659141344cd1fd0a4f28419497f9722a3daafe3b4186f6b6457e09190a35050565b61060080610f8383390190565b6001600160a01b038116811461018e575f5ffd5b50565b5f5f5f5f608085870312156101a4575f5ffd5b84516101af8161017a565b60208601519094506101c08161017a565b6040860151606090960151949790965092505050565b610da0806101e35f395ff3fe608060405234801561000f575f5ffd5b5060043610610148575f3560e01c80638da5cb5b116100bf578063c7e40ab611610079578063c7e40ab61461028e578063ce1c241e14610297578063d363cfa3146102a0578063ebc58d32146102bf578063f2fde38b146102d2578063fc4af551146102e5575f5ffd5b80638da5cb5b1461021e57806392e49aa01461022e5780639ecf9fc614610241578063b73ee90b14610254578063bee9e8ad14610268578063c0e602081461027b575f5ffd5b80634e647a08116101105780634e647a08146101ce5780635b57578a146101d05780636c65a471146101d8578063715018a6146101f0578063804786f1146101f857806385533be61461020b575f5ffd5b8063034cf04e1461014c5780631988d8771461016857806329db61f2146101935780632f2fd57b1461019c5780633131f1ce146101af575b5f5ffd5b61015560095481565b6040519081526020015b60405180910390f35b61017b610176366004610b68565b6102f8565b6040516001600160a01b03909116815260200161015f565b61015560045481565b60025461017b906001600160a01b031681565b6101556101bd366004610b7f565b60036020525f908152604090205481565b005b6101ce610322565b6101e06106a7565b604051901515815260200161015f565b6101ce610710565b610155610206366004610b68565b610721565b6101e0610219366004610bac565b610740565b5f546001600160a01b031661017b565b6101ce61023c366004610bac565b610889565b60015461017b906001600160a01b031681565b6002546101e090600160a01b900460ff1681565b6101ce610276366004610bac565b6108c3565b610155610289366004610b68565b61097d565b61015560065481565b61015560075481565b6101556102ae366004610b7f565b60056020525f908152604090205481565b6101e06102cd366004610bac565b61098c565b6101ce6102e0366004610b7f565b610aa1565b6101556102f3366004610b68565b610ade565b60088181548110610307575f80fd5b5f918252602090912001546001600160a01b0316905081565b565b6004546006541461035e5760065460048054604051631a35dd2f60e31b8152610355939201918252602082015260400190565b60405180910390fd5b600b60035f60085f8154811061037657610376610c1e565b5f9182526020808320909101546001600160a01b0316835282810193909352604090910181205483546001818101865594835292909120909101555b6008548110156104b2575f600882815481106103d0576103d0610c1e565b5f9182526020808320909101546001600160a01b039081168084526003909252604090922054600a5491935091600b911663805be31d82610412600188610c46565b8154811061042257610422610c1e565b905f5260205f200154846040518363ffffffff1660e01b8152600401610452929190918252602082015260400190565b602060405180830381865afa15801561046d573d5f5f3e3d5ffd5b505050506040513d601f19601f820116820180604052508101906104919190610c5f565b8154600181810184555f938452602090932001559290920191506103b29050565b505f5b600854811015610591576008545f906001906104d2908490610c46565b6104dc9190610c46565b600a54600b8054929350600c926001600160a01b0390921691630366956e91908590811061050c5761050c610c1e565b905f5260205f2001546040518263ffffffff1660e01b815260040161053391815260200190565b602060405180830381865afa15801561054e573d5f5f3e3d5ffd5b505050506040513d601f19601f820116820180604052508101906105729190610c5f565b8154600181810184555f938452602090932001559190910190506104b5565b505f5b60085481101561066c57600a54600b8054600d926001600160a01b03169163805be31d91859081106105c8576105c8610c1e565b905f5260205f200154600c85815481106105e4576105e4610c1e565b905f5260205f2001546040518363ffffffff1660e01b8152600401610613929190918252602082015260400190565b602060405180830381865afa15801561062e573d5f5f3e3d5ffd5b505050506040513d601f19601f820116820180604052508101906106529190610c5f565b8154600181810184555f9384526020909320015501610594565b507ffeca226021d6e60f7432aaad1bac7105185f26e93e170f2242d756de3d4ef95e600d60405161069d9190610c76565b60405180910390a1565b5f60075460045410156106db5760048054600754604051631a35dd2f60e31b81526103559301918252602082015260400190565b600454600654146106ff5760405163698a440760e01b815260040160405180910390fd5b50600254600160a01b900460ff1690565b610718610aed565b6103205f610b19565b600c8181548110610730575f80fd5b5f91825260209091200154905081565b5f600454600654106107655760405163beda529960e01b815260040160405180910390fd5b6040805160018082528183019092525f916020808301908036833701905050905082815f8151811061079957610799610c1e565b6020908102919091010152600254604051633a94343960e21b81525f916001600160a01b03169063ea50d0e4906107d890899089908790600401610cbb565b602060405180830381865afa1580156107f3573d5f5f3e3d5ffd5b505050506040513d601f19601f820116820180604052508101906108179190610d33565b9050806108395760405163dcd5e6cd60e01b8152336004820152602401610355565b60405181151581527f329f535c7a5fc722b1d9afbc9c9e751cc20360f8153125977bbd03a91b04480f9060200160405180910390a1335f9081526005602052604090208490559150509392505050565b610894838383610740565b156108be57335f90815260056020526040812082905560068054916108b883610d52565b91905055505b505050565b6108ce83838361098c565b156108be57335f90815260036020526040812082905560048054916108f283610d52565b9091555050600880546001810182555f919091527ff3f7a9fe364faab93b216da50a3214154f22a0a2b415b23a84c8169e8b636ee30180546001600160a01b031916339081179091556004546040805192835260208301919091527fd0d43ef28709157183dd781abc0449f405db8b4182b2f99c72eeaa9816ce04dc910160405180910390a1505050565b600b8181548110610730575f80fd5b5f600754600454106109bf576004805460075460405163c3c7242560e01b81526103559301918252602082015260400190565b604080515f8082526020820192839052600154633a94343960e21b90935290916001600160a01b031663ea50d0e46109fc88888660248101610cbb565b602060405180830381865afa158015610a17573d5f5f3e3d5ffd5b505050506040513d601f19601f82011682018060405250810190610a3b9190610d33565b90508015610a7d5760405181151581527f505ad7e6904cb0d1b53ad7152f1363565892d77d6bbae25ae333559e9e5584869060200160405180910390a1610a98565b6040516360c1a2bb60e11b8152336004820152602401610355565b95945050505050565b610aa9610aed565b6001600160a01b038116610ad257604051631e4fbdf760e01b81525f6004820152602401610355565b610adb81610b19565b50565b600d8181548110610730575f80fd5b5f546001600160a01b031633146103205760405163118cdaa760e01b8152336004820152602401610355565b5f80546001600160a01b038381166001600160a01b0319831681178455604051919092169283917f8be0079c531659141344cd1fd0a4f28419497f9722a3daafe3b4186f6b6457e09190a35050565b5f60208284031215610b78575f5ffd5b5035919050565b5f60208284031215610b8f575f5ffd5b81356001600160a01b0381168114610ba5575f5ffd5b9392505050565b5f5f5f60408486031215610bbe575f5ffd5b833567ffffffffffffffff811115610bd4575f5ffd5b8401601f81018613610be4575f5ffd5b803567ffffffffffffffff811115610bfa575f5ffd5b866020828401011115610c0b575f5ffd5b6020918201979096509401359392505050565b634e487b7160e01b5f52603260045260245ffd5b634e487b7160e01b5f52601160045260245ffd5b81810381811115610c5957610c59610c32565b92915050565b5f60208284031215610c6f575f5ffd5b5051919050565b602080825282548282018190525f848152918220906040840190835b81811015610cb0578354835260019384019360209093019201610c92565b509095945050505050565b60408152826040820152828460608301375f606084830101525f601f19601f85011682016060810160608483030160208501528085518083526080840191506020870193505f92505b80831015610d275783518252602082019150602084019350600183019250610d04565b50979650505050505050565b5f60208284031215610d43575f5ffd5b81518015158114610ba5575f5ffd5b5f60018201610d6357610d63610c32565b506001019056fea2646970667358221220ec9a20df4ae8970b482f0c3b01f55375e5f651ed3c97551d13fef0c0a62938ed64736f6c634300081d003360c060405234801561000f575f5ffd5b5060405161060038038061060083398101604081905261002e916100de565b5f81116100825760405162461bcd60e51b815260206004820152601360248201527f4d6f64756c7573206d757374206265203e20300000000000000000000000000060448201526064015b60405180910390fd5b5f8211801561009057508082105b6100d05760405162461bcd60e51b815260206004820152601160248201527024b73b30b634b21033b2b732b930ba37b960791b6044820152606401610079565b60809190915260a052610100565b5f5f604083850312156100ef575f5ffd5b505080516020909101519092909150565b60805160a05161049a6101665f395f818161013901528181610168015281816101d701528181610204015281816102350152818161026001528181610290015281816102de0152818161031b0152818161035d015261039101525f60ec015261049a5ff3fe608060405234801561000f575f5ffd5b5060043610610085575f3560e01c80637afa1eed116100585780637afa1eed146100e7578063805be31d1461010e578063e01140b814610121578063ff4b040014610134575f5ffd5b80630366956e1461008957806341692bbb146100ae5780636eeb86dd146100c157806376f26c26146100d4575b5f5ffd5b61009c6100973660046103d4565b61015b565b60405190815260200160405180910390f35b61009c6100bc3660046103eb565b610201565b61009c6100cf3660046103eb565b61028d565b61009c6100e23660046103eb565b6102c6565b61009c7f000000000000000000000000000000000000000000000000000000000000000081565b61009c61011c3660046103eb565b6102db565b61009c61012f3660046103eb565b610314565b61009c7f000000000000000000000000000000000000000000000000000000000000000081565b5f811580159061018a57507f000000000000000000000000000000000000000000000000000000000000000082105b6101cc5760405162461bcd60e51b815260206004820152600f60248201526e496e76616c696420696e766572736560881b604482015260640160405180910390fd5b6101fb8261012f60027f000000000000000000000000000000000000000000000000000000000000000061040b565b92915050565b5f7f0000000000000000000000000000000000000000000000000000000000000000806102305761023061042a565b61025a7f00000000000000000000000000000000000000000000000000000000000000008461043e565b610284907f000000000000000000000000000000000000000000000000000000000000000061040b565b84089392505050565b5f7f0000000000000000000000000000000000000000000000000000000000000000806102bc576102bc61042a565b8284089392505050565b5f6102d48361011c8461015b565b9392505050565b5f7f00000000000000000000000000000000000000000000000000000000000000008061030a5761030a61042a565b8284099392505050565b60016103407f00000000000000000000000000000000000000000000000000000000000000008461043e565b92505b81156101fb5761035460028361043e565b60010361038f577f0000000000000000000000000000000000000000000000000000000000000000806103895761038961042a565b83820990505b7f0000000000000000000000000000000000000000000000000000000000000000806103bd576103bd61042a565b83840992506103cd600283610451565b9150610343565b5f602082840312156103e4575f5ffd5b5035919050565b5f5f604083850312156103fc575f5ffd5b50508035926020909101359150565b818103818111156101fb57634e487b7160e01b5f52601160045260245ffd5b634e487b7160e01b5f52601260045260245ffd5b5f8261044c5761044c61042a565b500690565b5f8261045f5761045f61042a565b50049056fea26469706673582212206cb9367f0533474d6a68226c528dca3b6b60f326fa32aaedd88c271155fdc3aa64736f6c634300081d0033","linkReferences":{}},"methodIdentifiers":{"enscribeVoter(bytes,bytes32)":"bee9e8ad","evaluateDecryptionValues()":"5b57578a","evaluates_finalVote()":"4e647a08","gets_finalVote()":"6c65a471","owner()":"8da5cb5b","renounceOwnership()":"715018a6","s_aggregated_division(uint256)":"804786f1","s_aggregated_multiplication(uint256)":"c0e60208","s_decryption_shares(uint256)":"fc4af551","s_encrypted_random_values(address)":"3131f1ce","s_encrypted_votes(address)":"d363cfa3","s_enscribedVoters()":"29db61f2","s_finalVote()":"b73ee90b","s_generator()":"034cf04e","s_inscriptionVerifier()":"9ecf9fc6","s_maximalNumberOfVoters()":"ce1c241e","s_votedVoters()":"c7e40ab6","s_voters(uint256)":"1988d877","s_votingVerifier()":"2f2fd57b","transferOwnership(address)":"f2fde38b","verifyInscription(bytes,bytes32)":"ebc58d32","verifyVoting(bytes,bytes32)":"85533be6","vote(bytes,bytes32)":"92e49aa0"},"id":23}