{"abi":[{"type":"constructor","inputs":[{"name":"_inscriptionVerifier","type":"address","internalType":"contract IVerifier"},{"name":"_votingVerifier","type":"address","internalType":"contract IVerifier"},{"name":"_numberOfVoters","type":"uint256","internalType":"uint256"},{"name":"generator","type":"bytes32","internalType":"bytes32"}],"stateMutability":"nonpayable"},{"type":"function","name":"enscribeVoter","inputs":[{"name":"proof","type":"bytes","internalType":"bytes"},{"name":"encrypted_random_value","type":"bytes32","internalType":"bytes32"}],"outputs":[],"stateMutability":"nonpayable"},{"type":"function","name":"evaluateFinalVote","inputs":[],"outputs":[],"stateMutability":"nonpayable"},{"type":"function","name":"getDecryptionValueByVoterIndex","inputs":[{"name":"voterIndex","type":"uint256","internalType":"uint256"}],"outputs":[{"name":"","type":"uint256","internalType":"uint256"}],"stateMutability":"view"},{"type":"function","name":"get_finalVote","inputs":[],"outputs":[{"name":"","type":"bool","internalType":"bool"}],"stateMutability":"view"},{"type":"function","name":"owner","inputs":[],"outputs":[{"name":"","type":"address","internalType":"address"}],"stateMutability":"view"},{"type":"function","name":"renounceOwnership","inputs":[],"outputs":[],"stateMutability":"nonpayable"},{"type":"function","name":"s_aggregated_division","inputs":[{"name":"","type":"uint256","internalType":"uint256"}],"outputs":[{"name":"","type":"uint256","internalType":"uint256"}],"stateMutability":"view"},{"type":"function","name":"s_aggregated_multiplication","inputs":[{"name":"","type":"uint256","internalType":"uint256"}],"outputs":[{"name":"","type":"uint256","internalType":"uint256"}],"stateMutability":"view"},{"type":"function","name":"s_decryption_shares","inputs":[{"name":"","type":"uint256","internalType":"uint256"}],"outputs":[{"name":"","type":"uint256","internalType":"uint256"}],"stateMutability":"view"},{"type":"function","name":"s_encrypted_random_values","inputs":[{"name":"","type":"address","internalType":"address"}],"outputs":[{"name":"","type":"bytes32","internalType":"bytes32"}],"stateMutability":"view"},{"type":"function","name":"s_encrypted_votes","inputs":[{"name":"","type":"uint256","internalType":"uint256"}],"outputs":[{"name":"","type":"bytes32","internalType":"bytes32"}],"stateMutability":"view"},{"type":"function","name":"s_enscribedVoters","inputs":[],"outputs":[{"name":"","type":"uint256","internalType":"uint256"}],"stateMutability":"view"},{"type":"function","name":"s_finalVote","inputs":[],"outputs":[{"name":"","type":"bool","internalType":"bool"}],"stateMutability":"view"},{"type":"function","name":"s_generator","inputs":[],"outputs":[{"name":"","type":"bytes32","internalType":"bytes32"}],"stateMutability":"view"},{"type":"function","name":"s_inscriptionVerifier","inputs":[],"outputs":[{"name":"","type":"address","internalType":"contract IVerifier"}],"stateMutability":"view"},{"type":"function","name":"s_maximalNumberOfVoters","inputs":[],"outputs":[{"name":"","type":"uint256","internalType":"uint256"}],"stateMutability":"view"},{"type":"function","name":"s_votedVoters","inputs":[],"outputs":[{"name":"","type":"uint256","internalType":"uint256"}],"stateMutability":"view"},{"type":"function","name":"s_voters","inputs":[{"name":"","type":"uint256","internalType":"uint256"}],"outputs":[{"name":"","type":"address","internalType":"address"}],"stateMutability":"view"},{"type":"function","name":"s_votingVerifier","inputs":[],"outputs":[{"name":"","type":"address","internalType":"contract IVerifier"}],"stateMutability":"view"},{"type":"function","name":"s_yesVotes","inputs":[],"outputs":[{"name":"","type":"uint256","internalType":"uint256"}],"stateMutability":"view"},{"type":"function","name":"transferOwnership","inputs":[{"name":"newOwner","type":"address","internalType":"address"}],"outputs":[],"stateMutability":"nonpayable"},{"type":"function","name":"vote","inputs":[{"name":"proof","type":"bytes","internalType":"bytes"},{"name":"encrypted_vote","type":"bytes32","internalType":"bytes32"}],"outputs":[],"stateMutability":"nonpayable"},{"type":"event","name":"Inscription__ProofSucceeded","inputs":[{"name":"result","type":"bool","indexed":false,"internalType":"bool"}],"anonymous":false},{"type":"event","name":"Inscription__VoterEnscribed","inputs":[{"name":"voter","type":"address","indexed":false,"internalType":"address"},{"name":"voterIndex","type":"uint256","indexed":false,"internalType":"uint256"}],"anonymous":false},{"type":"event","name":"OwnershipTransferred","inputs":[{"name":"previousOwner","type":"address","indexed":true,"internalType":"address"},{"name":"newOwner","type":"address","indexed":true,"internalType":"address"}],"anonymous":false},{"type":"event","name":"Voting__ProofSucceeded","inputs":[{"name":"result","type":"bool","indexed":false,"internalType":"bool"}],"anonymous":false},{"type":"event","name":"Voting__Starting","inputs":[{"name":"","type":"uint256[]","indexed":false,"internalType":"uint256[]"}],"anonymous":false},{"type":"error","name":"Constructor__InvalidDeadline","inputs":[{"name":"currentTime","type":"uint256","internalType":"uint256"},{"name":"providedDeadline","type":"uint256","internalType":"uint256"}]},{"type":"error","name":"Inscription__Closed","inputs":[{"name":"currentTime","type":"uint256","internalType":"uint256"},{"name":"deadline","type":"uint256","internalType":"uint256"}]},{"type":"error","name":"Inscription__InvalidProof","inputs":[{"name":"voter","type":"address","internalType":"address"}]},{"type":"error","name":"Inscription__IsNotClosedYet","inputs":[{"name":"enscribedVoters","type":"uint256","internalType":"uint256"},{"name":"MaximalVoters","type":"uint256","internalType":"uint256"}]},{"type":"error","name":"OwnableInvalidOwner","inputs":[{"name":"owner","type":"address","internalType":"address"}]},{"type":"error","name":"OwnableUnauthorizedAccount","inputs":[{"name":"account","type":"address","internalType":"address"}]},{"type":"error","name":"Voter__InvalidIndex","inputs":[{"name":"voterIndex","type":"uint256","internalType":"uint256"},{"name":"maximalNumberOfVoters","type":"uint256","internalType":"uint256"}]},{"type":"error","name":"Voting__FailedToDecryptFinalVote","inputs":[]},{"type":"error","name":"Voting__InvalidProof","inputs":[{"name":"voter","type":"address","internalType":"address"}]},{"type":"error","name":"Voting__IsClosed","inputs":[]},{"type":"error","name":"Voting__IsNotFinalized","inputs":[]}],"bytecode":{"object":"0x60806040525f6005555f600755348015610017575f5ffd5b506040516116ae3803806116ae83398101604081905261003691610191565b338061005b57604051631e4fbdf760e01b81525f600482015260240160405180910390fd5b6100648161011e565b50600180546001600160a01b038087166001600160a01b03199283161790925560028054928616929091169190911790556008829055600a81905560405181907f30644e72e131a029b85045b68181585d2833e84879b9709143e1f593f0000001906100cf9061016d565b9182526020820152604001604051809103905ff0801580156100f3573d5f5f3e3d5ffd5b50600b80546001600160a01b0319166001600160a01b0392909216919091179055506101d692505050565b5f80546001600160a01b038381166001600160a01b0319831681178455604051919092169283917f8be0079c531659141344cd1fd0a4f28419497f9722a3daafe3b4186f6b6457e09190a35050565b610600806110ae83390190565b6001600160a01b038116811461018e575f5ffd5b50565b5f5f5f5f608085870312156101a4575f5ffd5b84516101af8161017a565b60208601519094506101c08161017a565b6040860151606090960151949790965092505050565b610ecb806101e35f395ff3fe608060405234801561000f575f5ffd5b506004361061013d575f3560e01c80639ecf9fc6116100b4578063c9e5518f11610079578063c9e5518f14610285578063ce1c241e14610298578063d8b1eefe146102a1578063f2fde38b146102a9578063fb33b6b4146102bc578063fc4af551146102c4575f5ffd5b80639ecf9fc61461021f578063b73ee90b14610232578063bee9e8ad14610256578063c0e6020814610269578063c7e40ab61461027c575f5ffd5b806369e2be071161010557806369e2be07146101c35780636d0da3eb146101d6578063715018a6146101df578063804786f1146101e95780638da5cb5b146101fc57806392e49aa01461020c575f5ffd5b8063034cf04e146101415780631988d8771461015d57806329db61f2146101885780632f2fd57b146101915780633131f1ce146101a4575b5f5ffd5b61014a600a5481565b6040519081526020015b60405180910390f35b61017061016b366004610c61565b6102d7565b6040516001600160a01b039091168152602001610154565b61014a60055481565b600254610170906001600160a01b031681565b61014a6101b2366004610c78565b60046020525f908152604090205481565b61014a6101d1366004610c61565b6102ff565b61014a60035481565b6101e761031e565b005b61014a6101f7366004610c61565b610331565b5f546001600160a01b0316610170565b6101e761021a366004610ca5565b610340565b600154610170906001600160a01b031681565b60025461024690600160a01b900460ff1681565b6040519015158152602001610154565b6101e7610264366004610ca5565b6103a6565b61014a610277366004610c61565b610473565b61014a60075481565b61014a610293366004610c61565b610482565b61014a60085481565b6101e761050f565b6101e76102b7366004610c78565b6105cd565b610246610607565b61014a6102d2366004610c61565b610671565b600981815481106102e6575f80fd5b5f918252602090912001546001600160a01b0316905081565b6006818154811061030e575f80fd5b5f91825260209091200154905081565b610326610680565b61032f5f6106ac565b565b600d818154811061030e575f80fd5b60068054600181810183555f9283527ff652222313e28459528d920b65115c16c04f3efc82aaedc97be59f3f377c0d3f9091018390556007805491929091610389908490610d2b565b9091555050600754600554036103a1576103a161050f565b505050565b6103b18383836106fb565b156103a157335f90815260046020526040812082905560058054600192906103da908490610d2b565b9091555050600980546001810182555f919091527f6e1540171b6c0c960b71a7020d9f60077f6af931a8bbf590da0223dacf75c7af0180546001600160a01b031916339081179091556005546040805192835260208301919091527fd0d43ef28709157183dd781abc0449f405db8b4182b2f99c72eeaa9816ce04dc910160405180910390a1600854600554036103a1576103a1610811565b600c818154811061030e575f80fd5b5f60085460055410156104bc57600554600854604051634c7424ed60e11b8152600481019290925260248201526044015b60405180910390fd5b60085482106104ec5760085460405163d541385760e01b81526104b3918491600401918252602082015260400190565b600e82815481106104ff576104ff610d44565b905f5260205f2001549050919050565b60015f5b6008548110156105c057600b54600680546001600160a01b039092169163805be31d9185918590811061054857610548610d44565b5f918252602090912001546040516001600160e01b031960e085901b16815260048101929092526024820152604401602060405180830381865afa158015610592573d5f5f3e3d5ffd5b505050506040513d601f19601f820116820180604052508101906105b69190610d58565b9150600101610513565b506105ca81610b79565b50565b6105d5610680565b6001600160a01b0381166105fe57604051631e4fbdf760e01b81525f60048201526024016104b3565b6105ca816106ac565b5f600854600554101561063c57600554600854604051634c7424ed60e11b8152600481019290925260248201526044016104b3565b600554600754146106605760405163698a440760e01b815260040160405180910390fd5b50600254600160a01b900460ff1690565b600e818154811061030e575f80fd5b5f546001600160a01b0316331461032f5760405163118cdaa760e01b81523360048201526024016104b3565b5f80546001600160a01b038381166001600160a01b0319831681178455604051919092169283917f8be0079c531659141344cd1fd0a4f28419497f9722a3daafe3b4186f6b6457e09190a35050565b5f6008546005541061072f5760055460085460405163c3c7242560e01b8152600481019290925260248201526044016104b3565b604080515f8082526020820192839052600154633a94343960e21b90935290916001600160a01b031663ea50d0e461076c88888660248101610d6f565b602060405180830381865afa158015610787573d5f5f3e3d5ffd5b505050506040513d601f19601f820116820180604052508101906107ab9190610de7565b905080156107ed5760405181151581527f505ad7e6904cb0d1b53ad7152f1363565892d77d6bbae25ae333559e9e5584869060200160405180910390a1610808565b6040516360c1a2bb60e11b81523360048201526024016104b3565b95945050505050565b6005546008541461084457600754600554604051634c7424ed60e11b8152600481019290925260248201526044016104b3565b600c8054600181810183555f929092527fdf6966c971051c3d54ec59162606531493a51404a002842f56009d7e5cf4a8c7018190555b600954811015610984575f6009610892600184610e06565b815481106108a2576108a2610d44565b5f9182526020808320909101546001600160a01b039081168084526004909252604090922054600b5491935091600c911663805be31d826108e4600188610e06565b815481106108f4576108f4610d44565b905f5260205f200154846040518363ffffffff1660e01b8152600401610924929190918252602082015260400190565b602060405180830381865afa15801561093f573d5f5f3e3d5ffd5b505050506040513d601f19601f820116820180604052508101906109639190610d58565b8154600181810184555f9384526020909320015592909201915061087a9050565b505f5b600954811015610a63576009545f906001906109a4908490610e06565b6109ae9190610e06565b600b54600c8054929350600d926001600160a01b0390921691630366956e9190859081106109de576109de610d44565b905f5260205f2001546040518263ffffffff1660e01b8152600401610a0591815260200190565b602060405180830381865afa158015610a20573d5f5f3e3d5ffd5b505050506040513d601f19601f82011682018060405250810190610a449190610d58565b8154600181810184555f93845260209093200155919091019050610987565b505f5b600954811015610b3e57600b54600c8054600e926001600160a01b03169163805be31d9185908110610a9a57610a9a610d44565b905f5260205f200154600d8581548110610ab657610ab6610d44565b905f5260205f2001546040518363ffffffff1660e01b8152600401610ae5929190918252602082015260400190565b602060405180830381865afa158015610b00573d5f5f3e3d5ffd5b505050506040513d601f19601f82011682018060405250810190610b249190610d58565b8154600181810184555f9384526020909320015501610a66565b507ffeca226021d6e60f7432aaad1bac7105185f26e93e170f2242d756de3d4ef95e600e604051610b6f9190610e19565b60405180910390a1565b60015f5b6008548111610c4757828203610bbd576003819055600854610ba190600290610e5e565b6002805460ff60a01b191691909211600160a01b021790555050565b600b54600a5460405163805be31d60e01b81526004810185905260248101919091526001600160a01b039091169063805be31d90604401602060405180830381865afa158015610c0f573d5f5f3e3d5ffd5b505050506040513d601f19601f82011682018060405250810190610c339190610d58565b915080610c3f81610e7d565b915050610b7d565b5060405163647508e560e11b815260040160405180910390fd5b5f60208284031215610c71575f5ffd5b5035919050565b5f60208284031215610c88575f5ffd5b81356001600160a01b0381168114610c9e575f5ffd5b9392505050565b5f5f5f60408486031215610cb7575f5ffd5b833567ffffffffffffffff811115610ccd575f5ffd5b8401601f81018613610cdd575f5ffd5b803567ffffffffffffffff811115610cf3575f5ffd5b866020828401011115610d04575f5ffd5b6020918201979096509401359392505050565b634e487b7160e01b5f52601160045260245ffd5b80820180821115610d3e57610d3e610d17565b92915050565b634e487b7160e01b5f52603260045260245ffd5b5f60208284031215610d68575f5ffd5b5051919050565b60408152826040820152828460608301375f606084830101525f601f19601f85011682016060810160608483030160208501528085518083526080840191506020870193505f92505b80831015610ddb5783518252602082019150602084019350600183019250610db8565b50979650505050505050565b5f60208284031215610df7575f5ffd5b81518015158114610c9e575f5ffd5b81810381811115610d3e57610d3e610d17565b602080825282548282018190525f848152918220906040840190835b81811015610e53578354835260019384019360209093019201610e35565b509095945050505050565b5f82610e7857634e487b7160e01b5f52601260045260245ffd5b500490565b5f60018201610e8e57610e8e610d17565b506001019056fea264697066735822122052f02e634a591aa1dc9efef9e2b45fbc9596642fbaa0f2d6b02fd0354d2216c864736f6c634300081d003360c060405234801561000f575f5ffd5b5060405161060038038061060083398101604081905261002e916100de565b5f81116100825760405162461bcd60e51b815260206004820152601360248201527f4d6f64756c7573206d757374206265203e20300000000000000000000000000060448201526064015b60405180910390fd5b5f8211801561009057508082105b6100d05760405162461bcd60e51b815260206004820152601160248201527024b73b30b634b21033b2b732b930ba37b960791b6044820152606401610079565b60809190915260a052610100565b5f5f604083850312156100ef575f5ffd5b505080516020909101519092909150565b60805160a05161049a6101665f395f818161013901528181610168015281816101d701528181610204015281816102350152818161026001528181610290015281816102de0152818161031b0152818161035d015261039101525f60ec015261049a5ff3fe608060405234801561000f575f5ffd5b5060043610610085575f3560e01c80637afa1eed116100585780637afa1eed146100e7578063805be31d1461010e578063e01140b814610121578063ff4b040014610134575f5ffd5b80630366956e1461008957806341692bbb146100ae5780636eeb86dd146100c157806376f26c26146100d4575b5f5ffd5b61009c6100973660046103d4565b61015b565b60405190815260200160405180910390f35b61009c6100bc3660046103eb565b610201565b61009c6100cf3660046103eb565b61028d565b61009c6100e23660046103eb565b6102c6565b61009c7f000000000000000000000000000000000000000000000000000000000000000081565b61009c61011c3660046103eb565b6102db565b61009c61012f3660046103eb565b610314565b61009c7f000000000000000000000000000000000000000000000000000000000000000081565b5f811580159061018a57507f000000000000000000000000000000000000000000000000000000000000000082105b6101cc5760405162461bcd60e51b815260206004820152600f60248201526e496e76616c696420696e766572736560881b604482015260640160405180910390fd5b6101fb8261012f60027f000000000000000000000000000000000000000000000000000000000000000061040b565b92915050565b5f7f0000000000000000000000000000000000000000000000000000000000000000806102305761023061042a565b61025a7f00000000000000000000000000000000000000000000000000000000000000008461043e565b610284907f000000000000000000000000000000000000000000000000000000000000000061040b565b84089392505050565b5f7f0000000000000000000000000000000000000000000000000000000000000000806102bc576102bc61042a565b8284089392505050565b5f6102d48361011c8461015b565b9392505050565b5f7f00000000000000000000000000000000000000000000000000000000000000008061030a5761030a61042a565b8284099392505050565b60016103407f00000000000000000000000000000000000000000000000000000000000000008461043e565b92505b81156101fb5761035460028361043e565b60010361038f577f0000000000000000000000000000000000000000000000000000000000000000806103895761038961042a565b83820990505b7f0000000000000000000000000000000000000000000000000000000000000000806103bd576103bd61042a565b83840992506103cd600283610451565b9150610343565b5f602082840312156103e4575f5ffd5b5035919050565b5f5f604083850312156103fc575f5ffd5b50508035926020909101359150565b818103818111156101fb57634e487b7160e01b5f52601160045260245ffd5b634e487b7160e01b5f52601260045260245ffd5b5f8261044c5761044c61042a565b500690565b5f8261045f5761045f61042a565b50049056fea26469706673582212206cb9367f0533474d6a68226c528dca3b6b60f326fa32aaedd88c271155fdc3aa64736f6c634300081d0033","linkReferences":{}},"methodIdentifiers":{"enscribeVoter(bytes,bytes32)":"bee9e8ad","evaluateFinalVote()":"d8b1eefe","getDecryptionValueByVoterIndex(uint256)":"c9e5518f","get_finalVote()":"fb33b6b4","owner()":"8da5cb5b","renounceOwnership()":"715018a6","s_aggregated_division(uint256)":"804786f1","s_aggregated_multiplication(uint256)":"c0e60208","s_decryption_shares(uint256)":"fc4af551","s_encrypted_random_values(address)":"3131f1ce","s_encrypted_votes(uint256)":"69e2be07","s_enscribedVoters()":"29db61f2","s_finalVote()":"b73ee90b","s_generator()":"034cf04e","s_inscriptionVerifier()":"9ecf9fc6","s_maximalNumberOfVoters()":"ce1c241e","s_votedVoters()":"c7e40ab6","s_voters(uint256)":"1988d877","s_votingVerifier()":"2f2fd57b","s_yesVotes()":"6d0da3eb","transferOwnership(address)":"f2fde38b","vote(bytes,bytes32)":"92e49aa0"},"id":23}