{"abi":[{"type":"constructor","inputs":[{"name":"_verifier","type":"address","internalType":"contract IVerifier"}],"stateMutability":"nonpayable"},{"type":"function","name":"MIN_DURATION","inputs":[],"outputs":[{"name":"","type":"uint256","internalType":"uint256"}],"stateMutability":"view"},{"type":"function","name":"balanceOf","inputs":[{"name":"account","type":"address","internalType":"address"},{"name":"id","type":"uint256","internalType":"uint256"}],"outputs":[{"name":"","type":"uint256","internalType":"uint256"}],"stateMutability":"view"},{"type":"function","name":"balanceOfBatch","inputs":[{"name":"accounts","type":"address[]","internalType":"address[]"},{"name":"ids","type":"uint256[]","internalType":"uint256[]"}],"outputs":[{"name":"","type":"uint256[]","internalType":"uint256[]"}],"stateMutability":"view"},{"type":"function","name":"contractURI","inputs":[],"outputs":[{"name":"","type":"string","internalType":"string"}],"stateMutability":"pure"},{"type":"function","name":"getCurrentPanagram","inputs":[],"outputs":[{"name":"","type":"bytes32","internalType":"bytes32"}],"stateMutability":"view"},{"type":"function","name":"getCurrentRoundStatus","inputs":[],"outputs":[{"name":"","type":"address","internalType":"address"}],"stateMutability":"view"},{"type":"function","name":"isApprovedForAll","inputs":[{"name":"account","type":"address","internalType":"address"},{"name":"operator","type":"address","internalType":"address"}],"outputs":[{"name":"","type":"bool","internalType":"bool"}],"stateMutability":"view"},{"type":"function","name":"makeGuess","inputs":[{"name":"proof","type":"bytes","internalType":"bytes"}],"outputs":[{"name":"","type":"bool","internalType":"bool"}],"stateMutability":"nonpayable"},{"type":"function","name":"newRound","inputs":[{"name":"_correctAnswer","type":"bytes32","internalType":"bytes32"}],"outputs":[],"stateMutability":"nonpayable"},{"type":"function","name":"owner","inputs":[],"outputs":[{"name":"","type":"address","internalType":"address"}],"stateMutability":"view"},{"type":"function","name":"renounceOwnership","inputs":[],"outputs":[],"stateMutability":"nonpayable"},{"type":"function","name":"s_answer","inputs":[],"outputs":[{"name":"","type":"bytes32","internalType":"bytes32"}],"stateMutability":"view"},{"type":"function","name":"s_currentRound","inputs":[],"outputs":[{"name":"","type":"uint256","internalType":"uint256"}],"stateMutability":"view"},{"type":"function","name":"s_currentRoundWinner","inputs":[],"outputs":[{"name":"","type":"address","internalType":"address"}],"stateMutability":"view"},{"type":"function","name":"s_lastCorrectGuessRound","inputs":[{"name":"","type":"address","internalType":"address"}],"outputs":[{"name":"","type":"uint256","internalType":"uint256"}],"stateMutability":"view"},{"type":"function","name":"s_roundStartTime","inputs":[],"outputs":[{"name":"","type":"uint256","internalType":"uint256"}],"stateMutability":"view"},{"type":"function","name":"s_verifier","inputs":[],"outputs":[{"name":"","type":"address","internalType":"contract IVerifier"}],"stateMutability":"view"},{"type":"function","name":"s_winnerWins","inputs":[{"name":"","type":"address","internalType":"address"}],"outputs":[{"name":"","type":"uint256","internalType":"uint256"}],"stateMutability":"view"},{"type":"function","name":"safeBatchTransferFrom","inputs":[{"name":"from","type":"address","internalType":"address"},{"name":"to","type":"address","internalType":"address"},{"name":"ids","type":"uint256[]","internalType":"uint256[]"},{"name":"values","type":"uint256[]","internalType":"uint256[]"},{"name":"data","type":"bytes","internalType":"bytes"}],"outputs":[],"stateMutability":"nonpayable"},{"type":"function","name":"safeTransferFrom","inputs":[{"name":"from","type":"address","internalType":"address"},{"name":"to","type":"address","internalType":"address"},{"name":"id","type":"uint256","internalType":"uint256"},{"name":"value","type":"uint256","internalType":"uint256"},{"name":"data","type":"bytes","internalType":"bytes"}],"outputs":[],"stateMutability":"nonpayable"},{"type":"function","name":"setApprovalForAll","inputs":[{"name":"operator","type":"address","internalType":"address"},{"name":"approved","type":"bool","internalType":"bool"}],"outputs":[],"stateMutability":"nonpayable"},{"type":"function","name":"setVerifier","inputs":[{"name":"_verifier","type":"address","internalType":"contract IVerifier"}],"outputs":[],"stateMutability":"nonpayable"},{"type":"function","name":"supportsInterface","inputs":[{"name":"interfaceId","type":"bytes4","internalType":"bytes4"}],"outputs":[{"name":"","type":"bool","internalType":"bool"}],"stateMutability":"view"},{"type":"function","name":"transferOwnership","inputs":[{"name":"newOwner","type":"address","internalType":"address"}],"outputs":[],"stateMutability":"nonpayable"},{"type":"function","name":"uri","inputs":[{"name":"","type":"uint256","internalType":"uint256"}],"outputs":[{"name":"","type":"string","internalType":"string"}],"stateMutability":"view"},{"type":"event","name":"ApprovalForAll","inputs":[{"name":"account","type":"address","indexed":true,"internalType":"address"},{"name":"operator","type":"address","indexed":true,"internalType":"address"},{"name":"approved","type":"bool","indexed":false,"internalType":"bool"}],"anonymous":false},{"type":"event","name":"OwnershipTransferred","inputs":[{"name":"previousOwner","type":"address","indexed":true,"internalType":"address"},{"name":"newOwner","type":"address","indexed":true,"internalType":"address"}],"anonymous":false},{"type":"event","name":"Panagram__NFTMinted","inputs":[{"name":"winner","type":"address","indexed":false,"internalType":"address"},{"name":"tokenId","type":"uint256","indexed":false,"internalType":"uint256"}],"anonymous":false},{"type":"event","name":"Panagram__ProofSucceeded","inputs":[{"name":"result","type":"bool","indexed":false,"internalType":"bool"}],"anonymous":false},{"type":"event","name":"Panagram__RoundStarted","inputs":[],"anonymous":false},{"type":"event","name":"Panagram__VerifierUpdated","inputs":[{"name":"verifier","type":"address","indexed":false,"internalType":"contract IVerifier"}],"anonymous":false},{"type":"event","name":"TransferBatch","inputs":[{"name":"operator","type":"address","indexed":true,"internalType":"address"},{"name":"from","type":"address","indexed":true,"internalType":"address"},{"name":"to","type":"address","indexed":true,"internalType":"address"},{"name":"ids","type":"uint256[]","indexed":false,"internalType":"uint256[]"},{"name":"values","type":"uint256[]","indexed":false,"internalType":"uint256[]"}],"anonymous":false},{"type":"event","name":"TransferSingle","inputs":[{"name":"operator","type":"address","indexed":true,"internalType":"address"},{"name":"from","type":"address","indexed":true,"internalType":"address"},{"name":"to","type":"address","indexed":true,"internalType":"address"},{"name":"id","type":"uint256","indexed":false,"internalType":"uint256"},{"name":"value","type":"uint256","indexed":false,"internalType":"uint256"}],"anonymous":false},{"type":"event","name":"URI","inputs":[{"name":"value","type":"string","indexed":false,"internalType":"string"},{"name":"id","type":"uint256","indexed":true,"internalType":"uint256"}],"anonymous":false},{"type":"error","name":"ERC1155InsufficientBalance","inputs":[{"name":"sender","type":"address","internalType":"address"},{"name":"balance","type":"uint256","internalType":"uint256"},{"name":"needed","type":"uint256","internalType":"uint256"},{"name":"tokenId","type":"uint256","internalType":"uint256"}]},{"type":"error","name":"ERC1155InvalidApprover","inputs":[{"name":"approver","type":"address","internalType":"address"}]},{"type":"error","name":"ERC1155InvalidArrayLength","inputs":[{"name":"idsLength","type":"uint256","internalType":"uint256"},{"name":"valuesLength","type":"uint256","internalType":"uint256"}]},{"type":"error","name":"ERC1155InvalidOperator","inputs":[{"name":"operator","type":"address","internalType":"address"}]},{"type":"error","name":"ERC1155InvalidReceiver","inputs":[{"name":"receiver","type":"address","internalType":"address"}]},{"type":"error","name":"ERC1155InvalidSender","inputs":[{"name":"sender","type":"address","internalType":"address"}]},{"type":"error","name":"ERC1155MissingApprovalForAll","inputs":[{"name":"operator","type":"address","internalType":"address"},{"name":"owner","type":"address","internalType":"address"}]},{"type":"error","name":"OwnableInvalidOwner","inputs":[{"name":"owner","type":"address","internalType":"address"}]},{"type":"error","name":"OwnableUnauthorizedAccount","inputs":[{"name":"account","type":"address","internalType":"address"}]},{"type":"error","name":"Panagram__AlreadyAnsweredCorrectly","inputs":[]},{"type":"error","name":"Panagram__FirstPanagramNotSet","inputs":[]},{"type":"error","name":"Panagram__IncorrectGuess","inputs":[]},{"type":"error","name":"Panagram__InvalidTokenId","inputs":[]},{"type":"error","name":"Panagram__MinTimeNotPassed","inputs":[{"name":"mintTimePassed","type":"uint256","internalType":"uint256"},{"name":"currentTimePassed","type":"uint256","internalType":"uint256"}]},{"type":"error","name":"Panagram__NoRoundWinner","inputs":[]}],"bytecode":{"object":"0x6080604052612a30600a55348015610015575f5ffd5b50604051611bfd380380611bfd83398101604081905261003491610115565b336040518060800160405280604c8152602001611bb1604c9139610057816100b4565b506001600160a01b03811661008557604051631e4fbdf760e01b81525f600482015260240160405180910390fd5b61008e816100c4565b50600480546001600160a01b0319166001600160a01b0392909216919091179055610294565b60026100c082826101da565b5050565b600380546001600160a01b038381166001600160a01b0319831681179093556040519116919082907f8be0079c531659141344cd1fd0a4f28419497f9722a3daafe3b4186f6b6457e0905f90a35050565b5f60208284031215610125575f5ffd5b81516001600160a01b038116811461013b575f5ffd5b9392505050565b634e487b7160e01b5f52604160045260245ffd5b600181811c9082168061016a57607f821691505b60208210810361018857634e487b7160e01b5f52602260045260245ffd5b50919050565b601f8211156101d557805f5260205f20601f840160051c810160208510156101b35750805b601f840160051c820191505b818110156101d2575f81556001016101bf565b50505b505050565b81516001600160401b038111156101f3576101f3610142565b610207816102018454610156565b8461018e565b6020601f821160018114610239575f83156102225750848201515b5f19600385901b1c1916600184901b1784556101d2565b5f84815260208120601f198516915b828110156102685787850151825560209485019460019092019101610248565b508482101561028557868401515f19600387901b60f8161c191681555b50505050600190811b01905550565b611910806102a15f395ff3fe608060405234801561000f575f5ffd5b506004361061016c575f3560e01c8063715018a6116100d9578063c5c1676d11610093578063e8a3d4851161006e578063e8a3d48514610328578063e985e9c514610330578063f242432a14610343578063f2fde38b14610356575f5ffd5b8063c5c1676d146102ed578063da730836146102f6578063e890cd5914610309575f5ffd5b8063715018a61461029257806376f865f91461029a5780637d1ca52c146102ad5780638da5cb5b146102c0578063a22cb465146102d1578063b6a6d177146102e4575f5ffd5b80633dc09e051161012a5780633dc09e051461021c5780633e7fbd061461022f578063463e4069146102385780634e1273f4146102405780635437988d146102605780635cb2b44714610273575f5ffd5b8062fdd58e1461017057806301ffc9a7146101965780630d31d835146101b95780630e89341c146101de5780632eb2c2d6146101fe578063305da2db14610213575b5f5ffd5b61018361017e366004611163565b610369565b6040519081526020015b60405180910390f35b6101a96101a43660046111a2565b610390565b604051901515815260200161018d565b6006546001600160a01b03165b6040516001600160a01b03909116815260200161018d565b6101f16101ec3660046111c4565b6103df565b60405161018d9190611209565b61021161020c366004611359565b610471565b005b61018360095481565b6101a961022a36600461140c565b6104dd565b610183600b5481565b600954610183565b61025361024e36600461147a565b61076f565b60405161018d9190611579565b61021161026e36600461158b565b61083a565b61018361028136600461158b565b60076020525f908152604090205481565b610211610896565b6006546101c6906001600160a01b031681565b6102116102bb3660046111c4565b6108a9565b6003546001600160a01b03166101c6565b6102116102df3660046115b3565b61098f565b610183600a5481565b61018360055481565b6004546101c6906001600160a01b031681565b61018361031736600461158b565b60086020525f908152604090205481565b6101f161099e565b6101a961033e3660046115ea565b6109be565b610211610351366004611616565b6109eb565b61021161036436600461158b565b610a4a565b5f818152602081815260408083206001600160a01b03861684529091529020545b92915050565b5f6001600160e01b03198216636cdb3d1360e11b14806103c057506001600160e01b031982166303a24d0760e21b145b8061038a57506301ffc9a760e01b6001600160e01b031983161461038a565b6060600280546103ee9061166e565b80601f016020809104026020016040519081016040528092919081815260200182805461041a9061166e565b80156104655780601f1061043c57610100808354040283529160200191610465565b820191905f5260205f20905b81548152906001019060200180831161044857829003601f168201915b50505050509050919050565b336001600160a01b0386168114801590610492575061049086826109be565b155b156104c85760405163711bec9160e11b81526001600160a01b038083166004830152871660248201526044015b60405180910390fd5b6104d58686868686610a87565b505050505050565b5f6005545f03610500576040516329db9c1d60e01b815260040160405180910390fd5b6040805160028082526060820183525f92602083019080368337019050509050600954815f81518110610535576105356116a6565b60209081029190910101528051339082906001908110610557576105576116a6565b602090810291909101810191909152600554335f9081526008909252604090912054036105975760405163202ebde160e21b815260040160405180910390fd5b60048054604051633a94343960e21b81525f926001600160a01b039092169163ea50d0e4916105cc91899189918891016116ba565b602060405180830381865afa1580156105e7573d5f5f3e3d5ffd5b505050506040513d601f19601f8201168201806040525081019061060b9190611732565b90507f47aad10b2c3d31c559a3aaf85583d8a1755466b10544ed29a39a1525c3386b7481604051610640911515815260200190565b60405180910390a1806106655760405162987eab60e81b815260040160405180910390fd5b600554335f908152600860205260409020556006546001600160a01b031661071257600680546001600160a01b031916339081179091555f9081526007602052604081208054916106b583611761565b91905055506106d5335f600160405180602001604052805f815250610aec565b604080513381525f60208201527f4d59c8ade697dae17ee35b0818791d4b82600a0f336e3c8cd4490b0094f381c0910160405180910390a1610767565b61072d3360018060405180602001604052805f815250610aec565b60408051338152600160208201527f4d59c8ade697dae17ee35b0818791d4b82600a0f336e3c8cd4490b0094f381c0910160405180910390a15b949350505050565b606081518351146107a05781518351604051635b05999160e01b8152600481019290925260248201526044016104bf565b5f835167ffffffffffffffff8111156107bb576107bb61121b565b6040519080825280602002602001820160405280156107e4578160200160208202803683370190505b5090505f5b84518110156108325760208082028601015161080d90602080840287010151610369565b82828151811061081f5761081f6116a6565b60209081029190910101526001016107e9565b509392505050565b610842610b47565b600480546001600160a01b0319166001600160a01b0383169081179091556040519081527f883b8cf648874db062c8c59bb4627112c9548dd038592ff91451c6d4df38dcbb9060200160405180910390a150565b61089e610b47565b6108a75f610b74565b565b6108b1610b47565b600b545f036108c85742600b556009819055610950565b600a54600b546108d89190611779565b42101561091157600a54600b546108ef904261178c565b604051632d7c580560e11b8152600481019290925260248201526044016104bf565b6006546001600160a01b031661093a5760405163c47dfa5960e01b815260040160405180910390fd5b6009819055600680546001600160a01b03191690555b60058054905f61095f83611761565b90915550506040517fbf6b3125752d5eef17649b981c8b2be3c7e3b743fa64915a061a6ce2c903f554905f90a150565b61099a338383610bc5565b5050565b606060405180608001604052806052815260200161188960529139905090565b6001600160a01b039182165f90815260016020908152604080832093909416825291909152205460ff1690565b336001600160a01b0386168114801590610a0c5750610a0a86826109be565b155b15610a3d5760405163711bec9160e11b81526001600160a01b038083166004830152871660248201526044016104bf565b6104d58686868686610c59565b610a52610b47565b6001600160a01b038116610a7b57604051631e4fbdf760e01b81525f60048201526024016104bf565b610a8481610b74565b50565b6001600160a01b038416610ab057604051632bfa23e760e11b81525f60048201526024016104bf565b6001600160a01b038516610ad857604051626a0d4560e21b81525f60048201526024016104bf565b610ae58585858585610ce5565b5050505050565b6001600160a01b038416610b1557604051632bfa23e760e11b81525f60048201526024016104bf565b604080516001808252602082018690528183019081526060820185905260808201909252906104d55f87848487610ce5565b6003546001600160a01b031633146108a75760405163118cdaa760e01b81523360048201526024016104bf565b600380546001600160a01b038381166001600160a01b0319831681179093556040519116919082907f8be0079c531659141344cd1fd0a4f28419497f9722a3daafe3b4186f6b6457e0905f90a35050565b6001600160a01b038216610bed5760405162ced3e160e81b81525f60048201526024016104bf565b6001600160a01b038381165f81815260016020908152604080832094871680845294825291829020805460ff191686151590811790915591519182527f17307eab39ab6107e8899845ad3d59bd9653f200f220920489ca2b5937696c31910160405180910390a3505050565b6001600160a01b038416610c8257604051632bfa23e760e11b81525f60048201526024016104bf565b6001600160a01b038516610caa57604051626a0d4560e21b81525f60048201526024016104bf565b60408051600180825260208201869052818301908152606082018590526080820190925290610cdc8787848487610ce5565b50505050505050565b610cf185858585610d38565b6001600160a01b03841615610ae55782513390600103610d2a5760208481015190840151610d23838989858589610f47565b50506104d5565b6104d5818787878787611068565b8051825114610d675781518151604051635b05999160e01b8152600481019290925260248201526044016104bf565b335f5b8351811015610e69576020818102858101820151908501909101516001600160a01b03881615610e1b575f828152602081815260408083206001600160a01b038c16845290915290205481811015610df5576040516303dee4c560e01b81526001600160a01b038a1660048201526024810182905260448101839052606481018490526084016104bf565b5f838152602081815260408083206001600160a01b038d16845290915290209082900390555b6001600160a01b03871615610e5f575f828152602081815260408083206001600160a01b038b16845290915281208054839290610e59908490611779565b90915550505b5050600101610d6a565b508251600103610ee95760208301515f906020840151909150856001600160a01b0316876001600160a01b0316846001600160a01b03167fc3d58168c5ae7397731d063d5bbf3d657854427343f4c083240f7aacaa2d0f628585604051610eda929190918252602082015260400190565b60405180910390a45050610ae5565b836001600160a01b0316856001600160a01b0316826001600160a01b03167f4a39dc06d4c0dbc64b70af90fd698a233a518aa5d07e595d983b8c0526c8f7fb8686604051610f3892919061179f565b60405180910390a45050505050565b6001600160a01b0384163b156104d55760405163f23a6e6160e01b81526001600160a01b0385169063f23a6e6190610f8b90899089908890889088906004016117cc565b6020604051808303815f875af1925050508015610fc5575060408051601f3d908101601f19168201909252610fc291810190611810565b60015b61102c573d808015610ff2576040519150601f19603f3d011682016040523d82523d5f602084013e610ff7565b606091505b5080515f0361102457604051632bfa23e760e11b81526001600160a01b03861660048201526024016104bf565b805160208201fd5b6001600160e01b0319811663f23a6e6160e01b14610cdc57604051632bfa23e760e11b81526001600160a01b03861660048201526024016104bf565b6001600160a01b0384163b156104d55760405163bc197c8160e01b81526001600160a01b0385169063bc197c81906110ac908990899088908890889060040161182b565b6020604051808303815f875af19250505080156110e6575060408051601f3d908101601f191682019092526110e391810190611810565b60015b611113573d808015610ff2576040519150601f19603f3d011682016040523d82523d5f602084013e610ff7565b6001600160e01b0319811663bc197c8160e01b14610cdc57604051632bfa23e760e11b81526001600160a01b03861660048201526024016104bf565b6001600160a01b0381168114610a84575f5ffd5b5f5f60408385031215611174575f5ffd5b823561117f8161114f565b946020939093013593505050565b6001600160e01b031981168114610a84575f5ffd5b5f602082840312156111b2575f5ffd5b81356111bd8161118d565b9392505050565b5f602082840312156111d4575f5ffd5b5035919050565b5f81518084528060208401602086015e5f602082860101526020601f19601f83011685010191505092915050565b602081525f6111bd60208301846111db565b634e487b7160e01b5f52604160045260245ffd5b604051601f8201601f1916810167ffffffffffffffff811182821017156112585761125861121b565b604052919050565b5f67ffffffffffffffff8211156112795761127961121b565b5060051b60200190565b5f82601f830112611292575f5ffd5b81356112a56112a082611260565b61122f565b8082825260208201915060208360051b8601019250858311156112c6575f5ffd5b602085015b838110156112e35780358352602092830192016112cb565b5095945050505050565b5f82601f8301126112fc575f5ffd5b813567ffffffffffffffff8111156113165761131661121b565b611329601f8201601f191660200161122f565b81815284602083860101111561133d575f5ffd5b816020850160208301375f918101602001919091529392505050565b5f5f5f5f5f60a0868803121561136d575f5ffd5b85356113788161114f565b945060208601356113888161114f565b9350604086013567ffffffffffffffff8111156113a3575f5ffd5b6113af88828901611283565b935050606086013567ffffffffffffffff8111156113cb575f5ffd5b6113d788828901611283565b925050608086013567ffffffffffffffff8111156113f3575f5ffd5b6113ff888289016112ed565b9150509295509295909350565b5f5f6020838503121561141d575f5ffd5b823567ffffffffffffffff811115611433575f5ffd5b8301601f81018513611443575f5ffd5b803567ffffffffffffffff811115611459575f5ffd5b85602082840101111561146a575f5ffd5b6020919091019590945092505050565b5f5f6040838503121561148b575f5ffd5b823567ffffffffffffffff8111156114a1575f5ffd5b8301601f810185136114b1575f5ffd5b80356114bf6112a082611260565b8082825260208201915060208360051b8501019250878311156114e0575f5ffd5b6020840193505b8284101561150b5783356114fa8161114f565b8252602093840193909101906114e7565b9450505050602083013567ffffffffffffffff811115611529575f5ffd5b61153585828601611283565b9150509250929050565b5f8151808452602084019350602083015f5b8281101561156f578151865260209586019590910190600101611551565b5093949350505050565b602081525f6111bd602083018461153f565b5f6020828403121561159b575f5ffd5b81356111bd8161114f565b8015158114610a84575f5ffd5b5f5f604083850312156115c4575f5ffd5b82356115cf8161114f565b915060208301356115df816115a6565b809150509250929050565b5f5f604083850312156115fb575f5ffd5b82356116068161114f565b915060208301356115df8161114f565b5f5f5f5f5f60a0868803121561162a575f5ffd5b85356116358161114f565b945060208601356116458161114f565b93506040860135925060608601359150608086013567ffffffffffffffff8111156113f3575f5ffd5b600181811c9082168061168257607f821691505b6020821081036116a057634e487b7160e01b5f52602260045260245ffd5b50919050565b634e487b7160e01b5f52603260045260245ffd5b60408152826040820152828460608301375f606084830101525f601f19601f85011682016060810160608483030160208501528085518083526080840191506020870193505f92505b808310156117265783518252602082019150602084019350600183019250611703565b50979650505050505050565b5f60208284031215611742575f5ffd5b81516111bd816115a6565b634e487b7160e01b5f52601160045260245ffd5b5f600182016117725761177261174d565b5060010190565b8082018082111561038a5761038a61174d565b8181038181111561038a5761038a61174d565b604081525f6117b1604083018561153f565b82810360208401526117c3818561153f565b95945050505050565b6001600160a01b03868116825285166020820152604081018490526060810183905260a0608082018190525f90611805908301846111db565b979650505050505050565b5f60208284031215611820575f5ffd5b81516111bd8161118d565b6001600160a01b0386811682528516602082015260a0604082018190525f906118569083018661153f565b8281036060840152611868818661153f565b9050828103608084015261187c81856111db565b9897505050505050505056fe697066733a2f2f62616679626569637166633469706b6c653334746771763367683767636377686d7232327164673770366b366f786f6e3235356d6e7762366373692f636f6c6c656374696f6e2e6a736f6ea264697066735822122093f315de8c9398cf2d3825bfdc4647ffe9ace6f6482b65a9e7c69685e38c518e64736f6c634300081d0033697066733a2f2f62616679626569637166633469706b6c653334746771763367683767636377686d7232327164673770366b366f786f6e3235356d6e7762366373692f7b69647d2e6a736f6e","linkReferences":{}},"methodIdentifiers":{"MIN_DURATION()":"b6a6d177","balanceOf(address,uint256)":"00fdd58e","balanceOfBatch(address[],uint256[])":"4e1273f4","contractURI()":"e8a3d485","getCurrentPanagram()":"463e4069","getCurrentRoundStatus()":"0d31d835","isApprovedForAll(address,address)":"e985e9c5","makeGuess(bytes)":"3dc09e05","newRound(bytes32)":"7d1ca52c","owner()":"8da5cb5b","renounceOwnership()":"715018a6","s_answer()":"305da2db","s_currentRound()":"c5c1676d","s_currentRoundWinner()":"76f865f9","s_lastCorrectGuessRound(address)":"e890cd59","s_roundStartTime()":"3e7fbd06","s_verifier()":"da730836","s_winnerWins(address)":"5cb2b447","safeBatchTransferFrom(address,address,uint256[],uint256[],bytes)":"2eb2c2d6","safeTransferFrom(address,address,uint256,uint256,bytes)":"f242432a","setApprovalForAll(address,bool)":"a22cb465","setVerifier(address)":"5437988d","supportsInterface(bytes4)":"01ffc9a7","transferOwnership(address)":"f2fde38b","uri(uint256)":"0e89341c"},"id":38}