{"abi":[{"type":"function","name":"verify","inputs":[{"name":"proof","type":"bytes","internalType":"bytes"},{"name":"publicInputs","type":"bytes32[]","internalType":"bytes32[]"}],"outputs":[{"name":"","type":"bool","internalType":"bool"}],"stateMutability":"view"},{"type":"error","name":"ProofLengthWrong","inputs":[]},{"type":"error","name":"PublicInputsLengthWrong","inputs":[]},{"type":"error","name":"ShpleminiFailed","inputs":[]},{"type":"error","name":"SumcheckFailed","inputs":[]}],"bytecode":{"object":"0x60e0604052348015600e575f5ffd5b50610100608052600860a0525f60c05260805160a05160c0516154506100565f395f61057101525f818161061d01528181610bf60152610c9201525f61051a01526154505ff3fe608060405234801561000f575f5ffd5b5060043610610029575f3560e01c8063ea50d0e41461002d575b5f5ffd5b61004061003b366004615059565b610054565b604051901515815260200160405180910390f35b5f6100626101b86020615135565b8414610081576040516376ba560560e11b815260040160405180910390fd5b5f61008a610198565b90505f61009787876101ad565b604083015190915084146100be5760405163fa06659360e01b815260040160405180910390fd5b5f6100d5828787865f015187604001516001610455565b90506101238686808060200260200160405190810160405280939291908181526020018383602002808284375f92019190915250508451606081015160809091015190925090506001610504565b815160a001525f6101348383610615565b905080610154576040516313f8744360e31b815260040160405180910390fd5b5f610160848685610716565b905080610180576040516352ec174560e11b815260040160405180910390fd5b81801561018a5750805b9a9950505050505050505050565b6101a061483d565b6101a8610f8a565b905090565b6101b5614bbb565b6101ca6101c560805f858761514c565b61186f565b81526101de6101c56101006080858761514c565b60208201526101f66101c5610180610100858761514c565b604082015261020e6101c5610200610180858761514c565b60a08201526102266101c5610280610200858761514c565b60c082015261023e6101c5610300610280858761514c565b60608201526102566101c5610380610300858761514c565b60e082015261026e6101c5610400610380858761514c565b60808201526104005f5b601c811015610305575f5b60088110156102fc576102af86848761029d826020615173565b926102aa9392919061514c565b611963565b84610100015183601c81106102c6576102c6615186565b602002015182600881106102dc576102dc615186565b6020020181815250506020836102f29190615173565b9250600101610283565b50600101610278565b505f5b60288110156103595761032285838661029d826020615173565b836101200151826028811061033957610339615186565b60200201818152505060208261034f9190615173565b9150600101610308565b505f5b6103686001601c61519a565b8110156103be5761038d858386610380826080615173565b926101c59392919061514c565b83610140015182601b81106103a4576103a4615186565b60200201526103b4608083615173565b915060010161035c565b505f5b601c811015610412576103db85838661029d826020615173565b83610160015182601c81106103f2576103f2615186565b6020020181815250506020826104089190615173565b91506001016103c1565b50610424848285610380826080615173565b610180830152610435816080615173565b9050610448848285610380826080615173565b6101a08301525092915050565b61045d614dae565b5f61046d888888888888876119bf565b908352905061047c8189611a40565b6020840191909152905061048f81611bdb565b604084019190915290506104a38882611c3c565b606084019190915290506104b78882611d10565b608084019190915290506104cb8882611d9b565b60a084019190915290506104df8882611f09565b60c084019190915290506104f38882611f7b565b5060e0830152509695505050505050565b5f6001808261054d866105488961054361053e8a7f0000000000000000000000000000000000000000000000000000000000000000615173565b611fd2565b611ff0565b612009565b90505f61056b876105668a61054361053e8b6001615173565b612022565b90505f5b7f00000000000000000000000000000000000000000000000000000000000000008110156105fd575f6105ba8b83815181106105ad576105ad615186565b6020026020010151611fd2565b90506105ca866105438684612009565b95506105da856105438584612009565b94506105e6848b612009565b93506105f2838b612022565b92505060010161056f565b506106088484612051565b9998505050505050505050565b5f806001815b7f00000000000000000000000000000000000000000000000000000000000000008110156106ec575f86610100015182601c811061065b5761065b615186565b602002015190505f61066d828661205f565b90508061068d576040516313f8744360e31b815260040160405180910390fd5b5f876060015184601c81106106a4576106a4615186565b602002015190506106b5838261207c565b95506106dc886040015185601c81106106d0576106d0615186565b6020020151868361222b565b945050505080600101905061061b565b505f610706866101200151865f0151876020015185612256565b90508281145b9695505050505050565b5f61075d6040518061012001604052805f81526020015f81526020015f81526020015f81526020015f81526020015f81526020015f81526020015f81526020015f81525090565b5f61076b8460a001516122c4565b9050610775614e32565b61077d614e51565b60e086015161079c9061079790855f5b6020020151612022565b612329565b60a085015260e08601516107bb9061079790855f5b6020020151612009565b60c080860182905260a0860151908801516107da926105489190611ff0565b845260a0860151610808906107ee90612329565b6105438660a001516105668a60c001518960c00151611ff0565b60208501526001825261018088015161082090612392565b81526001606085018190525f60808601525b602381116108d857610853610849865f01516123dc565b8660600151611ff0565b83826046811061086557610865615186565b602002015260808501516101208a01516108a891906105489061088960018661519a565b6028811061089957610899615186565b60200201518860600151611ff0565b8560800181815250506108c385606001518860800151611ff0565b60608601526108d1816151ad565b9050610832565b505f6108e660236001615173565b90505b602881116109675761090161084986602001516123dc565b83826046811061091357610913615186565b602002015260808501516101208a015161093791906105489061088960018661519a565b85608001818152505061095285606001518860800151611ff0565b6060860152610960816151ad565b90506108e9565b50606087015181600160200201526080870151816002602002015260a0870151816003602002015260c0870151816004602002015260e0870151816005602002015261010087015181600660200201526101208701518160076020020152610140870151816008602002015261016087015181600960200201526101a087015181600a602002015261018087015181600b60200201526101c087015181600c60200201526101e087015181600d602002015261020087015181600e602002015261022087015181600f60200201526102408701518160106020020152610260870151816011602002015261028087015181601260200201526102a087015181601360200201526102c087015181601460200201526102e08701518160156020020152610300870151816016602002015261032087015181601760200201526103408701518160186020020152610360870151816019602002015261038087015181601a60200201526103a087015181601b60200201528751610ae890612392565b6103808201526020880151610afc90612392565b6103a08201526040880151610b1090612392565b6103c08201526060880151610b2490612392565b6103e08201526080880151610b3890612392565b61040082015260e0880151610b4c90612392565b61042082015260a0880151610b6090612392565b61044082015260c0880151610b7490612392565b6104608201528751610b8590612392565b6104808201526020880151610b9990612392565b6104a08201526040880151610bad90612392565b6104c08201526060880151610bc190612392565b6104e08201526080880151610bd590612392565b610500820152606086015160808501516101608a01515f92610c1a929091877f00000000000000000000000000000000000000000000000000000000000000006123f4565b805160a0870151919250610c2d91611ff0565b604086018190526101608a01515160c0890151610c5d929161054891610c539190611ff0565b8860c00151611ff0565b604086015260c0870151610c709061250f565b60608601525f5b610c836001601c61519a565b811015610e85575f610cb660017f000000000000000000000000000000000000000000000000000000000000000061519a565b821015905080610e2b57610ce96107978a60e0015188856001610cd99190615173565b601c811061078d5761078d615186565b60a088015260e0890151610d17906107979088610d07866001615173565b601c81106107b1576107b1615186565b60c0880152606087015160a0880151610d309190611ff0565b60e0880152606087015160c08a0151610d4c91610c5391611ff0565b6101008801819052610d6e90610d61906123dc565b6105488960e001516123dc565b8583610d7c60286001615173565b610d869190615173565b60468110610d9657610d96615186565b60200201526101008701516101608c01515f91610dd291610db8866001615173565b601c8110610dc857610dc8615186565b6020020151611ff0565b9050610dee816105488a60e0015187876001610db89190615173565b9050610dfe886040015182612009565b6040890152606088015160c08b0151610e2491610e1a91611ff0565b8b60c00151611ff0565b6060890152505b610e4f8b610140015183601b8110610e4557610e45615186565b6020020151612392565b8483610e5d60286001615173565b610e679190615173565b60468110610e7757610e77615186565b602002015250600101610c77565b5060408051808201909152600181526002602082015282610ea8601c6028615173565b60468110610eb857610eb8615186565b6020020152604085015183610ecf601c6028615173565b60468110610edf57610edf615186565b60200201526101a08901515f90610ef590612392565b90508083610f05601c6028615173565b610f10906001615173565b60468110610f2057610f20615186565b602002015260e088015184610f37601c6028615173565b610f42906001615173565b60468110610f5257610f52615186565b60200201525f610f62848661251a565b90505f610f6e836125eb565b9050610f7a8282612662565b9c9b505050505050505050505050565b610f9261483d565b50604080516103c08101825261010080825260086020808401919091525f83850152835180850185527f195754cb060e7c7b6de710f3e4d64b044c548bc35a9e7ab987b3d0024b85bab581527f0aa5f564fa779b24b4f1a646e3928afe93c363d6bce7b8d64f7cad79cdd6e4b2818301526060840152835180850185527e1e92b3c9e20ed455df1cd14901d5c7876f9182f842fb34122b35a57a539a8a81527f29bda1295a5cefcde6dcbf76f8c7e3aebc068ebaf9f4267162f586fe25e7f60e818301526080840152835180850185527f04b8c80bc3dc508c31b5daa18bda93311cfbee83a4f98483e3eae184e95469c981527f2cf0bb2b5c27f2fafe488d7f567305c77b8f2da875af976b1de025e59244ea6d8183015260a0840152835180850185527f1c0a100ba8bd48e5f79285f62d33ca32ff9d086c0eb7e1ad0002df7f1048aeae81527f0d0a1f693837aba59a0b9bceda155ade3da02a05e74635df7c83076f5c768d5d8183015260c0840152835180850185527f13228aa7dd27f08c17d58d6a7f2470c73280bc070083ad7162c33e1182c83afd81527f0136628fbb1ba9528cfa9c6c57e657b8cfac5bfd80441bdc1a1030a5910375e08183015260e0840152835180850185527f23b4074f062738d13a6fc178823559558b01542b240057640ed9a5d131be3c0e81527f191ed8ca3c8f43ed73790043cbe7dc624d495065b7184e16733270d33abf935e8183015291830191909152825180840184527f1d64341216e323f076ac53aa06192392677f44b67b6947dd6a0a1490fb32a08381527f28d02cea9cc379ace2ae8779011e247ddc4213ef69895a8e634f42584410714181830152610120830152825180840184527f2caacc4933684c750d00f88d084fde045571078954aa9f2482d3370174a541e981527f2f5f3644029b26850d5ecf5fd1b45feb3e1d62ee56b6a441c97ea7efd0e16bda81830152610140830152825180840184527f1f1cab32214c320154d5407986427cee8e7b712bacf5ec90d090dfd676c485af81527f0e3f79e9d12afdf3323d122d387e1694627043c9a8e70da3f8b30d1c67b1ec9381830152610160830152825180840184527f2eafce8234eae91ef3666840fb9bcf5fcd8def38968dbbb3690ba7fde6df063d81527f1997e23515d2682de117221fb72cc33bef4d802d80569e62209d71e80c773c7281830152610180830152825180840184527f100f1918530f80ec5d28482183d1e4cc618a0e9a389d9b43ad36c785401a639f81527f0c83dda5ff3b971fd24fb1ec593b1a29ce45336c47a1cc6c62818b20d14d8e19818301526101a0830152825180840184527f0c2b1267b0a74f20b28be2841e98d166d7006afe0a5db49230217c80a13f482b81527f23778680c255bb4a6b3fead4aaf99c83da1d2f0f1d1f3360ad8c9b2cfeb5f69f818301526101c0830152825180840184527f1ac098e1b196c8537a3a91b5f7b824631ee243b60a107595fb5144ec1ad95aa381527f11030dda8141c39e05dea69d777a2fb6b36bf0107e982fbb025c3c52a52f6c68818301526101e0830152825180840184527f2601e9bc59840006bc2c6bfba4964e4eb421248ad72557bf1d3372232712803a81527f2ab60c7ec85608bde41aa926bb010ce48afae6fe81472a825b284bb0981ec6db81830152610200830152825180840184527f2701591ca3ed3cf762601d9f8f3ca8078a80dd729ed71c3d7171751432f65ea681527f18fa108ca52eab0e2bd63bd660f4f4b266677ded7be65f8acce215d0f860fdbe81830152610220830152825180840184527f1e9f11703f90956addaa06aeb1b43d978f34f6a238d21a1667b26a39613579e881527f046bd7dc529414bcf3db688d3d68b1ee1153ef6a4c94c4c343065ec60f9f123881830152610240830152825180840184527f2ee8cb6d236efaee7dfdea83556f694d20721690c65e7406ff12c310fd5242d981527f11931830f38c34d685d47a6c14578cea4ec21da2055eb81225c86a335b5858fc81830152610260830152825180840184527f09ef0fb362790dc1911d1c6f18dd7387e30481a2456eac342f7e79e4380e1d6581527f1ce6b6733a5a08bbc5106fa1fb1e87cb5c67681ff6d9dcfcc63b7f94b38b80d281830152610280830152825180840184527f1fbd1207d7bf376db829cff3278758228461dd140e55cd6dd7f88ee9a623dd0f81527f1406f37b72542d969c20d8ef2c62202a4c217fc429f56749592cdc956ec0e0fa818301526102a0830152825180840184527f0509c6e7b078e487e8316b5df5e9568e6e694adca7e2dd3c34895377a70f85c681527f28e99a936351607af3211fad43964b885b9605e77fd8a94e001502e98c538c16818301526102c0830152825180840184527f2f6a0a0980aa06745966d83b7e8f83c9e9603def9fd3f128c252ffc2db53c47481527f26313eaaf534e57dc421e3fa587a14e54c397fa620273ae6ff234812ed652a9e818301526102e0830152825180840184527f1bf7da4add7c858eb94b75f2e78fbd89c84f5fa43824a0d5534173872ee099c281527f1b35fa2a35673699ee1cb260d9e6c4be79b26d488c26dc2531194e43c8f747ea81830152610300830152825180840184527f16bf79791869cec464180d5322eeaaef18fed6dc10c3e64e314c04d85c3faece81527f2e2ec6341669b5b975e25e465af5d9e40533d5ac173554df19daed27f66c36ff81830152610320830152825180840184527f150253026f1b985165783c2f4ee1df612c826dda543d06d34711b965730ab69e81527f0c4062ebcca21d81273b9c58d64447e4ee4d55effa8cbc8fdbd6a76bc309226481830152610340830152825180840184527f159f2541ce446c6d59ea3f06be91ec9f47c9c82f3e4fd10696511efaff4121fa81527f15f873b33ec9467e1f0c4fb3a0b59a6fcd6f3480515f1ff5506c48f0c521f00f81830152610360830152825180840184526001815260028183015261038083015282518084019093527f1a762c681528f0b92af341b9949a00d226677199a6e410fbacd6c431f3e7e82c83527f06168c9189af2511d49666ae8ff2490a24169f819dd57e91cfaabea6847a472e908301526103a081019190915290565b61189660405180608001604052805f81526020015f81526020015f81526020015f81525090565b608082146118e15760405162461bcd60e51b81526020600482015260136024820152721a5b9d985b1a5908189e5d195cc81c1bda5b9d606a1b60448201526064015b60405180910390fd5b6040805160808101909152806118fa60205f868861514c565b611903916151c5565b815260209081019061191990604090868861514c565b611922916151c5565b815260200161193560606040868861514c565b61193e916151c5565b815260200161195160806060868861514c565b61195a916151c5565b90529392505050565b5f602082146119ab5760405162461bcd60e51b815260206004820152601460248201527334b73b30b634b210313cba32b99039b1b0b630b960611b60448201526064016118d8565b6119b861053e83856151c5565b9392505050565b6119f26040518060c001604052805f81526020015f81526020015f81526020015f81526020015f81526020015f81525090565b5f611a01898989898989612866565b604086019190915260208501919091529083529250611a20838a612c89565b608085019190915260608401919091529199919850909650505050505050565b611a48614e8a565b5f611a51614ea9565b84815260e0848101805151602080850191909152815181015160408086019190915282518101516060808701919091529251830151608080870191909152880180515160a0870152805183015160c08701528051820151948601949094529251909101516101008401529051611ae891611acd918491016151e2565b60405160208183030381529060405280519060200120611fd2565b9150611af382612d54565b6020850152835260015b611b096002601961522a565b811015611b8957611b2683604051602001611acd91815260200190565b9250611b3183612d54565b85611b3d846002615135565b60198110611b4d57611b4d615186565b6020020186611b5d856002615135565b611b68906001615173565b60198110611b7857611b78615186565b602002019190915252600101611afd565b50611ba082604051602001611acd91815260200190565b91505f611bac83612d54565b85611bb96001601961519a565b60198110611bc957611bc9615186565b60200201919091525050509250929050565b611be3614ec8565b5f805b601c811015611c3557611c0584604051602001611acd91815260200190565b93505f611c1185612d54565b8584601c8110611c2357611c23615186565b60200201919091525050600101611be6565b5090929050565b611c44614ec8565b5f805b601c811015611d0757611c58614ea9565b8481525f5b6008811015611cc15786610100015183601c8110611c7d57611c7d615186565b60200201518160088110611c9357611c93615186565b602002015182611ca4836001615173565b60098110611cb457611cb4615186565b6020020152600101611c5d565b50611cd681604051602001611acd91906151e2565b94505f611ce286612d54565b8685601c8110611cf457611cf4615186565b6020020191909152505050600101611c47565b50909391925050565b5f5f611d1a614ee7565b8381525f5b6028811015611d6d578561012001518160288110611d3f57611d3f615186565b602002015182611d50836001615173565b60298110611d6057611d60615186565b6020020152600101611d1f565b50611d8281604051602001611acd919061523d565b91505f611d8e83612d54565b5096929550919350505050565b5f5f611da5614f06565b8381525f5b611db66001601c61519a565b811015611ef45785610140015181601b8110611dd457611dd4615186565b60200201515182611de6836004615135565b611df1906001615173565b606d8110611e0157611e01615186565b602002015261014086015181601b8110611e1d57611e1d615186565b60200201516020015182826004611e349190615135565b611e3f906002615173565b606d8110611e4f57611e4f615186565b602002015261014086015181601b8110611e6b57611e6b615186565b60200201516040015182611e80836004615135565b611e8b906003615173565b606d8110611e9b57611e9b615186565b602002015261014086015181601b8110611eb757611eb7615186565b60200201516060015182611ecc836004615135565b611ed7906004615173565b606d8110611ee757611ee7615186565b6020020152600101611daa565b50611d8281604051602001611acd9190615271565b5f5f611f13614f25565b8381525f5b601c811015611f665785610160015181601c8110611f3857611f38615186565b602002015182611f49836001615173565b601d8110611f5957611f59615186565b6020020152600101611f18565b50611d8281604051602001611acd91906152a5565b5f5f611f85614f44565b83815261018085018051516020808401919091528151810151604080850191909152825181015160608086019190915292519092015160808401529051611d8291611acd918491016152d9565b5f611fea5f5160206153fb5f395f51905f528361530c565b92915050565b5f5f5160206153fb5f395f51905f528284099392505050565b5f5f5160206153fb5f395f51905f528284089392505050565b5f5f5160206153fb5f395f51905f52612048835f5160206153fb5f395f51905f5261519a565b84089392505050565b5f6119b88361054384612329565b81515f908190612071908560016107b1565b929092149392505050565b60408051610100810182527f30644e72e131a029b85045b68181585d2833e84879b9709143e1f593efffec5181526102d060208201527f30644e72e131a029b85045b68181585d2833e84879b9709143e1f593efffff1191810191909152609060608201527f30644e72e131a029b85045b68181585d2833e84879b9709143e1f593efffff71608082015260f060a08201527f30644e72e131a029b85045b68181585d2833e84879b9709143e1f593effffd3160c08201526113b060e08201525f906001825b600881101561216357612159826105438784612022565b9150600101612142565b5061216c614f62565b5f5b60088110156121cd575f84826008811061218a5761218a615186565b6020020151905061219f816105438985612022565b90506121aa81612329565b9050808383600881106121bf576121bf615186565b60200201525060010161216e565b505f5b6008811015612220575f8782600881106121ec576121ec615186565b6020020151905061220981848460088110610dc857610dc8615186565b90506122158682612009565b9550506001016121d0565b5061070c8483611ff0565b5f5f612241600161054885610543896001612022565b905061224d8482611ff0565b95945050505050565b5f61225f614f81565b61226a868285612d8d565b61227686868386612f39565b61228286868386613121565b61228d86828561331d565b612298868285613505565b6122a48686838661384e565b6122af8682856140e8565b6122ba8682856144b3565b61070c81856147a8565b6122cc614ec8565b81815260015b601c81101561232357612304826122ea60018461519a565b601c81106122fa576122fa615186565b602002015161250f565b8282601c811061231657612316615186565b60200201526001016122d2565b50919050565b5f5f8290505f604051602081526020808201526020604082015282606082015260025f5160206153fb5f395f51905f520360808201525f5160206153fb5f395f51905f5260a082015260205f60c08360055afa905080612387575f5ffd5b50505f519392505050565b604080518082019091525f8082526020820152604051806040016040528060888460200151901b845f015117815260200160888460600151901b8460400151178152509050919050565b5f611fea825f5160206153fb5f395f51905f5261519a565b6123fc614ec8565b601c5b8015612505575f8461241260018461519a565b601c811061242257612422615186565b602002015190505f8861243660018561519a565b601c811061244657612446615186565b602002015190505f6124a161246561245e858c611ff0565b6002611ff0565b6105668a61247460018961519a565b601c811061248457612484615186565b602002015161054361249b8861054360018a612022565b87612022565b90506124c2816105436107976124bc87610543600189612022565b86612009565b90508584116124f15797508780856124db60018761519a565b601c81106124eb576124eb615186565b60200201525b505050806124fe9061531f565b90506123ff565b5095945050505050565b5f611fea8283611ff0565b604080518082019091525f80825260208201525f61253a601c6028615173565b612545906002615173565b90506001604051855151604082015285516020015160608201528451608082015260408160606040840160075afa8216915060015b838110156125d35760208102870160208202870181515160408501528151602001516060850152805160808501525050604080830160606040850160075afa8316925060408260808460065afa9092169160010161257a565b50805184526020810151602085015250505092915050565b604080518082019091525f80825260208201527f30644e72e131a029b85045b68181585d97816a916871ca8d3c208c16d87cfd4782602001517f30644e72e131a029b85045b68181585d97816a916871ca8d3c208c16d87cfd4761264f919061519a565b612659919061530c565b60208301525090565b81516020808401518351848301516040805194850195909552938301919091527f198e9393920d483a7260bfb731fb5d25f1aa493335a9e71297e485b7aef312c260608301527f1800deef121f1e76426a00665e5c4479674322d4f75edadd46debd5cd992f6ed60808301527f090689d0585ff075ec9e99ad690c3395bc4b313370b38ef355acdadcd122975b60a08301527f12c85ea5db8c6deb4aab71808dcb408fe3d1e7690c43d37b4ce6cc0166fa7daa60c083015260e08201526101008101919091527f260e01b251f6f1c7e7ff4e580791dee8ea51d87a358e038b4efe30fac09383c16101208201527f0118c4d5b837bcc2bc89b5b398b5974e9f5944073b32078b7e231fec938883b06101408201527f04fc6369f7110fe3d25156c1bb9a72859cf2a04641f99ba4ee413c80da6a5fe46101608201527f22febda3c0c0632a56475b4214e5615e11e6dd3f96e6cea2854a87d4dacc5e556101808201525f9081906101a00160405160208183030381529060405290505f5f60086001600160a01b0316836040516127f89190615334565b5f60405180830381855afa9150503d805f8114612830576040519150601f19603f3d011682016040523d82523d5f602084013e612835565b606091505b50915091505f8180602001905181019061284f919061534a565b905082801561285b5750805b979650505050505050565b5f80808080612876876003615173565b61288190600c615173565b67ffffffffffffffff81111561289957612899615369565b6040519080825280602002602001820160405280156128c2578160200160208202803683370190505b509050875f1b815f815181106128da576128da615186565b602002602001018181525050865f1b816001815181106128fc576128fc615186565b602002602001018181525050855f1b8160028151811061291e5761291e615186565b60209081029190910101525f5b8781101561297d578a8a8281811061294557612945615186565b905060200201358282600361295a9190615173565b8151811061296a5761296a615186565b602090810291909101015260010161292b565b508a51518161298d896003615173565b8151811061299d5761299d615186565b6020908102919091018101919091528b510151816129bc896003615173565b6129c7906001615173565b815181106129d7576129d7615186565b60209081029190910101528a5160400151816129f4896003615173565b6129ff906002615173565b81518110612a0f57612a0f615186565b60209081029190910101528a516060015181612a2c896003615173565b612a37906003615173565b81518110612a4757612a47615186565b6020908102919091018101919091528b01515181612a66896003615173565b612a71906004615173565b81518110612a8157612a81615186565b6020908102919091018101919091528b810151015181612aa2896003615173565b612aad906005615173565b81518110612abd57612abd615186565b6020908102919091018101919091528b01516040015181612adf896003615173565b612aea906006615173565b81518110612afa57612afa615186565b6020908102919091018101919091528b01516060015181612b1c896003615173565b612b27906007615173565b81518110612b3757612b37615186565b602090810291909101015260408b01515181612b54896003615173565b612b5f906008615173565b81518110612b6f57612b6f615186565b60209081029190910181019190915260408c0151015181612b91896003615173565b612b9c906009615173565b81518110612bac57612bac615186565b60209081029190910101526040808c0151015181612bcb896003615173565b612bd690600a615173565b81518110612be657612be6615186565b602090810291909101015260408b01516060015181612c06896003615173565b612c1190600b615173565b81518110612c2157612c21615186565b602002602001018181525050612c4181604051602001611acd919061537d565b9150612c4c82612d54565b6040805160208101869052929750909550612c679101611acd565b91505f612c7383612d54565b50959c949b509499509097509195505050505050565b5f5f5f612c94614fa0565b85815260a0858101805151602080850191909152815181015160408086019190915282518101516060808701919091529251830151608086015260c0808a0180515195870195909552845183015190860152835181015160e086015292518201516101008501528188018051516101208601528051820151610140860152805184015161016086015251909101516101808401529051612d3a91611acd918491016153b2565b9150612d4582612d54565b90979096509194509092505050565b5f80826fffffffffffffffffffffffffffffffff8116608082901c612d7882611fd2565b9450612d8381611fd2565b9350505050915091565b5f612d9984600761480d565b90507f183227397098d014dc2822db40c0ac2e9419f4243cdcb848a1f0fac9f80000005f612dfa612df4612dce856003612022565b610543612de9612dde8b5f61480d565b6105438c601c61480d565b6105438b601b61480d565b83611ff0565b9050612e7b612e70612e57612e3e612e2585610548612e1a8d600261480d565b6105438e601b61480d565b610548612e338c600361480d565b6105438d601c61480d565b610548612e4c8b600461480d565b6105438c601d61480d565b610548612e658a600561480d565b6105438b601e61480d565b61054888600161480d565b9050612e9a81610548612e8f866001612022565b6105438a602661480d565b9050612ea68184611ff0565b9050612eb28185611ff0565b8552505f9050612eec612ee2612ed7612ecc88601b61480d565b61054889601e61480d565b61056688602361480d565b610548875f61480d565b9050612efd81610543846002612022565b9050612f0e81610543846001612022565b9050612f1a8183611ff0565b9050612f268184611ff0565b9050808460015b60200201525050505050565b5f5f5f612f6f612f65612f4d89601b61480d565b610548612f5b8b601161480d565b8a60600151611ff0565b8760800151612009565b9050612fa881610543612f9e612f868b601c61480d565b610548612f948d601261480d565b8c60600151611ff0565b8960800151612009565b9050612fcd81610543612f9e612fbf8b601d61480d565b610548612f948d601361480d565b9050612ff281610543612f9e612fe48b601e61480d565b610548612f948d601461480d565b92505f9050613016612f6561300889601b61480d565b610548612f5b8b600d61480d565b905061303b81610543612f9e61302d8b601c61480d565b610548612f948d600e61480d565b905061306081610543612f9e6130528b601d61480d565b610548612f948d600f61480d565b905061308581610543612f9e6130778b601e61480d565b610548612f948d601061480d565b91505f90506130ac6130a661309b89601f61480d565b6105488a601961480d565b84611ff0565b90506130e1816105666130db6130c38b602761480d565b6105486130d18d601a61480d565b8c60a00151611ff0565b85611ff0565b90506130ed8185611ff0565b6040860152505f6131106130db61310589601a61480d565b6105438a602761480d565b606090950194909452505050505050565b5f5f61317f61316761314f61313a612f9e8a601561480d565b6105486131488b601661480d565b8a51611ff0565b61054861315d8a601761480d565b8960200151611ff0565b61054861317589601861480d565b8860400151611ff0565b91505f6131b661319d61319389601b61480d565b8860800151612009565b6105486131ab8a600361480d565b6105438b602361480d565b90505f6131df6131c789601c61480d565b6105486131d48b5f61480d565b6105438c602461480d565b90505f6132096131f08a601d61480d565b6105486131fe8c600161480d565b6105438d602561480d565b905061324861323061322285610548868d5f0151611ff0565b610548848c60200151611ff0565b61054861323e8c600461480d565b8b60400151611ff0565b93505050505f61325c6130a688602061480d565b90505f61326d6130a689602061480d565b90505f6132a561328c6132818b602261480d565b6105488c600661480d565b61056661329a8c602261480d565b6105438d600661480d565b90505f6132c96132c36132b88789611ff0565b6105438d602061480d565b83612022565b90506132d58188611ff0565b90505f6132fd6132ef6132e98d600661480d565b87611ff0565b6105666132e98e602161480d565b60808a018390529050808960055b60200201525050505050505050505050565b5f6133295f6001612022565b90505f6133375f6002612022565b90505f6133455f6003612022565b90505f61336161335688601c61480d565b61056689601b61480d565b90505f61337d61337289601d61480d565b6105668a601c61480d565b90505f61339961338e8a601e61480d565b6105668b601d61480d565b90505f6133b56133aa8b602361480d565b6105668c601e61480d565b9050836133c681610543818b612009565b90506133d681610543878a612009565b90506133e6816105438789612009565b90506133f7816105438d600861480d565b9050613403818a611ff0565b60c08b0152508261341881610543818b612009565b905061342881610543868a612009565b9050613438816105438689612009565b9050613449816105438d600861480d565b9050613455818a611ff0565b60e08b0152508161346a81610543818b612009565b905061347a81610543858a612009565b905061348a816105438589612009565b905061349b816105438d600861480d565b90506134a7818a611ff0565b6101008b015250806134bd81610543818b612009565b90506134cd81610543848a612009565b90506134dd816105438489612009565b90506134ee816105438d600861480d565b90506134fa818a611ff0565b9050808a600961330b565b61353e6040518060e001604052805f81526020015f81526020015f81526020015f81526020015f81526020015f81526020015f81525090565b61354984601c61480d565b815261355684601d61480d565b602082015261356684602361480d565b604082015261357684602661480d565b606082015261358684602561480d565b608082015261359684602461480d565b60a08201525f6135a785600261480d565b90505f6135b4865f61480d565b90505f6135c88460400151855f0151612022565b90505f6135dd85602001518660200151611ff0565b606086015190915086905f906135f39080611ff0565b90505f61361161360b89602001518a60600151611ff0565b88611ff0565b90505f6136306136298a60a001518b60400151612009565b8a51612009565b905061363f6132e98288611ff0565b905061366661366061365a6136548487612022565b88612022565b84612009565b83612009565b905061368e6136836136788387611ff0565b6105438f600961480d565b61054360018a612022565b6101408c015250505050602085015160808601515f916136ad91612009565b90505f6136cb6136c1886060015188611ff0565b8860200151612022565b90505f6136ef6136db8487611ff0565b6105486130db8b60a001518c5f0151612022565b905061371761370c613701838c611ff0565b6105438e600961480d565b610543600189612022565b6101608b0152505f91506137389050613731836011612009565b8751611ff0565b90505f6137458384612009565b90506137518182612009565b90505f61375f836009611ff0565b90506137886137826130a661377b8b60a001518c5f0151612009565b8b51612009565b82612022565b60c089018190525f906137a39061360b90613678908d611ff0565b90506137b68b600a602002015182612009565b6101408c0152505086515f92506137dd9150613731906137d69080612009565b8851612009565b90505f61381d6137f8836105438a5f01518b60a00151612022565b60208901516105669061380b9080612009565b6105438b602001518c60800151612009565b905061383a89600b602002015161054861360b613678858d611ff0565b89600b602002015250505050505050505050565b6138e2604051806102c001604052805f81526020015f81526020015f81526020015f81526020015f81526020015f81526020015f81526020015f81526020015f81526020015f81526020015f81526020015f81526020015f81526020015f81526020015f81526020015f81526020015f81526020015f81526020015f81526020015f81526020015f81526020015f81525090565b6139176138fe6138f387601b61480d565b61054388602461480d565b61054861390c88602361480d565b61054389601c61480d565b815261395c61395161393861392d88601b61480d565b61054389601e61480d565b61054861394689601c61480d565b6105438a601d61480d565b61056687602561480d565b6040820181905261397190600160441b611ff0565b604082018190526139879061056687602661480d565b60408201819052815161399a9190612009565b604082018190526139b09061054387600561480d565b604082015280516139c590600160441b611ff0565b8082526139e5906105486139da88602361480d565b61054389602461480d565b80825260208201819052613a0190610566612ecc88601d61480d565b60208201819052613a179061054387600461480d565b6020820152805160608201819052613a349061054887601e61480d565b60608201819052613a5890610566613a4d88602561480d565b61054889602661480d565b60608201819052613a6d90610543875f61480d565b8160600181815250505f613a96613a8c83602001518460400151612009565b8360600151612009565b9050613aa78161054388600361480d565b9050613abf613ab787602461480d565b614000611ff0565b60808301819052613ad59061054888602361480d565b60808301819052613ae890614000611ff0565b60808301819052613afe9061054888601d61480d565b60808301819052613b1190614000611ff0565b60808301819052613b279061054888601c61480d565b60808301819052613b3a90614000611ff0565b60808301819052613b509061054888601b61480d565b60808301819052613b669061056688601e61480d565b60808301819052613b7c9061054388600561480d565b6080830152613b8f613ab787602561480d565b60a08301819052613ba59061054888602461480d565b60a08301819052613bb890614000611ff0565b60a08301819052613bce9061054888602361480d565b60a08301819052613be190614000611ff0565b60a08301819052613bf79061054888601e61480d565b60a08301819052613c0a90614000611ff0565b60a08301819052613c209061054888601d61480d565b60a08301819052613c369061056688602661480d565b60a08301819052613c4b90610543885f61480d565b60a0830181905260808301515f91613c639190612009565b9050613c748161054389600461480d565b9050613c8e613c8488601d61480d565b8760400151611ff0565b60c08401819052613ca79061054861315d8a601c61480d565b60c08401819052613cc790610548613cc08a601b61480d565b8951611ff0565b60c08401819052613cdd9061054889600161480d565b60c0840181905260e08401819052613cfa9061056689601e61480d565b60c0840152613d0d61335688602361480d565b610140840152613d2c613d2188602661480d565b61056689601e61480d565b610120840152610140830151613d5190613d469080611ff0565b846101400151612022565b610280840152610140830151613d9390613d8890613d819061054360015f5160206153fb5f395f51905f5261519a565b6001612009565b846101200151611ff0565b6101608401819052613dca90613dbc90610543613db18b600261480d565b6105438c600361480d565b6105436132e98a600a61480d565b6101a0860152610280830151613dec90613dbc90610543613db18b600261480d565b6101c086015260c0830151613e1490610543613e098a600261480d565b6105438b600361480d565b6101e08401525f613e33613e2989601e61480d565b8560e00151612022565b9050613e426137828283611ff0565b6101a0850152613e5661317589602561480d565b6101008501819052613e7a90610548613e708b602461480d565b8a60200151611ff0565b6101008501819052613e94906105486131488b602361480d565b610100850152613eb3613ea889602661480d565b856101000151612022565b6101008501525f613ec861338e8a602561480d565b9050613f1c613ef6612df4613d8188610140015160015f5160206153fb5f395f51905f52610543919061519a565b610543613d8188610100015160015f5160206153fb5f395f51905f52610543919061519a565b610180860152610100850151613f4190613f369080611ff0565b866101000151612022565b6101c0860152610180850151613f7490613f60906105438c600761480d565b610543613f6e8c600a61480d565b89611ff0565b6101e0880152610280850151613f9390613f60906105438c600761480d565b6102008801526101c0850151613fb290613f60906105438c600761480d565b6102208801526101a0850151613fcd906105438b600761480d565b610200860152613fec613fe18a602461480d565b6105668b601c61480d565b61022086015261014085015161402b9061338e9061402090613d819061054360015f5160206153fb5f395f51905f5261519a565b876102200151611ff0565b61024086018190526101e0860151610260870181905261406291610548906105436140578e600561480d565b6105438f600261480d565b610260860181905260c08601516140859190610548906105436140578e5f61480d565b610260860181905261020086015161409d9190612009565b61026086018190526140b39061365a9086612009565b6102a086018190526140cd90610543613f6e8c600a61480d565b6102a0860181905287600c6020020152505050505050505050565b61415e6040518061022001604052805f81526020015f81526020015f81526020015f81526020015f81526020015f81526020015f81526020015f81526020015f81526020015f81526020015f81526020015f81526020015f81526020015f81526020015f81526020015f81526020015f81525090565b61417761416c85601b61480d565b61054886600261480d565b815261419261418785601c61480d565b61054886600361480d565b60208201526141b06141a585601d61480d565b61054886600461480d565b60408201526141ce6141c385601e61480d565b61054886600561480d565b60608201528051614200906141f9906141f2906141eb9080611ff0565b8451611ff0565b8351611ff0565b8251611ff0565b6080820152602081015161423e906142349061422a906142209080611ff0565b8460200151611ff0565b8360200151611ff0565b8260200151611ff0565b60a0820152604081015161427c90614272906142689061425e9080611ff0565b8460400151611ff0565b8360400151611ff0565b8260400151611ff0565b60c082015260608101516142ba906142b0906142a69061429c9080611ff0565b8460600151611ff0565b8360600151611ff0565b8260600151611ff0565b60e0820152608081015160a08201516142d39190612009565b61010082015260c081015160e08201516142ed9190612009565b61012082015260a0810151614311906143069080612009565b826101200151612009565b61014082015260e08101516143359061432a9080612009565b826101000151612009565b61016082015261012081015161434b9080612009565b6101e0820181905261436c906143619080612009565b826101600151612009565b6101e08201526101008101516143829080612009565b6101a082018190526143a3906143989080612009565b826101400151612009565b6101a082018190526101608201516143ba91612009565b6101808201526101408101516101e08201516143d69190612009565b6101c08201526143ea612df485600b61480d565b61020082018190526102408401516101808301516144159261054891610543906105668a602361480d565b83601260200201526144458360136020020151610548836102000151610543856101a001516105668a602461480d565b83601360200201526144758360146020020151610548836102000151610543856101c001516105668a602561480d565b83601460200201526144a58360156020020151610548836102000151610543856101e001516105668a602661480d565b836015602002015250505050565b6145056040518061016001604052805f81526020015f81526020015f81526020015f81526020015f81526020015f81526020015f81526020015f81526020015f81526020015f81526020015f81525090565b5f604051806080016040528061453a7f10dc6e9c006ea38b04b1e03b4bd9490c0d03f98929ca1d7fb56821fd19d3b6e7611fd2565b81526020016145687f0c28145b6a44df3e0149b3d0a30b3bb599df9756d4dd9b84a86b38cfb45a740b611fd2565b81526020016145957e544b8338791518b2c7645a50392798b21f75bb60e3596170067d00141cac15611fd2565b81526020016145c37f222c01175718386f2e2e82eb122789e352e105a3b8fa852613bc534433ee428b611fd2565b905290506145e06145d586601b61480d565b61054887600261480d565b61012083018190526146149061460990613d88906145fe9080611ff0565b856101200151611ff0565b836101200151611ff0565b825261462185601c61480d565b602083015261463185601d61480d565b604083015261464185601e61480d565b60608301528151602083015161466991613a8c9161465f9190612009565b8460400151612009565b608083015261467c6130a686600c61480d565b610140830152815161469d9061469390835f610dc8565b8360800151612009565b60a08301526146c984601660200201516105488461014001516105438660a001516105668b602361480d565b6102c085015260208201516146e49061469390836001610dc8565b60c083015261471084601760200201516105488461014001516105438660c001516105668b602461480d565b6102e0850152604082015161472b9061469390836002610dc8565b60e083015261475784601860200201516105488461014001516105438660e001516105668b602561480d565b61030085015260608201516147729061469390836003610dc8565b6101008301526147a084601960200201516105488461014001516105438661010001516105668b602661480d565b846019612f2d565b5f6147b48184816107b1565b905060015b601a811015614806576147fc826105488684601a81106147db576147db615186565b6020020151866147ec60018761519a565b60198110610dc857610dc8615186565b91506001016147b9565b5092915050565b5f82826027811115614821576148216153e6565b6028811061483157614831615186565b60200201519392505050565b604051806103c001604052805f81526020015f81526020015f815260200161487660405180604001604052805f81526020015f81525090565b815260200161489660405180604001604052805f81526020015f81525090565b81526020016148b660405180604001604052805f81526020015f81525090565b81526020016148d660405180604001604052805f81526020015f81525090565b81526020016148f660405180604001604052805f81526020015f81525090565b815260200161491660405180604001604052805f81526020015f81525090565b815260200161493660405180604001604052805f81526020015f81525090565b815260200161495660405180604001604052805f81526020015f81525090565b815260200161497660405180604001604052805f81526020015f81525090565b815260200161499660405180604001604052805f81526020015f81525090565b81526020016149b660405180604001604052805f81526020015f81525090565b81526020016149d660405180604001604052805f81526020015f81525090565b81526020016149f660405180604001604052805f81526020015f81525090565b8152602001614a1660405180604001604052805f81526020015f81525090565b8152602001614a3660405180604001604052805f81526020015f81525090565b8152602001614a5660405180604001604052805f81526020015f81525090565b8152602001614a7660405180604001604052805f81526020015f81525090565b8152602001614a9660405180604001604052805f81526020015f81525090565b8152602001614ab660405180604001604052805f81526020015f81525090565b8152602001614ad660405180604001604052805f81526020015f81525090565b8152602001614af660405180604001604052805f81526020015f81525090565b8152602001614b1660405180604001604052805f81526020015f81525090565b8152602001614b3660405180604001604052805f81526020015f81525090565b8152602001614b5660405180604001604052805f81526020015f81525090565b8152602001614b7660405180604001604052805f81526020015f81525090565b8152602001614b9660405180604001604052805f81526020015f81525090565b8152602001614bb660405180604001604052805f81526020015f81525090565b905290565b604051806101c00160405280614bee60405180608001604052805f81526020015f81526020015f81526020015f81525090565b8152602001614c1a60405180608001604052805f81526020015f81526020015f81526020015f81525090565b8152602001614c4660405180608001604052805f81526020015f81526020015f81526020015f81525090565b8152602001614c7260405180608001604052805f81526020015f81526020015f81526020015f81525090565b8152602001614c9e60405180608001604052805f81526020015f81526020015f81526020015f81525090565b8152602001614cca60405180608001604052805f81526020015f81526020015f81526020015f81525090565b8152602001614cf660405180608001604052805f81526020015f81526020015f81526020015f81525090565b8152602001614d2260405180608001604052805f81526020015f81526020015f81526020015f81525090565b8152602001614d2f614fbf565b8152602001614d3c614fed565b8152602001614d4961500c565b8152602001614d56614ec8565b8152602001614d8260405180608001604052805f81526020015f81526020015f81526020015f81525090565b8152602001614bb660405180608001604052805f81526020015f81526020015f81526020015f81525090565b604051806101000160405280614ded6040518060c001604052805f81526020015f81526020015f81526020015f81526020015f81526020015f81525090565b8152602001614dfa614e8a565b8152602001614e07614ec8565b8152602001614e14614ec8565b81526020015f81526020015f81526020015f81526020015f81525090565b604051806108c001604052806046906020820280368337509192915050565b604051806108c001604052806046905b604080518082019091525f8082526020820152815260200190600190039081614e615790505090565b6040518061032001604052806019906020820280368337509192915050565b6040518061012001604052806009906020820280368337509192915050565b604051806103800160405280601c906020820280368337509192915050565b6040518061052001604052806029906020820280368337509192915050565b60405180610da00160405280606d906020820280368337509192915050565b604051806103a00160405280601d906020820280368337509192915050565b6040518060a001604052806005906020820280368337509192915050565b6040518061010001604052806008906020820280368337509192915050565b604051806103400160405280601a906020820280368337509192915050565b604051806101a00160405280600d906020820280368337509192915050565b604051806103800160405280601c905b614fd7614f62565b815260200190600190039081614fcf5790505090565b6040518061050001604052806028906020820280368337509192915050565b604051806103600160405280601b905b61504360405180608001604052805f81526020015f81526020015f81526020015f81525090565b81526020019060019003908161501c5790505090565b5f5f5f5f6040858703121561506c575f5ffd5b843567ffffffffffffffff811115615082575f5ffd5b8501601f81018713615092575f5ffd5b803567ffffffffffffffff8111156150a8575f5ffd5b8760208284010111156150b9575f5ffd5b60209182019550935085013567ffffffffffffffff8111156150d9575f5ffd5b8501601f810187136150e9575f5ffd5b803567ffffffffffffffff8111156150ff575f5ffd5b8760208260051b8401011115615113575f5ffd5b949793965060200194505050565b634e487b7160e01b5f52601160045260245ffd5b8082028115828204841417611fea57611fea615121565b5f5f8585111561515a575f5ffd5b83861115615166575f5ffd5b5050820193919092039150565b80820180821115611fea57611fea615121565b634e487b7160e01b5f52603260045260245ffd5b81810381811115611fea57611fea615121565b5f600182016151be576151be615121565b5060010190565b80356020831015611fea575f19602084900360031b1b1692915050565b5f8183825b60098110156152065781518352602092830192909101906001016151e7565b5050506101208201905092915050565b634e487b7160e01b5f52601260045260245ffd5b5f8261523857615238615216565b500490565b5f8183825b6029811015615261578151835260209283019290910190600101615242565b5050506105208201905092915050565b5f8183825b606d811015615295578151835260209283019290910190600101615276565b505050610da08201905092915050565b5f8183825b601d8110156152c95781518352602092830192909101906001016152aa565b5050506103a08201905092915050565b5f8183825b60058110156152fd5781518352602092830192909101906001016152de565b50505060a08201905092915050565b5f8261531a5761531a615216565b500690565b5f8161532d5761532d615121565b505f190190565b5f82518060208501845e5f920191825250919050565b5f6020828403121561535a575f5ffd5b815180151581146119b8575f5ffd5b634e487b7160e01b5f52604160045260245ffd5b81515f90829060208501835b828110156153a7578151845260209384019390910190600101615389565b509195945050505050565b5f8183825b600d8110156153d65781518352602092830192909101906001016153b7565b5050506101a08201905092915050565b634e487b7160e01b5f52602160045260245ffdfe30644e72e131a029b85045b68181585d2833e84879b9709143e1f593f0000001a2646970667358221220d66e4f0128e8091a34d6bbca74069258a7ccf6a0a7f33dc2874f7cae89a9ca6464736f6c634300081d0033","linkReferences":{}},"methodIdentifiers":{"verify(bytes,bytes32[])":"ea50d0e4"},"id":21}