{
  "contracts/PrivateVoting.sol": {
    "PrivateVoting": {
      "abi": [
        {
          "anonymous": false,
          "inputs": [
            {
              "indexed": true,
              "internalType": "uint64",
              "name": "id",
              "type": "uint64"
            },
            {
              "indexed": true,
              "internalType": "address",
              "name": "creator",
              "type": "address"
            }
          ],
          "name": "ProposalCreated",
          "type": "event"
        },
        {
          "anonymous": false,
          "inputs": [
            {
              "indexed": true,
              "internalType": "address",
              "name": "voter",
              "type": "address"
            },
            {
              "indexed": true,
              "internalType": "uint64",
              "name": "proposal_nonce",
              "type": "uint64"
            },
            {
              "indexed": false,
              "internalType": "bool",
              "name": "vote",
              "type": "bool"
            }
          ],
          "name": "VoteCast",
          "type": "event"
        },
        {
          "inputs": [
            {
              "internalType": "uint64",
              "name": "id",
              "type": "uint64"
            },
            {
              "internalType": "address",
              "name": "voter",
              "type": "address"
            },
            {
              "internalType": "uint64",
              "name": "proposal_nonce",
              "type": "uint64"
            }
          ],
          "name": "accountVoted",
          "outputs": [
            {
              "internalType": "bool",
              "name": "",
              "type": "bool"
            }
          ],
          "stateMutability": "view",
          "type": "function"
        },
        {
          "inputs": [
            {
              "internalType": "uint64",
              "name": "id",
              "type": "uint64"
            },
            {
              "internalType": "address",
              "name": "creator",
              "type": "address"
            },
            {
              "internalType": "string",
              "name": "description",
              "type": "string"
            },
            {
              "internalType": "uint64",
              "name": "voting_system",
              "type": "uint64"
            },
            {
              "internalType": "uint64",
              "name": "start_date",
              "type": "uint64"
            },
            {
              "internalType": "uint64",
              "name": "end_date",
              "type": "uint64"
            },
            {
              "internalType": "bool",
              "name": "finished",
              "type": "bool"
            },
            {
              "internalType": "uint64",
              "name": "result",
              "type": "uint64"
            }
          ],
          "name": "createProposal",
          "outputs": [],
          "stateMutability": "nonpayable",
          "type": "function"
        },
        {
          "inputs": [
            {
              "internalType": "uint64",
              "name": "id",
              "type": "uint64"
            },
            {
              "internalType": "uint64",
              "name": "result",
              "type": "uint64"
            }
          ],
          "name": "finishProposal",
          "outputs": [],
          "stateMutability": "nonpayable",
          "type": "function"
        },
        {
          "inputs": [
            {
              "internalType": "uint64",
              "name": "id",
              "type": "uint64"
            }
          ],
          "name": "getProposal",
          "outputs": [
            {
              "components": [
                {
                  "internalType": "uint64",
                  "name": "id",
                  "type": "uint64"
                },
                {
                  "internalType": "address",
                  "name": "creator",
                  "type": "address"
                },
                {
                  "internalType": "string",
                  "name": "description",
                  "type": "string"
                },
                {
                  "internalType": "uint64",
                  "name": "voting_system",
                  "type": "uint64"
                },
                {
                  "internalType": "uint64",
                  "name": "start_date",
                  "type": "uint64"
                },
                {
                  "internalType": "uint64",
                  "name": "end_date",
                  "type": "uint64"
                },
                {
                  "internalType": "bool",
                  "name": "finished",
                  "type": "bool"
                },
                {
                  "internalType": "uint64",
                  "name": "result",
                  "type": "uint64"
                }
              ],
              "internalType": "struct PrivateVoting.Proposal",
              "name": "",
              "type": "tuple"
            }
          ],
          "stateMutability": "view",
          "type": "function"
        },
        {
          "inputs": [
            {
              "internalType": "uint64",
              "name": "proposal_nonce",
              "type": "uint64"
            }
          ],
          "name": "getProposalVotes",
          "outputs": [
            {
              "components": [
                {
                  "internalType": "address",
                  "name": "voter",
                  "type": "address"
                },
                {
                  "internalType": "uint64",
                  "name": "timestamp",
                  "type": "uint64"
                },
                {
                  "internalType": "uint64",
                  "name": "proposal_nonce",
                  "type": "uint64"
                },
                {
                  "internalType": "uint64",
                  "name": "voter_nonce",
                  "type": "uint64"
                },
                {
                  "internalType": "bool",
                  "name": "vote",
                  "type": "bool"
                }
              ],
              "internalType": "struct PrivateVoting.Vote[]",
              "name": "",
              "type": "tuple[]"
            }
          ],
          "stateMutability": "view",
          "type": "function"
        },
        {
          "inputs": [],
          "name": "getProposals",
          "outputs": [
            {
              "components": [
                {
                  "internalType": "uint64",
                  "name": "id",
                  "type": "uint64"
                },
                {
                  "internalType": "address",
                  "name": "creator",
                  "type": "address"
                },
                {
                  "internalType": "string",
                  "name": "description",
                  "type": "string"
                },
                {
                  "internalType": "uint64",
                  "name": "voting_system",
                  "type": "uint64"
                },
                {
                  "internalType": "uint64",
                  "name": "start_date",
                  "type": "uint64"
                },
                {
                  "internalType": "uint64",
                  "name": "end_date",
                  "type": "uint64"
                },
                {
                  "internalType": "bool",
                  "name": "finished",
                  "type": "bool"
                },
                {
                  "internalType": "uint64",
                  "name": "result",
                  "type": "uint64"
                }
              ],
              "internalType": "struct PrivateVoting.Proposal[]",
              "name": "",
              "type": "tuple[]"
            }
          ],
          "stateMutability": "view",
          "type": "function"
        },
        {
          "inputs": [
            {
              "internalType": "uint64",
              "name": "",
              "type": "uint64"
            },
            {
              "internalType": "address",
              "name": "",
              "type": "address"
            },
            {
              "internalType": "uint64",
              "name": "",
              "type": "uint64"
            }
          ],
          "name": "hasVoted",
          "outputs": [
            {
              "internalType": "bool",
              "name": "",
              "type": "bool"
            }
          ],
          "stateMutability": "view",
          "type": "function"
        },
        {
          "inputs": [],
          "name": "proposalCount",
          "outputs": [
            {
              "internalType": "uint64",
              "name": "",
              "type": "uint64"
            }
          ],
          "stateMutability": "view",
          "type": "function"
        },
        {
          "inputs": [
            {
              "internalType": "uint256",
              "name": "",
              "type": "uint256"
            }
          ],
          "name": "proposalIds",
          "outputs": [
            {
              "internalType": "uint64",
              "name": "",
              "type": "uint64"
            }
          ],
          "stateMutability": "view",
          "type": "function"
        },
        {
          "inputs": [
            {
              "internalType": "uint64",
              "name": "",
              "type": "uint64"
            },
            {
              "internalType": "uint256",
              "name": "",
              "type": "uint256"
            }
          ],
          "name": "proposalVotes",
          "outputs": [
            {
              "internalType": "address",
              "name": "voter",
              "type": "address"
            },
            {
              "internalType": "uint64",
              "name": "timestamp",
              "type": "uint64"
            },
            {
              "internalType": "uint64",
              "name": "proposal_nonce",
              "type": "uint64"
            },
            {
              "internalType": "uint64",
              "name": "voter_nonce",
              "type": "uint64"
            },
            {
              "internalType": "bool",
              "name": "vote",
              "type": "bool"
            }
          ],
          "stateMutability": "view",
          "type": "function"
        },
        {
          "inputs": [
            {
              "internalType": "uint64",
              "name": "",
              "type": "uint64"
            }
          ],
          "name": "proposals",
          "outputs": [
            {
              "internalType": "uint64",
              "name": "id",
              "type": "uint64"
            },
            {
              "internalType": "address",
              "name": "creator",
              "type": "address"
            },
            {
              "internalType": "string",
              "name": "description",
              "type": "string"
            },
            {
              "internalType": "uint64",
              "name": "voting_system",
              "type": "uint64"
            },
            {
              "internalType": "uint64",
              "name": "start_date",
              "type": "uint64"
            },
            {
              "internalType": "uint64",
              "name": "end_date",
              "type": "uint64"
            },
            {
              "internalType": "bool",
              "name": "finished",
              "type": "bool"
            },
            {
              "internalType": "uint64",
              "name": "result",
              "type": "uint64"
            }
          ],
          "stateMutability": "view",
          "type": "function"
        },
        {
          "inputs": [
            {
              "internalType": "address",
              "name": "voter",
              "type": "address"
            },
            {
              "internalType": "uint64",
              "name": "timestamp",
              "type": "uint64"
            },
            {
              "internalType": "uint64",
              "name": "proposal_nonce",
              "type": "uint64"
            },
            {
              "internalType": "uint64",
              "name": "voter_nonce",
              "type": "uint64"
            },
            {
              "internalType": "bool",
              "name": "_vote",
              "type": "bool"
            }
          ],
          "name": "vote",
          "outputs": [
            {
              "internalType": "bool",
              "name": "",
              "type": "bool"
            }
          ],
          "stateMutability": "nonpayable",
          "type": "function"
        }
      ],
      "evm": {
        "assembly": "// RO data = 0/0 bytes\n// RW data = 144/65728 bytes\n// Stack size = 32768 bytes\n\n// Instructions = 10838\n// Code size = 38545 bytes\n\n      : @0 (gas: 1)\n     0: jump @14 if a0 == a1\n      : @1 (gas: 9)\n     3: a3 = a1 << 0x20\n     6: a3 = a3 >> 0x20\n     9: a4 = a0 << 0x20\n    12: a4 = a4 >> 0x20\n    15: a4 = a4 + a2\n    18: a3 = a3 - a4\n    21: a4 = a2 << 0x1\n    24: a4 = -a4\n    26: jump @7 if a4 >=u a3\n      : @2 (gas: 1)\n    29: jump @11 if a0 >=u a1\n      : @3 (gas: 1)\n    32: jump @14 if a2 == 0\n      : @4 (gas: 3)\n    35: a2 = a2 + a0\n    38: a3 = a0\n    40: fallthrough\n      : @5 (gas: 6)\n    41: a4 = u8 [a1]\n    43: a1 = a1 + 0x1\n    46: a5 = a3 + 0x1\n    49: u8 [a3] = a4\n    51: a3 = a5\n    53: jump @5 if a5 != a2\n      : @6 (gas: 1)\n    56: jump @14\n      : @7 (gas: 1)\n    58: jump @14 if a2 == 0\n      : @8 (gas: 3)\n    61: a2 = a2 + a0\n    64: a3 = a0\n    66: fallthrough\n      : @9 (gas: 6)\n    67: a4 = u8 [a1]\n    69: a1 = a1 + 0x1\n    72: a5 = a3 + 0x1\n    75: u8 [a3] = a4\n    77: a3 = a5\n    79: jump @9 if a5 != a2\n      : @10 (gas: 1)\n    82: jump @14\n      : @11 (gas: 1)\n    84: jump @14 if a2 == 0\n      : @12 (gas: 2)\n    87: i32 a3 = a2 + 0xffffffffffffffff\n    90: fallthrough\n      : @13 (gas: 7)\n    91: a4 = a1 + a3\n    94: a4 = u8 [a4]\n    96: a2 = a2 + 0xffffffffffffffff\n    99: a5 = a0 + a3\n   102: u8 [a5] = a4\n   104: i32 a3 = a3 + 0xffffffffffffffff\n   107: jump @13 if a2 != 0\n      : @14 (gas: 1)\n   110: ret\n      : @15 (gas: 2)\n   112: a1 = i32 [0x20098]\n   117: jump @44 if a1 == 0\n      : @16 (gas: 4)\n   121: a0 = 0x300c0\n   126: i32 a0 = a0 + 0\n   128: ecalli 8 // 'set_immutable_data'\n   130: jump @44\n      : @17 (gas: 8)\n   133: sp = sp + 0xfffffffffffffff0\n   136: u64 [sp + 0x8] = ra\n   139: u64 [sp] = s0\n   141: a2 = a1\n   143: s0 = a0\n   145: a1 = 0x20\n   148: a0 = a2\n   150: ra = 2, jump @27\n      : @18 [@dyn 1] (gas: 100)\n   155: a1 = u8 [a0 + 0x1]\n   158: a2 = u8 [a0]\n   160: a3 = u8 [a0 + 0x2]\n   163: a4 = u8 [a0 + 0x3]\n   166: a1 = a1 << 0x8\n   169: a1 = a1 | a2\n   172: a3 = a3 << 0x10\n   175: a4 = a4 << 0x18\n   178: a3 = a3 | a4\n   181: a1 = a1 | a3\n   184: a2 = u8 [a0 + 0x5]\n   187: a3 = u8 [a0 + 0x4]\n   190: a4 = u8 [a0 + 0x6]\n   193: a5 = u8 [a0 + 0x7]\n   196: a2 = a2 << 0x8\n   199: a2 = a2 | a3\n   202: a4 = a4 << 0x10\n   205: a5 = a5 << 0x18\n   208: a4 = a4 | a5\n   211: a2 = a2 | a4\n   214: a2 = a2 << 0x20\n   217: t0 = a2 | a1\n   220: a2 = u8 [a0 + 0x9]\n   223: a3 = u8 [a0 + 0x8]\n   226: a4 = u8 [a0 + 0xa]\n   229: a5 = u8 [a0 + 0xb]\n   232: a2 = a2 << 0x8\n   235: a2 = a2 | a3\n   238: a4 = a4 << 0x10\n   241: a5 = a5 << 0x18\n   244: a4 = a4 | a5\n   247: a2 = a2 | a4\n   250: a3 = u8 [a0 + 0xd]\n   253: a4 = u8 [a0 + 0xc]\n   256: a5 = u8 [a0 + 0xe]\n   259: a1 = u8 [a0 + 0xf]\n   262: a3 = a3 << 0x8\n   265: a3 = a3 | a4\n   268: a5 = a5 << 0x10\n   271: a1 = a1 << 0x18\n   274: a1 = a1 | a5\n   277: a1 = a1 | a3\n   280: a1 = a1 << 0x20\n   283: t1 = a1 | a2\n   286: a1 = u8 [a0 + 0x11]\n   289: a3 = u8 [a0 + 0x10]\n   292: a4 = u8 [a0 + 0x12]\n   295: a5 = u8 [a0 + 0x13]\n   298: a1 = a1 << 0x8\n   301: a1 = a1 | a3\n   304: a4 = a4 << 0x10\n   307: a5 = a5 << 0x18\n   310: a4 = a4 | a5\n   313: a1 = a1 | a4\n   316: a3 = u8 [a0 + 0x15]\n   319: a4 = u8 [a0 + 0x14]\n   322: a5 = u8 [a0 + 0x16]\n   325: a2 = u8 [a0 + 0x17]\n   328: a3 = a3 << 0x8\n   331: a3 = a3 | a4\n   334: a5 = a5 << 0x10\n   337: a2 = a2 << 0x18\n   340: a2 = a2 | a5\n   343: a2 = a2 | a3\n   346: a2 = a2 << 0x20\n   349: a3 = a2 | a1\n   352: a1 = u8 [a0 + 0x19]\n   355: a2 = u8 [a0 + 0x18]\n   358: a4 = u8 [a0 + 0x1a]\n   361: a5 = u8 [a0 + 0x1b]\n   364: a1 = a1 << 0x8\n   367: a1 = a1 | a2\n   370: a4 = a4 << 0x10\n   373: a5 = a5 << 0x18\n   376: a4 = a4 | a5\n   379: a1 = a1 | a4\n   382: a2 = u8 [a0 + 0x1d]\n   385: a4 = u8 [a0 + 0x1c]\n   388: a5 = u8 [a0 + 0x1e]\n   391: a0 = u8 [a0 + 0x1f]\n   394: a2 = a2 << 0x8\n   397: a2 = a2 | a4\n   400: a5 = a5 << 0x10\n   403: a0 = a0 << 0x18\n   406: a0 = a0 | a5\n   409: a0 = a0 | a2\n   412: a0 = a0 << 0x20\n   415: a0 = a0 | a1\n   418: a0 = reverse a0\n   420: a1 = reverse a3\n   422: a2 = reverse t1\n   424: a3 = reverse t0\n   426: u64 [s0 + 0x18] = a3\n   429: u64 [s0 + 0x10] = a2\n   432: u64 [s0 + 0x8] = a1\n   435: u64 [s0] = a0\n   437: ra = u64 [sp + 0x8]\n   440: s0 = u64 [sp]\n   442: sp = sp + 0x10\n   445: ret\n      : @19 (gas: 12)\n   447: sp = sp + 0xffffffffffffffd8\n   450: u64 [sp + 0x20] = ra\n   453: u64 [sp + 0x18] = s0\n   456: u64 [sp + 0x10] = s1\n   459: a2 = u64 [a1]\n   461: u64 [sp + 0x8] = a2\n   464: a2 = u64 [a1 + 0x8]\n   467: u64 [sp] = a2\n   469: s0 = u64 [a1 + 0x10]\n   472: s1 = u64 [a1 + 0x18]\n   475: a1 = 0x20\n   478: ra = 4, jump @27\n      : @20 [@dyn 2] (gas: 71)\n   483: a1 = reverse s1\n   485: a2 = reverse s0\n   487: a3 = u64 [sp]\n   489: a3 = reverse a3\n   491: a4 = u64 [sp + 0x8]\n   494: a4 = reverse a4\n   496: u8 [a0 + 0x18] = a4\n   499: u8 [a0 + 0x10] = a3\n   502: u8 [a0 + 0x8] = a2\n   505: u8 [a0] = a1\n   507: a5 = a4 >> 0x38\n   510: u8 [a0 + 0x1f] = a5\n   513: a5 = a4 >> 0x30\n   516: u8 [a0 + 0x1e] = a5\n   519: a5 = a4 >> 0x28\n   522: u8 [a0 + 0x1d] = a5\n   525: a5 = a4 >> 0x20\n   528: u8 [a0 + 0x1c] = a5\n   531: a5 = a4 >> 0x18\n   534: u8 [a0 + 0x1b] = a5\n   537: a5 = a4 >> 0x10\n   540: u8 [a0 + 0x1a] = a5\n   543: a4 = a4 >> 0x8\n   546: u8 [a0 + 0x19] = a4\n   549: a4 = a3 >> 0x38\n   552: u8 [a0 + 0x17] = a4\n   555: a4 = a3 >> 0x30\n   558: u8 [a0 + 0x16] = a4\n   561: a4 = a3 >> 0x28\n   564: u8 [a0 + 0x15] = a4\n   567: a4 = a3 >> 0x20\n   570: u8 [a0 + 0x14] = a4\n   573: a4 = a3 >> 0x18\n   576: u8 [a0 + 0x13] = a4\n   579: a4 = a3 >> 0x10\n   582: u8 [a0 + 0x12] = a4\n   585: a3 = a3 >> 0x8\n   588: u8 [a0 + 0x11] = a3\n   591: a3 = a2 >> 0x38\n   594: u8 [a0 + 0xf] = a3\n   597: a3 = a2 >> 0x30\n   600: u8 [a0 + 0xe] = a3\n   603: a3 = a2 >> 0x28\n   606: u8 [a0 + 0xd] = a3\n   609: a3 = a2 >> 0x20\n   612: u8 [a0 + 0xc] = a3\n   615: a3 = a2 >> 0x18\n   618: u8 [a0 + 0xb] = a3\n   621: a3 = a2 >> 0x10\n   624: u8 [a0 + 0xa] = a3\n   627: a2 = a2 >> 0x8\n   630: u8 [a0 + 0x9] = a2\n   633: a2 = a1 >> 0x38\n   636: u8 [a0 + 0x7] = a2\n   639: a2 = a1 >> 0x30\n   642: u8 [a0 + 0x6] = a2\n   645: a2 = a1 >> 0x28\n   648: u8 [a0 + 0x5] = a2\n   651: a2 = a1 >> 0x20\n   654: u8 [a0 + 0x4] = a2\n   657: a2 = a1 >> 0x18\n   660: u8 [a0 + 0x3] = a2\n   663: a2 = a1 >> 0x10\n   666: u8 [a0 + 0x2] = a2\n   669: a1 = a1 >> 0x8\n   672: u8 [a0 + 0x1] = a1\n   675: ra = u64 [sp + 0x20]\n   678: s0 = u64 [sp + 0x18]\n   681: s1 = u64 [sp + 0x10]\n   684: sp = sp + 0x28\n   687: ret\n      : @21 (gas: 43)\n   689: sp = sp + 0xffffffffffffffa0\n   692: u64 [sp + 0x58] = ra\n   695: u64 [sp + 0x50] = s0\n   698: u64 [sp + 0x48] = s1\n   701: s0 = sp + 0x60\n   704: sp = sp & 0xffffffffffffffe0\n   707: s1 = a0\n   709: a0 = u64 [a1 + 0x18]\n   712: a2 = u64 [a1 + 0x10]\n   715: a3 = u64 [a1 + 0x8]\n   718: a1 = u64 [a1]\n   720: a0 = reverse a0\n   722: a2 = reverse a2\n   724: a3 = reverse a3\n   726: a1 = reverse a1\n   728: u64 [sp + 0x18] = a1\n   731: u64 [sp + 0x10] = a3\n   734: u64 [sp + 0x8] = a2\n   737: u64 [sp] = a0\n   739: u64 [sp + 56] = 0\n   742: u64 [sp + 48] = 0\n   745: u64 [sp + 40] = 0\n   748: u64 [sp + 32] = 0\n   751: u32 [sp + 64] = 0x20\n   755: i32 a1 = sp + 0\n   757: i32 a3 = sp + 0x20\n   760: i32 a4 = sp + 0x40\n   763: a2 = 0xffffffffffffffff\n   766: a0 = 0\n   768: ecalli 5 // 'get_storage'\n   770: a0 = u64 [sp + 0x38]\n   773: a1 = u64 [sp + 0x30]\n   776: a2 = u64 [sp + 0x28]\n   779: a3 = u64 [sp + 0x20]\n   782: a0 = reverse a0\n   784: a1 = reverse a1\n   786: a2 = reverse a2\n   788: a3 = reverse a3\n   790: u64 [s1 + 0x18] = a3\n   793: u64 [s1 + 0x10] = a2\n   796: u64 [s1 + 0x8] = a1\n   799: u64 [s1] = a0\n   801: t0 = 6, jump @1347\n      : @22 [@dyn 3] (gas: 1)\n   807: ret\n      : @23 (gas: 40)\n   809: sp = sp + 0xffffffffffffffa0\n   812: u64 [sp + 0x58] = ra\n   815: u64 [sp + 0x50] = s0\n   818: s0 = sp + 0x60\n   821: sp = sp & 0xffffffffffffffe0\n   824: t0 = u64 [a0]\n   826: a3 = u64 [a0 + 0x8]\n   829: a4 = u64 [a0 + 0x10]\n   832: a0 = u64 [a0 + 0x18]\n   835: t1 = u64 [a1]\n   837: a2 = u64 [a1 + 0x8]\n   840: a5 = u64 [a1 + 0x10]\n   843: a1 = u64 [a1 + 0x18]\n   846: t2 = reverse a0\n   848: a4 = reverse a4\n   850: a3 = reverse a3\n   852: a0 = reverse t0\n   854: t0 = reverse a1\n   856: a5 = reverse a5\n   858: a2 = reverse a2\n   860: a1 = reverse t1\n   862: u64 [sp + 0x18] = a0\n   865: u64 [sp + 0x10] = a3\n   868: u64 [sp + 0x8] = a4\n   871: u64 [sp] = t2\n   873: u64 [sp + 0x38] = a1\n   876: u64 [sp + 0x30] = a2\n   879: u64 [sp + 0x28] = a5\n   882: u64 [sp + 0x20] = t0\n   885: i32 a1 = sp + 0\n   887: i32 a3 = sp + 0x20\n   890: a2 = 0xffffffffffffffff\n   893: a4 = 0x20\n   896: a0 = 0\n   898: ecalli 9 // 'set_storage'\n   900: sp = s0 + 0xffffffffffffffa0\n   903: ra = u64 [sp + 0x58]\n   906: s0 = u64 [sp + 0x50]\n   909: sp = sp + 0x60\n   912: ret\n      : @24 (gas: 33)\n   914: sp = sp + 0xffffffffffffff20\n   918: u64 [sp + 0xd8] = ra\n   922: u64 [sp + 0xd0] = s0\n   926: u64 [sp + 0xc8] = s1\n   930: s0 = sp + 0xe0\n   934: sp = sp & 0xffffffffffffffe0\n   937: a5 = u64 [a4]\n   939: u64 [sp + 0x40] = a5\n   942: a5 = u64 [a4 + 0x8]\n   945: u64 [sp + 0x48] = a5\n   948: a5 = u64 [a4 + 0x10]\n   951: u64 [sp + 0x50] = a5\n   954: a4 = u64 [a4 + 0x18]\n   957: u64 [sp + 0x58] = a4\n   960: t0 = 0x8\n   963: a4 = u64 [a3]\n   965: u64 [sp + 0x18] = a4\n   968: a4 = u64 [a3 + 0x8]\n   971: u64 [sp + 0x20] = a4\n   974: a4 = u64 [a3 + 0x10]\n   977: u64 [sp + 0x28] = a4\n   980: a3 = u64 [a3 + 0x18]\n   983: u64 [sp + 0x30] = a3\n   986: s1 = u64 [a2]\n   988: a3 = u64 [a2 + 0x8]\n   991: u64 [sp] = a3\n   993: a3 = u64 [a2 + 0x10]\n   996: u64 [sp + 0x8] = a3\n   999: a2 = u64 [a2 + 0x18]\n  1002: u64 [sp + 0x10] = a2\n  1005: u64 [sp + 0x38] = a1\n  1008: ra = 0xa\n  1011: jump @27\n      : @25 [@dyn 4] (gas: 2)\n  1014: u64 [sp + 0x38] = a1\n  1017: ra = 10, jump @27\n      : @26 [@dyn 5] (gas: 46)\n  1022: a1 = reverse s1\n  1024: u64 [sp + 0x78] = a1\n  1027: a1 = u64 [sp]\n  1029: a1 = reverse a1\n  1031: u64 [sp + 0x70] = a1\n  1034: a1 = u64 [sp + 0x8]\n  1037: a1 = reverse a1\n  1039: u64 [sp + 0x68] = a1\n  1042: a1 = u64 [sp + 0x10]\n  1045: a1 = reverse a1\n  1047: u64 [sp + 0x60] = a1\n  1050: a1 = u64 [sp + 0x18]\n  1053: a1 = reverse a1\n  1055: u64 [sp + 0x98] = a1\n  1059: a1 = u64 [sp + 0x20]\n  1062: a1 = reverse a1\n  1064: u64 [sp + 0x90] = a1\n  1068: a1 = u64 [sp + 0x28]\n  1071: a1 = reverse a1\n  1073: u64 [sp + 0x88] = a1\n  1077: a1 = u64 [sp + 0x30]\n  1080: a1 = reverse a1\n  1082: u64 [sp + 0x80] = a1\n  1086: a1 = u64 [sp + 0x40]\n  1089: a1 = reverse a1\n  1091: u64 [sp + 0xb8] = a1\n  1095: a1 = u64 [sp + 0x48]\n  1098: a1 = reverse a1\n  1100: u64 [sp + 0xb0] = a1\n  1104: a1 = u64 [sp + 0x50]\n  1107: a1 = reverse a1\n  1109: u64 [sp + 0xa8] = a1\n  1113: a1 = u64 [sp + 0x58]\n  1116: a1 = reverse a1\n  1118: u64 [sp + 0xa0] = a1\n  1122: i32 a2 = a0 + 0\n  1124: a3 = i32 [sp + 0x38]\n  1127: i32 a0 = sp + 0x60\n  1130: a1 = 0x3\n  1133: ecalli 4 // 'deposit_event'\n  1135: sp = s0 + 0xffffffffffffff20\n  1139: ra = u64 [sp + 0xd8]\n  1143: s0 = u64 [sp + 0xd0]\n  1147: s1 = u64 [sp + 0xc8]\n  1151: sp = sp + 0xe0\n  1155: ret\n      : @27 (gas: 2)\n  1157: i32 a2 = a0 >> 0x10\n  1160: jump @32 if a2 != 0\n      : @28 (gas: 4)\n  1163: a1 = a1 + a0\n  1166: i32 a1 = a1 + 0x1f\n  1169: a1 = a1 & 0xffffffffffffffe0\n  1172: jump @32 if a1 >u 65536\n      : @29 (gas: 3)\n  1178: a2 = 0x20094\n  1183: a3 = i32 [0x20094]\n  1188: jump @31 if a3 >=u a1\n      : @30 (gas: 2)\n  1191: u32 [0x20094] = a1\n  1196: fallthrough\n      : @31 (gas: 4)\n  1197: a1 = 0x200a0\n  1202: i32 a0 = a0 + 0\n  1204: a0 = a0 + a1\n  1207: ret\n      : @32 (gas: 1)\n  1209: trap\n      : @33 (gas: 6)\n  1210: sp = sp + 0xfffffffffffffff0\n  1213: u64 [sp + 0x8] = ra\n  1216: u64 [sp] = s0\n  1218: s0 = a0 & 0x1\n  1221: ecalli 2 // 'call_data_size'\n  1223: fallthrough\n      : @34 (gas: 2)\n  1224: u32 [0x20090] = a0\n  1229: jump @36 if s0 == 0\n      : @35 (gas: 1)\n  1232: ra = 12, jump @37\n      : @36 [@dyn 6] (gas: 1)\n  1236: ra = 14, jump @46\n      : @37 [@dyn 7] (gas: 12)\n  1241: sp = sp + 0xffffffffffffffa0\n  1244: u64 [sp + 0x58] = ra\n  1247: u64 [sp + 0x50] = s0\n  1250: s0 = sp + 0x60\n  1253: sp = sp & 0xffffffffffffffe0\n  1256: u64 [sp + 24] = 0\n  1259: u64 [sp + 16] = 0\n  1262: u64 [sp + 0] = 0x80\n  1266: a0 = 0x40\n  1269: a1 = sp\n  1271: u64 [sp + 8] = 0\n  1274: ra = 16, jump @19\n      : @38 [@dyn 8] (gas: 7)\n  1279: u64 [sp + 56] = 0\n  1282: u64 [sp + 48] = 0\n  1285: u64 [sp + 40] = 0\n  1288: u64 [sp + 32] = 0\n  1291: i32 a0 = sp + 0x20\n  1294: ecalli 10 // 'value_transferred'\n  1296: fallthrough\n      : @39 (gas: 8)\n  1297: a0 = u64 [sp + 0x30]\n  1300: a1 = u64 [sp + 0x38]\n  1303: a2 = u64 [sp + 0x28]\n  1306: a3 = u64 [sp + 0x20]\n  1309: a1 = a1 | a2\n  1312: a0 = a0 | a3\n  1315: a0 = a0 | a1\n  1318: jump @41 if a0 == 0\n      : @40 (gas: 7)\n  1321: a1 = 0x200a0\n  1326: i32 a1 = a1 + 0\n  1328: a0 = 0x1\n  1331: a2 = 0\n  1333: ra = 0x14\n  1336: ecalli 7 // 'seal_return'\n  1338: jump @46\n      : @41 (gas: 2)\n  1340: a1 = i32 [0x20094]\n  1345: jump @43 if a1 >u 127\n      : @42 (gas: 2)\n  1349: u32 [0x20094] = 0x80\n  1356: fallthrough\n      : @43 (gas: 6)\n  1357: a0 = 0x200a0\n  1362: i32 a0 = a0 + 0x80\n  1366: a1 = 0\n  1368: a2 = 0\n  1370: ecalli 0 // 'call_data_copy'\n  1371: jump @15\n      : @44 (gas: 3)\n  1374: a0 = 0x80\n  1378: a1 = 0\n  1380: ra = 18, jump @27\n      : @45 [@dyn 9] (gas: 6)\n  1385: i32 a1 = a0 + 0\n  1387: a0 = 0\n  1389: a2 = 0\n  1391: ra = 0x14\n  1394: ecalli 7 // 'seal_return'\n  1396: fallthrough\n      : @46 [@dyn 10] (gas: 16)\n  1397: sp = sp + 0xfffffffffffffe10\n  1401: u64 [sp + 0x1e8] = ra\n  1405: u64 [sp + 0x1e0] = s0\n  1409: u64 [sp + 0x1d8] = s1\n  1413: s0 = sp + 0x1f0\n  1417: sp = sp + 0xffffffffffffcb10\n  1421: sp = sp & 0xffffffffffffffe0\n  1424: s1 = sp\n  1426: a2 = s1 + 0x28f8\n  1430: u64 [a2 + 1344] = 0\n  1434: u64 [a2 + 1336] = 0\n  1438: u64 [a2 + 1320] = 0x80\n  1444: a0 = 0x40\n  1447: a1 = s1 + 0x2e20\n  1451: u64 [a2 + 1328] = 0\n  1455: ra = 22, jump @19\n      : @47 [@dyn 11] (gas: 4)\n  1460: a0 = 0x20090\n  1465: u64 [s1 + 0x158] = a0\n  1469: a0 = i32 [0x20090]\n  1474: jump @49 if a0 >=u 4\n      : @48 (gas: 1)\n  1478: jump @933\n      : @49 (gas: 6)\n  1481: a0 = s1 + 0x3000\n  1485: i32 a0 = a0 + 0xfffffffffffffe40\n  1489: a1 = 0\n  1491: ra = 0x18\n  1494: ecalli 1 // 'call_data_load'\n  1496: fallthrough\n      : @50 [@dyn 12] (gas: 3)\n  1497: a3 = s1 + 0x28f8\n  1501: a0 = i32 [a3 + 0x564]\n  1505: jump @52 if a0 != 2601395836\n      : @51 (gas: 1)\n  1512: jump @331\n      : @52 (gas: 1)\n  1515: jump @90 if a0 == 2607041059\n      : @53 (gas: 2)\n  1523: a2 = s1 + 0x30f8\n  1527: jump @55 if a0 != 2793957501\n      : @54 (gas: 1)\n  1534: jump @630\n      : @55 (gas: 1)\n  1537: jump @57 if a0 != 3038542845\n      : @56 (gas: 1)\n  1544: jump @207\n      : @57 (gas: 1)\n  1547: jump @110 if a0 == 3660957284\n      : @58 (gas: 1)\n  1555: jump @60 if a0 != 4049668648\n      : @59 (gas: 1)\n  1562: jump @565\n      : @60 (gas: 1)\n  1565: jump @121 if a0 == 298517152\n      : @61 (gas: 1)\n  1573: jump @155 if a0 == 811119219\n      : @62 (gas: 1)\n  1581: jump @64 if a0 != 835055304\n      : @63 (gas: 1)\n  1588: jump @466\n      : @64 (gas: 1)\n  1591: jump @66 if a0 != 1410353100\n      : @65 (gas: 1)\n  1598: jump @512\n      : @66 (gas: 1)\n  1601: jump @68 if a0 == 1649822792\n      : @67 (gas: 1)\n  1608: jump @669\n      : @68 (gas: 8)\n  1611: u64 [a3 + 1792] = 0\n  1615: u64 [a3 + 1784] = 0\n  1619: u64 [a3 + 1776] = 0\n  1623: u64 [a3 + 1768] = 0\n  1627: a0 = s1 + 0x3000\n  1631: i32 a0 = a0 + 0xffffffffffffffe0\n  1634: ecalli 10 // 'value_transferred'\n  1636: fallthrough\n      : @69 (gas: 10)\n  1637: a3 = s1 + 0x28f8\n  1641: a4 = a3 + 0x600\n  1645: a0 = u64 [a4 + 0xf8]\n  1649: a1 = u64 [a3 + 0x700]\n  1653: a2 = u64 [a4 + 0xf0]\n  1657: a3 = u64 [a4 + 0xe8]\n  1661: a1 = a1 | a2\n  1664: a0 = a0 | a3\n  1667: a0 = a0 | a1\n  1670: jump @71 if a0 == 0\n      : @70 (gas: 1)\n  1673: jump @936\n      : @71 (gas: 3)\n  1676: a0 = u64 [s1 + 0x158]\n  1680: a0 = i32 [a0]\n  1682: jump @73 if a0 >u 3\n      : @72 (gas: 1)\n  1686: jump @937\n      : @73 (gas: 8)\n  1689: a1 = s1 + 0x28f8\n  1693: u64 [a1 + 1824] = 0\n  1697: u64 [a1 + 1816] = 0\n  1701: u64 [a1 + 1808] = 0\n  1705: u64 [a1 + 1800] = 0x4\n  1710: a0 = s1 + 0x1340\n  1714: a1 = s1 + 0x3000\n  1718: ra = 26, jump @21\n      : @74 [@dyn 13] (gas: 11)\n  1723: a0 = s1 + 0x10f8\n  1727: a2 = u64 [a0 + 0x248]\n  1731: u64 [a0 + 544] = 0\n  1735: u64 [a0 + 536] = 0\n  1739: u64 [a0 + 528] = 0\n  1743: a3 = a0\n  1745: a0 = s1 + 0x1320\n  1749: a1 = s1 + 0x1300\n  1753: u64 [s1 + 0x158] = a2\n  1757: u64 [a3 + 0x208] = a2\n  1761: ra = 28, jump @1237\n      : @75 [@dyn 14] (gas: 13)\n  1767: a0 = s1 + 0x10f8\n  1771: a2 = a0 + 0x200\n  1775: a1 = u64 [a2 + 0x28]\n  1778: u64 [s1 + 0x150] = a1\n  1782: a1 = u64 [a2 + 0x30]\n  1785: u64 [s1 + 0x148] = a1\n  1789: a1 = u64 [a2 + 0x38]\n  1792: u64 [s1 + 0x140] = a1\n  1796: a1 = u64 [a2 + 0x40]\n  1799: u64 [s1 + 0x138] = a1\n  1803: a0 = s1 + 0x12e0\n  1807: a1 = 0x40\n  1810: ra = 30, jump @17\n      : @76 [@dyn 15] (gas: 26)\n  1815: a0 = s1 + 0x10f8\n  1819: a2 = u64 [a0 + 0x200]\n  1823: u64 [s1 + 0xe0] = a2\n  1827: a3 = u64 [a0 + 0x1f8]\n  1831: u64 [s1 + 0xd8] = a3\n  1835: a4 = u64 [a0 + 0x1f0]\n  1839: u64 [s1 + 0xd0] = a4\n  1843: a5 = u64 [a0 + 0x1e8]\n  1847: u64 [s1 + 0xe8] = a5\n  1851: a1 = u64 [s1 + 0x138]\n  1855: u64 [a0 + 0x1c0] = a1\n  1859: a1 = u64 [s1 + 0x140]\n  1863: u64 [a0 + 0x1b8] = a1\n  1867: a1 = u64 [s1 + 0x148]\n  1871: u64 [a0 + 0x1b0] = a1\n  1875: a1 = u64 [s1 + 0x150]\n  1879: u64 [a0 + 0x1a8] = a1\n  1883: a1 = a0 + 0x100\n  1887: u64 [a1 + 0xe0] = a2\n  1891: u64 [a1 + 0xd8] = a3\n  1895: u64 [a1 + 0xd0] = a4\n  1899: a2 = a0\n  1901: a0 = s1 + 0x12c0\n  1905: a1 = s1 + 0x12a0\n  1909: u64 [a2 + 0x1c8] = a5\n  1913: ra = 32, jump @1122\n      : @77 [@dyn 16] (gas: 12)\n  1918: a0 = u64 [s1 + 0xe8]\n  1922: a1 = u64 [s1 + 0xd0]\n  1926: a2 = u64 [s1 + 0xd8]\n  1930: a5 = u64 [s1 + 0xe0]\n  1934: a5 = a5 | a1\n  1937: a1 = a0 | a2\n  1940: a1 = a1 | a5\n  1943: a1 = a1 >> 0x20\n  1946: a5 = a5 | a2\n  1949: a5 = a5 << 0x20\n  1952: a1 = a1 | a5\n  1955: jump @79 if a1 == 0\n      : @78 (gas: 1)\n  1958: jump @911\n      : @79 (gas: 8)\n  1961: a3 = s1 + 0x10f8\n  1965: u64 [a3 + 416] = 0\n  1969: u64 [a3 + 408] = 0\n  1973: u64 [a3 + 400] = 0\n  1977: a1 = s1 + 0x1280\n  1981: a2 = u64 [s1 + 0x158]\n  1985: u64 [a3 + 0x188] = a2\n  1989: ra = 34, jump @19\n      : @80 [@dyn 17] (gas: 9)\n  1994: a2 = s1 + 0x10f8\n  1998: u64 [a2 + 352] = 0\n  2002: u64 [a2 + 344] = 0\n  2006: a0 = u64 [s1 + 0x158]\n  2010: u64 [a2 + 0x148] = a0\n  2014: a0 = s1 + 0x1260\n  2018: a1 = s1 + 0x1240\n  2022: u64 [a2 + 336] = 0\n  2026: ra = 36, jump @1237\n      : @81 [@dyn 18] (gas: 46)\n  2032: a3 = s1 + 0x10f8\n  2036: a5 = a3 + 0x100\n  2040: a0 = u64 [a5 + 0x68]\n  2043: t0 = 0\n  2045: t1 = 0\n  2047: ra = 0\n  2049: a4 = 0\n  2051: a1 = u64 [a5 + 0x70]\n  2054: a2 = u64 [a5 + 0x78]\n  2057: a5 = a3\n  2059: a3 = a0 + 0xffffffffffffffe0\n  2062: u64 [s1 + 0x138] = a3\n  2066: a0 = a3 <u a0\n  2069: a3 = a1 + a0\n  2072: a3 = a3 + 0xffffffffffffffff\n  2075: t2 = a3 ^ a1\n  2078: u64 [s1 + 0x130] = a3\n  2082: a1 = a3 <u a1\n  2085: a1 = a0 if t2 == 0\n  2088: a0 = u64 [a5 + 0x180]\n  2092: a3 = a2 + 0xffffffffffffffff\n  2095: a1 = a1 + a3\n  2098: a5 = s1 + 0x100\n  2102: u64 [a5 + 0x28] = a1\n  2105: a1 = a1 <u a3\n  2108: a2 = a2 <u 0x1\n  2111: a0 = a0 - a2\n  2114: a0 = a0 + a1\n  2117: u64 [a5 + 0x20] = a0\n  2120: a1 = u64 [s1 + 0xe8]\n  2124: a0 = a1 + 0x20\n  2127: u64 [a5 + 0x18] = a0\n  2130: a0 = a0 <u a1\n  2133: a2 = u64 [s1 + 0xd0]\n  2137: a1 = a2 + a0\n  2140: u64 [a5 + 0x10] = a1\n  2143: a1 = a1 <u a2\n  2146: a1 = a0 if a0 == 0\n  2149: a0 = u64 [s1 + 0xd8]\n  2153: a1 = a1 + a0\n  2156: u64 [a5 + 0x8] = a1\n  2159: a0 = a1 <u a0\n  2162: a1 = u64 [s1 + 0xe0]\n  2166: a0 = a0 + a1\n  2169: u64 [a5] = a0\n  2171: fallthrough\n      : @82 (gas: 16)\n  2172: a0 = u64 [s1 + 0x138]\n  2176: a0 = t0 <u a0\n  2179: a2 = u64 [s1 + 0x130]\n  2183: a1 = t1 ^ a2\n  2186: a2 = t1 <u a2\n  2189: a2 = a0 if a1 == 0\n  2192: a0 = u64 [s1 + 0x128]\n  2196: a5 = ra <u a0\n  2199: a3 = u64 [s1 + 0x120]\n  2203: a1 = a4 ^ a3\n  2206: a3 = a4 <u a3\n  2209: a3 = a5 if a1 == 0\n  2212: a0 = ra ^ a0\n  2215: a0 = a0 | a1\n  2218: a3 = a2 if a0 == 0\n  2221: jump @84 if a3 != 0\n      : @83 (gas: 1)\n  2224: jump @744\n      : @84 (gas: 7)\n  2227: a0 = s1 + 0x7ff\n  2231: a0 = a0 + 0x561\n  2235: u64 [s1 + 0x158] = a4\n  2239: u64 [s1 + 0x150] = ra\n  2243: u64 [s1 + 0x148] = t0\n  2247: u64 [s1 + 0x140] = t1\n  2251: ra = 38, jump @1260\n      : @85 [@dyn 19] (gas: 30)\n  2257: t2 = u64 [s1 + 0x140]\n  2261: ra = u64 [s1 + 0x148]\n  2265: t1 = u64 [s1 + 0x150]\n  2269: a1 = u64 [s1 + 0x118]\n  2273: a0 = a1 + ra\n  2276: a1 = a0 <u a1\n  2279: a4 = u64 [s1 + 0x110]\n  2283: a2 = a4 + t2\n  2286: a2 = a2 + a1\n  2289: a5 = a2 ^ a4\n  2292: a4 = a2 <u a4\n  2295: a4 = a1 if a5 == 0\n  2298: a5 = u64 [s1 + 0x108]\n  2302: a1 = a5 + t1\n  2305: t0 = a1 <u a5\n  2308: a5 = u64 [s1 + 0x158]\n  2312: a3 = u64 [s1 + 0x100]\n  2316: a5 = a5 + a3\n  2319: a5 = a5 + t0\n  2322: a4 = a4 + a1\n  2325: a1 = a4 <u a1\n  2328: a1 = a1 + a5\n  2331: a1 = a1 | a2\n  2334: a2 = a0 | a4\n  2337: a2 = a2 | a1\n  2340: a1 = a1 | a4\n  2343: a2 = a2 >> 0x20\n  2346: a1 = a1 << 0x20\n  2349: a1 = a1 | a2\n  2352: jump @87 if a1 == 0\n      : @86 (gas: 1)\n  2355: jump @911\n      : @87 (gas: 14)\n  2358: a5 = s1 + 0x7ff\n  2362: a5 = a5 + 0xf9\n  2366: t0 = u64 [a5 + 0x480]\n  2370: a3 = a5 + 0x400\n  2374: a1 = u64 [a3 + 0x78]\n  2377: a2 = u64 [a3 + 0x70]\n  2380: a4 = u64 [a3 + 0x68]\n  2383: u64 [a3 + 0x48] = a4\n  2386: u64 [a3 + 0x50] = a2\n  2389: u64 [a3 + 0x58] = a1\n  2392: a1 = s1 + 0x7ff\n  2396: a1 = a1 + 0x541\n  2400: u64 [a5 + 0x460] = t0\n  2404: ra = 40, jump @19\n      : @88 [@dyn 20] (gas: 7)\n  2409: a5 = s1 + 0x100\n  2413: a4 = u64 [a5 + 0x58]\n  2416: a1 = u64 [a5 + 0x48]\n  2419: a0 = a1 + 0x20\n  2422: a1 = a0 <u a1\n  2425: a3 = u64 [a5 + 0x40]\n  2428: t0 = 42, jump @1337\n      : @89 [@dyn 21] (gas: 8)\n  2434: a1 = u64 [a5 + 0x50]\n  2437: a3 = a3 + a1\n  2440: a1 = a3 <u a1\n  2443: a4 = a4 + a1\n  2446: t0 = a0\n  2448: t1 = a2\n  2450: ra = a3\n  2452: jump @82\n      : @90 (gas: 11)\n  2455: a0 = s1 + 0x30f8\n  2459: u64 [a0 + 352] = 0\n  2463: u64 [a0 + 344] = 0\n  2467: u64 [a0 + 336] = 0\n  2471: u64 [a0 + 328] = 0\n  2475: a0 = s1 + 0x3000\n  2479: i32 a0 = a0 + 0x240\n  2483: ra = 0x2c\n  2486: ecalli 10 // 'value_transferred'\n  2488: t0 = 0x2e\n  2491: jump @1350\n      : @91 [@dyn 22] (gas: 1)\n  2495: t0 = 46, jump @1350\n      : @92 [@dyn 23] (gas: 8)\n  2501: a0 = u64 [a4 + 0x58]\n  2504: a1 = u64 [a4 + 0x60]\n  2507: a2 = u64 [a4 + 0x50]\n  2510: a3 = u64 [a4 + 0x48]\n  2513: a1 = a1 | a2\n  2516: a0 = a0 | a3\n  2519: a0 = a0 | a1\n  2522: jump @94 if a0 == 0\n      : @93 (gas: 1)\n  2525: jump @938\n      : @94 (gas: 3)\n  2528: a0 = u64 [s1 + 0x158]\n  2532: a0 = i32 [a0]\n  2534: jump @96 if a0 >u 35\n      : @95 (gas: 1)\n  2538: jump @939\n      : @96 (gas: 21)\n  2541: a0 = s1 + 0x3000\n  2545: i32 a0 = a0 + 0x260\n  2549: a1 = 0x4\n  2552: ecalli 1 // 'call_data_load'\n  2554: a1 = s1 + 0x30f8\n  2558: a2 = a1 + 0x100\n  2562: a0 = u64 [a2 + 0x80]\n  2566: u64 [s1 + 0x148] = a0\n  2570: a0 = u64 [a2 + 0x78]\n  2573: u64 [s1 + 0x158] = a0\n  2577: a0 = u64 [a2 + 0x70]\n  2580: u64 [s1 + 0x140] = a0\n  2584: a0 = u64 [a2 + 0x68]\n  2587: u64 [s1 + 0x138] = a0\n  2591: u64 [a1 + 416] = 0\n  2595: u64 [a1 + 408] = 0\n  2599: u64 [a1 + 400] = 0\n  2603: u64 [a2 + 136] = 0x3\n  2608: a0 = s1 + 0x1f60\n  2612: a1 = s1 + 0x3280\n  2616: ra = 48, jump @21\n      : @97 [@dyn 24] (gas: 22)\n  2621: t2 = u64 [s1 + 0x148]\n  2625: t1 = u64 [s1 + 0x140]\n  2629: t0 = u64 [s1 + 0x138]\n  2633: ra = s1 + 0x18f8\n  2637: a4 = ra + 0x600\n  2641: a0 = u64 [a4 + 0x70]\n  2644: a1 = u64 [a4 + 0x68]\n  2647: a2 = u64 [a4 + 0x78]\n  2650: a3 = u64 [a4 + 0x80]\n  2654: a4 = t1 ^ a0\n  2657: a0 = t1 <u a0\n  2660: a1 = t0 <u a1\n  2663: a1 = a0 if a4 != 0\n  2666: a0 = t2 ^ a3\n  2669: a5 = t2 <u a3\n  2672: a3 = u64 [s1 + 0x158]\n  2676: a4 = a3 <u a2\n  2679: a4 = a5 if a0 != 0\n  2682: a2 = a2 ^ a3\n  2685: a0 = a0 | a2\n  2688: a1 = a4 if a0 != 0\n  2691: jump @99 if a1 != 0\n      : @98 (gas: 1)\n  2694: jump @940\n      : @99 (gas: 11)\n  2697: a0 = sp + 0xffffffffffffffe0\n  2700: a0 = a0 & 0xffffffffffffffe0\n  2703: u64 [s1 + 0x150] = a0\n  2707: sp = a0\n  2709: u64 [ra + 0x620] = t2\n  2713: u64 [ra + 0x618] = a3\n  2717: u64 [ra + 0x610] = t1\n  2721: a0 = s1 + 0x1f20\n  2725: a1 = s1 + 0x1f00\n  2729: u64 [ra + 0x608] = t0\n  2733: ra = 50, jump @1226\n      : @100 [@dyn 25] (gas: 28)\n  2738: a0 = s1 + 0x18f8\n  2742: a0 = u64 [a0 + 0x660]\n  2746: u64 [s1 + 0x120] = a0\n  2750: a0 = s1 + 0x18f8\n  2754: a0 = u64 [a0 + 0x658]\n  2758: u64 [s1 + 0x130] = a0\n  2762: a0 = s1 + 0x18f8\n  2766: a0 = u64 [a0 + 0x650]\n  2770: u64 [s1 + 0x128] = a0\n  2774: a0 = s1 + 0x18f8\n  2778: a0 = u64 [a0 + 0x648]\n  2782: u64 [s1 + 0x148] = a0\n  2786: a0 = s1 + 0x18f8\n  2790: a0 = u64 [a0 + 0x638]\n  2794: a1 = s1 + 0x18f8\n  2798: a1 = u64 [a1 + 0x640]\n  2802: a2 = s1 + 0x18f8\n  2806: a2 = u64 [a2 + 0x628]\n  2810: a3 = s1 + 0x18f8\n  2814: a3 = u64 [a3 + 0x630]\n  2818: a4 = u64 [s1 + 0x150]\n  2822: u64 [a4 + 0x10] = a0\n  2825: u64 [a4 + 0x18] = a1\n  2828: u64 [a4] = a2\n  2830: u64 [a4 + 0x8] = a3\n  2833: a1 = a4\n  2835: a0 = s1 + 0x1ee0\n  2839: ra = 52, jump @21\n      : @101 [@dyn 26] (gas: 16)\n  2844: a0 = s1 + 0x18f8\n  2848: a0 = u64 [a0 + 0x600]\n  2852: a1 = s1 + 0x100\n  2856: u64 [a1 + 0x50] = a0\n  2859: a0 = s1 + 0x18f8\n  2863: a0 = u64 [a0 + 0x5f8]\n  2867: u64 [a1 + 0x40] = a0\n  2870: a0 = s1 + 0x18f8\n  2874: a0 = u64 [a0 + 0x5f0]\n  2878: u64 [a1 + 0x38] = a0\n  2881: a0 = s1 + 0x18f8\n  2885: a0 = u64 [a0 + 0x5e8]\n  2889: u64 [a1 + 0x58] = a0\n  2892: a0 = s1 + 0x1ec0\n  2896: a1 = 0x40\n  2899: ra = 54, jump @17\n      : @102 [@dyn 27] (gas: 2)\n  2904: a0 = 0x2000\n  2908: t0 = 56, jump @1349\n      : @103 [@dyn 28] (gas: 12)\n  2914: a0 = u64 [a4 + 0xe0]\n  2918: a1 = u64 [a4 + 0xd8]\n  2922: a2 = u64 [a4 + 0xd0]\n  2926: a3 = u64 [a4 + 0xc8]\n  2930: a0 = a0 | a2\n  2933: a2 = a3 | a1\n  2936: a2 = a2 | a0\n  2939: a2 = a2 >> 0x20\n  2942: a0 = a0 | a1\n  2945: a0 = a0 << 0x20\n  2948: a0 = a0 | a2\n  2951: jump @105 if a0 == 0\n      : @104 (gas: 1)\n  2954: jump @911\n      : @105 (gas: 30)\n  2957: a5 = u64 [s1 + 0x148]\n  2961: a2 = a5 >> 0x3d\n  2964: a0 = u64 [s1 + 0x128]\n  2968: a1 = a0 << 0x3\n  2971: t0 = a1 | a2\n  2974: a4 = u64 [s1 + 0x130]\n  2978: a1 = a4 >> 0x3d\n  2981: a2 = u64 [s1 + 0x120]\n  2985: a2 = a2 << 0x3\n  2988: a1 = a1 | a2\n  2991: a2 = a0 >> 0x3d\n  2994: u64 [s1 + 0x128] = a3\n  2998: a3 = a4 << 0x3\n  3001: a2 = a2 | a3\n  3004: a0 = a5 << 0x3\n  3007: u64 [s1 + 0x130] = a0\n  3011: a3 = a2 >u 0\n  3013: a4 = a1 >u 0\n  3015: a4 = a3 if a1 == 0\n  3018: a3 = t0 >u 0\n  3020: a5 = a0 <u 0x100\n  3024: a5 = a5 ^ 0x1\n  3027: a5 = a3 if t0 != 0\n  3030: a1 = a1 | a2\n  3033: a5 = a4 if a1 != 0\n  3036: u64 [s1 + 0x120] = a5\n  3040: i32 a2 = a0 + 0xffffffffffffff80\n  3043: a0 = u64 [s1 + 0x140]\n  3047: a1 = u64 [s1 + 0x150]\n  3051: ra = 58, jump @1353\n      : @106 [@dyn 29] (gas: 6)\n  3057: u64 [s1 + 0x118] = a0\n  3061: a0 = u64 [s1 + 0x148]\n  3065: i32 a2 = a0 << 0x3\n  3068: a0 = u64 [s1 + 0x158]\n  3072: a1 = u64 [s1 + 0x138]\n  3076: ra = 60, jump @1353\n      : @107 [@dyn 30] (gas: 6)\n  3082: u64 [s1 + 0x148] = a0\n  3086: a1 = u64 [s1 + 0x130]\n  3090: i32 a2 = 0x80 - a1\n  3094: a0 = u64 [s1 + 0x140]\n  3098: a1 = u64 [s1 + 0x150]\n  3102: ra = 62, jump @1358\n      : @108 [@dyn 31] (gas: 21)\n  3108: a1 = 0\n  3110: a2 = u64 [s1 + 0x148]\n  3114: a0 = a0 | a2\n  3117: a3 = u64 [s1 + 0x130]\n  3121: a2 = a3 <u 0x80\n  3125: a4 = u64 [s1 + 0x118]\n  3129: a0 = a4 if a2 == 0\n  3132: a2 = u64 [s1 + 0x158]\n  3136: a0 = a2 if a3 == 0\n  3139: a2 = u64 [s1 + 0x120]\n  3143: a0 = 0 if a2 != 0\n  3145: a1 = 0 if a2 == 0\n  3147: a2 = s1 + 0x18f8\n  3151: a3 = a2 + 0x500\n  3155: u64 [a3 + 0xc0] = a1\n  3159: u64 [a3 + 0xb8] = a1\n  3163: u64 [a3 + 0xb0] = a1\n  3167: a1 = s1 + 0x1ea0\n  3171: u64 [a3 + 0xa8] = a0\n  3175: a0 = u64 [s1 + 0x128]\n  3179: ra = 64, jump @19\n      : @109 [@dyn 32] (gas: 4)\n  3184: a1 = 0x20\n  3187: a0 = u64 [s1 + 0x128]\n  3191: ra = 0x2a2\n  3195: jump @27\n      : @110 (gas: 8)\n  3198: u64 [a2 + 1312] = 0\n  3202: u64 [a2 + 1304] = 0\n  3206: u64 [a2 + 1296] = 0\n  3210: u64 [a2 + 1288] = 0\n  3214: a0 = s1 + 0x3000\n  3218: i32 a0 = a0 + 0x600\n  3222: ecalli 10 // 'value_transferred'\n  3224: fallthrough\n      : @111 (gas: 10)\n  3225: a3 = s1 + 0x30f8\n  3229: a4 = a3 + 0x500\n  3233: a0 = u64 [a4 + 0x18]\n  3236: a1 = u64 [a4 + 0x20]\n  3239: a2 = u64 [a4 + 0x10]\n  3242: a3 = u64 [a4 + 0x8]\n  3245: a1 = a1 | a2\n  3248: a0 = a0 | a3\n  3251: a0 = a0 | a1\n  3254: jump @113 if a0 == 0\n      : @112 (gas: 1)\n  3257: jump @941\n      : @113 (gas: 3)\n  3260: a0 = u64 [s1 + 0x158]\n  3264: a0 = i32 [a0]\n  3266: jump @115 if a0 >u 3\n      : @114 (gas: 1)\n  3270: jump @942\n      : @115 (gas: 8)\n  3273: a1 = s1 + 0x30f8\n  3277: u64 [a1 + 1344] = 0\n  3281: u64 [a1 + 1336] = 0\n  3285: u64 [a1 + 1328] = 0\n  3289: u64 [a1 + 1320] = 0x4\n  3294: a0 = s1 + 0x2a80\n  3298: a1 = s1 + 0x3620\n  3302: ra = 66, jump @21\n      : @116 [@dyn 33] (gas: 6)\n  3307: a0 = s1 + 0x28f8\n  3311: a0 = u64 [a0 + 0x188]\n  3315: u64 [s1 + 0x158] = a0\n  3319: a0 = s1 + 0x2a60\n  3323: a1 = 0x40\n  3326: ra = 68, jump @17\n      : @117 [@dyn 34] (gas: 7)\n  3331: a3 = s1 + 0x28f8\n  3335: a5 = a3 + 0x100\n  3339: a4 = u64 [a5 + 0x80]\n  3343: a1 = u64 [a5 + 0x78]\n  3346: a2 = u64 [a5 + 0x70]\n  3349: a0 = u64 [a5 + 0x68]\n  3352: t0 = 70, jump @1341\n      : @118 [@dyn 35] (gas: 1)\n  3358: jump @120 if a1 == 0\n      : @119 (gas: 1)\n  3361: jump @911\n      : @120 (gas: 9)\n  3364: u64 [a3 + 352] = 0\n  3368: u64 [a3 + 344] = 0\n  3372: a1 = u64 [s1 + 0x158]\n  3376: u64 [a3 + 0x148] = a1\n  3380: a1 = s1 + 0x2a40\n  3384: u64 [a3 + 336] = 0\n  3388: u64 [s1 + 0x158] = a0\n  3392: ra = 0x2a0\n  3396: jump @19\n      : @121 (gas: 11)\n  3399: u64 [a3 + 1408] = 0\n  3403: u64 [a3 + 1400] = 0\n  3407: u64 [a3 + 1392] = 0\n  3411: u64 [a3 + 1384] = 0\n  3415: a0 = s1 + 0x3000\n  3419: i32 a0 = a0 + 0xfffffffffffffe60\n  3423: ra = 0x48\n  3426: ecalli 10 // 'value_transferred'\n  3428: a0 = 0x3000\n  3432: t0 = 0x4a\n  3435: jump @1349\n      : @122 [@dyn 36] (gas: 2)\n  3439: a0 = 0x3000\n  3443: t0 = 74, jump @1349\n      : @123 [@dyn 37] (gas: 8)\n  3449: a0 = u64 [a4 + 0x78]\n  3452: a1 = u64 [a4 + 0x80]\n  3456: a2 = u64 [a4 + 0x70]\n  3459: a3 = u64 [a4 + 0x68]\n  3462: a1 = a1 | a2\n  3465: a0 = a0 | a3\n  3468: a0 = a0 | a1\n  3471: jump @125 if a0 == 0\n      : @124 (gas: 1)\n  3474: jump @943\n      : @125 (gas: 4)\n  3477: a0 = u64 [s1 + 0x158]\n  3481: a0 = i32 [a0]\n  3483: a1 = 0x63\n  3486: jump @127 if a1 <u a0\n      : @126 (gas: 1)\n  3489: jump @944\n      : @127 (gas: 4)\n  3492: a0 = s1 + 0x2c0\n  3496: ra = 0x4c\n  3499: t0 = 0x436\n  3503: jump @1330\n      : @128 [@dyn 38] (gas: 6)\n  3507: a0 = u64 [s1 + 0x2c0]\n  3511: u64 [s1 + 0x158] = a0\n  3515: a0 = s1 + 0x2a0\n  3519: ra = 0x4e\n  3522: t0 = 0x45e\n  3526: jump @1342\n      : @129 [@dyn 39] (gas: 10)\n  3530: a0 = u64 [s1 + 0x2b0]\n  3534: u64 [s1 + 0x130] = a0\n  3538: a0 = u64 [s1 + 0x2a8]\n  3542: u64 [s1 + 0x138] = a0\n  3546: a0 = u64 [s1 + 0x2a0]\n  3550: u64 [s1 + 0x140] = a0\n  3554: a0 = s1 + 0x280\n  3558: ra = 0x50\n  3561: t0 = 0x440\n  3565: jump @1330\n      : @130 [@dyn 40] (gas: 10)\n  3569: a0 = u64 [s1 + 0x280]\n  3573: u64 [s1 + 0x148] = a0\n  3577: u64 [s1 + 632] = 0\n  3581: u64 [s1 + 624] = 0\n  3585: u64 [s1 + 616] = 0\n  3589: a1 = s1 + 0x260\n  3593: a0 = u64 [s1 + 0x158]\n  3597: u64 [s1 + 0x260] = a0\n  3601: a0 = 0\n  3603: ra = 82, jump @19\n      : @131 [@dyn 41] (gas: 7)\n  3608: u64 [s1 + 600] = 0\n  3612: u64 [s1 + 592] = 0\n  3616: u64 [s1 + 576] = 0x1\n  3621: a0 = 0x20\n  3624: a1 = s1 + 0x240\n  3628: u64 [s1 + 584] = 0\n  3632: ra = 84, jump @19\n      : @132 [@dyn 42] (gas: 3)\n  3637: a1 = 0x20094\n  3642: a0 = i32 [0x20094]\n  3647: jump @134 if a0 >u 63\n      : @133 (gas: 2)\n  3651: u32 [0x20094] = 0x40\n  3657: fallthrough\n      : @134 (gas: 14)\n  3658: a0 = sp + 0xffffffffffffffe0\n  3661: a2 = a0 & 0xffffffffffffffe0\n  3664: u64 [s1 + 0x128] = a2\n  3668: sp = a2\n  3670: a0 = 0x200a0\n  3675: i32 a0 = a0 + 0\n  3677: i32 a2 = a2 + 0\n  3679: u64 [s1 + 0x158] = a1\n  3683: a1 = 0x40\n  3686: u64 [s1 + 0x150] = a0\n  3690: ra = 0x56\n  3693: ecalli 6 // 'hash_keccak_256'\n  3695: t0 = 0x58\n  3698: jump @1315\n      : @135 [@dyn 43] (gas: 1)\n  3702: t0 = 88, jump @1315\n      : @136 [@dyn 44] (gas: 9)\n  3708: u64 [s1 + 568] = 0\n  3712: u64 [s1 + 0x230] = a0\n  3716: a0 = u64 [s1 + 0x138]\n  3720: u64 [s1 + 0x228] = a0\n  3724: a1 = s1 + 0x220\n  3728: a0 = u64 [s1 + 0x140]\n  3732: u64 [s1 + 0x220] = a0\n  3736: a0 = 0\n  3738: ra = 90, jump @19\n      : @137 [@dyn 45] (gas: 12)\n  3743: a0 = u64 [s1 + 0x110]\n  3747: a3 = s1 + 0x200\n  3751: u64 [a3 + 0x18] = a0\n  3754: a0 = u64 [s1 + 0x118]\n  3758: u64 [a3 + 0x10] = a0\n  3761: a0 = u64 [s1 + 0x120]\n  3765: u64 [a3 + 0x8] = a0\n  3768: a0 = 0x20\n  3771: a1 = s1 + 0x200\n  3775: a2 = u64 [s1 + 0x128]\n  3779: u64 [a3] = a2\n  3781: ra = 92, jump @19\n      : @138 [@dyn 46] (gas: 3)\n  3786: a1 = u64 [s1 + 0x158]\n  3790: a0 = i32 [a1]\n  3792: jump @140 if a0 >u 63\n      : @139 (gas: 3)\n  3796: u32 [a1 + 0] = 0x40\n  3799: t0 = 0x5e\n  3802: jump @1311\n      : @140 (gas: 1)\n  3806: t0 = 94, jump @1311\n      : @141 [@dyn 47] (gas: 4)\n  3812: ra = 0x60\n  3815: ecalli 6 // 'hash_keccak_256'\n  3817: t0 = 0x62\n  3820: jump @1306\n      : @142 [@dyn 48] (gas: 1)\n  3824: t0 = 98, jump @1306\n      : @143 [@dyn 49] (gas: 7)\n  3830: u64 [s1 + 504] = 0\n  3834: u64 [s1 + 496] = 0\n  3838: u64 [s1 + 488] = 0\n  3842: a1 = s1 + 0x1e0\n  3846: u64 [s1 + 0x1e0] = a0\n  3850: a0 = 0\n  3852: ra = 100, jump @19\n      : @144 [@dyn 50] (gas: 11)\n  3857: a0 = u64 [s1 + 0x120]\n  3861: u64 [s1 + 0x1d8] = a0\n  3865: a0 = u64 [s1 + 0x128]\n  3869: u64 [s1 + 0x1d0] = a0\n  3873: a0 = u64 [s1 + 0x130]\n  3877: u64 [s1 + 0x1c8] = a0\n  3881: a0 = 0x20\n  3884: a1 = s1 + 0x1c0\n  3888: a2 = u64 [s1 + 0x138]\n  3892: u64 [s1 + 0x1c0] = a2\n  3896: ra = 102, jump @19\n      : @145 [@dyn 51] (gas: 3)\n  3901: a1 = u64 [s1 + 0x158]\n  3905: a0 = i32 [a1]\n  3907: jump @147 if a0 >=u 64\n      : @146 (gas: 2)\n  3911: u32 [a1 + 0] = 0x40\n  3914: fallthrough\n      : @147 (gas: 4)\n  3915: a0 = sp + 0xffffffffffffffe0\n  3918: a0 = a0 & 0xffffffffffffffe0\n  3921: u64 [s1 + 0x158] = a0\n  3925: t0 = 104, jump @1316\n      : @148 [@dyn 52] (gas: 4)\n  3931: ra = 0x6a\n  3934: ecalli 6 // 'hash_keccak_256'\n  3936: t0 = 0x6c\n  3939: jump @1322\n      : @149 [@dyn 53] (gas: 1)\n  3943: t0 = 108, jump @1322\n      : @150 [@dyn 54] (gas: 2)\n  3949: a0 = s1 + 0x1a0\n  3953: ra = 110, jump @21\n      : @151 [@dyn 55] (gas: 5)\n  3958: a0 = u64 [s1 + 0x1a0]\n  3962: u64 [s1 + 0x158] = a0\n  3966: a0 = s1 + 0x180\n  3970: a1 = 0x40\n  3973: ra = 112, jump @17\n      : @152 [@dyn 56] (gas: 13)\n  3978: a4 = s1 + 0x100\n  3982: a3 = u64 [a4 + 0x98]\n  3986: a1 = u64 [a4 + 0x90]\n  3990: a2 = u64 [a4 + 0x88]\n  3994: a0 = u64 [a4 + 0x80]\n  3998: a3 = a3 | a2\n  4001: a2 = a0 | a1\n  4004: a2 = a2 | a3\n  4007: a2 = a2 >> 0x20\n  4010: a1 = a1 | a3\n  4013: a1 = a1 << 0x20\n  4016: a1 = a1 | a2\n  4019: jump @154 if a1 == 0\n      : @153 (gas: 1)\n  4022: jump @911\n      : @154 (gas: 10)\n  4025: a1 = u8 [s1 + 0x158]\n  4029: a2 = a1 >u 0\n  4031: u64 [s1 + 376] = 0\n  4035: u64 [s1 + 368] = 0\n  4039: u64 [s1 + 360] = 0\n  4043: a1 = s1 + 0x160\n  4047: u64 [s1 + 0x160] = a2\n  4051: u64 [s1 + 0x158] = a0\n  4055: ra = 0x2a0\n  4059: jump @19\n      : @155 (gas: 11)\n  4062: u64 [a3 + 1440] = 0\n  4066: u64 [a3 + 1432] = 0\n  4070: u64 [a3 + 1424] = 0\n  4074: u64 [a3 + 1416] = 0\n  4078: a0 = s1 + 0x3000\n  4082: i32 a0 = a0 + 0xfffffffffffffe80\n  4086: ra = 0x72\n  4089: ecalli 10 // 'value_transferred'\n  4091: a0 = 0x3000\n  4095: t0 = 0x74\n  4098: jump @1349\n      : @156 [@dyn 57] (gas: 2)\n  4102: a0 = 0x3000\n  4106: t0 = 116, jump @1349\n      : @157 [@dyn 58] (gas: 8)\n  4112: a0 = u64 [a4 + 0x98]\n  4116: a1 = u64 [a4 + 0xa0]\n  4120: a2 = u64 [a4 + 0x90]\n  4124: a3 = u64 [a4 + 0x88]\n  4128: a1 = a1 | a2\n  4131: a0 = a0 | a3\n  4134: a0 = a0 | a1\n  4137: jump @159 if a0 == 0\n      : @158 (gas: 1)\n  4140: jump @945\n      : @159 (gas: 4)\n  4143: a0 = u64 [s1 + 0x158]\n  4147: a0 = i32 [a0]\n  4149: a1 = 0x23\n  4152: jump @161 if a1 <u a0\n      : @160 (gas: 1)\n  4155: jump @946\n      : @161 (gas: 4)\n  4158: a0 = s1 + 0x720\n  4162: ra = 0x76\n  4165: t0 = 0x436\n  4169: jump @1330\n      : @162 [@dyn 59] (gas: 8)\n  4173: a0 = u64 [s1 + 0x720]\n  4177: u64 [s1 + 1816] = 0\n  4181: u64 [s1 + 1808] = 0\n  4185: u64 [s1 + 1800] = 0\n  4189: a1 = s1 + 0x700\n  4193: u64 [s1 + 0x700] = a0\n  4197: a0 = 0\n  4199: ra = 120, jump @19\n      : @163 [@dyn 60] (gas: 7)\n  4204: u64 [s1 + 1784] = 0\n  4208: u64 [s1 + 1776] = 0\n  4212: u64 [s1 + 1760] = 0x2\n  4217: a0 = 0x20\n  4220: a1 = s1 + 0x6e0\n  4224: u64 [s1 + 1768] = 0\n  4228: ra = 122, jump @19\n      : @164 [@dyn 61] (gas: 7)\n  4233: a0 = sp + 0xffffffffffffffe0\n  4236: a0 = a0 & 0xffffffffffffffe0\n  4239: u64 [s1 + 0x158] = a0\n  4243: sp = a0\n  4245: a2 = 0x20094\n  4250: a0 = i32 [0x20094]\n  4255: jump @166 if a0 >u 63\n      : @165 (gas: 2)\n  4259: u32 [0x20094] = 0x40\n  4265: fallthrough\n      : @166 (gas: 15)\n  4266: u64 [s1 + 0x118] = a2\n  4270: a0 = sp + 0xffffffffffffffe0\n  4273: a2 = a0 & 0xffffffffffffffe0\n  4276: u64 [s1 + 0x150] = a2\n  4280: sp = a2\n  4282: a0 = 0x200a0\n  4287: i32 a0 = a0 + 0\n  4289: i32 a2 = a2 + 0\n  4291: a1 = 0x40\n  4294: u64 [s1 + 0x120] = a0\n  4298: ra = 0x7c\n  4301: ecalli 6 // 'hash_keccak_256'\n  4303: a3 = u64 [s1 + 0x150]\n  4307: t0 = 0x7e\n  4310: jump @1313\n      : @167 [@dyn 62] (gas: 2)\n  4314: a3 = u64 [s1 + 0x150]\n  4318: t0 = 126, jump @1313\n      : @168 [@dyn 63] (gas: 11)\n  4324: u64 [s1 + 0xf8] = a3\n  4328: a1 = u64 [s1 + 0x158]\n  4332: u64 [a1 + 0x18] = a3\n  4335: u64 [s1 + 0x100] = a2\n  4339: u64 [a1 + 0x10] = a2\n  4342: u64 [s1 + 0x108] = a4\n  4346: u64 [a1 + 0x8] = a4\n  4349: u64 [s1 + 0x110] = a0\n  4353: u64 [a1] = a0\n  4355: a0 = s1 + 0x6c0\n  4359: ra = 128, jump @21\n      : @169 [@dyn 64] (gas: 15)\n  4365: a0 = u64 [s1 + 0x6d8]\n  4369: a1 = u64 [s1 + 0x6d0]\n  4373: a2 = u64 [s1 + 0x6c8]\n  4377: a3 = u64 [s1 + 0x6c0]\n  4381: u64 [s1 + 0xa8] = a0\n  4385: u64 [s1 + 0x698] = a0\n  4389: u64 [s1 + 0xa0] = a1\n  4393: u64 [s1 + 0x690] = a1\n  4397: u64 [s1 + 0x98] = a2\n  4401: u64 [s1 + 0x688] = a2\n  4405: a0 = s1 + 0x6a0\n  4409: a1 = s1 + 0x680\n  4413: u64 [s1 + 0x90] = a3\n  4417: u64 [s1 + 0x680] = a3\n  4421: ra = 130, jump @1237\n      : @170 [@dyn 65] (gas: 11)\n  4427: a0 = u64 [s1 + 0x6a0]\n  4431: u64 [s1 + 0x140] = a0\n  4435: a0 = u64 [s1 + 0x6a8]\n  4439: u64 [s1 + 0x138] = a0\n  4443: a0 = u64 [s1 + 0x6b0]\n  4447: u64 [s1 + 0x130] = a0\n  4451: a0 = u64 [s1 + 0x6b8]\n  4455: u64 [s1 + 0x128] = a0\n  4459: a0 = s1 + 0x660\n  4463: a1 = 0x40\n  4466: ra = 132, jump @17\n      : @171 [@dyn 66] (gas: 24)\n  4472: a5 = s1 + 0x600\n  4476: a1 = u64 [a5 + 0x78]\n  4479: u64 [s1 + 0x158] = a1\n  4483: a0 = u64 [a5 + 0x70]\n  4486: u64 [s1 + 0x150] = a0\n  4490: a3 = u64 [a5 + 0x68]\n  4493: u64 [s1 + 0x148] = a3\n  4497: a4 = u64 [a5 + 0x60]\n  4500: u64 [s1 + 0x60] = a4\n  4503: a2 = u64 [s1 + 0x128]\n  4507: u64 [a5 + 0x38] = a2\n  4510: a2 = u64 [s1 + 0x130]\n  4514: u64 [a5 + 0x30] = a2\n  4517: a2 = u64 [s1 + 0x138]\n  4521: u64 [a5 + 0x28] = a2\n  4524: a2 = u64 [s1 + 0x140]\n  4528: u64 [a5 + 0x20] = a2\n  4531: u64 [a5 + 0x58] = a1\n  4534: u64 [a5 + 0x50] = a0\n  4537: u64 [a5 + 0x48] = a3\n  4540: a0 = s1 + 0x640\n  4544: a1 = s1 + 0x620\n  4548: u64 [a5 + 0x40] = a4\n  4551: ra = 134, jump @1122\n      : @172 [@dyn 67] (gas: 13)\n  4557: a0 = u64 [s1 + 0x60]\n  4560: a4 = s1 + 0x100\n  4564: a1 = u64 [a4 + 0x58]\n  4567: a2 = u64 [a4 + 0x48]\n  4570: a2 = a2 | a1\n  4573: a3 = u64 [a4 + 0x50]\n  4576: a1 = a0 | a3\n  4579: a1 = a1 | a2\n  4582: a1 = a1 >> 0x20\n  4585: a2 = a2 | a3\n  4588: a2 = a2 << 0x20\n  4591: a1 = a1 | a2\n  4594: jump @174 if a1 == 0\n      : @173 (gas: 1)\n  4597: jump @911\n      : @174 (gas: 11)\n  4600: a1 = u64 [s1 + 0x90]\n  4604: a3 = s1 + 0x600\n  4608: u64 [a3] = a1\n  4610: a1 = u64 [s1 + 0x98]\n  4614: u64 [a3 + 0x8] = a1\n  4617: a1 = u64 [s1 + 0xa0]\n  4621: u64 [a3 + 0x10] = a1\n  4624: a1 = s1 + 0x600\n  4628: a2 = u64 [s1 + 0xa8]\n  4632: u64 [a3 + 0x18] = a2\n  4635: ra = 136, jump @19\n      : @175 [@dyn 68] (gas: 26)\n  4641: a1 = u64 [s1 + 0x60]\n  4644: a0 = a1 + 0x20\n  4647: u64 [s1 + 0x70] = a0\n  4650: a0 = a0 <u a1\n  4653: a2 = u64 [s1 + 0x148]\n  4657: a1 = a2 + a0\n  4660: u64 [s1 + 0x80] = a1\n  4664: a1 = a1 <u a2\n  4667: a1 = a0 if a0 == 0\n  4670: a0 = u64 [s1 + 0x150]\n  4674: a1 = a1 + a0\n  4677: u64 [s1 + 0x68] = a1\n  4680: a0 = a1 <u a0\n  4683: u64 [s1 + 0x150] = a0\n  4687: a0 = u64 [s1 + 0xf8]\n  4691: a2 = s1 + 0x500\n  4695: u64 [a2 + 0xf8] = a0\n  4699: a0 = u64 [s1 + 0x100]\n  4703: u64 [a2 + 0xf0] = a0\n  4707: a0 = u64 [s1 + 0x108]\n  4711: u64 [a2 + 0xe8] = a0\n  4715: a1 = s1 + 0x5e0\n  4719: a0 = u64 [s1 + 0x110]\n  4723: u64 [a2 + 0xe0] = a0\n  4727: a0 = 0\n  4729: ra = 138, jump @19\n      : @176 [@dyn 69] (gas: 7)\n  4735: a0 = sp + 0xffffffffffffffe0\n  4738: a0 = a0 & 0xffffffffffffffe0\n  4741: u64 [s1 + 0xe8] = a0\n  4745: sp = a0\n  4747: a2 = u64 [s1 + 0x118]\n  4751: a0 = i32 [a2]\n  4753: jump @178 if a0 >u 31\n      : @177 (gas: 2)\n  4757: u32 [a2 + 0] = 0x20\n  4760: fallthrough\n      : @178 (gas: 52)\n  4761: a0 = u64 [s1 + 0x158]\n  4765: a1 = u64 [s1 + 0x150]\n  4769: a0 = a0 + a1\n  4772: u64 [s1 + 0x78] = a0\n  4775: a0 = 0xffffffff\n  4785: u64 [s1 + 0xb0] = a0\n  4789: a0 = sp + 0xffffffffffffffe0\n  4792: a0 = a0 & 0xffffffffffffffe0\n  4795: u64 [s1 + 0x158] = a0\n  4799: sp = a0\n  4801: i32 a2 = a0 + 0\n  4803: a1 = 0x20\n  4806: a0 = u64 [s1 + 0x120]\n  4810: ecalli 6 // 'hash_keccak_256'\n  4812: a2 = 0\n  4814: a3 = 0\n  4816: a5 = 0\n  4818: t0 = 0\n  4820: a0 = u64 [s1 + 0x158]\n  4824: t2 = u64 [a0 + 0x18]\n  4827: a1 = u64 [a0 + 0x10]\n  4830: a4 = u64 [a0 + 0x8]\n  4833: t1 = u64 [a0]\n  4835: t2 = reverse t2\n  4837: ra = reverse a1\n  4839: a4 = reverse a4\n  4841: a1 = reverse t1\n  4843: a0 = u64 [s1 + 0xe8]\n  4847: u64 [s1 + 0x108] = a1\n  4851: u64 [a0 + 0x18] = a1\n  4854: a1 = s1 + 0x100\n  4858: u64 [a1] = a4\n  4860: u64 [a0 + 0x10] = a4\n  4863: a4 = ra\n  4865: u64 [s1 + 0xf0] = a4\n  4869: u64 [a0 + 0x8] = a4\n  4872: a4 = t2\n  4874: u64 [s1 + 0xf8] = a4\n  4878: u64 [a0] = a4\n  4880: a0 = 0x100000000\n  4890: u64 [a1 + 0x18] = a0\n  4893: a0 = 0xffffffe0\n  4903: u64 [s1 + 0x88] = a0\n  4907: a0 = u64 [s1 + 0x70]\n  4910: u64 [a1 + 0x28] = a0\n  4913: a0 = u64 [s1 + 0x80]\n  4917: u64 [a1 + 0x20] = a0\n  4920: a0 = u64 [s1 + 0x68]\n  4923: u64 [a1 + 0x30] = a0\n  4926: a0 = u64 [s1 + 0x78]\n  4929: u64 [a1 + 0x38] = a0\n  4932: fallthrough\n      : @179 (gas: 23)\n  4933: a0 = u64 [s1 + 0x90]\n  4937: u64 [s1 + 0xd0] = a2\n  4941: a0 = a2 <u a0\n  4944: a2 = u64 [s1 + 0x98]\n  4948: a1 = a3 ^ a2\n  4951: u64 [s1 + 0xc8] = a3\n  4955: a2 = a3 <u a2\n  4958: a2 = a0 if a1 == 0\n  4961: a4 = u64 [s1 + 0xa0]\n  4965: a0 = a5 <u a4\n  4968: a3 = u64 [s1 + 0xa8]\n  4972: a1 = t0 ^ a3\n  4975: u64 [s1 + 0xc0] = t0\n  4979: a3 = t0 <u a3\n  4982: a3 = a0 if a1 == 0\n  4985: u64 [s1 + 0xb8] = a5\n  4989: a0 = a5 ^ a4\n  4992: a0 = a0 | a1\n  4995: a3 = a2 if a0 == 0\n  4998: u64 [s1 + 0x140] = a3\n  5002: a0 = s1 + 0x5c0\n  5006: a1 = 0x40\n  5009: ra = 140, jump @17\n      : @180 [@dyn 70] (gas: 13)\n  5015: t2 = u64 [s1 + 0x5d8]\n  5019: a0 = s1 + 0x500\n  5023: a1 = u64 [a0 + 0xd0]\n  5027: a2 = u64 [a0 + 0xc0]\n  5031: a4 = u64 [a0 + 0xc8]\n  5035: a0 = a2 | a1\n  5038: a3 = a4 | t2\n  5041: u64 [s1 + 0x158] = a2\n  5045: u64 [s1 + 0x150] = a4\n  5049: a5 = u64 [s1 + 0x140]\n  5053: u64 [s1 + 0x110] = t2\n  5057: u64 [s1 + 0x148] = a1\n  5061: jump @182 if a5 != 0\n      : @181 (gas: 1)\n  5064: jump @834\n      : @182 (gas: 11)\n  5067: a5 = s1 + 0x300\n  5071: u64 [a5 + 0xe0] = a2\n  5075: u64 [a5 + 0xe8] = a4\n  5079: u64 [a5 + 0xf0] = a1\n  5083: u64 [s1 + 0x140] = a0\n  5087: a0 = s1 + 0x3e0\n  5091: u64 [s1 + 0x3f8] = t2\n  5095: u64 [s1 + 0xe0] = a3\n  5099: ra = 0x8e\n  5103: t0 = 0x46c\n  5107: jump @1328\n      : @183 [@dyn 71] (gas: 3)\n  5111: a0 = s1 + 0x3c0\n  5115: a1 = u64 [s1 + 0xe8]\n  5119: ra = 144, jump @21\n      : @184 [@dyn 72] (gas: 9)\n  5125: a0 = u64 [s1 + 0x140]\n  5129: a2 = u64 [s1 + 0xe0]\n  5133: a0 = a0 | a2\n  5136: a0 = a0 >> 0x20\n  5139: a1 = u64 [s1 + 0x148]\n  5143: a1 = a1 | a2\n  5146: a1 = a1 << 0x20\n  5149: a0 = a0 | a1\n  5152: jump @186 if a0 == 0\n      : @185 (gas: 1)\n  5155: jump @911\n      : @186 (gas: 18)\n  5158: a4 = s1 + 0x300\n  5162: a3 = u64 [a4 + 0xd0]\n  5166: a0 = u64 [a4 + 0xc8]\n  5170: a1 = u64 [a4 + 0xc0]\n  5174: a2 = u64 [a4 + 0xd8]\n  5178: u64 [s1 + 0xd8] = a2\n  5182: a2 = u64 [s1 + 0xb0]\n  5186: u64 [s1 + 0xe0] = a3\n  5190: a2 = a2 & a3\n  5193: a0 = a0 & 0xffffffffffffffff\n  5196: a1 = a1 & 0xffffffffffffffff\n  5199: u64 [s1 + 952] = 0\n  5203: u64 [a4 + 0xa0] = a1\n  5207: u64 [a4 + 0xa8] = a0\n  5211: a1 = s1 + 0x3a0\n  5215: u64 [a4 + 0xb0] = a2\n  5219: a0 = u64 [s1 + 0x158]\n  5223: ra = 146, jump @19\n      : @187 [@dyn 73] (gas: 12)\n  5229: a4 = s1 + 0x100\n  5233: a0 = u64 [a4 + 0x10]\n  5236: a1 = u64 [a4 + 0x48]\n  5239: a1 = a1 | a0\n  5242: a0 = u64 [s1 + 0x88]\n  5246: a3 = u64 [a4 + 0x58]\n  5249: a0 = a3 <u a0\n  5252: a2 = u64 [a4 + 0x50]\n  5255: a0 = 0 if a2 != 0\n  5257: u64 [a4 + 0x40] = a1\n  5260: a0 = 0 if a1 != 0\n  5262: jump @189 if a0 != 0\n      : @188 (gas: 1)\n  5265: jump @911\n      : @189 (gas: 13)\n  5268: a0 = u64 [s1 + 0xe0]\n  5272: a0 = a0 >> 0x20\n  5275: a1 = u64 [s1 + 0xd8]\n  5279: a1 = a1 << 0x20\n  5282: a0 = a0 | a1\n  5285: a1 = a0 & 0xffffffffffffffff\n  5288: i32 a0 = a3 + 0x20\n  5291: u64 [s1 + 920] = 0\n  5295: u64 [s1 + 912] = 0\n  5299: u64 [s1 + 0x380] = a1\n  5303: a1 = s1 + 0x380\n  5307: u64 [s1 + 904] = 0\n  5311: ra = 148, jump @19\n      : @190 [@dyn 74] (gas: 21)\n  5317: a0 = u64 [s1 + 0xf8]\n  5321: a0 = a0 + 0x1\n  5324: a1 = a0 <u 0x1\n  5327: a2 = u64 [s1 + 0xf0]\n  5331: a1 = a1 + a2\n  5334: a2 = a0 | a1\n  5337: a2 = a2 <u 0x1\n  5340: a3 = u64 [s1 + 0x100]\n  5344: a2 = a2 + a3\n  5347: a3 = a2 <u a3\n  5350: a4 = u64 [s1 + 0x108]\n  5354: a3 = a3 + a4\n  5357: a4 = s1 + 0x28f8\n  5361: a5 = a4 + 0x500\n  5365: u64 [a5 + 0xc0] = a3\n  5369: u64 [a5 + 0xb8] = a2\n  5373: u64 [a5 + 0xb0] = a1\n  5377: u64 [a5 + 0xa8] = a0\n  5381: a0 = s1 + 0x360\n  5385: a1 = s1 + 0x2ea0\n  5389: ra = 150, jump @21\n      : @191 [@dyn 75] (gas: 5)\n  5395: a3 = s1 + 0x100\n  5399: a2 = u64 [a3 + 0x58]\n  5402: a0 = u64 [a3 + 0x18]\n  5405: a0 = a0 + 0xffffffffffffffc0\n  5408: t0 = 152, jump @1339\n      : @192 [@dyn 76] (gas: 1)\n  5415: jump @194 if a0 != 0\n      : @193 (gas: 1)\n  5418: jump @911\n      : @194 (gas: 14)\n  5421: a3 = s1 + 0x300\n  5425: a0 = u64 [a3 + 0x60]\n  5428: a1 = u64 [a3 + 0x70]\n  5431: u64 [s1 + 0xd8] = a1\n  5435: a1 = u64 [a3 + 0x68]\n  5438: u64 [s1 + 0xe0] = a1\n  5442: a1 = a0 & 0xffffffffffffffff\n  5445: i32 a0 = a2 + 0x40\n  5448: u64 [s1 + 856] = 0\n  5452: u64 [s1 + 848] = 0\n  5456: u64 [a3 + 0x40] = a1\n  5459: a1 = s1 + 0x340\n  5463: u64 [s1 + 840] = 0\n  5467: ra = 154, jump @19\n      : @195 [@dyn 77] (gas: 5)\n  5473: a3 = s1 + 0x100\n  5477: a2 = u64 [a3 + 0x58]\n  5480: a0 = u64 [a3 + 0x18]\n  5483: a0 = a0 + 0xffffffffffffffa0\n  5486: t0 = 156, jump @1339\n      : @196 [@dyn 78] (gas: 1)\n  5492: jump @198 if a0 != 0\n      : @197 (gas: 1)\n  5495: jump @911\n      : @198 (gas: 9)\n  5498: a1 = u64 [s1 + 0xe0]\n  5502: a1 = a1 & 0xffffffffffffffff\n  5505: i32 a0 = a2 + 0x60\n  5508: u64 [s1 + 824] = 0\n  5512: u64 [s1 + 816] = 0\n  5516: u64 [s1 + 0x320] = a1\n  5520: a1 = s1 + 0x320\n  5524: u64 [s1 + 808] = 0\n  5528: ra = 158, jump @19\n      : @199 [@dyn 79] (gas: 5)\n  5534: a3 = s1 + 0x100\n  5538: a2 = u64 [a3 + 0x58]\n  5541: a0 = u64 [a3 + 0x18]\n  5544: a0 = a0 + 0xffffffffffffff80\n  5547: t0 = 160, jump @1339\n      : @200 [@dyn 80] (gas: 1)\n  5553: jump @202 if a0 != 0\n      : @201 (gas: 1)\n  5556: jump @911\n      : @202 (gas: 10)\n  5559: a1 = u64 [s1 + 0xd8]\n  5563: a0 = a1 & 0xff\n  5567: a1 = a0 >u 0\n  5569: i32 a0 = a2 + 0x80\n  5573: u64 [s1 + 792] = 0\n  5577: u64 [s1 + 784] = 0\n  5581: u64 [s1 + 0x300] = a1\n  5585: a1 = s1 + 0x300\n  5589: u64 [s1 + 776] = 0\n  5593: ra = 162, jump @19\n      : @203 [@dyn 81] (gas: 13)\n  5599: a1 = s1 + 0x100\n  5603: a3 = u64 [a1 + 0x30]\n  5606: a4 = u64 [a1 + 0x28]\n  5609: a0 = a4 | a3\n  5612: a2 = u64 [a1 + 0x38]\n  5615: a5 = u64 [a1 + 0x20]\n  5618: a1 = a5 | a2\n  5621: a0 = a0 | a1\n  5624: a0 = a0 >> 0x20\n  5627: a1 = a1 | a3\n  5630: a1 = a1 << 0x20\n  5633: a0 = a0 | a1\n  5636: jump @205 if a0 == 0\n      : @204 (gas: 1)\n  5639: jump @911\n      : @205 (gas: 15)\n  5642: a0 = u64 [s1 + 0x158]\n  5646: u64 [s1 + 0x2e0] = a0\n  5650: a0 = u64 [s1 + 0x150]\n  5654: u64 [s1 + 0x2e8] = a0\n  5658: a0 = u64 [s1 + 0x148]\n  5662: u64 [s1 + 0x2f0] = a0\n  5666: a1 = s1 + 0x2e0\n  5670: a0 = u64 [s1 + 0x110]\n  5674: u64 [s1 + 0x2f8] = a0\n  5678: a0 = a4\n  5680: u64 [s1 + 0x138] = a2\n  5684: u64 [s1 + 0x130] = a3\n  5688: u64 [s1 + 0x128] = a4\n  5692: u64 [s1 + 0x120] = a5\n  5696: ra = 164, jump @19\n      : @206 [@dyn 82] (gas: 56)\n  5702: a1 = u64 [s1 + 0x128]\n  5706: a0 = a1 + 0x20\n  5709: u64 [s1 + 0x158] = a0\n  5713: a2 = a0 <u a1\n  5716: a1 = u64 [s1 + 0x120]\n  5720: a0 = a1 + a2\n  5723: u64 [s1 + 0x150] = a0\n  5727: a3 = a0 <u a1\n  5730: a3 = a2 if a2 == 0\n  5733: a0 = u64 [s1 + 0x130]\n  5737: t2 = a0 + a3\n  5740: a3 = t2 <u a0\n  5743: a0 = u64 [s1 + 0x138]\n  5747: a0 = a0 + a3\n  5750: u64 [s1 + 0x138] = a0\n  5754: a0 = u64 [s1 + 0xf8]\n  5758: ra = a0 + 0x2\n  5761: a4 = ra <u a0\n  5764: a0 = u64 [s1 + 0xf0]\n  5768: t1 = a0 + a4\n  5771: a5 = t1 <u a0\n  5774: a5 = a4 if a4 == 0\n  5777: a0 = u64 [s1 + 0x100]\n  5781: a5 = a5 + a0\n  5784: a4 = a5 <u a0\n  5787: a0 = u64 [s1 + 0x108]\n  5791: a0 = a0 + a4\n  5794: a2 = u64 [s1 + 0xd0]\n  5798: a2 = a2 + 0x1\n  5801: a4 = a2 <u 0x1\n  5804: a3 = u64 [s1 + 0xc8]\n  5808: a3 = a3 + a4\n  5811: a4 = a2 | a3\n  5814: a4 = a4 <u 0x1\n  5817: a1 = u64 [s1 + 0xb8]\n  5821: a4 = a4 + a1\n  5824: a1 = a4 <u a1\n  5827: t0 = u64 [s1 + 0xc0]\n  5831: t0 = t0 + a1\n  5834: a1 = u64 [s1 + 0xe8]\n  5838: u64 [a1 + 0x8] = t1\n  5841: u64 [a1] = ra\n  5843: u64 [a1 + 0x10] = a5\n  5846: u64 [s1 + 0x108] = a0\n  5850: u64 [a1 + 0x18] = a0\n  5853: a1 = s1 + 0x100\n  5857: a0 = u64 [a1 + 0x58]\n  5860: u64 [a1 + 0x28] = a0\n  5863: a0 = u64 [a1 + 0x50]\n  5866: u64 [a1 + 0x20] = a0\n  5869: u64 [s1 + 0x130] = t2\n  5873: u64 [s1 + 0xf8] = ra\n  5877: u64 [s1 + 0xf0] = t1\n  5881: u64 [a1] = a5\n  5883: a5 = a4\n  5885: jump @179\n      : @207 (gas: 10)\n  5888: u64 [a2 + 480] = 0\n  5892: u64 [a2 + 472] = 0\n  5896: u64 [a2 + 464] = 0\n  5900: u64 [a2 + 456] = 0\n  5904: a0 = s1 + 0x3000\n  5908: i32 a0 = a0 + 0x2c0\n  5912: ra = 0xa6\n  5916: ecalli 10 // 'value_transferred'\n  5918: t0 = 0xa8\n  5922: jump @1350\n      : @208 [@dyn 83] (gas: 1)\n  5925: t0 = 168, jump @1350\n      : @209 [@dyn 84] (gas: 8)\n  5931: a0 = u64 [a4 + 0xd8]\n  5935: a1 = u64 [a4 + 0xe0]\n  5939: a2 = u64 [a4 + 0xd0]\n  5943: a3 = u64 [a4 + 0xc8]\n  5947: a1 = a1 | a2\n  5950: a0 = a0 | a3\n  5953: a0 = a0 | a1\n  5956: jump @211 if a0 == 0\n      : @210 (gas: 1)\n  5959: jump @947\n      : @211 (gas: 4)\n  5962: a0 = u64 [s1 + 0x158]\n  5966: a0 = i32 [a0]\n  5968: a1 = 0x103\n  5972: jump @213 if a1 <u a0\n      : @212 (gas: 1)\n  5975: jump @948\n      : @213 (gas: 4)\n  5978: a0 = s1 + 0x2a20\n  5982: ra = 0xaa\n  5986: t0 = 0x436\n  5990: jump @1330\n      : @214 [@dyn 85] (gas: 7)\n  5993: a0 = s1 + 0x28f8\n  5997: a0 = u64 [a0 + 0x128]\n  6001: u64 [s1 + 0xe8] = a0\n  6005: a0 = s1 + 0x2a00\n  6009: ra = 0xac\n  6013: t0 = 0x45e\n  6017: jump @1342\n      : @215 [@dyn 86] (gas: 13)\n  6020: a1 = s1 + 0x28f8\n  6024: a2 = a1 + 0x100\n  6028: a0 = u64 [a2 + 0x18]\n  6031: u64 [s1 + 0xf0] = a0\n  6035: a0 = u64 [a2 + 0x10]\n  6038: u64 [s1 + 0xc0] = a0\n  6042: a0 = u64 [a2 + 0x8]\n  6045: u64 [s1 + 0xc8] = a0\n  6049: a0 = s1 + 0x3000\n  6053: i32 a0 = a0 + 0x2e0\n  6057: a1 = 0x44\n  6060: ecalli 1 // 'call_data_load'\n  6062: fallthrough\n      : @216 (gas: 8)\n  6063: a2 = s1 + 0x30f8\n  6067: t1 = u64 [a2 + 0x200]\n  6071: a3 = u64 [a2 + 0x1f8]\n  6075: a4 = u64 [a2 + 0x1f0]\n  6079: a0 = a3 | t1\n  6082: a1 = a4 <u 0x1\n  6085: a1 = 0 if a0 != 0\n  6087: jump @218 if a1 != 0\n      : @217 (gas: 1)\n  6090: jump @949\n      : @218 (gas: 19)\n  6093: a5 = u64 [a2 + 0x1e8]\n  6097: a0 = u64 [s1 + 0x158]\n  6101: a0 = u32 [a0]\n  6103: a1 = a5 + 0x23\n  6106: a2 = a1 <u a5\n  6109: t0 = a4 + a2\n  6112: u64 [s1 + 0xf8] = a4\n  6116: a4 = t0 <u a4\n  6119: a4 = a2 if a2 == 0\n  6122: a4 = a4 + a3\n  6125: u64 [s1 + 0x100] = a3\n  6129: a2 = a4 <u a3\n  6132: u64 [s1 + 0x108] = t1\n  6136: a2 = a2 + t1\n  6139: a2 = a2 | a4\n  6142: a0 = a1 <u a0\n  6145: a0 = 0 if t0 != 0\n  6147: a0 = 0 if a2 != 0\n  6149: jump @220 if a0 != 0\n      : @219 (gas: 1)\n  6152: jump @950\n      : @220 (gas: 7)\n  6155: u64 [s1 + 0x110] = a5\n  6159: i32 a1 = a5 + 0x4\n  6162: a0 = s1 + 0x3000\n  6166: i32 a0 = a0 + 0x300\n  6170: ra = 0xae\n  6174: ecalli 1 // 'call_data_load'\n  6176: fallthrough\n      : @221 [@dyn 87] (gas: 15)\n  6177: a5 = s1 + 0x30f8\n  6181: a0 = a5 + 0x200\n  6185: a2 = u64 [a0 + 0x20]\n  6188: a3 = u64 [a0 + 0x18]\n  6191: a4 = u64 [a0 + 0x10]\n  6194: a0 = a2 >u 0\n  6196: a1 = a3 >u 0\n  6198: a1 = a0 if a2 != 0\n  6201: u64 [s1 + 0x120] = a2\n  6205: u64 [s1 + 0x118] = a3\n  6209: a0 = a3 | a2\n  6212: u64 [s1 + 0x148] = a4\n  6216: a2 = a4 >u 0\n  6218: a2 = a1 if a0 != 0\n  6221: jump @223 if a2 == 0\n      : @222 (gas: 1)\n  6224: jump @951\n      : @223 (gas: 5)\n  6227: a0 = u64 [a5 + 0x208]\n  6231: u64 [s1 + 0x150] = a0\n  6235: a0 = s1 + 0x29e0\n  6239: a1 = 0x40\n  6242: ra = 176, jump @17\n      : @224 [@dyn 88] (gas: 32)\n  6248: a5 = s1 + 0x28f8\n  6252: t1 = u64 [a5 + 0x100]\n  6256: u64 [s1 + 0x140] = t1\n  6260: t0 = u64 [a5 + 0xf8]\n  6264: u64 [s1 + 0x138] = t0\n  6268: t2 = u64 [a5 + 0xf0]\n  6272: u64 [s1 + 0x130] = t2\n  6276: ra = u64 [a5 + 0xe8]\n  6280: u64 [s1 + 0x128] = ra\n  6284: a1 = u64 [s1 + 0x150]\n  6288: a0 = a1 + 0x1f\n  6291: a1 = a0 <u a1\n  6294: a2 = u64 [s1 + 0x148]\n  6298: a1 = a1 + a2\n  6301: a1 = a1 & 0x1\n  6304: a0 = a0 & 0xffffffffffffffe0\n  6307: a2 = a0 + 0x20\n  6310: a0 = a2 <u a0\n  6313: a3 = a1 + a0\n  6316: a4 = a3 <u a1\n  6319: a4 = a0 if a0 == 0\n  6322: u64 [a5 + 192] = 0\n  6326: u64 [a5 + 0xa8] = a2\n  6330: u64 [a5 + 0xe0] = t1\n  6334: u64 [a5 + 0xd8] = t0\n  6338: u64 [a5 + 0xd0] = t2\n  6342: u64 [a5 + 0xc8] = ra\n  6346: u64 [a5 + 0xb0] = a3\n  6350: a0 = s1 + 0x29c0\n  6354: a1 = s1 + 0x29a0\n  6358: u64 [a5 + 0xb8] = a4\n  6362: ra = 178, jump @1122\n      : @225 [@dyn 89] (gas: 13)\n  6368: a2 = s1 + 0x100\n  6372: a0 = u64 [a2 + 0x28]\n  6375: a1 = u64 [a2 + 0x30]\n  6378: a4 = u64 [a2 + 0x40]\n  6381: a4 = a4 | a1\n  6384: a5 = u64 [a2 + 0x38]\n  6387: a1 = a0 | a5\n  6390: a1 = a1 | a4\n  6393: a1 = a1 >> 0x20\n  6396: a4 = a4 | a5\n  6399: a4 = a4 << 0x20\n  6402: a1 = a1 | a4\n  6405: jump @227 if a1 == 0\n      : @226 (gas: 1)\n  6408: jump @911\n      : @227 (gas: 11)\n  6411: a2 = s1 + 0x28f8\n  6415: a1 = u64 [s1 + 0x150]\n  6419: u64 [a2 + 0x88] = a1\n  6423: a1 = u64 [s1 + 0x148]\n  6427: u64 [a2 + 0x90] = a1\n  6431: a1 = u64 [s1 + 0x118]\n  6435: u64 [a2 + 0x98] = a1\n  6439: a1 = s1 + 0x2980\n  6443: a3 = u64 [s1 + 0x120]\n  6447: u64 [a2 + 0xa0] = a3\n  6451: ra = 180, jump @19\n      : @228 [@dyn 90] (gas: 41)\n  6457: t2 = u64 [s1 + 0x118]\n  6461: t1 = u64 [s1 + 0x120]\n  6465: a1 = u64 [s1 + 0x110]\n  6469: ra = u64 [s1 + 0x150]\n  6473: a0 = a1 + ra\n  6476: a1 = a0 <u a1\n  6479: a4 = u64 [s1 + 0xf8]\n  6483: t0 = u64 [s1 + 0x148]\n  6487: a2 = a4 + t0\n  6490: a2 = a2 + a1\n  6493: a3 = a2 ^ a4\n  6496: a4 = a2 <u a4\n  6499: a4 = a1 if a3 == 0\n  6502: a3 = u64 [s1 + 0x100]\n  6506: a1 = a3 + t2\n  6509: a4 = a4 + a1\n  6512: a3 = a1 <u a3\n  6515: a1 = a4 <u a1\n  6518: a5 = u64 [s1 + 0x108]\n  6522: a5 = a5 + t1\n  6525: a3 = a3 + a5\n  6528: a1 = a1 + a3\n  6531: a3 = a0 + 0x24\n  6534: a0 = a3 <u a0\n  6537: a5 = a2 + a0\n  6540: a2 = a5 <u a2\n  6543: a2 = a0 if a0 == 0\n  6546: a0 = u64 [s1 + 0x158]\n  6550: a0 = u32 [a0]\n  6552: a2 = a2 + a4\n  6555: a4 = a2 <u a4\n  6558: a1 = a1 + a4\n  6561: a0 = a0 <u a3\n  6564: a3 = a5 >u 0\n  6566: a0 = a3 if a5 != 0\n  6569: a3 = a2 >u 0\n  6571: a4 = a1 >u 0\n  6573: a4 = a3 if a1 == 0\n  6576: a1 = a1 | a2\n  6579: a0 = a4 if a1 != 0\n  6582: jump @230 if a0 == 0\n      : @229 (gas: 1)\n  6585: jump @972\n      : @230 (gas: 13)\n  6588: a1 = ra\n  6590: a0 = ra | t2\n  6593: a2 = t0 | t1\n  6596: a0 = a0 | a2\n  6599: a0 = a0 >> 0x20\n  6602: a2 = a2 | t2\n  6605: a2 = a2 << 0x20\n  6608: a0 = a0 | a2\n  6611: a5 = s1 + 0x100\n  6615: a4 = u64 [a5 + 0x40]\n  6618: a2 = u64 [a5 + 0x38]\n  6621: a3 = u64 [a5 + 0x30]\n  6624: jump @232 if a0 == 0\n      : @231 (gas: 1)\n  6627: jump @911\n      : @232 (gas: 7)\n  6630: ra = a2 | a4\n  6633: t0 = 0xffffffe0\n  6643: a4 = u64 [s1 + 0x128]\n  6647: a0 = a4 <u t0\n  6650: a0 = 0 if a3 != 0\n  6652: a0 = 0 if ra != 0\n  6654: jump @234 if a0 != 0\n      : @233 (gas: 1)\n  6657: jump @911\n      : @234 (gas: 6)\n  6660: a0 = u64 [s1 + 0x110]\n  6664: i32 a0 = a0 + 0x24\n  6667: u64 [s1 + 0x110] = a0\n  6671: i32 a0 = a4 + 0x20\n  6674: u64 [s1 + 0x158] = t0\n  6678: ra = 182, jump @27\n      : @235 [@dyn 91] (gas: 5)\n  6684: i32 a0 = a0 + 0\n  6686: a1 = i32 [s1 + 0x150]\n  6690: a2 = u64 [s1 + 0x110]\n  6694: ecalli 0 // 'call_data_copy'\n  6695: fallthrough\n      : @236 (gas: 28)\n  6696: a4 = u64 [s1 + 0x130]\n  6700: a0 = u64 [s1 + 0x128]\n  6704: t0 = u64 [s1 + 0x150]\n  6708: t0 = t0 + a0\n  6711: a1 = t0 <u a0\n  6714: a2 = u64 [s1 + 0x148]\n  6718: a2 = a2 + a4\n  6721: a2 = a2 + a1\n  6724: a3 = a2 ^ a4\n  6727: a4 = a2 <u a4\n  6730: a4 = a1 if a3 == 0\n  6733: a3 = u64 [s1 + 0x138]\n  6737: a1 = u64 [s1 + 0x118]\n  6741: a1 = a1 + a3\n  6744: a3 = a1 <u a3\n  6747: a5 = u64 [s1 + 0x140]\n  6751: a0 = u64 [s1 + 0x120]\n  6755: a5 = a5 + a0\n  6758: a3 = a3 + a5\n  6761: a4 = a4 + a1\n  6764: a1 = a4 <u a1\n  6767: a1 = a1 + a3\n  6770: a1 = a1 | a4\n  6773: a3 = u64 [s1 + 0x158]\n  6777: a3 = t0 <u a3\n  6780: a3 = 0 if a2 != 0\n  6782: a3 = 0 if a1 != 0\n  6784: jump @238 if a3 != 0\n      : @237 (gas: 1)\n  6787: jump @911\n      : @238 (gas: 8)\n  6790: i32 a0 = t0 + 0x20\n  6793: a2 = s1 + 0x28f8\n  6797: u64 [a2 + 128] = 0\n  6801: u64 [a2 + 120] = 0\n  6804: u64 [a2 + 112] = 0\n  6807: a1 = s1 + 0x2960\n  6811: u64 [a2 + 104] = 0\n  6814: ra = 184, jump @19\n      : @239 [@dyn 92] (gas: 4)\n  6820: a0 = s1 + 0x2940\n  6824: ra = 0xba\n  6828: t0 = 0x454\n  6832: jump @1330\n      : @240 [@dyn 93] (gas: 10)\n  6835: a0 = s1 + 0x28f8\n  6839: a0 = u64 [a0 + 0x48]\n  6842: u64 [s1 + 0x150] = a0\n  6846: a0 = s1 + 0x3000\n  6850: i32 a0 = a0 + 0x320\n  6854: a1 = 0x84\n  6858: ra = 0xbc\n  6862: ecalli 1 // 'call_data_load'\n  6864: t0 = 0xbe\n  6868: jump @1335\n      : @241 [@dyn 94] (gas: 1)\n  6871: t0 = 190, jump @1335\n      : @242 [@dyn 95] (gas: 7)\n  6877: a0 = u64 [a4 + 0x40]\n  6880: a1 = u64 [a4 + 0x38]\n  6883: a2 = u64 [a4 + 0x30]\n  6886: a0 = a0 | a1\n  6889: a1 = a2 <u 0x1\n  6892: a1 = 0 if a0 != 0\n  6894: jump @244 if a1 != 0\n      : @243 (gas: 1)\n  6897: jump @994\n      : @244 (gas: 9)\n  6900: a0 = u64 [a3 + 0x228]\n  6904: u64 [s1 + 0x148] = a0\n  6908: a0 = s1 + 0x3000\n  6912: i32 a0 = a0 + 0x340\n  6916: a1 = 0xa4\n  6920: ra = 0xc0\n  6924: ecalli 1 // 'call_data_load'\n  6926: t0 = 0xc2\n  6930: jump @1335\n      : @245 [@dyn 96] (gas: 1)\n  6933: t0 = 194, jump @1335\n      : @246 [@dyn 97] (gas: 7)\n  6939: a0 = u64 [a4 + 0x60]\n  6942: a1 = u64 [a4 + 0x58]\n  6945: a2 = u64 [a4 + 0x50]\n  6948: a0 = a0 | a1\n  6951: a1 = a2 <u 0x1\n  6954: a1 = 0 if a0 != 0\n  6956: jump @248 if a1 != 0\n      : @247 (gas: 1)\n  6959: jump @995\n      : @248 (gas: 9)\n  6962: a0 = u64 [a3 + 0x248]\n  6966: u64 [s1 + 0x120] = a0\n  6970: a0 = s1 + 0x3000\n  6974: i32 a0 = a0 + 0x360\n  6978: a1 = 0xc4\n  6982: ra = 0xc4\n  6986: ecalli 1 // 'call_data_load'\n  6988: t0 = 0xc6\n  6992: jump @1335\n      : @249 [@dyn 98] (gas: 1)\n  6995: t0 = 198, jump @1335\n      : @250 [@dyn 99] (gas: 5)\n  7001: a0 = u64 [a4 + 0x80]\n  7005: a1 = u64 [a4 + 0x78]\n  7008: a2 = u64 [a4 + 0x68]\n  7011: a3 = u64 [a4 + 0x70]\n  7014: t0 = 200, jump @1334\n      : @251 [@dyn 100] (gas: 1)\n  7020: jump @253 if a1 != 0\n      : @252 (gas: 1)\n  7023: jump @996\n      : @253 (gas: 7)\n  7026: a0 = s1 + 0x3000\n  7030: i32 a0 = a0 + 0x380\n  7034: a1 = 0xe4\n  7038: ra = 0xca\n  7042: ecalli 1 // 'call_data_load'\n  7044: t0 = 0xcc\n  7048: jump @1335\n      : @254 [@dyn 101] (gas: 1)\n  7051: t0 = 204, jump @1335\n      : @255 [@dyn 102] (gas: 7)\n  7057: a0 = u64 [a4 + 0xa0]\n  7061: a1 = u64 [a4 + 0x98]\n  7065: a2 = u64 [a4 + 0x90]\n  7069: a0 = a0 | a1\n  7072: a1 = a2 <u 0x1\n  7075: a1 = 0 if a0 != 0\n  7077: jump @257 if a1 != 0\n      : @256 (gas: 1)\n  7080: jump @997\n      : @257 (gas: 14)\n  7083: a0 = u64 [a3 + 0x288]\n  7087: u64 [s1 + 0xf8] = a0\n  7091: a0 = u64 [s1 + 0xf0]\n  7095: a0 = a0 << 0x20\n  7098: a0 = a0 >> 0x20\n  7101: u64 [s1 + 0xb8] = a0\n  7105: a0 = 0x300a0\n  7110: u64 [s1 + 0x158] = a0\n  7114: i32 a0 = a0 + 0\n  7116: ra = 0xce\n  7120: ecalli 3 // 'caller'\n  7122: a2 = u64 [s1 + 0x158]\n  7126: t0 = 0xd0\n  7130: jump @1307\n      : @258 [@dyn 103] (gas: 2)\n  7133: a2 = u64 [s1 + 0x158]\n  7137: t0 = 208, jump @1307\n      : @259 [@dyn 104] (gas: 9)\n  7143: a2 = u64 [s1 + 0xb8]\n  7147: a1 = a1 ^ a2\n  7150: a2 = u64 [s1 + 0xc8]\n  7154: a0 = a0 ^ a2\n  7157: a0 = a0 | a1\n  7160: a1 = u64 [s1 + 0xc0]\n  7164: a1 = a1 ^ a3\n  7167: a0 = a0 | a1\n  7170: jump @261 if a0 == 0\n      : @260 (gas: 1)\n  7173: jump @869\n      : @261 (gas: 11)\n  7176: a2 = u64 [s1 + 0xe8]\n  7180: a2 = a2 & 0xffffffffffffffff\n  7183: a0 = s1 + 0x20f8\n  7187: u64 [a0 + 1952] = 0\n  7191: u64 [a0 + 1944] = 0\n  7195: u64 [a0 + 1936] = 0\n  7199: a1 = s1 + 0x2880\n  7203: u64 [s1 + 0xb0] = a2\n  7207: u64 [a0 + 0x788] = a2\n  7211: a0 = 0\n  7213: ra = 210, jump @19\n      : @262 [@dyn 105] (gas: 9)\n  7219: a0 = s1 + 0x20f8\n  7223: u64 [a0 + 1920] = 0\n  7227: u64 [a0 + 1912] = 0\n  7231: u64 [a0 + 1904] = 0\n  7235: a2 = a0\n  7237: a0 = 0x20\n  7240: a1 = s1 + 0x2860\n  7244: u64 [a2 + 1896] = 0\n  7248: ra = 212, jump @19\n      : @263 [@dyn 106] (gas: 4)\n  7254: a2 = 0x20094\n  7259: a0 = i32 [0x20094]\n  7264: a1 = 0x3f\n  7267: jump @265 if a1 <u a0\n      : @264 (gas: 4)\n  7270: u32 [0x20094] = 0x40\n  7276: u64 [s1 + 0xa8] = a2\n  7280: t0 = 0xd6\n  7284: jump @1346\n      : @265 (gas: 2)\n  7287: u64 [s1 + 0xa8] = a2\n  7291: t0 = 214, jump @1346\n      : @266 [@dyn 107] (gas: 10)\n  7297: a0 = 0x200a0\n  7302: i32 a0 = a0 + 0\n  7304: i32 a2 = a2 + 0\n  7306: a1 = 0x40\n  7309: u64 [s1 + 0xa0] = a0\n  7313: ra = 0xd8\n  7317: ecalli 6 // 'hash_keccak_256'\n  7319: a3 = u64 [s1 + 0x158]\n  7323: t0 = 0xda\n  7327: jump @1312\n      : @267 [@dyn 108] (gas: 2)\n  7330: a3 = u64 [s1 + 0x158]\n  7334: t0 = 218, jump @1312\n      : @268 [@dyn 109] (gas: 8)\n  7340: a5 = a4 + 0x200\n  7344: u64 [a5 + 0xc0] = a3\n  7348: u64 [a5 + 0xb8] = a2\n  7352: u64 [a5 + 0xb0] = a1\n  7356: u64 [a5 + 0xa8] = a0\n  7360: a0 = s1 + 0x2840\n  7364: a1 = s1 + 0x33a0\n  7368: ra = 220, jump @21\n      : @269 [@dyn 110] (gas: 7)\n  7374: a0 = s1 + 0x20f8\n  7378: a0 = u64 [a0 + 0x748]\n  7382: a0 = a0 & 0xffffffffffffffff\n  7385: u64 [s1 + 0x158] = a0\n  7389: a0 = s1 + 0x2820\n  7393: a1 = 0x40\n  7396: ra = 222, jump @17\n      : @270 [@dyn 111] (gas: 11)\n  7402: a2 = s1 + 0x20f8\n  7406: a4 = a2 + 0x700\n  7410: a0 = u64 [a4 + 0x40]\n  7413: a1 = u64 [a4 + 0x38]\n  7416: a3 = u64 [a4 + 0x28]\n  7419: t2 = u64 [a2 + 0x730]\n  7423: t1 = a3 | a1\n  7426: a5 = t2 | a0\n  7429: t0 = a1 | a0\n  7432: a4 = u64 [s1 + 0x158]\n  7436: jump @272 if a4 == 0\n      : @271 (gas: 1)\n  7439: jump @897\n      : @272 (gas: 15)\n  7442: u64 [s1 + 0xe8] = t0\n  7446: a4 = a2 + 0x600\n  7450: u64 [a4 + 0x88] = a3\n  7454: u64 [a2 + 0x690] = t2\n  7458: u64 [a4 + 0xa0] = a0\n  7462: a0 = s1 + 0x2780\n  7466: u64 [a4 + 0x98] = a1\n  7470: u64 [s1 + 0xf0] = a3\n  7474: u64 [s1 + 0xe0] = t2\n  7478: u64 [s1 + 0x158] = a1\n  7482: u64 [s1 + 0xd0] = a5\n  7486: u64 [s1 + 0xd8] = t1\n  7490: ra = 0xe0\n  7494: t0 = 0x47c\n  7498: jump @1328\n      : @273 [@dyn 112] (gas: 9)\n  7501: a2 = u64 [s1 + 0xd0]\n  7505: a0 = u64 [s1 + 0xd8]\n  7509: a0 = a0 | a2\n  7512: a0 = a0 >> 0x20\n  7515: a1 = u64 [s1 + 0x158]\n  7519: a1 = a1 | a2\n  7522: a1 = a1 << 0x20\n  7525: a0 = a0 | a1\n  7528: jump @275 if a0 == 0\n      : @274 (gas: 1)\n  7531: jump @911\n      : @275 (gas: 9)\n  7534: a2 = s1 + 0x20f8\n  7538: u64 [a2 + 1664] = 0\n  7542: u64 [a2 + 1656] = 0\n  7546: u64 [a2 + 1648] = 0\n  7550: a1 = s1 + 0x2760\n  7554: a0 = u64 [s1 + 0xb0]\n  7558: u64 [a2 + 0x668] = a0\n  7562: a0 = u64 [s1 + 0xf0]\n  7566: ra = 226, jump @19\n      : @276 [@dyn 113] (gas: 4)\n  7572: a2 = 0x100000000\n  7582: a0 = 0xffffffe0\n  7592: a3 = u64 [s1 + 0xf0]\n  7596: t0 = 228, jump @1338\n      : @277 [@dyn 114] (gas: 1)\n  7602: jump @279 if a0 != 0\n      : @278 (gas: 1)\n  7605: jump @911\n      : @279 (gas: 15)\n  7608: i32 a4 = a3 + 0x20\n  7611: a5 = s1 + 0x20f8\n  7615: u64 [a5 + 1632] = 0\n  7619: a0 = u64 [s1 + 0xc8]\n  7623: a3 = a5 + 0x600\n  7627: u64 [a3 + 0x48] = a0\n  7630: a0 = u64 [s1 + 0xc0]\n  7634: u64 [a3 + 0x50] = a0\n  7637: a1 = s1 + 0x2740\n  7641: a0 = u64 [s1 + 0xb8]\n  7645: u64 [a3 + 0x58] = a0\n  7648: u64 [s1 + 0xd8] = a4\n  7652: a0 = a4\n  7654: u64 [s1 + 0x158] = a2\n  7658: ra = 230, jump @19\n      : @280 [@dyn 115] (gas: 9)\n  7664: a4 = u64 [s1 + 0xe0]\n  7668: a3 = u64 [s1 + 0xe8]\n  7672: a1 = u64 [s1 + 0xf0]\n  7676: a0 = u64 [s1 + 0x158]\n  7680: a0 = a0 + 0xffffffffffffffc0\n  7683: a0 = a1 <u a0\n  7686: a0 = 0 if a4 != 0\n  7688: a0 = 0 if a3 != 0\n  7690: jump @282 if a0 != 0\n      : @281 (gas: 1)\n  7693: jump @911\n      : @282 (gas: 15)\n  7696: i32 a2 = a1 + 0x40\n  7699: a0 = u64 [s1 + 0x128]\n  7703: a5 = s1 + 0x20f8\n  7707: a3 = a5 + 0x600\n  7711: u64 [a3 + 0x28] = a0\n  7714: a0 = u64 [s1 + 0x130]\n  7718: u64 [a3 + 0x30] = a0\n  7721: a0 = u64 [s1 + 0x138]\n  7725: u64 [a3 + 0x38] = a0\n  7728: a1 = s1 + 0x2720\n  7732: a0 = u64 [s1 + 0x140]\n  7736: u64 [a3 + 0x40] = a0\n  7739: u64 [s1 + 0x140] = a2\n  7743: a0 = a2\n  7745: ra = 232, jump @19\n      : @283 [@dyn 116] (gas: 5)\n  7751: a3 = u64 [s1 + 0xf0]\n  7755: a0 = 0x100000000\n  7765: u64 [s1 + 0x158] = a0\n  7769: a0 = 0xffffffa0\n  7779: t0 = 234, jump @1338\n      : @284 [@dyn 117] (gas: 1)\n  7785: jump @286 if a0 != 0\n      : @285 (gas: 1)\n  7788: jump @911\n      : @286 (gas: 11)\n  7791: a2 = u64 [s1 + 0x150]\n  7795: a2 = a2 & 0xffffffffffffffff\n  7798: i32 a0 = a3 + 0x60\n  7801: a4 = s1 + 0x20f8\n  7805: u64 [a4 + 1568] = 0\n  7809: u64 [a4 + 1560] = 0\n  7813: u64 [a4 + 1552] = 0\n  7817: a1 = s1 + 0x2700\n  7821: u64 [a4 + 0x608] = a2\n  7825: u64 [s1 + 0x98] = a0\n  7829: ra = 236, jump @19\n      : @287 [@dyn 118] (gas: 3)\n  7835: a0 = u64 [s1 + 0x158]\n  7839: a0 = a0 + 0xffffffffffffff80\n  7842: t0 = 238, jump @1324\n      : @288 [@dyn 119] (gas: 1)\n  7848: jump @290 if a0 != 0\n      : @289 (gas: 1)\n  7851: jump @911\n      : @290 (gas: 12)\n  7854: a0 = u64 [s1 + 0xf0]\n  7858: i32 a2 = a0 + 0x80\n  7862: a0 = s1 + 0x20f8\n  7866: u64 [a0 + 1536] = 0\n  7870: u64 [a0 + 1528] = 0\n  7874: u64 [a0 + 1520] = 0\n  7878: a1 = s1 + 0x26e0\n  7882: a3 = u64 [s1 + 0x148]\n  7886: u64 [a0 + 0x5e8] = a3\n  7890: u64 [s1 + 0x90] = a2\n  7894: a0 = a2\n  7896: ra = 240, jump @19\n      : @291 [@dyn 120] (gas: 4)\n  7902: a0 = 0x100000000\n  7912: u64 [s1 + 0x158] = a0\n  7916: a0 = 0xffffff60\n  7926: t0 = 242, jump @1324\n      : @292 [@dyn 121] (gas: 1)\n  7932: jump @294 if a0 != 0\n      : @293 (gas: 1)\n  7935: jump @911\n      : @294 (gas: 12)\n  7938: a3 = u64 [s1 + 0x120]\n  7942: a3 = a3 & 0xffffffffffffffff\n  7945: a0 = u64 [s1 + 0xf0]\n  7949: i32 a0 = a0 + 0xa0\n  7953: a2 = s1 + 0x20f8\n  7957: u64 [a2 + 1504] = 0\n  7961: u64 [a2 + 1496] = 0\n  7965: u64 [a2 + 1488] = 0\n  7969: a1 = s1 + 0x26c0\n  7973: u64 [a2 + 0x5c8] = a3\n  7977: u64 [s1 + 0x88] = a0\n  7981: ra = 244, jump @19\n      : @295 [@dyn 122] (gas: 3)\n  7987: a0 = u64 [s1 + 0x158]\n  7991: a0 = a0 + 0xffffffffffffff40\n  7995: t0 = 246, jump @1324\n      : @296 [@dyn 123] (gas: 1)\n  8001: jump @298 if a0 != 0\n      : @297 (gas: 1)\n  8004: jump @911\n      : @298 (gas: 19)\n  8007: a3 = s1 + 0x100\n  8011: a0 = u64 [a3 + 0x10]\n  8014: a1 = u64 [a3 + 0x8]\n  8017: a0 = a0 | a1\n  8020: a1 = u64 [a3 + 0x18]\n  8023: a2 = u64 [a3]\n  8025: a1 = a1 | a2\n  8028: a0 = a0 | a1\n  8031: a3 = a0 >u 0\n  8033: a0 = u64 [s1 + 0xf0]\n  8037: i32 a0 = a0 + 0xc0\n  8041: a2 = s1 + 0x20f8\n  8045: u64 [a2 + 1472] = 0\n  8049: u64 [a2 + 1464] = 0\n  8053: u64 [a2 + 1456] = 0\n  8057: a1 = s1 + 0x26a0\n  8061: u64 [a2 + 0x5a8] = a3\n  8065: u64 [s1 + 0x80] = a0\n  8069: ra = 248, jump @19\n      : @299 [@dyn 124] (gas: 2)\n  8075: a0 = 0xffffff20\n  8085: t0 = 250, jump @1324\n      : @300 [@dyn 125] (gas: 1)\n  8091: jump @302 if a0 != 0\n      : @301 (gas: 1)\n  8094: jump @911\n      : @302 (gas: 12)\n  8097: a2 = u64 [s1 + 0xf8]\n  8101: a2 = a2 & 0xffffffffffffffff\n  8104: a0 = u64 [s1 + 0xf0]\n  8108: i32 a0 = a0 + 0xe0\n  8112: a3 = s1 + 0x20f8\n  8116: u64 [a3 + 1440] = 0\n  8120: u64 [a3 + 1432] = 0\n  8124: u64 [a3 + 1424] = 0\n  8128: a1 = s1 + 0x2680\n  8132: u64 [a3 + 0x588] = a2\n  8136: u64 [s1 + 0x28] = a0\n  8139: ra = 252, jump @19\n      : @303 [@dyn 126] (gas: 9)\n  8145: a2 = s1 + 0x20f8\n  8149: u64 [a2 + 1408] = 0\n  8153: u64 [a2 + 1400] = 0\n  8157: u64 [a2 + 1392] = 0\n  8161: a1 = s1 + 0x2660\n  8165: a0 = u64 [s1 + 0xb0]\n  8169: u64 [a2 + 0x568] = a0\n  8173: a0 = 0\n  8175: ra = 254, jump @19\n      : @304 [@dyn 127] (gas: 9)\n  8181: a0 = s1 + 0x20f8\n  8185: u64 [a0 + 1376] = 0\n  8189: u64 [a0 + 1368] = 0\n  8193: u64 [a0 + 1360] = 0\n  8197: a2 = a0\n  8199: a0 = 0x20\n  8202: a1 = s1 + 0x2640\n  8206: u64 [a2 + 1352] = 0\n  8210: ra = 256, jump @19\n      : @305 [@dyn 128] (gas: 7)\n  8216: a0 = sp + 0xffffffffffffffe0\n  8219: a0 = a0 & 0xffffffffffffffe0\n  8222: u64 [s1 + 0x158] = a0\n  8226: sp = a0\n  8228: a0 = u64 [s1 + 0xa8]\n  8232: a0 = i32 [a0]\n  8234: jump @307 if a0 >u 63\n      : @306 (gas: 3)\n  8238: a1 = u64 [s1 + 0xa8]\n  8242: u32 [a1 + 0] = 0x40\n  8245: fallthrough\n      : @307 (gas: 29)\n  8246: a0 = sp + 0xffffffffffffffe0\n  8249: a0 = a0 & 0xffffffffffffffe0\n  8252: u64 [s1 + 0x150] = a0\n  8256: sp = a0\n  8258: i32 a2 = a0 + 0\n  8260: a1 = 0x40\n  8263: a0 = u64 [s1 + 0xa0]\n  8267: ecalli 6 // 'hash_keccak_256'\n  8269: a3 = u64 [s1 + 0x150]\n  8273: a0 = u64 [a3 + 0x18]\n  8276: a1 = u64 [a3 + 0x10]\n  8279: a2 = u64 [a3 + 0x8]\n  8282: a3 = u64 [a3]\n  8284: a5 = reverse a0\n  8286: u64 [s1 + 0x60] = a5\n  8289: a4 = reverse a1\n  8291: u64 [s1 + 0x68] = a4\n  8294: a1 = reverse a2\n  8296: u64 [s1 + 0x78] = a1\n  8299: a0 = reverse a3\n  8301: u64 [s1 + 0x70] = a0\n  8304: a2 = u64 [s1 + 0x158]\n  8308: u64 [a2 + 0x18] = a0\n  8311: u64 [a2 + 0x10] = a1\n  8314: u64 [a2 + 0x8] = a4\n  8317: u64 [a2] = a5\n  8319: a0 = s1 + 0x2620\n  8323: a1 = u64 [s1 + 0xf0]\n  8327: ra = 258, jump @17\n      : @308 [@dyn 129] (gas: 7)\n  8333: a0 = s1 + 0x20f8\n  8337: a0 = u64 [a0 + 0x528]\n  8341: a0 = a0 & 0xffffffffffffffff\n  8344: u64 [s1 + 0x150] = a0\n  8348: a0 = s1 + 0x2600\n  8352: a1 = u64 [s1 + 0x158]\n  8356: ra = 260, jump @21\n      : @309 [@dyn 130] (gas: 15)\n  8362: a2 = s1 + 0x20f8\n  8366: a3 = a2 + 0x500\n  8370: a0 = u64 [a3 + 0x20]\n  8373: a1 = u64 [a3 + 0x18]\n  8376: a2 = u64 [a3 + 0x10]\n  8379: a3 = s1 + 0x30f8\n  8383: a4 = u64 [s1 + 0x150]\n  8387: a5 = a3 + 0x200\n  8391: u64 [a5 + 0xc8] = a4\n  8395: u64 [a5 + 0xe0] = a0\n  8399: u64 [a5 + 0xd8] = a1\n  8403: u64 [a5 + 0xd0] = a2\n  8407: a1 = s1 + 0x33c0\n  8411: a0 = u64 [s1 + 0x158]\n  8415: ra = 262, jump @23\n      : @310 [@dyn 131] (gas: 3)\n  8421: a0 = s1 + 0x25e0\n  8425: a1 = u64 [s1 + 0xd8]\n  8429: ra = 264, jump @17\n      : @311 [@dyn 132] (gas: 10)\n  8435: a0 = s1 + 0x20f8\n  8439: a1 = u64 [a0 + 0x4e8]\n  8443: u64 [s1 + 0x150] = a1\n  8447: a1 = u64 [a0 + 0x4f0]\n  8451: u64 [s1 + 0x148] = a1\n  8455: a1 = u32 [a0 + 0x4f8]\n  8459: u64 [s1 + 0x138] = a1\n  8463: a0 = s1 + 0x25c0\n  8467: a1 = u64 [s1 + 0x158]\n  8471: ra = 266, jump @21\n      : @312 [@dyn 133] (gas: 17)\n  8477: a1 = s1 + 0x20f8\n  8481: a0 = u32 [a1 + 0x4e4]\n  8485: a0 = a0 << 0x20\n  8488: a1 = u64 [a1 + 0x4c8]\n  8492: a2 = u64 [s1 + 0x138]\n  8496: a0 = a0 | a2\n  8499: a2 = s1 + 0x30f8\n  8503: a3 = u64 [s1 + 0x148]\n  8507: a4 = a2 + 0x200\n  8511: u64 [a4 + 0xf8] = a3\n  8515: a3 = u64 [s1 + 0x150]\n  8519: u64 [a4 + 0xf0] = a3\n  8523: u64 [a4 + 0xe8] = a1\n  8527: u64 [a2 + 0x300] = a0\n  8531: a1 = s1 + 0x33e0\n  8535: a0 = u64 [s1 + 0x158]\n  8539: ra = 268, jump @23\n      : @313 [@dyn 134] (gas: 28)\n  8545: a0 = sp + 0xffffffffffffffe0\n  8548: a1 = a0 & 0xffffffffffffffe0\n  8551: sp = a1\n  8553: a2 = u64 [s1 + 0x60]\n  8556: a2 = a2 + 0x1\n  8559: a0 = a2 <u 0x1\n  8562: a3 = u64 [s1 + 0x68]\n  8565: a3 = a3 + a0\n  8568: a0 = a2 | a3\n  8571: a0 = a0 <u 0x1\n  8574: a5 = u64 [s1 + 0x78]\n  8577: a4 = a5 + a0\n  8580: a0 = a4 <u a5\n  8583: a5 = u64 [s1 + 0x70]\n  8586: a0 = a0 + a5\n  8589: a5 = s1 + 0x100\n  8593: u64 [a5 + 0x8] = a0\n  8596: u64 [a1 + 0x18] = a0\n  8599: u64 [s1 + 0xf8] = a4\n  8603: u64 [a1 + 0x10] = a4\n  8606: u64 [a5] = a3\n  8608: u64 [a1 + 0x8] = a3\n  8611: u64 [s1 + 0x48] = a1\n  8614: u64 [a5 + 0x10] = a2\n  8617: u64 [a1] = a2\n  8619: a0 = s1 + 0x25a0\n  8623: a1 = u64 [a5 + 0x40]\n  8626: ra = 270, jump @17\n      : @314 [@dyn 135] (gas: 18)\n  8632: a1 = s1 + 0x20f8\n  8636: a4 = a1 + 0x400\n  8640: a2 = u64 [a4 + 0xc0]\n  8644: a3 = u64 [a4 + 0xb8]\n  8648: a0 = u64 [a4 + 0xb0]\n  8652: a1 = u64 [a4 + 0xa8]\n  8656: u64 [s1 + 0xe8] = a0\n  8660: u64 [s1 + 0xe0] = a2\n  8664: a0 = a0 | a2\n  8667: u64 [s1 + 0xf0] = a1\n  8671: a1 = a1 | a3\n  8674: a1 = a1 | a0\n  8677: a1 = a1 >> 0x20\n  8680: u64 [s1 + 0xd8] = a3\n  8684: a0 = a0 | a3\n  8687: a0 = a0 << 0x20\n  8690: a0 = a0 | a1\n  8693: jump @316 if a0 == 0\n      : @315 (gas: 1)\n  8696: jump @911\n      : @316 (gas: 3)\n  8699: a0 = s1 + 0x2580\n  8703: a1 = u64 [s1 + 0xf0]\n  8707: ra = 272, jump @17\n      : @317 [@dyn 136] (gas: 18)\n  8713: a0 = s1 + 0x20f8\n  8717: a4 = a0 + 0x400\n  8721: a3 = u64 [a4 + 0xa0]\n  8725: a2 = u64 [a4 + 0x98]\n  8729: a1 = u64 [a4 + 0x90]\n  8733: a0 = a3 >u 0\n  8735: a4 = a2 >u 0\n  8737: a4 = a0 if a3 != 0\n  8740: u64 [s1 + 0x50] = a1\n  8743: a0 = a1 >u 0\n  8745: u64 [s1 + 0x40] = a2\n  8748: u64 [s1 + 0x30] = a3\n  8751: a2 = a2 | a3\n  8754: u64 [s1 + 0x18] = a0\n  8757: u64 [s1 + 0x20] = a4\n  8760: u64 [s1 + 0xd0] = a2\n  8764: a0 = a4 if a2 != 0\n  8767: jump @319 if a0 == 0\n      : @318 (gas: 1)\n  8770: jump @998\n      : @319 (gas: 6)\n  8773: a0 = s1 + 0x20f8\n  8777: a0 = u64 [a0 + 0x488]\n  8781: u64 [s1 + 0x58] = a0\n  8784: a0 = s1 + 0x2560\n  8788: a1 = u64 [s1 + 0x48]\n  8791: ra = 274, jump @21\n      : @320 [@dyn 137] (gas: 13)\n  8797: a4 = s1 + 0x20f8\n  8801: a5 = a4 + 0x400\n  8805: a2 = u64 [a5 + 0x68]\n  8808: a0 = u64 [a5 + 0x70]\n  8811: a1 = u64 [a5 + 0x78]\n  8814: a3 = u64 [a5 + 0x80]\n  8818: u64 [a5 + 0x40] = a3\n  8821: u64 [a5 + 0x38] = a1\n  8824: u64 [a5 + 0x30] = a0\n  8827: a0 = s1 + 0x2540\n  8831: a1 = s1 + 0x2520\n  8835: u64 [a5 + 0x28] = a2\n  8838: ra = 276, jump @1089\n      : @321 [@dyn 138] (gas: 23)\n  8844: a0 = s1 + 0x20f8\n  8848: a1 = a0 + 0x400\n  8852: a3 = u64 [a1 + 0x60]\n  8855: a4 = u64 [a1 + 0x58]\n  8858: a5 = u64 [a1 + 0x50]\n  8861: a2 = u64 [a1 + 0x48]\n  8864: a0 = a3 >u 0\n  8866: a1 = a4 >u 0\n  8868: a1 = a0 if a3 != 0\n  8871: a0 = a5 >u 0\n  8873: u64 [s1 + 0x138] = a2\n  8877: a2 = a2 <u 0x20\n  8880: a2 = a2 ^ 0x1\n  8883: u64 [s1 + 0x140] = a5\n  8887: a2 = a0 if a5 != 0\n  8890: u64 [s1 + 0x148] = a3\n  8894: u64 [s1 + 0x150] = a4\n  8898: a0 = a4 | a3\n  8901: a2 = a1 if a0 != 0\n  8904: a0 = u64 [s1 + 0x58]\n  8907: a0 = a0 <u 0x20\n  8910: u64 [s1 + 0x38] = a0\n  8913: jump @323 if a2 != 0\n      : @322 (gas: 1)\n  8916: jump @912\n      : @323 (gas: 14)\n  8919: a0 = s1 + 0x20f8\n  8923: a3 = s1 + 0x100\n  8927: a1 = u64 [a3 + 0x10]\n  8930: a4 = a0 + 0x400\n  8934: u64 [a4 + 0x8] = a1\n  8937: a1 = u64 [a3]\n  8939: u64 [a4 + 0x10] = a1\n  8942: a1 = u64 [s1 + 0xf8]\n  8946: u64 [a4 + 0x18] = a1\n  8949: a1 = s1 + 0x2500\n  8953: a2 = u64 [a3 + 0x8]\n  8956: u64 [a4 + 0x20] = a2\n  8959: a0 = 0\n  8961: ra = 278, jump @19\n      : @324 [@dyn 139] (gas: 3)\n  8967: a0 = u64 [s1 + 0xa8]\n  8971: a0 = i32 [a0]\n  8973: jump @326 if a0 >u 31\n      : @325 (gas: 3)\n  8977: a1 = u64 [s1 + 0xa8]\n  8981: u32 [a1 + 0] = 0x20\n  8984: fallthrough\n      : @326 (gas: 117)\n  8985: a0 = sp + 0xffffffffffffffe0\n  8988: a0 = a0 & 0xffffffffffffffe0\n  8991: u64 [s1 + 0x120] = a0\n  8995: sp = a0\n  8997: i32 a2 = a0 + 0\n  8999: a1 = 0x20\n  9002: a0 = u64 [s1 + 0xa0]\n  9006: ecalli 6 // 'hash_keccak_256'\n  9008: a0 = u64 [s1 + 0x58]\n  9011: a1 = a0 + 0x1f\n  9014: a0 = a1 <u a0\n  9017: a5 = u64 [s1 + 0x50]\n  9020: a2 = a5 + a0\n  9023: a3 = a2 <u a5\n  9026: a3 = a0 if a0 == 0\n  9029: a4 = u64 [s1 + 0x40]\n  9032: a3 = a3 + a4\n  9035: u64 [s1 + 0x118] = a3\n  9039: a3 = a3 << 0x3b\n  9042: a4 = a2 >> 0x5\n  9045: a4 = a4 | a3\n  9048: a0 = u64 [s1 + 0x120]\n  9052: t1 = u64 [a0 + 0x18]\n  9055: a2 = a2 << 0x3b\n  9058: a3 = u64 [a0 + 0x10]\n  9061: a1 = a1 >> 0x5\n  9064: a0 = a1 | a2\n  9067: t2 = reverse t1\n  9069: a2 = reverse a3\n  9071: a1 = u64 [s1 + 0x38]\n  9074: a1 = 0 if a5 != 0\n  9076: a3 = u64 [s1 + 0xd0]\n  9080: a1 = 0 if a3 != 0\n  9082: a4 = 0 if a1 != 0\n  9084: a0 = 0 if a1 != 0\n  9086: t0 = t2 + a0\n  9089: a0 = t0 <u t2\n  9092: a5 = a2 + a0\n  9095: a4 = a4 + a5\n  9098: u64 [s1 + 0x158] = a4\n  9102: a5 = a4 ^ a2\n  9105: a3 = a4 <u a2\n  9108: a3 = a0 if a5 == 0\n  9111: u64 [s1 + 0x10] = a3\n  9114: a0 = u64 [s1 + 0x138]\n  9118: ra = a0 + 0x1f\n  9121: a4 = ra <u a0\n  9124: a3 = u64 [s1 + 0x140]\n  9128: a0 = a3 + a4\n  9131: a5 = a0 <u a3\n  9134: a5 = a4 if a4 == 0\n  9137: t1 = u64 [s1 + 0x150]\n  9141: t1 = t1 + a5\n  9144: a4 = t1 << 0x3b\n  9147: a3 = a0 >> 0x5\n  9150: a3 = a3 | a4\n  9153: a0 = a0 << 0x3b\n  9156: a4 = ra >> 0x5\n  9159: a0 = a0 | a4\n  9162: a0 = a0 + t2\n  9165: u64 [s1 + 0x130] = a0\n  9169: a0 = a0 <u t2\n  9172: t2 = t0\n  9174: a4 = a2 + a0\n  9177: a4 = a4 + a3\n  9180: a3 = a4 ^ a2\n  9183: u64 [s1 + 0x128] = a4\n  9187: a2 = a4 <u a2\n  9190: a2 = a0 if a3 == 0\n  9193: a4 = u64 [s1 + 0x118]\n  9197: a0 = u64 [s1 + 0x40]\n  9200: a0 = a4 <u a0\n  9203: a3 = u64 [s1 + 0x30]\n  9206: a0 = a0 + a3\n  9209: a3 = a4 >> 0x5\n  9212: a4 = a0 << 0x3b\n  9215: a3 = a3 | a4\n  9218: a4 = u64 [s1 + 0x120]\n  9222: t0 = u64 [a4]\n  9224: a4 = u64 [a4 + 0x8]\n  9227: a0 = a0 >> 0x5\n  9230: a3 = 0 if a1 != 0\n  9232: a0 = 0 if a1 != 0\n  9234: a1 = reverse a4\n  9236: a4 = reverse t0\n  9238: a0 = a0 + a4\n  9241: a3 = a3 + a1\n  9244: a5 = a3 <u a1\n  9247: a0 = a0 + a5\n  9250: ra = u64 [s1 + 0x10]\n  9253: ra = ra + a3\n  9256: a3 = ra <u a3\n  9259: t0 = a0 + a3\n  9262: a0 = u64 [s1 + 0x150]\n  9266: a0 = t1 <u a0\n  9269: a3 = u64 [s1 + 0x148]\n  9273: a0 = a0 + a3\n  9276: a3 = t1 >> 0x5\n  9279: a5 = a0 << 0x3b\n  9282: a3 = a3 | a5\n  9285: a0 = a0 >> 0x5\n  9288: a0 = a0 + a4\n  9291: a5 = s1 + 0x100\n  9295: a4 = u64 [a5 + 0x58]\n  9298: a3 = a3 + a1\n  9301: a1 = a3 <u a1\n  9304: a0 = a0 + a1\n  9307: a2 = a2 + a3\n  9310: u64 [a5 + 0x20] = a2\n  9313: a1 = a2 <u a3\n  9316: a0 = a0 + a1\n  9319: u64 [a5 + 0x18] = a0\n  9322: a0 = sp + 0xffffffffffffffe0\n  9325: a0 = a0 & 0xffffffffffffffe0\n  9328: u64 [a5 + 0x50] = a0\n  9331: sp = a0\n  9333: fallthrough\n      : @327 (gas: 25)\n  9334: a0 = u64 [s1 + 0x130]\n  9338: a0 = t2 <u a0\n  9341: a2 = u64 [s1 + 0x128]\n  9345: a1 = a4 ^ a2\n  9348: a2 = a4 <u a2\n  9351: a2 = a0 if a1 == 0\n  9354: a5 = u64 [s1 + 0x120]\n  9358: a0 = ra <u a5\n  9361: a3 = u64 [s1 + 0x118]\n  9365: a1 = t0 ^ a3\n  9368: a3 = t0 <u a3\n  9371: a3 = a0 if a1 == 0\n  9374: a0 = ra ^ a5\n  9377: a0 = a0 | a1\n  9380: a3 = a2 if a0 == 0\n  9383: u64 [s1 + 0x148] = t2\n  9387: a0 = u64 [s1 + 0x150]\n  9391: u64 [a0] = t2\n  9393: u64 [s1 + 0x158] = a4\n  9397: u64 [a0 + 0x8] = a4\n  9400: u64 [s1 + 0x138] = ra\n  9404: u64 [a0 + 0x10] = ra\n  9407: u64 [s1 + 0x140] = t0\n  9411: u64 [a0 + 0x18] = t0\n  9414: jump @329 if a3 != 0\n      : @328 (gas: 1)\n  9417: jump @912\n      : @329 (gas: 8)\n  9420: a0 = s1 + 0x30f8\n  9424: u64 [a0 + 800] = 0\n  9428: u64 [a0 + 792] = 0\n  9432: u64 [a0 + 784] = 0\n  9436: u64 [a0 + 776] = 0\n  9440: a1 = s1 + 0x3400\n  9444: a0 = u64 [s1 + 0x150]\n  9448: ra = 280, jump @23\n      : @330 [@dyn 140] (gas: 14)\n  9454: t2 = u64 [s1 + 0x148]\n  9458: t2 = t2 + 0x1\n  9461: a0 = t2 <u 0x1\n  9464: a4 = u64 [s1 + 0x158]\n  9468: a4 = a4 + a0\n  9471: a0 = t2 | a4\n  9474: a0 = a0 <u 0x1\n  9477: a1 = u64 [s1 + 0x138]\n  9481: a0 = a0 + a1\n  9484: a1 = a0 <u a1\n  9487: t0 = u64 [s1 + 0x140]\n  9491: t0 = t0 + a1\n  9494: ra = a0\n  9496: jump @327\n      : @331 (gas: 9)\n  9499: a0 = s1 + 0x30f8\n  9503: u64 [a0 + 0] = 0\n  9505: u64 [a0 + 4294967288] = 0\n  9508: u64 [a0 + 4294967280] = 0\n  9511: u64 [a0 + 4294967272] = 0\n  9514: a0 = s1 + 0x3000\n  9518: i32 a0 = a0 + 0xe0\n  9522: ecalli 10 // 'value_transferred'\n  9524: fallthrough\n      : @332 (gas: 10)\n  9525: a3 = s1 + 0x30f8\n  9529: a4 = a3 + 0xffffffffffffff00\n  9533: a0 = u64 [a4 + 0xf8]\n  9537: a1 = u64 [a3]\n  9539: a2 = u64 [a4 + 0xf0]\n  9543: a3 = u64 [a4 + 0xe8]\n  9547: a1 = a1 | a2\n  9550: a0 = a0 | a3\n  9553: a0 = a0 | a1\n  9556: jump @334 if a0 == 0\n      : @333 (gas: 1)\n  9559: jump @957\n      : @334 (gas: 3)\n  9562: a0 = u64 [s1 + 0x158]\n  9566: a0 = i32 [a0]\n  9568: jump @336 if a0 >u 163\n      : @335 (gas: 1)\n  9573: jump @958\n      : @336 (gas: 5)\n  9576: a0 = s1 + 0x3000\n  9580: i32 a0 = a0 + 0x100\n  9584: a1 = 0x4\n  9587: ecalli 1 // 'call_data_load'\n  9589: fallthrough\n      : @337 (gas: 12)\n  9590: a3 = s1 + 0x30f8\n  9594: a2 = u64 [a3 + 0x18]\n  9597: a0 = u64 [a3 + 0x20]\n  9600: a1 = 0x100000000\n  9610: a1 = a1 ^ a2\n  9613: a1 = a1 | a0\n  9616: u64 [s1 + 0x148] = a2\n  9620: a2 = a2 >> 0x20\n  9623: a2 = a2 <u 0x1\n  9626: a2 = 0 if a0 != 0\n  9628: a2 = 0 if a1 == 0\n  9630: jump @339 if a2 != 0\n      : @338 (gas: 1)\n  9633: jump @959\n      : @339 (gas: 8)\n  9636: a0 = u64 [a3 + 0x10]\n  9639: u64 [s1 + 0x150] = a0\n  9643: a0 = u64 [a3 + 0x8]\n  9646: u64 [s1 + 0x158] = a0\n  9650: a0 = s1 + 0x1e80\n  9654: ra = 0x11a\n  9658: t0 = 0x44a\n  9662: jump @1342\n      : @340 [@dyn 141] (gas: 7)\n  9665: a0 = s1 + 0x18f8\n  9669: a0 = u64 [a0 + 0x588]\n  9673: u64 [s1 + 0x120] = a0\n  9677: a0 = s1 + 0x1e60\n  9681: ra = 0x11c\n  9685: t0 = 0x440\n  9689: jump @1330\n      : @341 [@dyn 142] (gas: 7)\n  9692: a0 = s1 + 0x18f8\n  9696: a0 = u64 [a0 + 0x568]\n  9700: u64 [s1 + 0x140] = a0\n  9704: a0 = s1 + 0x1e40\n  9708: ra = 0x11e\n  9712: t0 = 0x454\n  9716: jump @1330\n      : @342 [@dyn 143] (gas: 9)\n  9719: a0 = s1 + 0x18f8\n  9723: a0 = u64 [a0 + 0x548]\n  9727: u64 [s1 + 0x128] = a0\n  9731: a0 = s1 + 0x3000\n  9735: i32 a0 = a0 + 0x120\n  9739: a1 = 0x84\n  9743: ra = 0x120\n  9747: ecalli 1 // 'call_data_load'\n  9749: fallthrough\n      : @343 [@dyn 144] (gas: 6)\n  9750: a3 = s1 + 0x30f8\n  9754: a0 = u64 [a3 + 0x40]\n  9757: a1 = u64 [a3 + 0x38]\n  9760: a2 = u64 [a3 + 0x28]\n  9763: a3 = u64 [a3 + 0x30]\n  9766: t0 = 290, jump @1334\n      : @344 [@dyn 145] (gas: 1)\n  9772: jump @346 if a1 != 0\n      : @345 (gas: 1)\n  9775: jump @960\n      : @346 (gas: 10)\n  9778: a0 = u64 [s1 + 0x148]\n  9782: a0 = a0 << 0x20\n  9785: a0 = a0 >> 0x20\n  9788: u64 [s1 + 0x148] = a0\n  9792: a0 = 0x300a0\n  9797: u64 [s1 + 0x138] = a0\n  9801: i32 a0 = a0 + 0\n  9803: ra = 0x124\n  9807: ecalli 3 // 'caller'\n  9809: fallthrough\n      : @347 [@dyn 146] (gas: 3)\n  9810: a5 = s1 + 0x100\n  9814: a2 = u64 [a5 + 0x38]\n  9817: t0 = 294, jump @1307\n      : @348 [@dyn 147] (gas: 9)\n  9823: a2 = u64 [a5 + 0x48]\n  9826: a1 = a1 ^ a2\n  9829: a2 = u64 [a5 + 0x58]\n  9832: a0 = a0 ^ a2\n  9835: a0 = a0 | a1\n  9838: a1 = u64 [a5 + 0x50]\n  9841: a1 = a1 ^ a3\n  9844: a0 = a0 | a1\n  9847: jump @350 if a0 == 0\n      : @349 (gas: 1)\n  9850: jump @725\n      : @350 (gas: 3)\n  9853: t0 = 0x128\n  9857: a2 = s1 + 0x18f8\n  9861: fallthrough\n      : @351 [@dyn 148] (gas: 8)\n  9862: u64 [a2 + 1184] = 0\n  9866: u64 [a2 + 1176] = 0\n  9870: u64 [a2 + 1168] = 0\n  9874: a1 = s1 + 0x1d80\n  9878: a0 = u64 [s1 + 0x140]\n  9882: u64 [a2 + 0x488] = a0\n  9886: a0 = 0\n  9888: ra = 298, jump @19\n      : @352 [@dyn 149] (gas: 3)\n  9894: t0 = 0x12c\n  9898: a1 = s1 + 0x18f8\n  9902: fallthrough\n      : @353 [@dyn 150] (gas: 8)\n  9903: u64 [a1 + 1152] = 0\n  9907: u64 [a1 + 1144] = 0\n  9911: u64 [a1 + 1128] = 0x1\n  9916: a2 = a1\n  9918: a0 = 0x20\n  9921: a1 = s1 + 0x1d60\n  9925: u64 [a2 + 1136] = 0\n  9929: ra = 302, jump @19\n      : @354 [@dyn 151] (gas: 3)\n  9935: a1 = 0x20094\n  9940: a0 = i32 [0x20094]\n  9945: jump @356 if a0 >u 63\n      : @355 (gas: 2)\n  9949: u32 [0x20094] = 0x40\n  9955: fallthrough\n      : @356 (gas: 27)\n  9956: a0 = sp + 0xffffffffffffffe0\n  9959: a2 = a0 & 0xffffffffffffffe0\n  9962: u64 [s1 + 0xf8] = a2\n  9966: sp = a2\n  9968: a0 = 0x200a0\n  9973: i32 a0 = a0 + 0\n  9975: u64 [s1 + 0x130] = a1\n  9979: i32 a2 = a2 + 0\n  9981: a1 = 0x40\n  9984: u64 [s1 + 0x138] = a0\n  9988: ecalli 6 // 'hash_keccak_256'\n  9990: a3 = u64 [s1 + 0xf8]\n  9994: a0 = u64 [a3 + 0x18]\n  9997: a1 = u64 [a3 + 0x10]\n 10000: a2 = u64 [a3 + 0x8]\n 10003: a3 = u64 [a3]\n 10005: a0 = reverse a0\n 10007: u64 [s1 + 0xf8] = a0\n 10011: a0 = reverse a1\n 10013: u64 [s1 + 0xf0] = a0\n 10017: a0 = reverse a2\n 10019: u64 [s1 + 0xe8] = a0\n 10023: a0 = reverse a3\n 10025: u64 [s1 + 0xe0] = a0\n 10029: t0 = 0x130\n 10033: a2 = s1 + 0x18f8\n 10037: fallthrough\n      : @357 [@dyn 152] (gas: 11)\n 10038: u64 [a2 + 1120] = 0\n 10042: a0 = u64 [s1 + 0x148]\n 10046: a3 = a2 + 0x400\n 10050: u64 [a3 + 0x58] = a0\n 10053: a0 = u64 [s1 + 0x150]\n 10057: u64 [a3 + 0x50] = a0\n 10060: a1 = s1 + 0x1d40\n 10064: a0 = u64 [s1 + 0x158]\n 10068: u64 [a3 + 0x48] = a0\n 10071: a0 = 0\n 10073: ra = 306, jump @19\n      : @358 [@dyn 153] (gas: 14)\n 10079: a0 = u64 [s1 + 0xe0]\n 10083: a1 = s1 + 0x18f8\n 10087: a2 = a1 + 0x400\n 10091: u64 [a2 + 0x40] = a0\n 10094: a0 = u64 [s1 + 0xe8]\n 10098: u64 [a2 + 0x38] = a0\n 10101: a0 = u64 [s1 + 0xf0]\n 10105: u64 [a2 + 0x30] = a0\n 10108: a3 = a1\n 10110: a0 = 0x20\n 10113: a1 = s1 + 0x1d20\n 10117: a2 = u64 [s1 + 0xf8]\n 10121: u64 [a3 + 0x428] = a2\n 10125: ra = 308, jump @19\n      : @359 [@dyn 154] (gas: 3)\n 10131: a1 = u64 [s1 + 0x130]\n 10135: a0 = i32 [a1]\n 10137: jump @361 if a0 >u 63\n      : @360 (gas: 2)\n 10141: u32 [a1 + 0] = 0x40\n 10144: fallthrough\n      : @361 (gas: 36)\n 10145: a0 = sp + 0xffffffffffffffe0\n 10148: a0 = a0 & 0xffffffffffffffe0\n 10151: u64 [s1 + 0xf8] = a0\n 10155: sp = a0\n 10157: i32 a2 = a0 + 0\n 10159: a1 = 0x40\n 10162: a0 = u64 [s1 + 0x138]\n 10166: ecalli 6 // 'hash_keccak_256'\n 10168: a3 = u64 [s1 + 0xf8]\n 10172: a0 = u64 [a3 + 0x18]\n 10175: a1 = u64 [a3 + 0x10]\n 10178: a2 = u64 [a3 + 0x8]\n 10181: a3 = u64 [a3]\n 10183: a0 = reverse a0\n 10185: u64 [s1 + 0xf0] = a0\n 10189: a0 = reverse a1\n 10191: u64 [s1 + 0xe8] = a0\n 10195: a0 = reverse a2\n 10197: u64 [s1 + 0xe0] = a0\n 10201: a0 = reverse a3\n 10203: u64 [s1 + 0xd8] = a0\n 10207: a0 = sp + 0xffffffffffffffe0\n 10210: a0 = a0 & 0xffffffffffffffe0\n 10213: u64 [s1 + 0xf8] = a0\n 10217: sp = a0\n 10219: a2 = u64 [s1 + 0x128]\n 10223: a2 = a2 & 0xffffffffffffffff\n 10226: a0 = s1 + 0x18f8\n 10230: u64 [a0 + 1056] = 0\n 10234: u64 [a0 + 1048] = 0\n 10238: u64 [a0 + 1040] = 0\n 10242: a1 = s1 + 0x1d00\n 10246: u64 [s1 + 0xd0] = a2\n 10250: u64 [a0 + 0x408] = a2\n 10254: a0 = 0\n 10256: ra = 310, jump @19\n      : @362 [@dyn 155] (gas: 13)\n 10262: a0 = u64 [s1 + 0xd8]\n 10266: a1 = s1 + 0x18f8\n 10270: u64 [a1 + 0x400] = a0\n 10274: a0 = u64 [s1 + 0xe0]\n 10278: u64 [a1 + 0x3f8] = a0\n 10282: a0 = u64 [s1 + 0xe8]\n 10286: u64 [a1 + 0x3f0] = a0\n 10290: a3 = a1\n 10292: a0 = 0x20\n 10295: a1 = s1 + 0x1ce0\n 10299: a2 = u64 [s1 + 0xf0]\n 10303: u64 [a3 + 0x3e8] = a2\n 10307: ra = 312, jump @19\n      : @363 [@dyn 156] (gas: 3)\n 10313: a1 = u64 [s1 + 0x130]\n 10317: a0 = i32 [a1]\n 10319: jump @365 if a0 >=u 64\n      : @364 (gas: 3)\n 10323: u32 [a1 + 0] = 0x40\n 10326: t0 = 0x13a\n 10330: jump @1303\n      : @365 (gas: 1)\n 10333: t0 = 314, jump @1303\n      : @366 [@dyn 157] (gas: 5)\n 10339: ra = 0x13c\n 10343: ecalli 6 // 'hash_keccak_256'\n 10345: a3 = u64 [s1 + 0x128]\n 10349: t0 = 0x13e\n 10353: jump @1313\n      : @367 [@dyn 158] (gas: 2)\n 10356: a3 = u64 [s1 + 0x128]\n 10360: t0 = 318, jump @1313\n      : @368 [@dyn 159] (gas: 7)\n 10366: a1 = u64 [s1 + 0xf8]\n 10370: u64 [a1 + 0x18] = a3\n 10373: u64 [a1 + 0x10] = a2\n 10376: u64 [a1 + 0x8] = a4\n 10379: u64 [a1] = a0\n 10381: a0 = s1 + 0x1cc0\n 10385: ra = 320, jump @21\n      : @369 [@dyn 160] (gas: 3)\n 10391: t0 = 0x142\n 10395: a2 = s1 + 0x18f8\n 10399: fallthrough\n      : @370 [@dyn 161] (gas: 2)\n 10400: a0 = u8 [a2 + 0x3c8]\n 10404: jump @372 if a0 == 0\n      : @371 (gas: 1)\n 10407: jump @804\n      : @372 (gas: 8)\n 10410: u64 [a2 + 800] = 0\n 10414: u64 [a2 + 792] = 0\n 10418: u64 [a2 + 784] = 0\n 10422: a1 = s1 + 0x1c00\n 10426: a0 = u64 [s1 + 0x140]\n 10430: u64 [a2 + 0x308] = a0\n 10434: a0 = 0\n 10436: ra = 324, jump @19\n      : @373 [@dyn 162] (gas: 9)\n 10442: a0 = s1 + 0x18f8\n 10446: u64 [a0 + 768] = 0\n 10450: u64 [a0 + 760] = 0\n 10454: u64 [a0 + 752] = 0\n 10458: a2 = a0\n 10460: a0 = 0x20\n 10463: a1 = s1 + 0x1be0\n 10467: u64 [a2 + 744] = 0\n 10471: ra = 326, jump @19\n      : @374 [@dyn 163] (gas: 3)\n 10477: a1 = u64 [s1 + 0x130]\n 10481: a0 = i32 [a1]\n 10483: jump @376 if a0 >u 63\n      : @375 (gas: 3)\n 10487: u32 [a1 + 0] = 0x40\n 10490: t0 = 0x148\n 10494: jump @1303\n      : @376 (gas: 1)\n 10497: t0 = 328, jump @1303\n      : @377 [@dyn 164] (gas: 5)\n 10503: ra = 0x14a\n 10507: ecalli 6 // 'hash_keccak_256'\n 10509: a3 = u64 [s1 + 0x128]\n 10513: t0 = 0x14c\n 10517: jump @1312\n      : @378 [@dyn 165] (gas: 2)\n 10520: a3 = u64 [s1 + 0x128]\n 10524: t0 = 332, jump @1312\n      : @379 [@dyn 166] (gas: 7)\n 10530: u64 [a4 + 0x60] = a3\n 10533: u64 [a4 + 0x58] = a2\n 10536: u64 [a4 + 0x50] = a1\n 10539: u64 [a4 + 0x48] = a0\n 10542: a0 = s1 + 0x1bc0\n 10546: a1 = s1 + 0x3140\n 10550: ra = 334, jump @21\n      : @380 [@dyn 167] (gas: 3)\n 10556: t0 = 0x150\n 10560: a2 = s1 + 0x18f8\n 10564: fallthrough\n      : @381 [@dyn 168] (gas: 9)\n 10565: a0 = u64 [a2 + 0x2c8]\n 10569: a0 = a0 & 0xffffffffffffffff\n 10572: a0 = a0 >u 0\n 10574: u64 [a2 + 704] = 0\n 10578: u64 [a2 + 696] = 0\n 10582: u64 [a2 + 0x2a8] = a0\n 10586: a0 = s1 + 0x1ba0\n 10590: u64 [a2 + 688] = 0\n 10594: ra = 338, jump @1246\n      : @382 [@dyn 169] (gas: 3)\n 10600: t0 = 0x154\n 10604: a2 = s1 + 0x18f8\n 10608: fallthrough\n      : @383 [@dyn 170] (gas: 8)\n 10609: u64 [a2 + 672] = 0\n 10613: u64 [a2 + 664] = 0\n 10617: u64 [a2 + 656] = 0\n 10621: a1 = s1 + 0x1b80\n 10625: a0 = u64 [s1 + 0x140]\n 10629: u64 [a2 + 0x288] = a0\n 10633: a0 = 0\n 10635: ra = 342, jump @19\n      : @384 [@dyn 171] (gas: 9)\n 10641: a0 = s1 + 0x18f8\n 10645: u64 [a0 + 640] = 0\n 10649: u64 [a0 + 632] = 0\n 10653: u64 [a0 + 624] = 0\n 10657: a2 = a0\n 10659: a0 = 0x20\n 10662: a1 = s1 + 0x1b60\n 10666: u64 [a2 + 616] = 0\n 10670: ra = 344, jump @19\n      : @385 [@dyn 172] (gas: 3)\n 10676: a1 = u64 [s1 + 0x130]\n 10680: a0 = i32 [a1]\n 10682: jump @387 if a0 >u 63\n      : @386 (gas: 3)\n 10686: u32 [a1 + 0] = 0x40\n 10689: t0 = 0x15a\n 10693: jump @1303\n      : @387 (gas: 1)\n 10696: t0 = 346, jump @1303\n      : @388 [@dyn 173] (gas: 5)\n 10702: ra = 0x15c\n 10706: ecalli 6 // 'hash_keccak_256'\n 10708: a3 = u64 [s1 + 0x128]\n 10712: t0 = 0x15e\n 10716: jump @1314\n      : @389 [@dyn 174] (gas: 2)\n 10719: a3 = u64 [s1 + 0x128]\n 10723: t0 = 350, jump @1314\n      : @390 [@dyn 175] (gas: 9)\n 10729: i32 a1 = a1 + 0xf8\n 10733: a1 = a1 + s1\n 10736: u64 [a1 + 0x68] = a4\n 10739: u64 [a1 + 0x70] = a5\n 10742: u64 [a1 + 0x78] = a2\n 10745: u64 [a1 + 0x80] = a0\n 10749: a0 = s1 + 0x1b40\n 10753: a1 = s1 + 0x3160\n 10757: ra = 352, jump @21\n      : @391 [@dyn 176] (gas: 3)\n 10763: t0 = 0x162\n 10767: a2 = s1 + 0x18f8\n 10771: fallthrough\n      : @392 [@dyn 177] (gas: 2)\n 10772: a0 = u8 [a2 + 0x260]\n 10776: jump @394 if a0 == 0\n      : @393 (gas: 1)\n 10779: jump @819\n      : @394 (gas: 8)\n 10782: u64 [a2 + 416] = 0\n 10786: u64 [a2 + 408] = 0\n 10790: u64 [a2 + 400] = 0\n 10794: a1 = s1 + 0x1a80\n 10798: a0 = u64 [s1 + 0x140]\n 10802: u64 [a2 + 0x188] = a0\n 10806: a0 = 0\n 10808: ra = 356, jump @19\n      : @395 [@dyn 178] (gas: 3)\n 10814: t0 = 0x166\n 10818: a1 = s1 + 0x18f8\n 10822: fallthrough\n      : @396 [@dyn 179] (gas: 8)\n 10823: u64 [a1 + 384] = 0\n 10827: u64 [a1 + 376] = 0\n 10831: u64 [a1 + 360] = 0x2\n 10836: a2 = a1\n 10838: a0 = 0x20\n 10841: a1 = s1 + 0x1a60\n 10845: u64 [a2 + 368] = 0\n 10849: ra = 360, jump @19\n      : @397 [@dyn 180] (gas: 7)\n 10855: a0 = sp + 0xffffffffffffffe0\n 10858: a0 = a0 & 0xffffffffffffffe0\n 10861: u64 [s1 + 0xe0] = a0\n 10865: sp = a0\n 10867: a2 = u64 [s1 + 0x130]\n 10871: a0 = i32 [a2]\n 10873: jump @399 if a0 >u 63\n      : @398 (gas: 3)\n 10877: u32 [a2 + 0] = 0x40\n 10880: t0 = 0x16a\n 10884: jump @1303\n      : @399 (gas: 1)\n 10887: t0 = 362, jump @1303\n      : @400 [@dyn 181] (gas: 22)\n 10893: ecalli 6 // 'hash_keccak_256'\n 10895: a3 = u64 [s1 + 0x128]\n 10899: a0 = u64 [a3 + 0x18]\n 10902: a1 = u64 [a3 + 0x10]\n 10905: a2 = u64 [a3 + 0x8]\n 10908: a3 = u64 [a3]\n 10910: a4 = reverse a0\n 10912: a1 = reverse a1\n 10914: a2 = reverse a2\n 10916: a3 = reverse a3\n 10918: a0 = u64 [s1 + 0xe0]\n 10922: u64 [s1 + 0xb8] = a3\n 10926: u64 [a0 + 0x18] = a3\n 10929: u64 [s1 + 0xc0] = a2\n 10933: u64 [a0 + 0x10] = a2\n 10936: u64 [s1 + 0xc8] = a1\n 10940: u64 [a0 + 0x8] = a1\n 10943: u64 [s1 + 0xd8] = a4\n 10947: u64 [a0] = a4\n 10949: a0 = s1 + 0x1a40\n 10953: a1 = 0x40\n 10956: ra = 364, jump @17\n      : @401 [@dyn 182] (gas: 18)\n 10962: a1 = s1 + 0x18f8\n 10966: a5 = a1 + 0x100\n 10970: a0 = u64 [a5 + 0x60]\n 10973: u64 [s1 + 0xf0] = a0\n 10977: a2 = u64 [a5 + 0x58]\n 10980: u64 [s1 + 0xe8] = a2\n 10984: a3 = u64 [a5 + 0x50]\n 10987: u64 [s1 + 0xf8] = a3\n 10991: a4 = u64 [a5 + 0x48]\n 10994: u64 [s1 + 0x128] = a4\n 10998: u64 [a5 + 0x40] = a0\n 11001: u64 [a5 + 0x38] = a2\n 11004: u64 [a5 + 0x30] = a3\n 11007: a0 = s1 + 0x1a20\n 11011: u64 [a5 + 0x28] = a4\n 11014: ra = 0x16e\n 11018: t0 = 0x46c\n 11022: jump @1328\n      : @402 [@dyn 183] (gas: 12)\n 11025: a2 = u64 [s1 + 0x128]\n 11029: a0 = u64 [s1 + 0xf0]\n 11033: a1 = u64 [s1 + 0xf8]\n 11037: a0 = a0 | a1\n 11040: a3 = u64 [s1 + 0xe8]\n 11044: a1 = a2 | a3\n 11047: a1 = a1 | a0\n 11050: a1 = a1 >> 0x20\n 11053: a0 = a0 | a3\n 11056: a0 = a0 << 0x20\n 11059: a0 = a0 | a1\n 11062: jump @404 if a0 == 0\n      : @403 (gas: 1)\n 11065: jump @911\n      : @404 (gas: 12)\n 11068: a3 = s1 + 0x18f8\n 11072: u64 [a3 + 288] = 0\n 11076: a0 = u64 [s1 + 0x158]\n 11080: a4 = a3 + 0x100\n 11084: u64 [a4 + 0x8] = a0\n 11087: a0 = u64 [s1 + 0x150]\n 11091: u64 [a4 + 0x10] = a0\n 11094: a1 = s1 + 0x1a00\n 11098: a0 = u64 [s1 + 0x148]\n 11102: u64 [a4 + 0x18] = a0\n 11105: a0 = a2\n 11107: ra = 368, jump @19\n      : @405 [@dyn 184] (gas: 11)\n 11113: a2 = u64 [s1 + 0x128]\n 11117: a0 = u64 [s1 + 0xf0]\n 11121: a3 = u64 [s1 + 0xe8]\n 11125: a3 = a3 | a0\n 11128: a4 = 0x100000000\n 11138: a0 = 0xffffffe0\n 11148: a0 = a2 <u a0\n 11151: a1 = u64 [s1 + 0xf8]\n 11155: a0 = 0 if a1 != 0\n 11157: a0 = 0 if a3 != 0\n 11159: jump @407 if a0 != 0\n      : @406 (gas: 1)\n 11162: jump @911\n      : @407 (gas: 13)\n 11165: a1 = u64 [s1 + 0x120]\n 11169: u64 [s1 + 0xf0] = a3\n 11173: a3 = a1 & 0xffffffffffffffff\n 11176: i32 a0 = a2 + 0x20\n 11179: a2 = s1 + 0x18f8\n 11183: u64 [a2 + 256] = 0\n 11187: u64 [a2 + 248] = 0\n 11191: u64 [a2 + 240] = 0\n 11195: a1 = s1 + 0x19e0\n 11199: u64 [a2 + 0xe8] = a3\n 11203: u64 [s1 + 0xe8] = a0\n 11207: u64 [s1 + 0x120] = a4\n 11211: ra = 370, jump @19\n      : @408 [@dyn 185] (gas: 9)\n 11217: a1 = u64 [s1 + 0x128]\n 11221: a0 = u64 [s1 + 0x120]\n 11225: a0 = a0 + 0xffffffffffffffc0\n 11228: a0 = a1 <u a0\n 11231: a2 = u64 [s1 + 0xf8]\n 11235: a0 = 0 if a2 != 0\n 11237: a2 = u64 [s1 + 0xf0]\n 11241: a0 = 0 if a2 != 0\n 11243: jump @410 if a0 != 0\n      : @409 (gas: 1)\n 11246: jump @911\n      : @410 (gas: 11)\n 11249: i32 a2 = a1 + 0x40\n 11252: a3 = s1 + 0x18f8\n 11256: u64 [a3 + 224] = 0\n 11260: u64 [a3 + 216] = 0\n 11264: u64 [a3 + 208] = 0\n 11268: a1 = s1 + 0x19c0\n 11272: a0 = u64 [s1 + 0x140]\n 11276: u64 [a3 + 0xc8] = a0\n 11280: u64 [s1 + 0x120] = a2\n 11284: a0 = a2\n 11286: ra = 372, jump @19\n      : @411 [@dyn 186] (gas: 9)\n 11292: a3 = u64 [s1 + 0xf0]\n 11296: a1 = u64 [s1 + 0x128]\n 11300: a4 = 0x100000000\n 11310: a0 = 0xffffffa0\n 11320: a0 = a1 <u a0\n 11323: a2 = u64 [s1 + 0xf8]\n 11327: a0 = 0 if a2 != 0\n 11329: a0 = 0 if a3 != 0\n 11331: jump @413 if a0 != 0\n      : @412 (gas: 1)\n 11334: jump @911\n      : @413 (gas: 12)\n 11337: i32 a2 = a1 + 0x60\n 11340: a3 = s1 + 0x18f8\n 11344: u64 [a3 + 192] = 0\n 11348: u64 [a3 + 184] = 0\n 11352: u64 [a3 + 176] = 0\n 11356: a1 = s1 + 0x19a0\n 11360: a0 = u64 [s1 + 0xd0]\n 11364: u64 [a3 + 0xa8] = a0\n 11368: u64 [s1 + 0xa8] = a2\n 11372: a0 = a2\n 11374: u64 [s1 + 0xb0] = a4\n 11378: ra = 374, jump @19\n      : @414 [@dyn 187] (gas: 9)\n 11384: a3 = u64 [s1 + 0x128]\n 11388: a0 = u64 [s1 + 0xb0]\n 11392: a0 = a0 + 0xffffffffffffff80\n 11395: a0 = a3 <u a0\n 11398: a1 = u64 [s1 + 0xf8]\n 11402: a0 = 0 if a1 != 0\n 11404: a1 = u64 [s1 + 0xf0]\n 11408: a0 = 0 if a1 != 0\n 11410: jump @416 if a0 != 0\n      : @415 (gas: 1)\n 11413: jump @911\n      : @416 (gas: 19)\n 11416: a4 = s1 + 0x100\n 11420: a0 = u64 [a4 + 0x10]\n 11423: a1 = u64 [a4 + 0x8]\n 11426: a0 = a0 | a1\n 11429: a1 = u64 [a4 + 0x18]\n 11432: a2 = u64 [a4]\n 11434: a1 = a1 | a2\n 11437: a0 = a0 | a1\n 11440: a2 = a0 >u 0\n 11442: i32 a0 = a3 + 0x80\n 11446: a3 = s1 + 0x18f8\n 11450: u64 [a3 + 160] = 0\n 11454: u64 [a3 + 152] = 0\n 11458: u64 [a3 + 144] = 0\n 11462: a1 = s1 + 0x1980\n 11466: u64 [s1 + 0xb0] = a2\n 11470: u64 [a3 + 0x88] = a2\n 11474: u64 [a4] = a0\n 11476: ra = 376, jump @19\n      : @417 [@dyn 188] (gas: 3)\n 11482: a0 = s1 + 0x1960\n 11486: a1 = u64 [s1 + 0xe0]\n 11490: ra = 378, jump @21\n      : @418 [@dyn 189] (gas: 12)\n 11496: t0 = s1 + 0x18f8\n 11500: a0 = t0\n 11502: a5 = u64 [a0 + 0x80]\n 11506: a4 = u64 [a0 + 0x78]\n 11509: a3 = u64 [a0 + 0x70]\n 11512: a0 = a5 >u 0\n 11514: a1 = a4 >u 0\n 11516: a1 = a0 if a5 != 0\n 11519: a0 = a4 | a5\n 11522: a2 = a3 >u 0\n 11524: a2 = a1 if a0 != 0\n 11527: jump @420 if a2 == 0\n      : @419 (gas: 1)\n 11530: jump @1001\n      : @420 (gas: 21)\n 11533: a0 = u64 [t0 + 0x68]\n 11536: u64 [s1 + 0x110] = a0\n 11540: a0 = a0 + 0x1\n 11543: a1 = a0 <u 0x1\n 11546: a1 = a1 + a3\n 11549: a2 = a0 | a1\n 11552: a2 = a2 <u 0x1\n 11555: a2 = a2 + a4\n 11558: u64 [s1 + 0x108] = a3\n 11562: a3 = a2 <u a4\n 11565: a3 = a3 + a5\n 11568: u64 [s1 + 0xf8] = a4\n 11572: a4 = s1 + 0x30f8\n 11576: u64 [a4 + 0x88] = a0\n 11580: u64 [a4 + 0x90] = a1\n 11584: u64 [a4 + 0x98] = a2\n 11588: u64 [a4 + 0xa0] = a3\n 11592: a1 = s1 + 0x3180\n 11596: a0 = u64 [s1 + 0xe0]\n 11600: u64 [s1 + 0xf0] = a5\n 11604: ra = 380, jump @23\n      : @421 [@dyn 190] (gas: 27)\n 11610: a0 = sp + 0xffffffffffffffe0\n 11613: a0 = a0 & 0xffffffffffffffe0\n 11616: u64 [s1 + 0x118] = a0\n 11620: sp = a0\n 11622: a1 = s1 + 0x18f8\n 11626: a0 = u64 [s1 + 0xf0]\n 11630: u64 [a1] = a0\n 11632: a0 = u64 [s1 + 0xf8]\n 11636: a2 = a1 + 0xffffffffffffff00\n 11640: u64 [a2 + 0xf8] = a0\n 11644: a0 = u64 [s1 + 0x108]\n 11648: u64 [a2 + 0xf0] = a0\n 11652: a0 = u64 [s1 + 0x110]\n 11656: u64 [a2 + 0xe8] = a0\n 11660: a0 = u64 [s1 + 0xb8]\n 11664: u64 [a1 + 0x20] = a0\n 11667: a0 = u64 [s1 + 0xc0]\n 11671: u64 [a1 + 0x18] = a0\n 11674: a0 = u64 [s1 + 0xc8]\n 11678: u64 [a1 + 0x10] = a0\n 11681: a4 = a1\n 11683: a0 = s1 + 0x1920\n 11687: a1 = s1 + 0x1900\n 11691: a2 = s1 + 0x18e0\n 11695: a3 = u64 [s1 + 0xd8]\n 11699: u64 [a4 + 0x8] = a3\n 11702: ra = 382, jump @1215\n      : @422 [@dyn 191] (gas: 2)\n 11708: a1 = s1 + 0x18f8\n 11712: fallthrough\n      : @423 (gas: 21)\n 11713: t0 = u64 [a1 + 0x58]\n 11716: t1 = u64 [a1 + 0x48]\n 11719: t2 = u64 [a1 + 0x60]\n 11722: a2 = u64 [a1 + 0x50]\n 11725: a4 = u64 [a1 + 0x38]\n 11728: a5 = u64 [a1 + 0x40]\n 11731: a0 = u64 [a1 + 0x28]\n 11734: a1 = u64 [a1 + 0x30]\n 11737: u64 [s1 + 0xf8] = a4\n 11741: a3 = u64 [s1 + 0x118]\n 11745: u64 [a3 + 0x10] = a4\n 11748: u64 [s1 + 0xf0] = a5\n 11752: u64 [a3 + 0x18] = a5\n 11755: u64 [s1 + 0xd8] = a0\n 11759: u64 [a3] = a0\n 11761: a2 = a2 | t2\n 11764: a0 = t1 | t0\n 11767: a0 = a0 | a2\n 11770: u64 [s1 + 0xe0] = a1\n 11774: u64 [a3 + 0x8] = a1\n 11777: jump @425 if a0 == 0\n      : @424 (gas: 1)\n 11780: jump @1003\n      : @425 (gas: 5)\n 11783: a0 = 0xffffffff\n 11793: u64 [s1 + 0x108] = a0\n 11797: a0 = s1 + 0x1880\n 11801: a1 = u64 [s1 + 0x128]\n 11805: ra = 384, jump @17\n      : @426 [@dyn 192] (gas: 15)\n 11811: a2 = s1 + 0x10f8\n 11815: a3 = a2 + 0x700\n 11819: a0 = u64 [a3 + 0x88]\n 11823: a1 = u64 [a3 + 0x90]\n 11827: a2 = u64 [a3 + 0x98]\n 11831: a0 = a0 & 0xffffffffffffffff\n 11834: u64 [s1 + 0x128] = a0\n 11838: a0 = a1 & 0xffffffffffffffff\n 11841: u64 [s1 + 0x110] = a0\n 11845: a0 = u64 [s1 + 0x108]\n 11849: a0 = a0 & a2\n 11852: u64 [s1 + 0x108] = a0\n 11856: a0 = s1 + 0x1860\n 11860: a1 = u64 [s1 + 0x118]\n 11864: ra = 386, jump @21\n      : @427 [@dyn 193] (gas: 17)\n 11870: a1 = s1 + 0x10f8\n 11874: a0 = u32 [a1 + 0x77c]\n 11878: a0 = a0 << 0x20\n 11881: a3 = u64 [a1 + 0x780]\n 11885: u64 [s1 + 0xc8] = a3\n 11889: a1 = u64 [s1 + 0x108]\n 11893: a0 = a0 | a1\n 11896: a2 = s1 + 0x30f8\n 11900: a1 = u64 [s1 + 0x110]\n 11904: u64 [a2 + 0xb0] = a1\n 11908: a1 = u64 [s1 + 0x128]\n 11912: u64 [a2 + 0xa8] = a1\n 11916: u64 [a2 + 0xc0] = a3\n 11920: u64 [a2 + 0xb8] = a0\n 11924: a1 = s1 + 0x31a0\n 11928: a0 = u64 [s1 + 0x118]\n 11932: ra = 388, jump @23\n      : @428 [@dyn 194] (gas: 3)\n 11938: a0 = s1 + 0x1840\n 11942: a1 = u64 [s1 + 0xe8]\n 11946: ra = 390, jump @17\n      : @429 [@dyn 195] (gas: 20)\n 11952: a0 = s1 + 0x10f8\n 11956: a0 = u64 [a0 + 0x748]\n 11960: a1 = a0 << 0x20\n 11963: a0 = a0 >> 0x20\n 11966: a2 = u64 [s1 + 0xc8]\n 11970: a2 = a2 >> 0x20\n 11973: a2 = a2 << 0x20\n 11976: a0 = a0 | a2\n 11979: a2 = u64 [s1 + 0x108]\n 11983: a1 = a1 | a2\n 11986: a2 = s1 + 0x30f8\n 11990: a3 = u64 [s1 + 0x110]\n 11994: u64 [a2 + 0xd0] = a3\n 11998: a3 = u64 [s1 + 0x128]\n 12002: u64 [a2 + 0xc8] = a3\n 12006: u64 [a2 + 0xe0] = a0\n 12010: u64 [a2 + 0xd8] = a1\n 12014: a1 = s1 + 0x31c0\n 12018: a0 = u64 [s1 + 0x118]\n 12022: ra = 392, jump @23\n      : @430 [@dyn 196] (gas: 27)\n 12028: a0 = sp + 0xffffffffffffffe0\n 12031: a1 = a0 & 0xffffffffffffffe0\n 12034: sp = a1\n 12036: a0 = u64 [s1 + 0xd8]\n 12040: a3 = a0 + 0x1\n 12043: a0 = a3 <u 0x1\n 12046: a2 = u64 [s1 + 0xe0]\n 12050: a4 = a2 + a0\n 12053: u64 [s1 + 0x110] = a4\n 12057: a0 = a3 | a4\n 12060: u64 [s1 + 0x118] = a3\n 12064: a0 = a0 <u 0x1\n 12067: a2 = u64 [s1 + 0xf8]\n 12071: a5 = a2 + a0\n 12074: u64 [s1 + 0x108] = a5\n 12078: a0 = a5 <u a2\n 12081: a2 = u64 [s1 + 0xf0]\n 12085: a0 = a0 + a2\n 12088: u64 [s1 + 0xf8] = a0\n 12092: u64 [s1 + 0x128] = a1\n 12096: u64 [a1 + 0x18] = a0\n 12099: u64 [a1 + 0x10] = a5\n 12102: u64 [a1 + 0x8] = a4\n 12105: u64 [a1] = a3\n 12107: a0 = s1 + 0x1820\n 12111: a1 = u64 [s1 + 0x120]\n 12115: ra = 394, jump @17\n      : @431 [@dyn 197] (gas: 7)\n 12121: a0 = s1 + 0x10f8\n 12125: a0 = u64 [a0 + 0x728]\n 12129: a0 = a0 & 0xffffffffffffffff\n 12132: u64 [s1 + 0x120] = a0\n 12136: a0 = s1 + 0x1800\n 12140: a1 = u64 [s1 + 0x128]\n 12144: ra = 396, jump @21\n      : @432 [@dyn 198] (gas: 14)\n 12150: a2 = s1 + 0x10f8\n 12154: a3 = a2 + 0x700\n 12158: a0 = u64 [a3 + 0x20]\n 12161: a1 = u64 [a3 + 0x18]\n 12164: a2 = u64 [a3 + 0x10]\n 12167: a3 = s1 + 0x30f8\n 12171: a4 = u64 [s1 + 0x120]\n 12175: u64 [a3 + 0xe8] = a4\n 12179: u64 [a3 + 0x100] = a0\n 12183: u64 [a3 + 0xf8] = a1\n 12187: u64 [a3 + 0xf0] = a2\n 12191: a1 = s1 + 0x31e0\n 12195: a0 = u64 [s1 + 0x128]\n 12199: ra = 398, jump @23\n      : @433 [@dyn 199] (gas: 3)\n 12205: a0 = s1 + 0x17e0\n 12209: a1 = u64 [s1 + 0xa8]\n 12213: ra = 400, jump @17\n      : @434 [@dyn 200] (gas: 20)\n 12219: a1 = s1 + 0x10f8\n 12223: a3 = a1 + 0x600\n 12227: a0 = u64 [a3 + 0xe8]\n 12231: a0 = a0 & 0xffffffffffffffff\n 12234: u64 [a1 + 1728] = 0\n 12238: u64 [a1 + 1720] = 0\n 12242: u64 [a1 + 1712] = 0\n 12246: u64 [a3 + 0xa8] = a0\n 12250: a0 = u64 [s1 + 0xf8]\n 12254: u64 [a3 + 0xe0] = a0\n 12258: a0 = u64 [s1 + 0x108]\n 12262: u64 [a3 + 0xd8] = a0\n 12266: a0 = u64 [s1 + 0x110]\n 12270: u64 [a3 + 0xd0] = a0\n 12274: a3 = a1\n 12276: a0 = s1 + 0x17c0\n 12280: a1 = s1 + 0x17a0\n 12284: a2 = u64 [s1 + 0x118]\n 12288: u64 [a3 + 0x6c8] = a2\n 12292: ra = 402, jump @1296\n      : @435 [@dyn 201] (gas: 3)\n 12298: a0 = s1 + 0x1780\n 12302: a1 = u64 [s1 + 0x100]\n 12306: ra = 404, jump @17\n      : @436 [@dyn 202] (gas: 14)\n 12312: a3 = s1 + 0x10f8\n 12316: a4 = a3 + 0x600\n 12320: a0 = u64 [a4 + 0xa0]\n 12324: a1 = u64 [a4 + 0x90]\n 12328: a2 = u64 [a4 + 0x98]\n 12332: a3 = u64 [a4 + 0x88]\n 12336: a0 = a0 | a1\n 12339: a2 = a2 | a3\n 12342: a0 = a0 | a2\n 12345: a0 = a0 >u 0\n 12347: u64 [s1 + 0x120] = a0\n 12351: a0 = s1 + 0x1760\n 12355: a1 = u64 [s1 + 0x128]\n 12359: ra = 406, jump @21\n      : @437 [@dyn 203] (gas: 18)\n 12365: a3 = s1 + 0x10f8\n 12369: a4 = a3 + 0x600\n 12373: a0 = u64 [a4 + 0x78]\n 12376: a1 = u64 [a4 + 0x68]\n 12379: a2 = u64 [a4 + 0x80]\n 12383: a3 = u64 [a4 + 0x70]\n 12386: a0 = a0 & 0xffffffffffffff00\n 12390: a4 = u64 [s1 + 0x120]\n 12394: a0 = a0 | a4\n 12397: a4 = s1 + 0x30f8\n 12401: a5 = a4 + 0x100\n 12405: u64 [a5 + 0x20] = a2\n 12408: u64 [a5 + 0x10] = a3\n 12411: u64 [a5 + 0x8] = a1\n 12414: u64 [a5 + 0x18] = a0\n 12417: a1 = s1 + 0x3200\n 12421: a0 = u64 [s1 + 0x128]\n 12425: ra = 408, jump @23\n      : @438 [@dyn 204] (gas: 9)\n 12431: a2 = s1 + 0x10f8\n 12435: u64 [a2 + 1632] = 0\n 12439: u64 [a2 + 1624] = 0\n 12443: u64 [a2 + 1616] = 0\n 12447: a1 = s1 + 0x1740\n 12451: a0 = u64 [s1 + 0x140]\n 12455: u64 [a2 + 0x648] = a0\n 12459: a0 = 0\n 12461: ra = 410, jump @19\n      : @439 [@dyn 205] (gas: 9)\n 12467: a1 = s1 + 0x10f8\n 12471: u64 [a1 + 1600] = 0\n 12475: u64 [a1 + 1592] = 0\n 12479: u64 [a1 + 1576] = 0x1\n 12484: a2 = a1\n 12486: a0 = 0x20\n 12489: a1 = s1 + 0x1720\n 12493: u64 [a2 + 1584] = 0\n 12497: ra = 412, jump @19\n      : @440 [@dyn 206] (gas: 3)\n 12503: a1 = u64 [s1 + 0x130]\n 12507: a0 = i32 [a1]\n 12509: jump @442 if a0 >u 63\n      : @441 (gas: 3)\n 12513: u32 [a1 + 0] = 0x40\n 12516: t0 = 0x19e\n 12520: jump @1303\n      : @442 (gas: 1)\n 12523: t0 = 414, jump @1303\n      : @443 [@dyn 207] (gas: 26)\n 12529: ecalli 6 // 'hash_keccak_256'\n 12531: a3 = u64 [s1 + 0x128]\n 12535: a0 = u64 [a3 + 0x18]\n 12538: a1 = u64 [a3 + 0x10]\n 12541: a2 = u64 [a3 + 0x8]\n 12544: a3 = u64 [a3]\n 12546: a0 = reverse a0\n 12548: u64 [s1 + 0x128] = a0\n 12552: a0 = reverse a1\n 12554: u64 [s1 + 0x120] = a0\n 12558: a0 = reverse a2\n 12560: u64 [s1 + 0x118] = a0\n 12564: a0 = reverse a3\n 12566: u64 [s1 + 0x110] = a0\n 12570: a2 = s1 + 0x10f8\n 12574: u64 [a2 + 1568] = 0\n 12578: a0 = u64 [s1 + 0x148]\n 12582: a3 = a2 + 0x600\n 12586: u64 [a3 + 0x18] = a0\n 12589: a0 = u64 [s1 + 0x150]\n 12593: u64 [a3 + 0x10] = a0\n 12596: a1 = s1 + 0x1700\n 12600: a0 = u64 [s1 + 0x158]\n 12604: u64 [a3 + 0x8] = a0\n 12607: a0 = 0\n 12609: ra = 416, jump @19\n      : @444 [@dyn 208] (gas: 13)\n 12615: a0 = u64 [s1 + 0x110]\n 12619: a1 = s1 + 0x10f8\n 12623: u64 [a1 + 0x600] = a0\n 12627: a0 = u64 [s1 + 0x118]\n 12631: u64 [a1 + 0x5f8] = a0\n 12635: a0 = u64 [s1 + 0x120]\n 12639: u64 [a1 + 0x5f0] = a0\n 12643: a3 = a1\n 12645: a0 = 0x20\n 12648: a1 = s1 + 0x16e0\n 12652: a2 = u64 [s1 + 0x128]\n 12656: u64 [a3 + 0x5e8] = a2\n 12660: ra = 418, jump @19\n      : @445 [@dyn 209] (gas: 3)\n 12666: a1 = u64 [s1 + 0x130]\n 12670: a0 = i32 [a1]\n 12672: jump @447 if a0 >u 63\n      : @446 (gas: 3)\n 12676: u32 [a1 + 0] = 0x40\n 12679: t0 = 0x1a4\n 12683: jump @1303\n      : @447 (gas: 1)\n 12686: t0 = 420, jump @1303\n      : @448 [@dyn 210] (gas: 27)\n 12692: ecalli 6 // 'hash_keccak_256'\n 12694: a3 = u64 [s1 + 0x128]\n 12698: a0 = u64 [a3 + 0x18]\n 12701: a1 = u64 [a3 + 0x10]\n 12704: a2 = u64 [a3 + 0x8]\n 12707: a3 = u64 [a3]\n 12709: a0 = reverse a0\n 12711: u64 [s1 + 0x120] = a0\n 12715: a0 = reverse a1\n 12717: u64 [s1 + 0x118] = a0\n 12721: a0 = reverse a2\n 12723: u64 [s1 + 0x110] = a0\n 12727: a0 = reverse a3\n 12729: u64 [s1 + 0x108] = a0\n 12733: a0 = sp + 0xffffffffffffffe0\n 12736: a0 = a0 & 0xffffffffffffffe0\n 12739: u64 [s1 + 0x128] = a0\n 12743: sp = a0\n 12745: a2 = s1 + 0x10f8\n 12749: u64 [a2 + 1504] = 0\n 12753: u64 [a2 + 1496] = 0\n 12757: u64 [a2 + 1488] = 0\n 12761: a1 = s1 + 0x16c0\n 12765: a0 = u64 [s1 + 0xd0]\n 12769: u64 [a2 + 0x5c8] = a0\n 12773: a0 = 0\n 12775: ra = 422, jump @19\n      : @449 [@dyn 211] (gas: 14)\n 12781: a0 = u64 [s1 + 0x108]\n 12785: a1 = s1 + 0x10f8\n 12789: a2 = a1 + 0x500\n 12793: u64 [a2 + 0xc0] = a0\n 12797: a0 = u64 [s1 + 0x110]\n 12801: u64 [a2 + 0xb8] = a0\n 12805: a0 = u64 [s1 + 0x118]\n 12809: u64 [a2 + 0xb0] = a0\n 12813: a3 = a1\n 12815: a0 = 0x20\n 12818: a1 = s1 + 0x16a0\n 12822: a2 = u64 [s1 + 0x120]\n 12826: u64 [a3 + 0x5a8] = a2\n 12830: ra = 424, jump @19\n      : @450 [@dyn 212] (gas: 3)\n 12836: a1 = u64 [s1 + 0x130]\n 12840: a0 = i32 [a1]\n 12842: jump @452 if a0 >=u 64\n      : @451 (gas: 2)\n 12846: u32 [a1 + 0] = 0x40\n 12849: fallthrough\n      : @452 (gas: 12)\n 12850: a0 = sp + 0xffffffffffffffe0\n 12853: a0 = a0 & 0xffffffffffffffe0\n 12856: u64 [s1 + 0x130] = a0\n 12860: sp = a0\n 12862: i32 a2 = a0 + 0\n 12864: a1 = 0x40\n 12867: a0 = u64 [s1 + 0x138]\n 12871: ra = 0x1aa\n 12875: ecalli 6 // 'hash_keccak_256'\n 12877: a3 = u64 [s1 + 0x130]\n 12881: t0 = 0x1ac\n 12885: jump @1313\n      : @453 [@dyn 213] (gas: 2)\n 12888: a3 = u64 [s1 + 0x130]\n 12892: t0 = 428, jump @1313\n      : @454 [@dyn 214] (gas: 7)\n 12898: a1 = u64 [s1 + 0x128]\n 12902: u64 [a1 + 0x18] = a3\n 12905: u64 [a1 + 0x10] = a2\n 12908: u64 [a1 + 0x8] = a4\n 12911: u64 [a1] = a0\n 12913: a0 = s1 + 0x1680\n 12917: ra = 430, jump @21\n      : @455 [@dyn 215] (gas: 17)\n 12923: a3 = s1 + 0x10f8\n 12927: a4 = a3 + 0x500\n 12931: a0 = u64 [a4 + 0x88]\n 12935: a1 = u64 [a4 + 0x90]\n 12939: a2 = u64 [a4 + 0xa0]\n 12943: a3 = u64 [a4 + 0x98]\n 12947: a0 = a0 & 0xffffffffffffff00\n 12951: a0 = a0 | 0x1\n 12954: a4 = s1 + 0x30f8\n 12958: a5 = a4 + 0x100\n 12962: u64 [a5 + 0x40] = a2\n 12965: u64 [a5 + 0x38] = a3\n 12968: u64 [a5 + 0x30] = a1\n 12971: u64 [a5 + 0x28] = a0\n 12974: a1 = s1 + 0x3220\n 12978: a0 = u64 [s1 + 0x128]\n 12982: ra = 432, jump @23\n      : @456 [@dyn 216] (gas: 3)\n 12988: a0 = s1 + 0x1660\n 12992: a1 = 0x40\n 12995: ra = 434, jump @17\n      : @457 [@dyn 217] (gas: 14)\n 13001: a3 = s1 + 0x10f8\n 13005: a5 = a3 + 0x500\n 13009: a0 = u64 [a5 + 0x80]\n 13013: a1 = u64 [a5 + 0x78]\n 13016: a2 = u64 [a5 + 0x70]\n 13019: a4 = u64 [a5 + 0x68]\n 13022: a0 = a0 | a2\n 13025: a2 = a4 | a1\n 13028: a2 = a2 | a0\n 13031: a2 = a2 >> 0x20\n 13034: a0 = a0 | a1\n 13037: a0 = a0 << 0x20\n 13040: a0 = a0 | a2\n 13043: jump @459 if a0 == 0\n      : @458 (gas: 1)\n 13046: jump @911\n      : @459 (gas: 9)\n 13049: u64 [a3 + 1376] = 0\n 13053: u64 [a3 + 1368] = 0\n 13057: u64 [a3 + 1360] = 0\n 13061: a1 = s1 + 0x1640\n 13065: a0 = u64 [s1 + 0xb0]\n 13069: u64 [a3 + 0x548] = a0\n 13073: a0 = a4\n 13075: u64 [s1 + 0x138] = a4\n 13079: ra = 436, jump @19\n      : @460 [@dyn 218] (gas: 39)\n 13085: a0 = s1 + 0x10f8\n 13089: u64 [a0 + 1280] = 0\n 13093: a0 = s1 + 0x10f8\n 13097: u64 [a0 + 1272] = 0\n 13101: a0 = s1 + 0x10f8\n 13105: u64 [a0 + 1264] = 0\n 13109: a0 = s1 + 0x10f8\n 13113: a5 = s1 + 0x100\n 13117: a1 = u64 [a5 + 0x40]\n 13120: u64 [a0 + 0x4e8] = a1\n 13124: a0 = s1 + 0x10f8\n 13128: a1 = u64 [a5 + 0x48]\n 13131: u64 [a0 + 0x518] = a1\n 13135: a0 = s1 + 0x10f8\n 13139: a1 = u64 [a5 + 0x50]\n 13142: u64 [a0 + 0x510] = a1\n 13146: a0 = s1 + 0x10f8\n 13150: a1 = u64 [a5 + 0x58]\n 13153: u64 [a0 + 0x508] = a1\n 13157: a0 = u64 [0x20050]\n 13162: a1 = u64 [0x20058]\n 13167: a2 = u64 [0x20060]\n 13172: a3 = u64 [0x20068]\n 13177: a4 = s1 + 0x10f8\n 13181: u64 [a4 + 0x540] = a0\n 13185: a0 = s1 + 0x10f8\n 13189: u64 [a0 + 0x538] = a1\n 13193: a0 = s1 + 0x10f8\n 13197: u64 [a0 + 0x530] = a2\n 13201: a0 = s1 + 0x10f8\n 13205: u64 [a0 + 0x528] = a3\n 13209: a1 = 0x20\n 13212: a2 = s1 + 0x1620\n 13216: a3 = s1 + 0x1600\n 13220: a4 = s1 + 0x15e0\n 13224: a0 = s1 + 0x10f8\n 13228: u64 [a0 + 1312] = 0\n 13232: a0 = u64 [a5 + 0x38]\n 13235: ra = 438, jump @24\n      : @461 [@dyn 219] (gas: 3)\n 13241: a0 = s1 + 0x15c0\n 13245: a1 = 0x40\n 13248: ra = 440, jump @17\n      : @462 [@dyn 220] (gas: 7)\n 13254: a3 = s1 + 0x10f8\n 13258: a5 = a3 + 0x400\n 13262: a4 = u64 [a5 + 0xe0]\n 13266: a1 = u64 [a5 + 0xd8]\n 13270: a2 = u64 [a5 + 0xd0]\n 13274: a0 = u64 [a5 + 0xc8]\n 13278: t0 = 442, jump @1341\n      : @463 [@dyn 221] (gas: 1)\n 13284: jump @465 if a1 == 0\n      : @464 (gas: 1)\n 13287: jump @911\n      : @465 (gas: 8)\n 13290: u64 [a3 + 1216] = 0\n 13294: u64 [a3 + 1208] = 0\n 13298: u64 [a3 + 1192] = 0x1\n 13303: a1 = s1 + 0x15a0\n 13307: u64 [a3 + 1200] = 0\n 13311: u64 [s1 + 0x158] = a0\n 13315: ra = 0x2a0\n 13319: jump @19\n      : @466 (gas: 11)\n 13322: u64 [a3 + 1504] = 0\n 13326: u64 [a3 + 1496] = 0\n 13330: u64 [a3 + 1488] = 0\n 13334: u64 [a3 + 1480] = 0\n 13338: a0 = s1 + 0x3000\n 13342: i32 a0 = a0 + 0xfffffffffffffec0\n 13346: ra = 0x1bc\n 13350: ecalli 10 // 'value_transferred'\n 13352: a0 = 0x3000\n 13356: t0 = 0x1be\n 13360: jump @1349\n      : @467 [@dyn 222] (gas: 2)\n 13363: a0 = 0x3000\n 13367: t0 = 446, jump @1349\n      : @468 [@dyn 223] (gas: 8)\n 13373: a0 = u64 [a4 + 0xd8]\n 13377: a1 = u64 [a4 + 0xe0]\n 13381: a2 = u64 [a4 + 0xd0]\n 13385: a3 = u64 [a4 + 0xc8]\n 13389: a1 = a1 | a2\n 13392: a0 = a0 | a3\n 13395: a0 = a0 | a1\n 13398: jump @470 if a0 == 0\n      : @469 (gas: 1)\n 13401: jump @961\n      : @470 (gas: 4)\n 13404: a0 = u64 [s1 + 0x158]\n 13408: a0 = i32 [a0]\n 13410: a1 = 0x23\n 13413: jump @472 if a1 <u a0\n      : @471 (gas: 1)\n 13416: jump @962\n      : @472 (gas: 5)\n 13419: a0 = s1 + 0x7ff\n 13423: a0 = a0 + 0x1a1\n 13427: ra = 0x1c0\n 13431: t0 = 0x436\n 13435: jump @1330\n      : @473 [@dyn 224] (gas: 11)\n 13438: a2 = s1 + 0x7ff\n 13442: a2 = a2 + 0xf9\n 13446: a0 = u64 [a2 + 0xa8]\n 13450: u64 [a2 + 160] = 0\n 13454: u64 [a2 + 152] = 0\n 13458: u64 [a2 + 144] = 0\n 13462: a1 = s1 + 0x7ff\n 13466: a1 = a1 + 0x181\n 13470: u64 [a2 + 0x88] = a0\n 13474: a0 = 0\n 13476: ra = 450, jump @19\n      : @474 [@dyn 225] (gas: 11)\n 13482: a0 = s1 + 0x7ff\n 13486: a0 = a0 + 0xf9\n 13490: u64 [a0 + 128] = 0\n 13494: u64 [a0 + 120] = 0\n 13497: u64 [a0 + 112] = 0\n 13500: a2 = a0\n 13502: a0 = 0x20\n 13505: a1 = s1 + 0x7ff\n 13509: a1 = a1 + 0x161\n 13513: u64 [a2 + 104] = 0\n 13516: ra = 452, jump @19\n      : @475 [@dyn 226] (gas: 6)\n 13522: a0 = sp + 0xffffffffffffffe0\n 13525: a0 = a0 & 0xffffffffffffffe0\n 13528: u64 [s1 + 0x138] = a0\n 13532: sp = a0\n 13534: a1 = i32 [0x20094]\n 13539: jump @477 if a1 >u 63\n      : @476 (gas: 4)\n 13543: a1 = 0x40\n 13546: u32 [0x20094] = a1\n 13551: t0 = 0x1c6\n 13555: jump @1346\n      : @477 (gas: 1)\n 13558: t0 = 454, jump @1346\n      : @478 [@dyn 227] (gas: 26)\n 13564: a0 = 0x200a0\n 13569: i32 a0 = a0 + 0\n 13571: i32 a2 = a2 + 0\n 13573: a1 = 0x40\n 13576: ecalli 6 // 'hash_keccak_256'\n 13578: a3 = u64 [s1 + 0x158]\n 13582: a0 = u64 [a3 + 0x18]\n 13585: a1 = u64 [a3 + 0x10]\n 13588: a2 = u64 [a3 + 0x8]\n 13591: a3 = u64 [a3]\n 13593: a5 = reverse a0\n 13595: u64 [s1 + 0x148] = a5\n 13599: a4 = reverse a1\n 13601: u64 [s1 + 0x150] = a4\n 13605: a2 = reverse a2\n 13607: u64 [s1 + 0x140] = a2\n 13611: a0 = reverse a3\n 13613: u64 [s1 + 0x158] = a0\n 13617: a1 = u64 [s1 + 0x138]\n 13621: u64 [a1 + 0x18] = a0\n 13624: u64 [a1 + 0x10] = a2\n 13627: u64 [a1 + 0x8] = a4\n 13630: u64 [a1] = a5\n 13632: a0 = s1 + 0x7ff\n 13636: a0 = a0 + 0x141\n 13640: ra = 456, jump @21\n      : @479 [@dyn 228] (gas: 31)\n 13646: a5 = s1 + 0x7ff\n 13650: a5 = a5 + 0xf9\n 13654: a0 = u64 [a5 + 0x60]\n 13657: u64 [s1 + 0x120] = a0\n 13661: a0 = u64 [a5 + 0x58]\n 13664: u64 [s1 + 0x130] = a0\n 13668: a0 = u64 [a5 + 0x50]\n 13671: u64 [s1 + 0x128] = a0\n 13675: a0 = u64 [a5 + 0x48]\n 13678: u64 [s1 + 0x138] = a0\n 13682: a0 = u64 [s1 + 0x148]\n 13686: a0 = a0 + 0x1\n 13689: a1 = a0 <u 0x1\n 13692: a2 = u64 [s1 + 0x150]\n 13696: a1 = a1 + a2\n 13699: a2 = a0 | a1\n 13702: a2 = a2 <u 0x1\n 13705: a3 = u64 [s1 + 0x140]\n 13709: a2 = a2 + a3\n 13712: a3 = a2 <u a3\n 13715: a4 = u64 [s1 + 0x158]\n 13719: a3 = a3 + a4\n 13722: u64 [a5 + 0x10] = a1\n 13725: u64 [a5 + 0x8] = a0\n 13728: u64 [a5 + 0x18] = a2\n 13731: a0 = s1 + 0x7ff\n 13735: a0 = a0 + 0x121\n 13739: a1 = s1 + 0x7ff\n 13743: a1 = a1 + 0x101\n 13747: u64 [a5 + 0x20] = a3\n 13750: ra = 458, jump @1131\n      : @480 [@dyn 229] (gas: 15)\n 13756: a1 = s1 + 0x7ff\n 13760: a1 = a1 + 0xf9\n 13764: a0 = u64 [a1 + 0x40]\n 13767: u64 [s1 + 0x100] = a0\n 13771: a0 = u64 [a1 + 0x38]\n 13774: u64 [s1 + 0x108] = a0\n 13778: a0 = u64 [a1 + 0x30]\n 13781: u64 [s1 + 0x110] = a0\n 13785: a0 = u64 [a1 + 0x28]\n 13788: u64 [s1 + 0x118] = a0\n 13792: a1 = u64 [s1 + 0x148]\n 13796: a0 = a1 + 0x2\n 13799: a1 = a0 <u a1\n 13802: a3 = u64 [s1 + 0x150]\n 13806: t0 = 460, jump @1345\n      : @481 [@dyn 230] (gas: 12)\n 13812: a4 = u64 [s1 + 0x158]\n 13816: a1 = a1 + a4\n 13819: a4 = s1 + 0x28f8\n 13823: u64 [a4 + 0x600] = a1\n 13827: a1 = a4 + 0x500\n 13831: u64 [a1 + 0xf8] = a3\n 13835: u64 [a1 + 0xf0] = a2\n 13839: u64 [a1 + 0xe8] = a0\n 13843: a0 = s1 + 0x7ff\n 13847: a0 = a0 + 0xe1\n 13851: a1 = s1 + 0x2ee0\n 13855: ra = 462, jump @21\n      : @482 [@dyn 231] (gas: 9)\n 13861: a5 = s1 + 0x7ff\n 13865: a5 = a5 + 0xf9\n 13869: a0 = u64 [a5]\n 13871: u64 [s1 + 0xe0] = a0\n 13875: a1 = u64 [s1 + 0x148]\n 13879: a0 = a1 + 0x3\n 13882: a1 = a0 <u a1\n 13885: a3 = u64 [s1 + 0x150]\n 13889: t0 = 464, jump @1337\n      : @483 [@dyn 232] (gas: 21)\n 13895: a1 = u64 [a5 + 0xfffffffffffffff8]\n 13898: u64 [s1 + 0xe8] = a1\n 13902: a1 = u64 [s1 + 0x140]\n 13906: a3 = a3 + a1\n 13909: a1 = a3 <u a1\n 13912: a4 = u64 [s1 + 0x158]\n 13916: a1 = a1 + a4\n 13919: a4 = u64 [a5 + 0xfffffffffffffff0]\n 13922: u64 [s1 + 0xf0] = a4\n 13926: a4 = u64 [a5 + 0xffffffffffffffe8]\n 13929: u64 [s1 + 0xf8] = a4\n 13933: a4 = s1 + 0x28f8\n 13937: a5 = a4 + 0x600\n 13941: u64 [a5 + 0x20] = a1\n 13944: u64 [a5 + 0x18] = a3\n 13947: u64 [a5 + 0x10] = a2\n 13950: u64 [a5 + 0x8] = a0\n 13953: a0 = s1 + 0x7ff\n 13957: a0 = a0 + 0xc1\n 13961: a1 = s1 + 0x2f00\n 13965: ra = 466, jump @21\n      : @484 [@dyn 233] (gas: 7)\n 13971: a0 = s1 + 0x1000\n 13975: a0 = u64 [a0 + 0xfffffffffffff8c0]\n 13979: u64 [s1 + 0xd8] = a0\n 13983: a0 = s1 + 0x7ff\n 13987: a0 = a0 + 0xa1\n 13991: a1 = 0x40\n 13994: ra = 468, jump @17\n      : @485 [@dyn 234] (gas: 17)\n 14000: a0 = s1 + 0x1000\n 14004: a3 = u64 [a0 + 0xfffffffffffff8b8]\n 14008: a0 = s1 + 0x1000\n 14012: a4 = u64 [a0 + 0xfffffffffffff8b0]\n 14016: a0 = s1 + 0x1000\n 14020: a1 = u64 [a0 + 0xfffffffffffff8a8]\n 14024: a0 = s1 + 0x1000\n 14028: a0 = u64 [a0 + 0xfffffffffffff8a0]\n 14032: u64 [s1 + 0x158] = a1\n 14036: a2 = a1 | a3\n 14039: a1 = a0 | a4\n 14042: a1 = a1 | a2\n 14045: a1 = a1 >> 0x20\n 14048: a2 = a2 | a4\n 14051: a2 = a2 << 0x20\n 14054: a1 = a1 | a2\n 14057: jump @487 if a1 == 0\n      : @486 (gas: 1)\n 14060: jump @911\n      : @487 (gas: 16)\n 14063: a2 = u64 [s1 + 0x138]\n 14067: a2 = a2 & 0xffffffffffffffff\n 14070: a1 = s1 + 0x1000\n 14074: u64 [a1 + 4294965400] = 0\n 14078: a1 = s1 + 0x1000\n 14082: u64 [a1 + 4294965392] = 0\n 14086: a1 = s1 + 0x1000\n 14090: u64 [a1 + 4294965384] = 0\n 14094: a1 = s1 + 0x7ff\n 14098: a1 = a1 + 0x81\n 14102: a5 = s1 + 0x1000\n 14106: u64 [a5 + 0xfffffffffffff880] = a2\n 14110: u64 [s1 + 0x150] = a0\n 14114: u64 [s1 + 0x148] = a3\n 14118: u64 [s1 + 0x140] = a4\n 14122: ra = 470, jump @19\n      : @488 [@dyn 235] (gas: 12)\n 14128: a5 = s1 + 0x100\n 14132: a1 = u64 [a5 + 0x50]\n 14135: a0 = u64 [a5 + 0x48]\n 14138: a2 = u64 [a5 + 0x40]\n 14141: a3 = a2 | a0\n 14144: a4 = 0x100000000\n 14154: a0 = 0xffffffe0\n 14164: a0 = a1 <u a0\n 14167: a2 = u64 [a5 + 0x58]\n 14170: a0 = 0 if a2 != 0\n 14172: a0 = 0 if a3 != 0\n 14174: jump @490 if a0 != 0\n      : @489 (gas: 1)\n 14177: jump @911\n      : @490 (gas: 19)\n 14180: a0 = u64 [s1 + 0x120]\n 14184: a0 = a0 << 0x20\n 14187: a2 = a0 >> 0x20\n 14190: i32 a0 = a1 + 0x20\n 14193: a1 = s1 + 0x1000\n 14197: u64 [a1 + 4294965368] = 0\n 14201: a1 = u64 [s1 + 0x128]\n 14205: a5 = s1 + 0x1000\n 14209: u64 [a5 + 0xfffffffffffff860] = a1\n 14213: a1 = u64 [s1 + 0x130]\n 14217: a5 = s1 + 0x1000\n 14221: u64 [a5 + 0xfffffffffffff868] = a1\n 14225: a1 = s1 + 0x7ff\n 14229: a1 = a1 + 0x61\n 14232: a5 = s1 + 0x1000\n 14236: u64 [a5 + 0xfffffffffffff870] = a2\n 14240: u64 [s1 + 0x138] = a3\n 14244: u64 [s1 + 0x130] = a4\n 14248: ra = 472, jump @19\n      : @491 [@dyn 236] (gas: 10)\n 14254: a3 = s1 + 0x100\n 14258: a1 = u64 [a3 + 0x50]\n 14261: a0 = u64 [a3 + 0x30]\n 14264: a0 = a0 + 0xffffffffffffffc0\n 14267: a0 = a1 <u a0\n 14270: a2 = u64 [a3 + 0x58]\n 14273: a0 = 0 if a2 != 0\n 14275: a2 = u64 [a3 + 0x38]\n 14278: a0 = 0 if a2 != 0\n 14280: jump @493 if a0 != 0\n      : @492 (gas: 1)\n 14283: jump @911\n      : @493 (gas: 12)\n 14286: i32 a0 = a1 + 0x40\n 14289: a1 = s1 + 0x1000\n 14293: u64 [a1 + 4294965336] = 0\n 14297: a1 = s1 + 0x1000\n 14301: u64 [a1 + 4294965328] = 0\n 14305: a2 = s1 + 0x1000\n 14309: u64 [a2 + 4294965312] = 0x100\n 14315: a1 = s1 + 0x7ff\n 14319: a1 = a1 + 0x41\n 14322: a2 = s1 + 0x1000\n 14326: u64 [a2 + 4294965320] = 0\n 14330: ra = 474, jump @19\n      : @494 [@dyn 237] (gas: 6)\n 14336: a0 = u64 [s1 + 0x150]\n 14340: a0 = a0 + 0x100\n 14344: a1 = u64 [s1 + 0x150]\n 14348: a1 = a0 <u a1\n 14351: a3 = u64 [s1 + 0x158]\n 14355: t0 = 476, jump @1345\n      : @495 [@dyn 238] (gas: 25)\n 14361: a4 = u64 [s1 + 0x148]\n 14365: a4 = a4 + a1\n 14368: a5 = s1 + 0x700\n 14372: u64 [a5 + 0xe8] = a2\n 14376: u64 [a5 + 0xe0] = a0\n 14380: a0 = u64 [s1 + 0x100]\n 14384: a1 = s1 + 0x1000\n 14388: u64 [a1 + 0xfffffffffffff818] = a0\n 14392: a0 = u64 [s1 + 0x108]\n 14396: a1 = s1 + 0x1000\n 14400: u64 [a1 + 0xfffffffffffff810] = a0\n 14404: a0 = u64 [s1 + 0x110]\n 14408: a1 = s1 + 0x1000\n 14412: u64 [a1 + 0xfffffffffffff808] = a0\n 14416: a0 = u64 [s1 + 0x118]\n 14420: a1 = s1 + 0x1000\n 14424: u64 [a1 + 0xfffffffffffff800] = a0\n 14428: u64 [a5 + 0xf0] = a3\n 14432: a0 = s1 + 0x7ff\n 14436: a0 = a0 + 0x21\n 14439: a1 = s1 + 0x7ff\n 14443: a1 = a1 + 0x1\n 14446: a2 = s1 + 0x7e0\n 14450: u64 [a5 + 0xf8] = a4\n 14454: ra = 478, jump @1152\n      : @496 [@dyn 239] (gas: 10)\n 14460: a4 = s1 + 0x100\n 14464: a2 = u64 [a4 + 0x50]\n 14467: a3 = 0x100000000\n 14477: a0 = 0xffffffa0\n 14487: a0 = a2 <u a0\n 14490: a1 = u64 [a4 + 0x58]\n 14493: a0 = 0 if a1 != 0\n 14495: a1 = u64 [a4 + 0x38]\n 14498: a0 = 0 if a1 != 0\n 14500: jump @498 if a0 != 0\n      : @497 (gas: 1)\n 14503: jump @911\n      : @498 (gas: 22)\n 14506: a0 = s1 + 0x1000\n 14510: a0 = u64 [a0 + 0xfffffffffffff838]\n 14514: u64 [s1 + 0x118] = a0\n 14518: a0 = s1 + 0x1000\n 14522: a0 = u64 [a0 + 0xfffffffffffff830]\n 14526: u64 [s1 + 0x110] = a0\n 14530: a0 = s1 + 0x1000\n 14534: a0 = u64 [a0 + 0xfffffffffffff828]\n 14538: u64 [s1 + 0x120] = a0\n 14542: a0 = s1 + 0x1000\n 14546: a0 = u64 [a0 + 0xfffffffffffff820]\n 14550: u64 [s1 + 0x128] = a0\n 14554: a0 = u64 [s1 + 0xf8]\n 14558: a1 = a0 & 0xffffffffffffffff\n 14561: i32 a0 = a2 + 0x60\n 14564: u64 [s1 + 2008] = 0\n 14568: u64 [s1 + 2000] = 0\n 14572: u64 [s1 + 0x7c0] = a1\n 14576: a1 = s1 + 0x7c0\n 14580: u64 [s1 + 1992] = 0\n 14584: u64 [s1 + 0x130] = a3\n 14588: ra = 480, jump @19\n      : @499 [@dyn 240] (gas: 10)\n 14594: a3 = s1 + 0x100\n 14598: a2 = u64 [a3 + 0x50]\n 14601: a0 = u64 [a3 + 0x30]\n 14604: a0 = a0 + 0xffffffffffffff80\n 14607: a0 = a2 <u a0\n 14610: a1 = u64 [a3 + 0x58]\n 14613: a0 = 0 if a1 != 0\n 14615: a1 = u64 [a3 + 0x38]\n 14618: a0 = 0 if a1 != 0\n 14620: jump @501 if a0 != 0\n      : @500 (gas: 1)\n 14623: jump @911\n      : @501 (gas: 9)\n 14626: a0 = u64 [s1 + 0xf0]\n 14630: a1 = a0 & 0xffffffffffffffff\n 14633: i32 a0 = a2 + 0x80\n 14637: u64 [s1 + 1976] = 0\n 14641: u64 [s1 + 1968] = 0\n 14645: u64 [s1 + 0x7a0] = a1\n 14649: a1 = s1 + 0x7a0\n 14653: u64 [s1 + 1960] = 0\n 14657: ra = 482, jump @19\n      : @502 [@dyn 241] (gas: 10)\n 14663: a4 = s1 + 0x100\n 14667: a2 = u64 [a4 + 0x50]\n 14670: a3 = 0x100000000\n 14680: a0 = 0xffffff60\n 14690: a0 = a2 <u a0\n 14693: a1 = u64 [a4 + 0x58]\n 14696: a0 = 0 if a1 != 0\n 14698: a1 = u64 [a4 + 0x38]\n 14701: a0 = 0 if a1 != 0\n 14703: jump @504 if a0 != 0\n      : @503 (gas: 1)\n 14706: jump @911\n      : @504 (gas: 10)\n 14709: a0 = u64 [s1 + 0xe8]\n 14713: a1 = a0 & 0xffffffffffffffff\n 14716: i32 a0 = a2 + 0xa0\n 14720: u64 [s1 + 1944] = 0\n 14724: u64 [s1 + 1936] = 0\n 14728: u64 [s1 + 0x780] = a1\n 14732: a1 = s1 + 0x780\n 14736: u64 [s1 + 1928] = 0\n 14740: u64 [s1 + 0x130] = a3\n 14744: ra = 484, jump @19\n      : @505 [@dyn 242] (gas: 10)\n 14750: a4 = s1 + 0x100\n 14754: a3 = u64 [a4 + 0x38]\n 14757: a2 = u64 [a4 + 0x50]\n 14760: a0 = u64 [a4 + 0x30]\n 14763: a0 = a0 + 0xffffffffffffff40\n 14767: a0 = a2 <u a0\n 14770: a1 = u64 [a4 + 0x58]\n 14773: a0 = 0 if a1 != 0\n 14775: a0 = 0 if a3 != 0\n 14777: jump @507 if a0 != 0\n      : @506 (gas: 1)\n 14780: jump @911\n      : @507 (gas: 9)\n 14783: a0 = u8 [s1 + 0xe0]\n 14787: a1 = a0 >u 0\n 14789: i32 a0 = a2 + 0xc0\n 14793: u64 [s1 + 1912] = 0\n 14797: u64 [s1 + 1904] = 0\n 14801: u64 [s1 + 0x760] = a1\n 14805: a1 = s1 + 0x760\n 14809: u64 [s1 + 1896] = 0\n 14813: ra = 486, jump @19\n      : @508 [@dyn 243] (gas: 9)\n 14819: a3 = s1 + 0x100\n 14823: a2 = u64 [a3 + 0x50]\n 14826: a0 = 0xffffff20\n 14836: a0 = a2 <u a0\n 14839: a1 = u64 [a3 + 0x58]\n 14842: a0 = 0 if a1 != 0\n 14844: a1 = u64 [a3 + 0x38]\n 14847: a0 = 0 if a1 != 0\n 14849: jump @510 if a0 != 0\n      : @509 (gas: 1)\n 14852: jump @911\n      : @510 (gas: 9)\n 14855: a0 = u64 [s1 + 0xd8]\n 14859: a1 = a0 & 0xffffffffffffffff\n 14862: i32 a0 = a2 + 0xe0\n 14866: u64 [s1 + 1880] = 0\n 14870: u64 [s1 + 1872] = 0\n 14874: u64 [s1 + 0x740] = a1\n 14878: a1 = s1 + 0x740\n 14882: u64 [s1 + 1864] = 0\n 14886: ra = 488, jump @19\n      : @511 [@dyn 244] (gas: 25)\n 14892: a0 = u64 [s1 + 0x150]\n 14896: t1 = u64 [s1 + 0x128]\n 14900: t0 = t1 <u a0\n 14903: a5 = u64 [s1 + 0x158]\n 14907: a1 = u64 [s1 + 0x120]\n 14911: a0 = a1 ^ a5\n 14914: a2 = a1 <u a5\n 14917: a2 = t0 if a0 == 0\n 14920: a0 = u64 [s1 + 0x140]\n 14924: a3 = u64 [s1 + 0x110]\n 14928: t2 = a3 - a0\n 14931: a3 = a3 <u a0\n 14934: a0 = u64 [s1 + 0x148]\n 14938: a4 = u64 [s1 + 0x118]\n 14942: a4 = a4 - a0\n 14945: a4 = a4 - a3\n 14948: a3 = t2 <u a2\n 14951: a3 = a4 - a3\n 14954: a0 = u64 [s1 + 0x150]\n 14958: a4 = t2 - a2\n 14961: a2 = a1 - a5\n 14964: a2 = a2 - t0\n 14967: a1 = t1 - a0\n 14970: a2 = a2 | a3\n 14973: jump @910\n      : @512 (gas: 9)\n 14976: u64 [a3 + 1600] = 0\n 14980: u64 [a3 + 1592] = 0\n 14984: u64 [a3 + 1584] = 0\n 14988: u64 [a3 + 1576] = 0\n 14992: a0 = s1 + 0x3000\n 14996: i32 a0 = a0 + 0xffffffffffffff20\n 15000: ra = 0x1ea\n 15004: ecalli 10 // 'value_transferred'\n 15006: fallthrough\n      : @513 [@dyn 245] (gas: 10)\n 15007: a3 = s1 + 0x28f8\n 15011: a4 = a3 + 0x600\n 15015: a0 = u64 [a4 + 0x38]\n 15018: a1 = u64 [a4 + 0x40]\n 15021: a2 = u64 [a4 + 0x30]\n 15024: a3 = u64 [a4 + 0x28]\n 15027: a1 = a1 | a2\n 15030: a0 = a0 | a3\n 15033: a0 = a0 | a1\n 15036: jump @515 if a0 == 0\n      : @514 (gas: 1)\n 15039: jump @963\n      : @515 (gas: 4)\n 15042: a0 = u64 [s1 + 0x158]\n 15046: a0 = i32 [a0]\n 15048: a1 = 0x43\n 15051: jump @517 if a1 <u a0\n      : @516 (gas: 1)\n 15054: jump @964\n      : @517 (gas: 5)\n 15057: a0 = s1 + 0x7ff\n 15061: a0 = a0 + 0x521\n 15065: ra = 0x1ec\n 15069: t0 = 0x436\n 15073: jump @1330\n      : @518 [@dyn 246] (gas: 9)\n 15076: a0 = s1 + 0x7ff\n 15080: a0 = a0 + 0xf9\n 15084: a0 = u64 [a0 + 0x428]\n 15088: u64 [s1 + 0x158] = a0\n 15092: a0 = s1 + 0x7ff\n 15096: a0 = a0 + 0x501\n 15100: ra = 0x1ee\n 15104: t0 = 0x44a\n 15108: jump @1342\n      : @519 [@dyn 247] (gas: 13)\n 15111: a2 = s1 + 0x7ff\n 15115: a2 = a2 + 0xf9\n 15119: a0 = u64 [a2 + 0x408]\n 15123: u64 [s1 + 0x120] = a0\n 15127: u64 [a2 + 1024] = 0\n 15131: u64 [a2 + 1016] = 0\n 15135: u64 [a2 + 1008] = 0\n 15139: a1 = s1 + 0x7ff\n 15143: a1 = a1 + 0x4e1\n 15147: a0 = u64 [s1 + 0x158]\n 15151: u64 [a2 + 0x3e8] = a0\n 15155: a0 = 0\n 15157: ra = 496, jump @19\n      : @520 [@dyn 248] (gas: 11)\n 15163: a0 = s1 + 0x7ff\n 15167: a0 = a0 + 0xf9\n 15171: u64 [a0 + 992] = 0\n 15175: u64 [a0 + 984] = 0\n 15179: u64 [a0 + 976] = 0\n 15183: a2 = a0\n 15185: a0 = 0x20\n 15188: a1 = s1 + 0x7ff\n 15192: a1 = a1 + 0x4c1\n 15196: u64 [a2 + 968] = 0\n 15200: ra = 498, jump @19\n      : @521 [@dyn 249] (gas: 3)\n 15206: a1 = 0x20094\n 15211: a0 = i32 [0x20094]\n 15216: jump @523 if a0 >u 63\n      : @522 (gas: 2)\n 15220: u32 [0x20094] = 0x40\n 15226: fallthrough\n      : @523 (gas: 14)\n 15227: a0 = sp + 0xffffffffffffffe0\n 15230: a2 = a0 & 0xffffffffffffffe0\n 15233: u64 [s1 + 0x140] = a2\n 15237: sp = a2\n 15239: a0 = 0x200a0\n 15244: i32 a0 = a0 + 0\n 15246: u64 [s1 + 0x148] = a1\n 15250: i32 a2 = a2 + 0\n 15252: a1 = 0x40\n 15255: u64 [s1 + 0x150] = a0\n 15259: ra = 0x1f4\n 15263: ecalli 6 // 'hash_keccak_256'\n 15265: t0 = 0x1f6\n 15269: jump @1323\n      : @524 [@dyn 250] (gas: 1)\n 15272: t0 = 502, jump @1323\n      : @525 [@dyn 251] (gas: 8)\n 15278: u64 [a5 + 0x60] = a3\n 15281: u64 [a5 + 0x58] = a2\n 15284: u64 [a5 + 0x50] = a1\n 15287: u64 [a5 + 0x48] = a0\n 15290: a0 = s1 + 0x7ff\n 15294: a0 = a0 + 0x4a1\n 15298: a1 = s1 + 0x2f40\n 15302: ra = 504, jump @21\n      : @526 [@dyn 252] (gas: 12)\n 15308: a2 = s1 + 0x7ff\n 15312: a2 = a2 + 0xf9\n 15316: a0 = u64 [a2 + 0x3a8]\n 15320: a0 = a0 & 0xffffffffffffffff\n 15323: a0 = a0 >u 0\n 15325: u64 [a2 + 928] = 0\n 15329: u64 [a2 + 920] = 0\n 15333: u64 [a2 + 0x388] = a0\n 15337: a0 = s1 + 0x7ff\n 15341: a0 = a0 + 0x481\n 15345: u64 [a2 + 912] = 0\n 15349: ra = 506, jump @1246\n      : @527 [@dyn 253] (gas: 11)\n 15355: a2 = s1 + 0x7ff\n 15359: a2 = a2 + 0xf9\n 15363: u64 [a2 + 896] = 0\n 15367: u64 [a2 + 888] = 0\n 15371: u64 [a2 + 880] = 0\n 15375: a1 = s1 + 0x7ff\n 15379: a1 = a1 + 0x461\n 15383: a0 = u64 [s1 + 0x158]\n 15387: u64 [a2 + 0x368] = a0\n 15391: a0 = 0\n 15393: ra = 508, jump @19\n      : @528 [@dyn 254] (gas: 11)\n 15399: a0 = s1 + 0x7ff\n 15403: a0 = a0 + 0xf9\n 15407: u64 [a0 + 864] = 0\n 15411: u64 [a0 + 856] = 0\n 15415: u64 [a0 + 848] = 0\n 15419: a2 = a0\n 15421: a0 = 0x20\n 15424: a1 = s1 + 0x7ff\n 15428: a1 = a1 + 0x441\n 15432: u64 [a2 + 840] = 0\n 15436: ra = 510, jump @19\n      : @529 [@dyn 255] (gas: 3)\n 15442: a1 = u64 [s1 + 0x148]\n 15446: a0 = i32 [a1]\n 15448: jump @531 if a0 >u 63\n      : @530 (gas: 3)\n 15452: u32 [a1 + 0] = 0x40\n 15455: t0 = 0x200\n 15459: jump @1311\n      : @531 (gas: 1)\n 15462: t0 = 512, jump @1311\n      : @532 [@dyn 256] (gas: 4)\n 15468: ra = 0x202\n 15472: ecalli 6 // 'hash_keccak_256'\n 15474: t0 = 0x204\n 15478: jump @1323\n      : @533 [@dyn 257] (gas: 1)\n 15481: t0 = 516, jump @1323\n      : @534 [@dyn 258] (gas: 8)\n 15487: u64 [a5 + 0x80] = a3\n 15491: u64 [a5 + 0x78] = a2\n 15494: u64 [a5 + 0x70] = a1\n 15497: u64 [a5 + 0x68] = a0\n 15500: a0 = s1 + 0x7ff\n 15504: a0 = a0 + 0x421\n 15508: a1 = s1 + 0x2f60\n 15512: ra = 518, jump @21\n      : @535 [@dyn 259] (gas: 14)\n 15518: a0 = s1 + 0x7ff\n 15522: a0 = a0 + 0xf9\n 15526: a1 = u64 [a0 + 0x338]\n 15530: u64 [s1 + 0x140] = a1\n 15534: a1 = u64 [a0 + 0x330]\n 15538: u64 [s1 + 0x138] = a1\n 15542: a0 = u32 [a0 + 0x340]\n 15546: u64 [s1 + 0x130] = a0\n 15550: a0 = 0x300a0\n 15555: u64 [s1 + 0x128] = a0\n 15559: i32 a0 = a0 + 0\n 15561: ra = 0x208\n 15565: ecalli 3 // 'caller'\n 15567: fallthrough\n      : @536 [@dyn 260] (gas: 3)\n 15568: a5 = s1 + 0x100\n 15572: a2 = u64 [a5 + 0x28]\n 15575: t0 = 522, jump @1307\n      : @537 [@dyn 261] (gas: 9)\n 15581: a2 = u64 [a5 + 0x30]\n 15584: a1 = a1 ^ a2\n 15587: a2 = u64 [a5 + 0x38]\n 15590: a0 = a0 ^ a2\n 15593: a0 = a0 | a1\n 15596: a1 = u64 [a5 + 0x40]\n 15599: a1 = a1 ^ a3\n 15602: a0 = a0 | a1\n 15605: jump @539 if a0 == 0\n      : @538 (gas: 1)\n 15608: jump @709\n      : @539 (gas: 11)\n 15611: a2 = s1 + 0x7ff\n 15615: a2 = a2 + 0xf9\n 15619: u64 [a2 + 640] = 0\n 15623: u64 [a2 + 632] = 0\n 15627: u64 [a2 + 624] = 0\n 15631: a1 = s1 + 0x7ff\n 15635: a1 = a1 + 0x361\n 15639: a0 = u64 [s1 + 0x158]\n 15643: u64 [a2 + 0x268] = a0\n 15647: a0 = 0\n 15649: ra = 524, jump @19\n      : @540 [@dyn 262] (gas: 11)\n 15655: a0 = s1 + 0x7ff\n 15659: a0 = a0 + 0xf9\n 15663: u64 [a0 + 608] = 0\n 15667: u64 [a0 + 600] = 0\n 15671: u64 [a0 + 592] = 0\n 15675: a2 = a0\n 15677: a0 = 0x20\n 15680: a1 = s1 + 0x7ff\n 15684: a1 = a1 + 0x341\n 15688: u64 [a2 + 584] = 0\n 15692: ra = 526, jump @19\n      : @541 [@dyn 263] (gas: 3)\n 15698: a2 = u64 [s1 + 0x148]\n 15702: a0 = i32 [a2]\n 15704: jump @543 if a0 >u 63\n      : @542 (gas: 3)\n 15708: u32 [a2 + 0] = 0x40\n 15711: t0 = 0x210\n 15715: jump @1311\n      : @543 (gas: 1)\n 15718: t0 = 528, jump @1311\n      : @544 [@dyn 264] (gas: 5)\n 15724: ra = 0x212\n 15728: ecalli 6 // 'hash_keccak_256'\n 15730: a3 = u64 [s1 + 0x140]\n 15734: t0 = 0x214\n 15738: jump @1314\n      : @545 [@dyn 265] (gas: 2)\n 15741: a3 = u64 [s1 + 0x140]\n 15745: t0 = 532, jump @1314\n      : @546 [@dyn 266] (gas: 11)\n 15751: i32 a1 = a1 + 0xfffffffffffff8f8\n 15755: a1 = a1 + s1\n 15758: a3 = a1 + 0x600\n 15762: u64 [a3 + 0x88] = a4\n 15766: u64 [a3 + 0x90] = a5\n 15770: u64 [a3 + 0x98] = a2\n 15774: u64 [a3 + 0xa0] = a0\n 15778: a0 = s1 + 0x7ff\n 15782: a0 = a0 + 0x321\n 15786: a1 = s1 + 0x2f80\n 15790: ra = 534, jump @21\n      : @547 [@dyn 267] (gas: 4)\n 15796: a0 = s1 + 0x7ff\n 15800: a0 = a0 + 0xf9\n 15804: a0 = u8 [a0 + 0x240]\n 15808: jump @549 if a0 != 0\n      : @548 (gas: 1)\n 15811: jump @973\n      : @549 (gas: 4)\n 15814: a0 = s1 + 0x7ff\n 15818: a0 = a0 + 0x301\n 15822: a1 = 0x40\n 15825: ra = 536, jump @17\n      : @550 [@dyn 268] (gas: 15)\n 15831: a4 = s1 + 0x7ff\n 15835: a4 = a4 + 0xf9\n 15839: t0 = u64 [a4 + 0x220]\n 15843: a1 = a4 + 0x200\n 15847: a5 = u64 [a1 + 0x18]\n 15850: a3 = u64 [a1 + 0x10]\n 15853: a0 = u64 [a1 + 0x8]\n 15856: a2 = a3 | t0\n 15859: a1 = a0 | a5\n 15862: a1 = a1 | a2\n 15865: a1 = a1 >> 0x20\n 15868: a2 = a2 | a5\n 15871: a2 = a2 << 0x20\n 15874: a1 = a1 | a2\n 15877: jump @552 if a1 == 0\n      : @551 (gas: 1)\n 15880: jump @911\n      : @552 (gas: 12)\n 15883: u64 [a4 + 504] = 0\n 15887: u64 [a4 + 496] = 0\n 15891: u64 [a4 + 488] = 0\n 15895: u64 [s1 + 0x150] = a3\n 15899: a3 = 0x8c379a000000000\n 15909: a1 = s1 + 0x7ff\n 15913: a1 = a1 + 0x2e1\n 15917: u64 [a4 + 0x200] = a3\n 15921: u64 [s1 + 0x158] = a0\n 15925: u64 [s1 + 0x148] = t0\n 15929: u64 [s1 + 0x140] = a5\n 15933: ra = 538, jump @19\n      : @553 [@dyn 269] (gas: 6)\n 15939: a5 = s1 + 0x100\n 15943: a1 = u64 [a5 + 0x58]\n 15946: a0 = u64 [a5 + 0x48]\n 15949: a3 = u64 [a5 + 0x40]\n 15952: a3 = a3 | a0\n 15955: t0 = 540, jump @1304\n      : @554 [@dyn 270] (gas: 1)\n 15961: jump @556 if a0 != 0\n      : @555 (gas: 1)\n 15964: jump @911\n      : @556 (gas: 12)\n 15967: i32 a0 = a1 + 0x4\n 15970: a2 = s1 + 0x7ff\n 15974: a2 = a2 + 0xf9\n 15978: u64 [a2 + 480] = 0\n 15982: u64 [a2 + 472] = 0\n 15986: u64 [a2 + 456] = 0x20\n 15991: a1 = s1 + 0x7ff\n 15995: a1 = a1 + 0x2c1\n 15999: u64 [a2 + 464] = 0\n 16003: u64 [s1 + 0x148] = a3\n 16007: u64 [s1 + 0x140] = a4\n 16011: ra = 542, jump @19\n      : @557 [@dyn 271] (gas: 1)\n 16017: t0 = 544, jump @1301\n      : @558 [@dyn 272] (gas: 1)\n 16023: jump @560 if a0 != 0\n      : @559 (gas: 1)\n 16026: jump @911\n      : @560 (gas: 10)\n 16029: i32 a0 = a1 + 0x24\n 16032: a3 = s1 + 0x7ff\n 16036: a3 = a3 + 0xf9\n 16040: u64 [a3 + 448] = 0\n 16044: u64 [a3 + 440] = 0\n 16048: u64 [a3 + 424] = 0x10\n 16053: a1 = s1 + 0x7ff\n 16057: a1 = a1 + 0x2a1\n 16061: u64 [a3 + 432] = 0\n 16065: ra = 546, jump @19\n      : @561 [@dyn 273] (gas: 1)\n 16071: t0 = 548, jump @1331\n      : @562 [@dyn 274] (gas: 1)\n 16077: jump @564 if a0 != 0\n      : @563 (gas: 1)\n 16080: jump @911\n      : @564 (gas: 13)\n 16083: i32 a0 = a3 + 0x44\n 16086: a1 = u64 [0x20040]\n 16091: a2 = u64 [0x20078]\n 16096: a4 = s1 + 0x7ff\n 16100: a4 = a4 + 0xf9\n 16104: u64 [a4 + 0x1a0] = a1\n 16108: u64 [a4 + 400] = 0\n 16112: u64 [a4 + 0x198] = a2\n 16116: a1 = s1 + 0x7ff\n 16120: a1 = a1 + 0x281\n 16124: u64 [a4 + 392] = 0\n 16128: ra = 0x388\n 16132: jump @19\n      : @565 (gas: 8)\n 16135: u64 [a2 + 1376] = 0\n 16139: u64 [a2 + 1368] = 0\n 16143: u64 [a2 + 1360] = 0\n 16147: u64 [a2 + 1352] = 0\n 16151: a0 = s1 + 0x3000\n 16155: i32 a0 = a0 + 0x640\n 16159: ecalli 10 // 'value_transferred'\n 16161: fallthrough\n      : @566 (gas: 10)\n 16162: a3 = s1 + 0x30f8\n 16166: a4 = a3 + 0x500\n 16170: a0 = u64 [a4 + 0x58]\n 16173: a1 = u64 [a4 + 0x60]\n 16176: a2 = u64 [a4 + 0x50]\n 16179: a3 = u64 [a4 + 0x48]\n 16182: a1 = a1 | a2\n 16185: a0 = a0 | a3\n 16188: a0 = a0 | a1\n 16191: jump @568 if a0 == 0\n      : @567 (gas: 1)\n 16194: jump @965\n      : @568 (gas: 4)\n 16197: a0 = u64 [s1 + 0x158]\n 16201: a0 = i32 [a0]\n 16203: a1 = 0x23\n 16206: jump @570 if a1 <u a0\n      : @569 (gas: 1)\n 16209: jump @966\n      : @570 (gas: 4)\n 16212: a0 = s1 + 0x2e00\n 16216: ra = 0x226\n 16220: t0 = 0x436\n 16224: jump @1330\n      : @571 [@dyn 275] (gas: 5)\n 16227: a0 = s1 + 0x28f8\n 16231: a0 = u64 [a0 + 0x508]\n 16235: u64 [s1 + 0x158] = a0\n 16239: a0 = s1 + 0x2de0\n 16243: ra = 552, jump @1260\n      : @572 [@dyn 276] (gas: 9)\n 16249: a0 = s1 + 0x28f8\n 16253: u64 [a0 + 1248] = 0\n 16257: u64 [a0 + 1240] = 0\n 16261: u64 [a0 + 1232] = 0\n 16265: a1 = s1 + 0x2dc0\n 16269: a2 = u64 [s1 + 0x158]\n 16273: u64 [a0 + 0x4c8] = a2\n 16277: a0 = 0\n 16279: ra = 554, jump @19\n      : @573 [@dyn 277] (gas: 9)\n 16285: a0 = s1 + 0x28f8\n 16289: u64 [a0 + 1216] = 0\n 16293: u64 [a0 + 1208] = 0\n 16297: u64 [a0 + 1200] = 0\n 16301: a2 = a0\n 16303: a0 = 0x20\n 16306: a1 = s1 + 0x2da0\n 16310: u64 [a2 + 1192] = 0\n 16314: ra = 556, jump @19\n      : @574 [@dyn 278] (gas: 3)\n 16320: a1 = 0x20094\n 16325: a0 = i32 [0x20094]\n 16330: jump @576 if a0 >u 63\n      : @575 (gas: 2)\n 16334: u32 [0x20094] = 0x40\n 16340: fallthrough\n      : @576 (gas: 15)\n 16341: a0 = sp + 0xffffffffffffffe0\n 16344: a2 = a0 & 0xffffffffffffffe0\n 16347: u64 [s1 + 0x150] = a2\n 16351: sp = a2\n 16353: a0 = 0x200a0\n 16358: i32 a0 = a0 + 0\n 16360: i32 a2 = a2 + 0\n 16362: u64 [s1 + 0x148] = a1\n 16366: a1 = 0x40\n 16369: u64 [s1 + 0x140] = a0\n 16373: ra = 0x22e\n 16377: ecalli 6 // 'hash_keccak_256'\n 16379: a3 = u64 [s1 + 0x150]\n 16383: t0 = 0x230\n 16387: jump @1312\n      : @577 [@dyn 279] (gas: 2)\n 16390: a3 = u64 [s1 + 0x150]\n 16394: t0 = 560, jump @1312\n      : @578 [@dyn 280] (gas: 8)\n 16400: a5 = a4 + 0x500\n 16404: u64 [a5 + 0x80] = a3\n 16408: u64 [a5 + 0x78] = a2\n 16411: u64 [a5 + 0x70] = a1\n 16414: u64 [a5 + 0x68] = a0\n 16417: a0 = s1 + 0x2d80\n 16421: a1 = s1 + 0x3660\n 16425: ra = 562, jump @21\n      : @579 [@dyn 281] (gas: 10)\n 16431: a2 = s1 + 0x28f8\n 16435: a0 = u64 [a2 + 0x488]\n 16439: a0 = a0 & 0xffffffffffffffff\n 16442: a0 = a0 >u 0\n 16444: u64 [a2 + 1152] = 0\n 16448: u64 [a2 + 1144] = 0\n 16452: u64 [a2 + 0x468] = a0\n 16456: a0 = s1 + 0x2d60\n 16460: u64 [a2 + 1136] = 0\n 16464: ra = 564, jump @1246\n      : @580 [@dyn 282] (gas: 9)\n 16470: a2 = s1 + 0x28f8\n 16474: u64 [a2 + 1120] = 0\n 16478: u64 [a2 + 1112] = 0\n 16482: u64 [a2 + 1104] = 0\n 16486: a1 = s1 + 0x2d40\n 16490: a0 = u64 [s1 + 0x158]\n 16494: u64 [a2 + 0x448] = a0\n 16498: a0 = 0\n 16500: ra = 566, jump @19\n      : @581 [@dyn 283] (gas: 2)\n 16506: a0 = 0x28f8\n 16510: t0 = 568, jump @1348\n      : @582 [@dyn 284] (gas: 5)\n 16516: a2 = a0\n 16518: a0 = 0x20\n 16521: a1 = s1 + 0x2d20\n 16525: u64 [a2 + 1064] = 0\n 16529: ra = 570, jump @19\n      : @583 [@dyn 285] (gas: 7)\n 16535: a1 = u64 [s1 + 0x148]\n 16539: a0 = sp + 0xffffffffffffffe0\n 16542: a0 = a0 & 0xffffffffffffffe0\n 16545: u64 [s1 + 0x150] = a0\n 16549: sp = a0\n 16551: a0 = i32 [a1]\n 16553: jump @585 if a0 >u 63\n      : @584 (gas: 2)\n 16557: u32 [a1 + 0] = 0x40\n 16560: fallthrough\n      : @585 (gas: 11)\n 16561: a0 = sp + 0xffffffffffffffe0\n 16564: a0 = a0 & 0xffffffffffffffe0\n 16567: u64 [s1 + 0x158] = a0\n 16571: sp = a0\n 16573: i32 a2 = a0 + 0\n 16575: a1 = 0x40\n 16578: a0 = u64 [s1 + 0x140]\n 16582: ra = 0x23c\n 16586: ecalli 6 // 'hash_keccak_256'\n 16588: t0 = 0x23e\n 16592: jump @1332\n      : @586 [@dyn 286] (gas: 1)\n 16595: t0 = 574, jump @1332\n      : @587 [@dyn 287] (gas: 12)\n 16601: u64 [s1 + 0x128] = a1\n 16605: a2 = u64 [s1 + 0x150]\n 16609: u64 [a2 + 0x18] = a1\n 16612: u64 [s1 + 0x130] = a0\n 16616: u64 [a2 + 0x10] = a0\n 16619: u64 [s1 + 0x120] = a4\n 16623: u64 [a2 + 0x8] = a4\n 16626: u64 [s1 + 0x118] = a5\n 16630: u64 [a2] = a5\n 16632: a0 = s1 + 0x2d00\n 16636: a1 = 0x40\n 16639: ra = 576, jump @17\n      : @588 [@dyn 288] (gas: 19)\n 16645: a1 = s1 + 0x28f8\n 16649: a5 = a1 + 0x400\n 16653: a0 = u64 [a5 + 0x20]\n 16656: u64 [s1 + 0x138] = a0\n 16660: a3 = u64 [a5 + 0x18]\n 16663: u64 [s1 + 0x140] = a3\n 16667: a2 = u64 [a5 + 0x10]\n 16670: u64 [s1 + 0x148] = a2\n 16674: a4 = u64 [a5 + 0x8]\n 16677: u64 [s1 + 0x158] = a4\n 16681: u64 [a5] = a0\n 16683: a5 = a1 + 0x300\n 16687: u64 [a5 + 0xf8] = a3\n 16691: u64 [a5 + 0xf0] = a2\n 16695: a0 = s1 + 0x2ce0\n 16699: u64 [a5 + 0xe8] = a4\n 16703: ra = 0x242\n 16707: t0 = 0x47c\n 16711: jump @1328\n      : @589 [@dyn 289] (gas: 3)\n 16714: a0 = s1 + 0x2cc0\n 16718: a1 = u64 [s1 + 0x150]\n 16722: ra = 580, jump @21\n      : @590 [@dyn 290] (gas: 13)\n 16728: a3 = s1 + 0x100\n 16732: a2 = u64 [a3 + 0x40]\n 16735: a0 = u64 [a3 + 0x38]\n 16738: a1 = u64 [a3 + 0x48]\n 16741: a0 = a0 | a1\n 16744: a1 = u64 [a3 + 0x58]\n 16747: a1 = a1 | a2\n 16750: a1 = a1 | a0\n 16753: a1 = a1 >> 0x20\n 16756: a0 = a0 | a2\n 16759: a0 = a0 << 0x20\n 16762: a0 = a0 | a1\n 16765: jump @592 if a0 == 0\n      : @591 (gas: 1)\n 16768: jump @911\n      : @592 (gas: 17)\n 16771: a3 = s1 + 0x28f8\n 16775: a2 = a3 + 0x300\n 16779: a0 = u64 [a2 + 0xe0]\n 16783: u64 [s1 + 0x108] = a0\n 16787: a0 = u64 [a2 + 0xd8]\n 16791: u64 [s1 + 0x150] = a0\n 16795: a0 = u64 [a2 + 0xc8]\n 16799: a1 = u64 [a2 + 0xd0]\n 16803: u64 [s1 + 0x110] = a1\n 16807: a0 = a0 & 0xffffffffffffffff\n 16810: u64 [a3 + 960] = 0\n 16814: u64 [a3 + 952] = 0\n 16818: u64 [a3 + 944] = 0\n 16822: a1 = s1 + 0x2ca0\n 16826: u64 [a2 + 0xa8] = a0\n 16830: a0 = u64 [s1 + 0x158]\n 16834: ra = 582, jump @19\n      : @593 [@dyn 291] (gas: 12)\n 16840: a4 = s1 + 0x100\n 16844: a0 = u64 [a4 + 0x40]\n 16847: a3 = u64 [a4 + 0x38]\n 16850: a3 = a3 | a0\n 16853: a2 = 0x100000000\n 16863: a0 = 0xffffffe0\n 16873: a1 = u64 [a4 + 0x58]\n 16876: a0 = a1 <u a0\n 16879: a1 = u64 [a4 + 0x48]\n 16882: a0 = 0 if a1 != 0\n 16884: a0 = 0 if a3 != 0\n 16886: jump @595 if a0 != 0\n      : @594 (gas: 1)\n 16889: jump @911\n      : @595 (gas: 17)\n 16892: a0 = u64 [s1 + 0x108]\n 16896: a0 = a0 << 0x20\n 16899: u64 [s1 + 0x108] = a2\n 16903: a2 = a0 >> 0x20\n 16906: a0 = u64 [s1 + 0x158]\n 16910: i32 a0 = a0 + 0x20\n 16913: u64 [s1 + 0x100] = a3\n 16917: a3 = s1 + 0x28f8\n 16921: u64 [a3 + 928] = 0\n 16925: a1 = u64 [s1 + 0x110]\n 16929: a4 = a3 + 0x300\n 16933: u64 [a4 + 0x88] = a1\n 16937: a1 = u64 [s1 + 0x150]\n 16941: u64 [a4 + 0x90] = a1\n 16945: a1 = s1 + 0x2c80\n 16949: u64 [a4 + 0x98] = a2\n 16953: ra = 584, jump @19\n      : @596 [@dyn 292] (gas: 21)\n 16959: a2 = u64 [s1 + 0x118]\n 16963: a2 = a2 + 0x1\n 16966: a0 = a2 <u 0x1\n 16969: a1 = u64 [s1 + 0x120]\n 16973: a0 = a0 + a1\n 16976: a1 = a2 | a0\n 16979: a1 = a1 <u 0x1\n 16982: a3 = u64 [s1 + 0x130]\n 16986: a1 = a1 + a3\n 16989: a3 = a1 <u a3\n 16992: a4 = u64 [s1 + 0x128]\n 16996: a3 = a3 + a4\n 16999: a4 = s1 + 0x28f8\n 17003: a5 = a4 + 0x300\n 17007: u64 [a5 + 0x60] = a3\n 17010: u64 [a5 + 0x58] = a1\n 17013: u64 [a5 + 0x50] = a0\n 17016: a0 = s1 + 0x2c60\n 17020: a1 = s1 + 0x2c40\n 17024: u64 [a5 + 0x48] = a2\n 17027: ra = 586, jump @1131\n      : @597 [@dyn 293] (gas: 4)\n 17033: a2 = s1 + 0x100\n 17037: a0 = u64 [a2 + 0x8]\n 17040: a0 = a0 + 0xffffffffffffffc0\n 17043: t0 = 588, jump @1333\n      : @598 [@dyn 294] (gas: 1)\n 17049: jump @600 if a0 != 0\n      : @599 (gas: 1)\n 17052: jump @911\n      : @600 (gas: 14)\n 17055: a5 = s1 + 0x28f8\n 17059: t0 = u64 [a5 + 0x380]\n 17063: a2 = a5 + 0x300\n 17067: a1 = u64 [a2 + 0x78]\n 17070: a3 = u64 [a2 + 0x70]\n 17073: a4 = u64 [a2 + 0x68]\n 17076: a0 = u64 [s1 + 0x158]\n 17080: i32 a0 = a0 + 0x40\n 17083: u64 [a2 + 0x28] = a4\n 17086: u64 [a2 + 0x30] = a3\n 17089: u64 [a2 + 0x38] = a1\n 17092: a1 = s1 + 0x2c20\n 17096: u64 [a5 + 0x340] = t0\n 17100: ra = 590, jump @19\n      : @601 [@dyn 295] (gas: 3)\n 17106: a1 = u64 [s1 + 0x118]\n 17110: a0 = a1 + 0x2\n 17113: t0 = 592, jump @1319\n      : @602 [@dyn 296] (gas: 7)\n 17119: u64 [a5 + 0x90] = a2\n 17123: u64 [a5 + 0x88] = a0\n 17127: u64 [a5 + 0x98] = a3\n 17131: u64 [a5 + 0xa0] = a1\n 17135: a0 = s1 + 0x2c00\n 17139: a1 = s1 + 0x3680\n 17143: ra = 594, jump @21\n      : @603 [@dyn 297] (gas: 3)\n 17149: a2 = 0x100000000\n 17159: a0 = 0xffffffa0\n 17169: t0 = 596, jump @1344\n      : @604 [@dyn 298] (gas: 1)\n 17175: jump @606 if a0 != 0\n      : @605 (gas: 1)\n 17178: jump @911\n      : @606 (gas: 20)\n 17181: a0 = s1 + 0x28f8\n 17185: u64 [s1 + 0x150] = a2\n 17189: a2 = a0\n 17191: a0 = u64 [a0 + 0x320]\n 17195: u64 [s1 + 0xf8] = a0\n 17199: a3 = a2 + 0x300\n 17203: a0 = u64 [a3 + 0x8]\n 17206: a1 = u64 [a3 + 0x18]\n 17209: u64 [s1 + 0x108] = a1\n 17213: a1 = u64 [a3 + 0x10]\n 17216: u64 [s1 + 0x110] = a1\n 17220: a1 = a0 & 0xffffffffffffffff\n 17223: a0 = u64 [s1 + 0x158]\n 17227: i32 a0 = a0 + 0x60\n 17230: u64 [a2 + 768] = 0\n 17234: u64 [a2 + 760] = 0\n 17238: u64 [a2 + 0x2e8] = a1\n 17242: a1 = s1 + 0x2be0\n 17246: u64 [a2 + 752] = 0\n 17250: ra = 598, jump @19\n      : @607 [@dyn 299] (gas: 4)\n 17256: a2 = s1 + 0x100\n 17260: a0 = u64 [a2 + 0x50]\n 17263: a0 = a0 + 0xffffffffffffff80\n 17266: t0 = 600, jump @1333\n      : @608 [@dyn 300] (gas: 1)\n 17272: jump @610 if a0 != 0\n      : @609 (gas: 1)\n 17275: jump @911\n      : @610 (gas: 11)\n 17278: a1 = u64 [s1 + 0x110]\n 17282: a1 = a1 & 0xffffffffffffffff\n 17285: a0 = u64 [s1 + 0x158]\n 17289: i32 a0 = a0 + 0x80\n 17293: a2 = s1 + 0x28f8\n 17297: u64 [a2 + 736] = 0\n 17301: u64 [a2 + 728] = 0\n 17305: u64 [a2 + 0x2c8] = a1\n 17309: a1 = s1 + 0x2bc0\n 17313: u64 [a2 + 720] = 0\n 17317: ra = 602, jump @19\n      : @611 [@dyn 301] (gas: 3)\n 17323: a2 = 0x100000000\n 17333: a0 = 0xffffff60\n 17343: t0 = 604, jump @1344\n      : @612 [@dyn 302] (gas: 1)\n 17349: jump @614 if a0 != 0\n      : @613 (gas: 1)\n 17352: jump @911\n      : @614 (gas: 12)\n 17355: a0 = u64 [s1 + 0x108]\n 17359: a1 = a0 & 0xffffffffffffffff\n 17362: a0 = u64 [s1 + 0x158]\n 17366: i32 a0 = a0 + 0xa0\n 17370: u64 [s1 + 0x150] = a2\n 17374: a2 = s1 + 0x28f8\n 17378: u64 [a2 + 704] = 0\n 17382: u64 [a2 + 696] = 0\n 17386: u64 [a2 + 0x2a8] = a1\n 17390: a1 = s1 + 0x2ba0\n 17394: u64 [a2 + 688] = 0\n 17398: ra = 606, jump @19\n      : @615 [@dyn 303] (gas: 10)\n 17404: a2 = s1 + 0x100\n 17408: a3 = u64 [a2]\n 17410: a0 = u64 [a2 + 0x50]\n 17413: a0 = a0 + 0xffffffffffffff40\n 17417: a1 = u64 [a2 + 0x58]\n 17420: a0 = a1 <u a0\n 17423: a1 = u64 [a2 + 0x48]\n 17426: a0 = 0 if a1 != 0\n 17428: a0 = 0 if a3 != 0\n 17430: jump @617 if a0 != 0\n      : @616 (gas: 1)\n 17433: jump @911\n      : @617 (gas: 11)\n 17436: a0 = u8 [s1 + 0xf8]\n 17440: a1 = a0 >u 0\n 17442: a0 = u64 [s1 + 0x158]\n 17446: i32 a0 = a0 + 0xc0\n 17450: a2 = s1 + 0x28f8\n 17454: u64 [a2 + 672] = 0\n 17458: u64 [a2 + 664] = 0\n 17462: u64 [a2 + 0x288] = a1\n 17466: a1 = s1 + 0x2b80\n 17470: u64 [a2 + 656] = 0\n 17474: ra = 608, jump @19\n      : @618 [@dyn 304] (gas: 3)\n 17480: a1 = u64 [s1 + 0x118]\n 17484: a0 = a1 + 0x3\n 17487: t0 = 610, jump @1319\n      : @619 [@dyn 305] (gas: 7)\n 17493: u64 [a5 + 0xb8] = a3\n 17497: u64 [a5 + 0xb0] = a2\n 17501: u64 [a5 + 0xa8] = a0\n 17505: u64 [a5 + 0xc0] = a1\n 17509: a0 = s1 + 0x2b60\n 17513: a1 = s1 + 0x36a0\n 17517: ra = 612, jump @21\n      : @620 [@dyn 306] (gas: 3)\n 17523: a0 = 0xffffff20\n 17533: a2 = s1 + 0x100\n 17537: t0 = 614, jump @1333\n      : @621 [@dyn 307] (gas: 1)\n 17543: jump @623 if a0 != 0\n      : @622 (gas: 1)\n 17546: jump @911\n      : @623 (gas: 11)\n 17549: a2 = s1 + 0x28f8\n 17553: a0 = u64 [a2 + 0x268]\n 17557: a1 = a0 & 0xffffffffffffffff\n 17560: a0 = u64 [s1 + 0x158]\n 17564: i32 a0 = a0 + 0xe0\n 17568: u64 [a2 + 608] = 0\n 17572: u64 [a2 + 600] = 0\n 17576: u64 [a2 + 0x248] = a1\n 17580: a1 = s1 + 0x2b40\n 17584: u64 [a2 + 592] = 0\n 17588: ra = 616, jump @19\n      : @624 [@dyn 308] (gas: 3)\n 17594: a0 = s1 + 0x2b20\n 17598: a1 = 0x40\n 17601: ra = 618, jump @17\n      : @625 [@dyn 309] (gas: 14)\n 17607: t0 = s1 + 0x28f8\n 17611: a1 = t0 + 0x200\n 17615: a3 = u64 [a1 + 0x40]\n 17618: a5 = u64 [a1 + 0x38]\n 17621: a4 = u64 [a1 + 0x30]\n 17624: a0 = u64 [a1 + 0x28]\n 17627: a2 = a4 | a3\n 17630: a1 = a0 | a5\n 17633: a1 = a1 | a2\n 17636: a1 = a1 >> 0x20\n 17639: a2 = a2 | a5\n 17642: a2 = a2 << 0x20\n 17645: a1 = a1 | a2\n 17648: jump @627 if a1 == 0\n      : @626 (gas: 1)\n 17651: jump @911\n      : @627 (gas: 10)\n 17654: u64 [t0 + 544] = 0\n 17658: u64 [t0 + 536] = 0\n 17662: u64 [t0 + 528] = 0\n 17666: u64 [s1 + 0x130] = a3\n 17670: a1 = s1 + 0x2b00\n 17674: u64 [t0 + 520] = 0x20\n 17679: u64 [s1 + 0x150] = a0\n 17683: u64 [s1 + 0x120] = a4\n 17687: u64 [s1 + 0x128] = a5\n 17691: ra = 620, jump @19\n      : @628 [@dyn 310] (gas: 32)\n 17697: a0 = u64 [s1 + 0x150]\n 17701: a0 = a0 + 0x20\n 17704: a1 = u64 [s1 + 0x150]\n 17708: a1 = a0 <u a1\n 17711: a3 = u64 [s1 + 0x120]\n 17715: a2 = a3 + a1\n 17718: a3 = a2 <u a3\n 17721: a3 = a1 if a1 == 0\n 17724: a1 = u64 [s1 + 0x128]\n 17728: a3 = a3 + a1\n 17731: a1 = a3 <u a1\n 17734: a4 = u64 [s1 + 0x130]\n 17738: a4 = a4 + a1\n 17741: a1 = s1 + 0x28f8\n 17745: a5 = a1 + 0x100\n 17749: u64 [a5 + 0xb0] = a2\n 17753: u64 [a5 + 0xa8] = a0\n 17757: a0 = u64 [s1 + 0x138]\n 17761: u64 [a5 + 0xe0] = a0\n 17765: a0 = u64 [s1 + 0x140]\n 17769: u64 [a5 + 0xd8] = a0\n 17773: a0 = u64 [s1 + 0x148]\n 17777: u64 [a5 + 0xd0] = a0\n 17781: a0 = u64 [s1 + 0x158]\n 17785: u64 [a5 + 0xc8] = a0\n 17789: u64 [a5 + 0xb8] = a3\n 17793: a3 = a1\n 17795: a0 = s1 + 0x2ae0\n 17799: a1 = s1 + 0x2ac0\n 17803: a2 = s1 + 0x2aa0\n 17807: u64 [a3 + 0x1c0] = a4\n 17811: ra = 622, jump @1167\n      : @629 [@dyn 311] (gas: 27)\n 17817: a0 = s1 + 0x28f8\n 17821: a1 = u64 [a0 + 0x1f0]\n 17825: t0 = u64 [a0 + 0x200]\n 17829: t1 = u64 [a0 + 0x1e8]\n 17833: a3 = u64 [a0 + 0x1f8]\n 17837: a0 = u64 [s1 + 0x120]\n 17841: a4 = a1 ^ a0\n 17844: a5 = a1 <u a0\n 17847: ra = a0\n 17849: a0 = u64 [s1 + 0x150]\n 17853: t2 = t1 <u a0\n 17856: a5 = t2 if a4 == 0\n 17859: a0 = u64 [s1 + 0x128]\n 17863: a4 = a3 - a0\n 17866: a3 = a3 <u a0\n 17869: a0 = u64 [s1 + 0x130]\n 17873: a2 = t0 - a0\n 17876: a2 = a2 - a3\n 17879: a3 = a4 <u a5\n 17882: a2 = a2 - a3\n 17885: a0 = u64 [s1 + 0x150]\n 17889: a4 = a4 - a5\n 17892: a1 = a1 - ra\n 17895: a3 = a1 - t2\n 17898: a1 = t1 - a0\n 17901: a2 = a2 | a3\n 17904: jump @910\n      : @630 (gas: 10)\n 17907: u64 [a2 + 448] = 0\n 17911: u64 [a2 + 440] = 0\n 17915: u64 [a2 + 432] = 0\n 17919: u64 [a2 + 424] = 0\n 17923: a0 = s1 + 0x3000\n 17927: i32 a0 = a0 + 0x2a0\n 17931: ra = 0x270\n 17935: ecalli 10 // 'value_transferred'\n 17937: t0 = 0x272\n 17941: jump @1350\n      : @631 [@dyn 312] (gas: 1)\n 17944: t0 = 626, jump @1350\n      : @632 [@dyn 313] (gas: 8)\n 17950: a0 = u64 [a4 + 0xb8]\n 17954: a1 = u64 [a4 + 0xc0]\n 17958: a2 = u64 [a4 + 0xb0]\n 17962: a3 = u64 [a4 + 0xa8]\n 17966: a1 = a1 | a2\n 17969: a0 = a0 | a3\n 17972: a0 = a0 | a1\n 17975: jump @634 if a0 == 0\n      : @633 (gas: 1)\n 17978: jump @967\n      : @634 (gas: 4)\n 17981: a0 = u64 [s1 + 0x158]\n 17985: a0 = i32 [a0]\n 17987: a1 = 0x63\n 17990: jump @636 if a1 <u a0\n      : @635 (gas: 1)\n 17993: jump @968\n      : @636 (gas: 4)\n 17996: a0 = s1 + 0x20e0\n 18000: ra = 0x274\n 18004: t0 = 0x436\n 18008: jump @1330\n      : @637 [@dyn 314] (gas: 7)\n 18011: a0 = s1 + 0x20f8\n 18015: a0 = u64 [a0 + 0xffffffffffffffe8]\n 18018: u64 [s1 + 0x148] = a0\n 18022: a0 = s1 + 0x20c0\n 18026: ra = 0x276\n 18030: t0 = 0x45e\n 18034: jump @1342\n      : @638 [@dyn 315] (gas: 13)\n 18037: a1 = s1 + 0x18f8\n 18041: a2 = a1 + 0x700\n 18045: a0 = u64 [a2 + 0xd8]\n 18049: a1 = s1 + 0x100\n 18053: u64 [a1 + 0x30] = a0\n 18056: a0 = u64 [a2 + 0xd0]\n 18060: u64 [a1 + 0x38] = a0\n 18063: a0 = u64 [a2 + 0xc8]\n 18067: u64 [a1 + 0x40] = a0\n 18070: a0 = s1 + 0x20a0\n 18074: ra = 0x278\n 18078: t0 = 0x440\n 18082: jump @1330\n      : @639 [@dyn 316] (gas: 3)\n 18085: t0 = 0x27a\n 18089: a2 = s1 + 0x18f8\n 18093: fallthrough\n      : @640 [@dyn 317] (gas: 8)\n 18094: a0 = u64 [a2 + 0x7a8]\n 18098: u64 [a2 + 1952] = 0\n 18102: u64 [a2 + 1944] = 0\n 18106: u64 [a2 + 1936] = 0\n 18110: a1 = s1 + 0x2080\n 18114: u64 [a2 + 0x788] = a0\n 18118: a0 = 0\n 18120: ra = 636, jump @19\n      : @641 [@dyn 318] (gas: 3)\n 18126: t0 = 0x27e\n 18130: a1 = s1 + 0x18f8\n 18134: fallthrough\n      : @642 [@dyn 319] (gas: 8)\n 18135: u64 [a1 + 1920] = 0\n 18139: u64 [a1 + 1912] = 0\n 18143: u64 [a1 + 1896] = 0x1\n 18148: a2 = a1\n 18150: a0 = 0x20\n 18153: a1 = s1 + 0x2060\n 18157: u64 [a2 + 1904] = 0\n 18161: ra = 640, jump @19\n      : @643 [@dyn 320] (gas: 3)\n 18167: a1 = 0x20094\n 18172: a0 = i32 [0x20094]\n 18177: jump @645 if a0 >u 63\n      : @644 (gas: 2)\n 18181: u32 [0x20094] = 0x40\n 18187: fallthrough\n      : @645 (gas: 14)\n 18188: a0 = sp + 0xffffffffffffffe0\n 18191: a2 = a0 & 0xffffffffffffffe0\n 18194: u64 [s1 + 0x128] = a2\n 18198: sp = a2\n 18200: a0 = 0x200a0\n 18205: i32 a0 = a0 + 0\n 18207: i32 a2 = a2 + 0\n 18209: u64 [s1 + 0x158] = a1\n 18213: a1 = 0x40\n 18216: u64 [s1 + 0x150] = a0\n 18220: ra = 0x282\n 18224: ecalli 6 // 'hash_keccak_256'\n 18226: t0 = 0x284\n 18230: jump @1315\n      : @646 [@dyn 321] (gas: 1)\n 18233: t0 = 644, jump @1315\n      : @647 [@dyn 322] (gas: 11)\n 18239: a2 = s1 + 0x18f8\n 18243: u64 [a2 + 1888] = 0\n 18247: a3 = a2 + 0x700\n 18251: u64 [a3 + 0x58] = a0\n 18254: a0 = u64 [s1 + 0x138]\n 18258: u64 [a3 + 0x50] = a0\n 18261: a1 = s1 + 0x2040\n 18265: a0 = u64 [s1 + 0x140]\n 18269: u64 [a3 + 0x48] = a0\n 18272: a0 = 0\n 18274: ra = 646, jump @19\n      : @648 [@dyn 323] (gas: 14)\n 18280: a0 = u64 [s1 + 0x110]\n 18284: a1 = s1 + 0x18f8\n 18288: a2 = a1 + 0x700\n 18292: u64 [a2 + 0x40] = a0\n 18295: a0 = u64 [s1 + 0x118]\n 18299: u64 [a2 + 0x38] = a0\n 18302: a0 = u64 [s1 + 0x120]\n 18306: u64 [a2 + 0x30] = a0\n 18309: a3 = a1\n 18311: a0 = 0x20\n 18314: a1 = s1 + 0x2020\n 18318: a2 = u64 [s1 + 0x128]\n 18322: u64 [a3 + 0x728] = a2\n 18326: ra = 648, jump @19\n      : @649 [@dyn 324] (gas: 3)\n 18332: a1 = u64 [s1 + 0x158]\n 18336: a0 = i32 [a1]\n 18338: jump @651 if a0 >u 63\n      : @650 (gas: 3)\n 18342: u32 [a1 + 0] = 0x40\n 18345: t0 = 0x28a\n 18349: jump @1311\n      : @651 (gas: 1)\n 18352: t0 = 650, jump @1311\n      : @652 [@dyn 325] (gas: 4)\n 18358: ra = 0x28c\n 18362: ecalli 6 // 'hash_keccak_256'\n 18364: t0 = 0x28e\n 18368: jump @1306\n      : @653 [@dyn 326] (gas: 1)\n 18371: t0 = 654, jump @1306\n      : @654 [@dyn 327] (gas: 8)\n 18377: a2 = s1 + 0x18f8\n 18381: u64 [a2 + 1824] = 0\n 18385: u64 [a2 + 1816] = 0\n 18389: u64 [a2 + 1808] = 0\n 18393: a1 = s1 + 0x2000\n 18397: u64 [a2 + 0x708] = a0\n 18401: a0 = 0\n 18403: ra = 656, jump @19\n      : @655 [@dyn 328] (gas: 13)\n 18409: a0 = u64 [s1 + 0x120]\n 18413: a1 = s1 + 0x18f8\n 18417: u64 [a1 + 0x700] = a0\n 18421: a0 = u64 [s1 + 0x128]\n 18425: u64 [a1 + 0x6f8] = a0\n 18429: a0 = u64 [s1 + 0x130]\n 18433: u64 [a1 + 0x6f0] = a0\n 18437: a3 = a1\n 18439: a0 = 0x20\n 18442: a1 = s1 + 0x1fe0\n 18446: a2 = u64 [s1 + 0x138]\n 18450: u64 [a3 + 0x6e8] = a2\n 18454: ra = 658, jump @19\n      : @656 [@dyn 329] (gas: 3)\n 18460: a1 = u64 [s1 + 0x158]\n 18464: a0 = i32 [a1]\n 18466: jump @658 if a0 >=u 64\n      : @657 (gas: 2)\n 18470: u32 [a1 + 0] = 0x40\n 18473: fallthrough\n      : @658 (gas: 4)\n 18474: a0 = sp + 0xffffffffffffffe0\n 18477: a0 = a0 & 0xffffffffffffffe0\n 18480: u64 [s1 + 0x158] = a0\n 18484: t0 = 660, jump @1316\n      : @659 [@dyn 330] (gas: 4)\n 18490: ra = 0x296\n 18494: ecalli 6 // 'hash_keccak_256'\n 18496: t0 = 0x298\n 18500: jump @1322\n      : @660 [@dyn 331] (gas: 1)\n 18503: t0 = 664, jump @1322\n      : @661 [@dyn 332] (gas: 2)\n 18509: a0 = s1 + 0x1fc0\n 18513: ra = 666, jump @21\n      : @662 [@dyn 333] (gas: 6)\n 18519: a0 = s1 + 0x18f8\n 18523: a0 = u64 [a0 + 0x6c8]\n 18527: u64 [s1 + 0x158] = a0\n 18531: a0 = s1 + 0x1fa0\n 18535: a1 = 0x40\n 18538: ra = 668, jump @17\n      : @663 [@dyn 334] (gas: 7)\n 18544: a3 = s1 + 0x18f8\n 18548: a5 = a3 + 0x600\n 18552: a4 = u64 [a5 + 0xc0]\n 18556: a1 = u64 [a5 + 0xb8]\n 18560: a2 = u64 [a5 + 0xb0]\n 18564: a0 = u64 [a5 + 0xa8]\n 18568: t0 = 670, jump @1341\n      : @664 [@dyn 335] (gas: 1)\n 18574: jump @666 if a1 == 0\n      : @665 (gas: 1)\n 18577: jump @911\n      : @666 (gas: 9)\n 18580: a1 = u8 [s1 + 0x158]\n 18584: a1 = a1 >u 0\n 18586: u64 [a3 + 1696] = 0\n 18590: u64 [a3 + 1688] = 0\n 18594: u64 [a3 + 0x688] = a1\n 18598: a1 = s1 + 0x1f80\n 18602: u64 [a3 + 1680] = 0\n 18606: u64 [s1 + 0x158] = a0\n 18610: ra = 672, jump @19\n      : @667 [@dyn 336] (gas: 3)\n 18616: a1 = 0x20\n 18619: a0 = u64 [s1 + 0x158]\n 18623: ra = 674, jump @27\n      : @668 [@dyn 337] (gas: 5)\n 18629: i32 a1 = a0 + 0\n 18631: a2 = 0x20\n 18634: a0 = 0\n 18636: ecalli 7 // 'seal_return'\n 18638: fallthrough\n      : @669 (gas: 1)\n 18639: jump @671 if a0 == 1684647787\n      : @670 (gas: 1)\n 18646: jump @933\n      : @671 (gas: 8)\n 18649: u64 [a3 + 1952] = 0\n 18653: u64 [a3 + 1944] = 0\n 18657: u64 [a3 + 1936] = 0\n 18661: u64 [a3 + 1928] = 0\n 18665: a0 = s1 + 0x3000\n 18669: i32 a0 = a0 + 0x80\n 18673: ecalli 10 // 'value_transferred'\n 18675: fallthrough\n      : @672 (gas: 10)\n 18676: a3 = s1 + 0x28f8\n 18680: a4 = a3 + 0x700\n 18684: a0 = u64 [a4 + 0x98]\n 18688: a1 = u64 [a4 + 0xa0]\n 18692: a2 = u64 [a4 + 0x90]\n 18696: a3 = u64 [a4 + 0x88]\n 18700: a1 = a1 | a2\n 18703: a0 = a0 | a3\n 18706: a0 = a0 | a1\n 18709: jump @674 if a0 == 0\n      : @673 (gas: 1)\n 18712: jump @969\n      : @674 (gas: 4)\n 18715: a0 = u64 [s1 + 0x158]\n 18719: a0 = i32 [a0]\n 18721: a1 = 0x43\n 18724: jump @676 if a1 <u a0\n      : @675 (gas: 1)\n 18727: jump @970\n      : @676 (gas: 4)\n 18730: a0 = s1 + 0x1540\n 18734: ra = 0x2a4\n 18738: t0 = 0x436\n 18742: jump @1330\n      : @677 [@dyn 338] (gas: 9)\n 18745: a0 = s1 + 0x10f8\n 18749: a0 = u64 [a0 + 0x448]\n 18753: u64 [s1 + 0x138] = a0\n 18757: a0 = s1 + 0x3000\n 18761: i32 a0 = a0 + 0xa0\n 18765: a1 = 0x24\n 18768: ra = 0x2a6\n 18772: ecalli 1 // 'call_data_load'\n 18774: fallthrough\n      : @678 [@dyn 339] (gas: 12)\n 18775: a0 = s1 + 0x28f8\n 18779: a2 = a0 + 0x700\n 18783: a1 = u64 [a2 + 0xc0]\n 18787: u64 [s1 + 0x140] = a1\n 18791: a1 = u64 [a2 + 0xb8]\n 18795: u64 [s1 + 0x148] = a1\n 18799: a1 = u64 [a2 + 0xb0]\n 18803: u64 [s1 + 0x150] = a1\n 18807: a0 = u64 [a2 + 0xa8]\n 18811: u64 [s1 + 0x158] = a0\n 18815: a0 = 0x10f8\n 18819: t0 = 680, jump @1348\n      : @679 [@dyn 340] (gas: 5)\n 18825: a1 = s1 + 0x1520\n 18829: a2 = u64 [s1 + 0x138]\n 18833: u64 [a0 + 0x428] = a2\n 18837: a0 = 0\n 18839: ra = 682, jump @19\n      : @680 [@dyn 341] (gas: 9)\n 18845: a1 = s1 + 0x10f8\n 18849: u64 [a1 + 1056] = 0\n 18853: u64 [a1 + 1048] = 0\n 18857: u64 [a1 + 1032] = 0x2\n 18862: a2 = a1\n 18864: a0 = 0x20\n 18867: a1 = s1 + 0x1500\n 18871: u64 [a2 + 1040] = 0\n 18875: ra = 684, jump @19\n      : @681 [@dyn 342] (gas: 6)\n 18881: a0 = sp + 0xffffffffffffffe0\n 18884: a0 = a0 & 0xffffffffffffffe0\n 18887: u64 [s1 + 0x120] = a0\n 18891: sp = a0\n 18893: a1 = i32 [0x20094]\n 18898: jump @683 if a1 >u 63\n      : @682 (gas: 2)\n 18902: u32 [0x20094] = 0x40\n 18908: fallthrough\n      : @683 (gas: 14)\n 18909: a0 = sp + 0xffffffffffffffe0\n 18912: a2 = a0 & 0xffffffffffffffe0\n 18915: u64 [s1 + 0x138] = a2\n 18919: sp = a2\n 18921: a0 = 0x200a0\n 18926: i32 a0 = a0 + 0\n 18928: i32 a2 = a2 + 0\n 18930: a1 = 0x40\n 18933: u64 [s1 + 0x110] = a0\n 18937: ra = 0x2ae\n 18941: ecalli 6 // 'hash_keccak_256'\n 18943: a3 = u64 [s1 + 0x138]\n 18947: t0 = 0x2b0\n 18951: jump @1313\n      : @684 [@dyn 343] (gas: 2)\n 18954: a3 = u64 [s1 + 0x138]\n 18958: t0 = 688, jump @1313\n      : @685 [@dyn 344] (gas: 11)\n 18964: a1 = u64 [s1 + 0x120]\n 18968: u64 [s1 + 0x118] = a3\n 18972: u64 [a1 + 0x18] = a3\n 18975: u64 [s1 + 0x128] = a2\n 18979: u64 [a1 + 0x10] = a2\n 18982: u64 [s1 + 0x130] = a4\n 18986: u64 [a1 + 0x8] = a4\n 18989: u64 [s1 + 0x138] = a0\n 18993: u64 [a1] = a0\n 18995: a0 = s1 + 0x14e0\n 18999: ra = 690, jump @21\n      : @686 [@dyn 345] (gas: 21)\n 19005: a5 = s1 + 0x10f8\n 19009: a0 = u64 [a5 + 0x3f0]\n 19013: a1 = u64 [a5 + 0x3e8]\n 19017: t1 = u64 [a5 + 0x3f8]\n 19021: a3 = u64 [a5 + 0x400]\n 19025: t2 = u64 [s1 + 0x150]\n 19029: a4 = t2 ^ a0\n 19032: a0 = t2 <u a0\n 19035: t0 = u64 [s1 + 0x158]\n 19039: a1 = t0 <u a1\n 19042: a1 = a0 if a4 != 0\n 19045: ra = u64 [s1 + 0x140]\n 19049: a0 = ra ^ a3\n 19052: a2 = ra <u a3\n 19055: a3 = u64 [s1 + 0x148]\n 19059: a4 = a3 <u t1\n 19062: a4 = a2 if a0 != 0\n 19065: a2 = a3 ^ t1\n 19068: a0 = a0 | a2\n 19071: a1 = a4 if a0 != 0\n 19074: jump @688 if a1 != 0\n      : @687 (gas: 1)\n 19077: jump @971\n      : @688 (gas: 21)\n 19080: a0 = sp + 0xffffffffffffffe0\n 19083: a0 = a0 & 0xffffffffffffffe0\n 19086: u64 [s1 + 0x120] = a0\n 19090: sp = a0\n 19092: u64 [a5 + 0x380] = ra\n 19096: a4 = a5 + 0x300\n 19100: u64 [a4 + 0x78] = a3\n 19103: u64 [a5 + 0x370] = t2\n 19107: u64 [a5 + 0x368] = t0\n 19111: a0 = u64 [s1 + 0x118]\n 19115: u64 [a4 + 0xa0] = a0\n 19119: a0 = u64 [s1 + 0x128]\n 19123: u64 [a4 + 0x98] = a0\n 19127: a0 = u64 [s1 + 0x130]\n 19131: u64 [a4 + 0x90] = a0\n 19135: a0 = s1 + 0x14a0\n 19139: a1 = s1 + 0x1480\n 19143: a2 = s1 + 0x1460\n 19147: a3 = u64 [s1 + 0x138]\n 19151: u64 [a4 + 0x88] = a3\n 19155: ra = 692, jump @1215\n      : @689 [@dyn 346] (gas: 17)\n 19161: a0 = s1 + 0x10f8\n 19165: a1 = a0 + 0x300\n 19169: a3 = u64 [a1 + 0xb8]\n 19173: u64 [s1 + 0x150] = a3\n 19177: a2 = u64 [a1 + 0xc0]\n 19181: u64 [s1 + 0x158] = a2\n 19185: a5 = u64 [a1 + 0xa8]\n 19189: u64 [s1 + 0x140] = a5\n 19193: a4 = u64 [a1 + 0xb0]\n 19197: u64 [s1 + 0x148] = a4\n 19201: a1 = u64 [s1 + 0x120]\n 19205: u64 [a1 + 0x10] = a3\n 19208: u64 [a1 + 0x18] = a2\n 19211: u64 [a1] = a5\n 19213: u64 [a1 + 0x8] = a4\n 19216: a0 = s1 + 0x1440\n 19220: ra = 694, jump @21\n      : @690 [@dyn 347] (gas: 32)\n 19226: a1 = s1 + 0x10f8\n 19230: a2 = a1 + 0x300\n 19234: a0 = u64 [a2 + 0x60]\n 19237: u64 [s1 + 0x128] = a0\n 19241: a0 = u64 [a2 + 0x58]\n 19244: u64 [s1 + 0x138] = a0\n 19248: a0 = u64 [a2 + 0x50]\n 19251: a5 = a1\n 19253: u64 [s1 + 0x130] = a0\n 19257: a0 = u64 [s1 + 0x140]\n 19261: a0 = a0 + 0x1\n 19264: a1 = a0 <u 0x1\n 19267: a2 = u64 [s1 + 0x148]\n 19271: a1 = a1 + a2\n 19274: a2 = a0 | a1\n 19277: a2 = a2 <u 0x1\n 19280: a3 = u64 [s1 + 0x150]\n 19284: a2 = a2 + a3\n 19287: a3 = a2 <u a3\n 19290: a4 = u64 [s1 + 0x158]\n 19294: a3 = a3 + a4\n 19297: a4 = u64 [a5 + 0x348]\n 19301: u64 [s1 + 0x158] = a4\n 19305: a4 = s1 + 0x28f8\n 19309: a5 = a4 + 0x700\n 19313: u64 [a5 + 0xd0] = a1\n 19317: u64 [a5 + 0xc8] = a0\n 19321: u64 [a5 + 0xd8] = a2\n 19325: u64 [a5 + 0xe0] = a3\n 19329: a0 = s1 + 0x1420\n 19333: a1 = s1 + 0x30c0\n 19337: ra = 696, jump @21\n      : @691 [@dyn 348] (gas: 12)\n 19343: a1 = s1 + 0x10f8\n 19347: a2 = a1 + 0x300\n 19351: a0 = u64 [a2 + 0x38]\n 19354: a1 = s1 + 0x100\n 19358: u64 [a1 + 0x18] = a0\n 19361: a0 = u64 [a2 + 0x30]\n 19364: u64 [a1 + 0x20] = a0\n 19367: a0 = u64 [a2 + 0x28]\n 19370: u64 [a1 + 0x40] = a0\n 19373: a0 = s1 + 0x1400\n 19377: a1 = 0x40\n 19380: ra = 698, jump @17\n      : @692 [@dyn 349] (gas: 14)\n 19386: a4 = s1 + 0x10f8\n 19390: t0 = u64 [a4 + 0x320]\n 19394: a1 = a4 + 0x300\n 19398: a5 = u64 [a1 + 0x18]\n 19401: a3 = u64 [a1 + 0x10]\n 19404: a0 = u64 [a1 + 0x8]\n 19407: a2 = a3 | t0\n 19410: a1 = a0 | a5\n 19413: a1 = a1 | a2\n 19416: a1 = a1 >> 0x20\n 19419: a2 = a2 | a5\n 19422: a2 = a2 << 0x20\n 19425: a1 = a1 | a2\n 19428: jump @694 if a1 == 0\n      : @693 (gas: 1)\n 19431: jump @911\n      : @694 (gas: 16)\n 19434: a1 = u64 [s1 + 0x138]\n 19438: a1 = a1 << 0x20\n 19441: u64 [s1 + 0x148] = a3\n 19445: a3 = a1 >> 0x20\n 19448: u64 [a4 + 768] = 0\n 19452: a1 = u64 [s1 + 0x158]\n 19456: a2 = a4 + 0x200\n 19460: u64 [a2 + 0xe8] = a1\n 19464: a1 = u64 [s1 + 0x130]\n 19468: u64 [a2 + 0xf0] = a1\n 19472: a1 = s1 + 0x13e0\n 19476: u64 [a2 + 0xf8] = a3\n 19480: u64 [s1 + 0x150] = a0\n 19484: u64 [s1 + 0x158] = t0\n 19488: u64 [s1 + 0x130] = a5\n 19492: ra = 700, jump @19\n      : @695 [@dyn 350] (gas: 12)\n 19498: a5 = s1 + 0x100\n 19502: a2 = u64 [a5 + 0x50]\n 19505: a0 = u64 [a5 + 0x58]\n 19508: a3 = u64 [a5 + 0x30]\n 19511: a3 = a3 | a0\n 19514: a4 = 0x100000000\n 19524: a0 = 0xffffffe0\n 19534: a0 = a2 <u a0\n 19537: a1 = u64 [a5 + 0x48]\n 19540: a0 = 0 if a1 != 0\n 19542: a0 = 0 if a3 != 0\n 19544: jump @697 if a0 != 0\n      : @696 (gas: 1)\n 19547: jump @911\n      : @697 (gas: 17)\n 19550: u64 [s1 + 0x130] = a4\n 19554: a4 = 0xffffffffffffffff\n 19557: a0 = u64 [s1 + 0x138]\n 19561: a0 = a0 >> 0x20\n 19564: a1 = u64 [s1 + 0x128]\n 19568: a1 = a1 << 0x20\n 19571: a0 = a0 | a1\n 19574: a1 = a0 & a4\n 19577: i32 a0 = a2 + 0x20\n 19580: a2 = s1 + 0x10f8\n 19584: u64 [a2 + 736] = 0\n 19588: u64 [a2 + 728] = 0\n 19592: u64 [a2 + 0x2c8] = a1\n 19596: a1 = s1 + 0x13c0\n 19600: u64 [a2 + 720] = 0\n 19604: u64 [s1 + 0x158] = a3\n 19608: ra = 702, jump @19\n      : @698 [@dyn 351] (gas: 10)\n 19614: a3 = s1 + 0x100\n 19618: a2 = u64 [a3 + 0x50]\n 19621: a0 = u64 [a3 + 0x30]\n 19624: a0 = a0 + 0xffffffffffffffc0\n 19627: a0 = a2 <u a0\n 19630: a1 = u64 [a3 + 0x48]\n 19633: a0 = 0 if a1 != 0\n 19635: a1 = u64 [a3 + 0x58]\n 19638: a0 = 0 if a1 != 0\n 19640: jump @700 if a0 != 0\n      : @699 (gas: 1)\n 19643: jump @911\n      : @700 (gas: 10)\n 19646: a0 = u64 [s1 + 0x140]\n 19650: a1 = a0 & 0xffffffffffffffff\n 19653: i32 a0 = a2 + 0x40\n 19656: a2 = s1 + 0x10f8\n 19660: u64 [a2 + 704] = 0\n 19664: u64 [a2 + 696] = 0\n 19668: u64 [a2 + 0x2a8] = a1\n 19672: a1 = s1 + 0x13a0\n 19676: u64 [a2 + 688] = 0\n 19680: ra = 704, jump @19\n      : @701 [@dyn 352] (gas: 10)\n 19686: a0 = s1 + 0x100\n 19690: a4 = u64 [a0 + 0x58]\n 19693: a3 = u64 [a0 + 0x48]\n 19696: a2 = u64 [a0 + 0x50]\n 19699: a1 = 0x100000000\n 19709: a0 = 0xffffffa0\n 19719: a0 = a2 <u a0\n 19722: a0 = 0 if a3 != 0\n 19724: a0 = 0 if a4 != 0\n 19726: jump @703 if a0 != 0\n      : @702 (gas: 1)\n 19729: jump @911\n      : @703 (gas: 11)\n 19732: a0 = u64 [s1 + 0x120]\n 19736: u64 [s1 + 0x140] = a1\n 19740: a1 = a0 & 0xffffffffffffffff\n 19743: i32 a0 = a2 + 0x60\n 19746: a2 = s1 + 0x10f8\n 19750: u64 [a2 + 672] = 0\n 19754: u64 [a2 + 664] = 0\n 19758: u64 [a2 + 0x288] = a1\n 19762: a1 = s1 + 0x1380\n 19766: u64 [a2 + 656] = 0\n 19770: ra = 706, jump @19\n      : @704 [@dyn 353] (gas: 10)\n 19776: a3 = s1 + 0x100\n 19780: a2 = u64 [a3 + 0x50]\n 19783: a0 = u64 [a3 + 0x40]\n 19786: a0 = a0 + 0xffffffffffffff80\n 19789: a0 = a2 <u a0\n 19792: a1 = u64 [a3 + 0x48]\n 19795: a0 = 0 if a1 != 0\n 19797: a1 = u64 [a3 + 0x58]\n 19800: a0 = 0 if a1 != 0\n 19802: jump @706 if a0 != 0\n      : @705 (gas: 1)\n 19805: jump @911\n      : @706 (gas: 10)\n 19808: a0 = u8 [s1 + 0x118]\n 19812: a1 = a0 >u 0\n 19814: i32 a0 = a2 + 0x80\n 19818: a3 = s1 + 0x10f8\n 19822: u64 [a3 + 640] = 0\n 19826: u64 [a3 + 632] = 0\n 19830: u64 [a3 + 0x268] = a1\n 19834: a1 = s1 + 0x1360\n 19838: u64 [a3 + 624] = 0\n 19842: ra = 708, jump @19\n      : @707 [@dyn 354] (gas: 3)\n 19848: a1 = 0xa0\n 19852: a0 = u64 [s1 + 0x150]\n 19856: ra = 710, jump @27\n      : @708 [@dyn 355] (gas: 5)\n 19862: i32 a1 = a0 + 0\n 19864: a2 = 0xa0\n 19868: a0 = 0\n 19870: ecalli 7 // 'seal_return'\n 19872: jump @669\n      : @709 (gas: 4)\n 19875: a0 = s1 + 0x7ff\n 19879: a0 = a0 + 0x401\n 19883: a1 = 0x40\n 19886: ra = 712, jump @17\n      : @710 [@dyn 356] (gas: 15)\n 19892: a4 = s1 + 0x7ff\n 19896: a4 = a4 + 0xf9\n 19900: t0 = u64 [a4 + 0x320]\n 19904: a1 = a4 + 0x300\n 19908: a5 = u64 [a1 + 0x18]\n 19911: a3 = u64 [a1 + 0x10]\n 19914: a0 = u64 [a1 + 0x8]\n 19917: a2 = a3 | t0\n 19920: a1 = a0 | a5\n 19923: a1 = a1 | a2\n 19926: a1 = a1 >> 0x20\n 19929: a2 = a2 | a5\n 19932: a2 = a2 << 0x20\n 19935: a1 = a1 | a2\n 19938: jump @712 if a1 == 0\n      : @711 (gas: 1)\n 19941: jump @911\n      : @712 (gas: 12)\n 19944: u64 [a4 + 760] = 0\n 19948: u64 [a4 + 752] = 0\n 19952: u64 [a4 + 744] = 0\n 19956: u64 [s1 + 0x150] = a3\n 19960: a3 = 0x8c379a000000000\n 19970: a1 = s1 + 0x7ff\n 19974: a1 = a1 + 0x3e1\n 19978: u64 [a4 + 0x300] = a3\n 19982: u64 [s1 + 0x158] = a0\n 19986: u64 [s1 + 0x148] = t0\n 19990: u64 [s1 + 0x140] = a5\n 19994: ra = 714, jump @19\n      : @713 [@dyn 357] (gas: 6)\n 20000: a5 = s1 + 0x100\n 20004: a1 = u64 [a5 + 0x58]\n 20007: a0 = u64 [a5 + 0x48]\n 20010: a3 = u64 [a5 + 0x40]\n 20013: a3 = a3 | a0\n 20016: t0 = 716, jump @1304\n      : @714 [@dyn 358] (gas: 1)\n 20022: jump @716 if a0 != 0\n      : @715 (gas: 1)\n 20025: jump @911\n      : @716 (gas: 12)\n 20028: i32 a0 = a1 + 0x4\n 20031: a2 = s1 + 0x7ff\n 20035: a2 = a2 + 0xf9\n 20039: u64 [a2 + 736] = 0\n 20043: u64 [a2 + 728] = 0\n 20047: u64 [a2 + 712] = 0x20\n 20052: a1 = s1 + 0x7ff\n 20056: a1 = a1 + 0x3c1\n 20060: u64 [a2 + 720] = 0\n 20064: u64 [s1 + 0x148] = a3\n 20068: u64 [s1 + 0x140] = a4\n 20072: ra = 718, jump @19\n      : @717 [@dyn 359] (gas: 1)\n 20078: t0 = 720, jump @1301\n      : @718 [@dyn 360] (gas: 1)\n 20084: jump @720 if a0 != 0\n      : @719 (gas: 1)\n 20087: jump @911\n      : @720 (gas: 10)\n 20090: i32 a0 = a1 + 0x24\n 20093: a3 = s1 + 0x7ff\n 20097: a3 = a3 + 0xf9\n 20101: u64 [a3 + 704] = 0\n 20105: u64 [a3 + 696] = 0\n 20109: u64 [a3 + 680] = 0xb\n 20114: a1 = s1 + 0x7ff\n 20118: a1 = a1 + 0x3a1\n 20122: u64 [a3 + 688] = 0\n 20126: ra = 722, jump @19\n      : @721 [@dyn 361] (gas: 1)\n 20132: t0 = 724, jump @1305\n      : @722 [@dyn 362] (gas: 1)\n 20138: jump @724 if a0 != 0\n      : @723 (gas: 1)\n 20141: jump @911\n      : @724 (gas: 13)\n 20144: i32 a0 = a2 + 0x44\n 20147: a1 = u64 [0x20070]\n 20152: a3 = s1 + 0x7ff\n 20156: a3 = a3 + 0xf9\n 20160: u64 [a3 + 656] = 0\n 20164: u64 [a3 + 0x2a0] = a1\n 20168: a1 = 0x746f720000000000\n 20178: u64 [a3 + 0x298] = a1\n 20182: a1 = s1 + 0x7ff\n 20186: a1 = a1 + 0x381\n 20190: u64 [a3 + 648] = 0\n 20194: ra = 0x388\n 20198: jump @19\n      : @725 (gas: 3)\n 20201: a0 = s1 + 0x1e20\n 20205: a1 = 0x40\n 20208: ra = 726, jump @17\n      : @726 [@dyn 363] (gas: 2)\n 20214: a2 = s1 + 0x18f8\n 20218: fallthrough\n      : @727 (gas: 13)\n 20219: t0 = u64 [a2 + 0x540]\n 20223: a1 = a2 + 0x500\n 20227: a5 = u64 [a1 + 0x38]\n 20230: a4 = u64 [a1 + 0x30]\n 20233: a0 = u64 [a1 + 0x28]\n 20236: a3 = a4 | t0\n 20239: a1 = a0 | a5\n 20242: a1 = a1 | a3\n 20245: a1 = a1 >> 0x20\n 20248: a3 = a3 | a5\n 20251: a3 = a3 << 0x20\n 20254: a1 = a1 | a3\n 20257: jump @729 if a1 == 0\n      : @728 (gas: 1)\n 20260: jump @911\n      : @729 (gas: 11)\n 20263: u64 [a2 + 1304] = 0\n 20267: u64 [a2 + 1296] = 0\n 20271: u64 [a2 + 1288] = 0\n 20275: a3 = 0x8c379a000000000\n 20285: a1 = s1 + 0x1e00\n 20289: u64 [a2 + 0x520] = a3\n 20293: u64 [s1 + 0x158] = a0\n 20297: u64 [s1 + 0x150] = a4\n 20301: u64 [s1 + 0x140] = t0\n 20305: u64 [s1 + 0x148] = a5\n 20309: ra = 728, jump @19\n      : @730 [@dyn 364] (gas: 1)\n 20315: t0 = 730, jump @1302\n      : @731 [@dyn 365] (gas: 1)\n 20321: jump @733 if a0 != 0\n      : @732 (gas: 1)\n 20324: jump @911\n      : @733 (gas: 1)\n 20327: t0 = 732, jump @1352\n      : @734 [@dyn 366] (gas: 8)\n 20333: u64 [a2 + 1280] = 0\n 20337: u64 [a2 + 1272] = 0\n 20341: u64 [a2 + 1256] = 0x20\n 20346: a1 = s1 + 0x1de0\n 20350: u64 [a2 + 1264] = 0\n 20354: u64 [s1 + 0x148] = a3\n 20358: u64 [s1 + 0x140] = a4\n 20362: ra = 734, jump @19\n      : @735 [@dyn 367] (gas: 1)\n 20368: t0 = 736, jump @1301\n      : @736 [@dyn 368] (gas: 1)\n 20374: jump @738 if a0 != 0\n      : @737 (gas: 1)\n 20377: jump @911\n      : @738 (gas: 1)\n 20380: t0 = 738, jump @1351\n      : @739 [@dyn 369] (gas: 6)\n 20386: u64 [a3 + 1248] = 0\n 20390: u64 [a3 + 1240] = 0\n 20394: u64 [a3 + 1224] = 0xd\n 20399: a1 = s1 + 0x1dc0\n 20403: u64 [a3 + 1232] = 0\n 20407: ra = 740, jump @19\n      : @740 [@dyn 370] (gas: 1)\n 20413: t0 = 742, jump @1305\n      : @741 [@dyn 371] (gas: 1)\n 20419: jump @743 if a0 != 0\n      : @742 (gas: 1)\n 20422: jump @911\n      : @743 (gas: 11)\n 20425: i32 a0 = a2 + 0x44\n 20428: a1 = u64 [0x20000]\n 20433: a3 = s1 + 0x18f8\n 20437: u64 [a3 + 1200] = 0\n 20441: u64 [a3 + 0x4c0] = a1\n 20445: a1 = 0x766f746572000000\n 20455: u64 [a3 + 0x4b8] = a1\n 20459: a1 = s1 + 0x1da0\n 20463: u64 [a3 + 1192] = 0\n 20467: ra = 0x388\n 20471: jump @19\n      : @744 (gas: 10)\n 20474: a0 = 0xffffffff\n 20484: u64 [s1 + 0x88] = a0\n 20488: a1 = s1 + 0x28f8\n 20492: u64 [a1 + 1856] = 0\n 20496: u64 [a1 + 1848] = 0\n 20500: u64 [a1 + 1840] = 0\n 20504: u64 [a1 + 1832] = 0x3\n 20509: a0 = s1 + 0x1220\n 20513: a1 = s1 + 0x3020\n 20517: ra = 744, jump @21\n      : @745 [@dyn 372] (gas: 19)\n 20523: t0 = 0\n 20525: t2 = 0\n 20527: a5 = 0\n 20529: a4 = 0\n 20531: a0 = s1 + 0x10f8\n 20535: a2 = a0 + 0x100\n 20539: a1 = u64 [a2 + 0x40]\n 20542: u64 [s1 + 0xb0] = a1\n 20546: a1 = u64 [a2 + 0x38]\n 20549: u64 [s1 + 0xa8] = a1\n 20553: a1 = u64 [a2 + 0x30]\n 20556: u64 [s1 + 0xa0] = a1\n 20560: a0 = u64 [a2 + 0x28]\n 20563: u64 [s1 + 0x98] = a0\n 20567: a0 = 0x100000000\n 20577: u64 [s1 + 0x140] = a0\n 20581: a0 = 0xffffffe0\n 20591: u64 [s1 + 0x90] = a0\n 20595: fallthrough\n      : @746 (gas: 18)\n 20596: a0 = u64 [s1 + 0x98]\n 20600: a0 = t0 <u a0\n 20603: a2 = u64 [s1 + 0xa0]\n 20607: a1 = t2 ^ a2\n 20610: a2 = t2 <u a2\n 20613: a2 = a0 if a1 == 0\n 20616: a0 = u64 [s1 + 0xa8]\n 20620: t1 = a5 <u a0\n 20623: a3 = u64 [s1 + 0xb0]\n 20627: a1 = a4 ^ a3\n 20630: a3 = a4 <u a3\n 20633: a3 = t1 if a1 == 0\n 20636: a0 = a0 ^ a5\n 20639: a0 = a0 | a1\n 20642: a3 = a2 if a0 == 0\n 20645: a2 = s1 + 0x7ff\n 20649: a2 = a2 + 0xf9\n 20653: jump @748 if a3 != 0\n      : @747 (gas: 1)\n 20656: jump @883\n      : @748 (gas: 15)\n 20659: a0 = sp + 0xffffffffffffffe0\n 20662: a0 = a0 & 0xffffffffffffffe0\n 20665: u64 [s1 + 0x158] = a0\n 20669: sp = a0\n 20671: u64 [s1 + 0xf8] = a4\n 20675: u64 [a2 + 0x7c0] = a4\n 20679: u64 [s1 + 0xf0] = a5\n 20683: u64 [a2 + 0x7b8] = a5\n 20687: u64 [s1 + 0x100] = t2\n 20691: u64 [a2 + 0x7b0] = t2\n 20695: a0 = s1 + 0x10c0\n 20699: a1 = s1 + 0x10a0\n 20703: u64 [s1 + 0x108] = t0\n 20707: u64 [a2 + 0x7a8] = t0\n 20711: ra = 746, jump @1226\n      : @749 [@dyn 373] (gas: 22)\n 20717: a3 = s1 + 0x10f8\n 20721: a0 = u64 [a3]\n 20723: u64 [s1 + 0x148] = a0\n 20727: a4 = a3 + 0xffffffffffffff00\n 20731: a0 = u64 [a4 + 0xf8]\n 20735: u64 [s1 + 0x130] = a0\n 20739: a0 = u64 [a4 + 0xf0]\n 20743: u64 [s1 + 0x128] = a0\n 20747: a0 = u64 [a4 + 0xe8]\n 20751: u64 [s1 + 0x150] = a0\n 20755: a0 = u64 [a4 + 0xd8]\n 20759: a1 = u64 [a4 + 0xe0]\n 20763: a2 = u64 [a4 + 0xc8]\n 20767: a3 = u64 [a4 + 0xd0]\n 20771: a4 = u64 [s1 + 0x158]\n 20775: u64 [a4 + 0x10] = a0\n 20778: u64 [a4 + 0x18] = a1\n 20781: u64 [a4] = a2\n 20783: u64 [a4 + 0x8] = a3\n 20786: a1 = a4\n 20788: a0 = s1 + 0x1080\n 20792: ra = 748, jump @21\n      : @750 [@dyn 374] (gas: 38)\n 20798: a2 = s1 + 0x7ff\n 20802: a2 = a2 + 0xf9\n 20806: a3 = a2 + 0x700\n 20810: a1 = u64 [a3 + 0x88]\n 20814: u64 [s1 + 0x158] = a1\n 20818: a0 = u64 [a3 + 0x90]\n 20822: u64 [s1 + 0x138] = a0\n 20826: a0 = u64 [a3 + 0x98]\n 20830: u64 [s1 + 0x120] = a0\n 20834: a1 = u64 [a3 + 0xa0]\n 20838: u64 [s1 + 0x118] = a1\n 20842: t2 = u64 [s1 + 0x150]\n 20846: a2 = t2 >> 0x3d\n 20849: a3 = u64 [s1 + 0x128]\n 20853: a5 = a3 << 0x3\n 20856: t1 = a5 | a2\n 20859: a3 = a3 >> 0x3d\n 20862: a5 = u64 [s1 + 0x130]\n 20866: a2 = a5 << 0x3\n 20869: t0 = a2 | a3\n 20872: a2 = a5 >> 0x3d\n 20875: a3 = u64 [s1 + 0x148]\n 20879: a3 = a3 << 0x3\n 20882: a2 = a2 | a3\n 20885: t2 = t2 << 0x3\n 20888: u64 [s1 + 0x148] = t2\n 20892: a3 = t1 >u 0\n 20894: a4 = t2 <u 0x100\n 20898: a5 = a4 ^ 0x1\n 20901: a5 = a3 if t1 != 0\n 20904: a4 = a2 >u 0\n 20906: a3 = t0 >u 0\n 20908: a3 = a4 if a2 != 0\n 20911: a2 = t0 | a2\n 20914: a5 = a3 if a2 != 0\n 20917: u64 [s1 + 0x130] = a5\n 20921: i32 a2 = t2 + 0xffffffffffffff80\n 20924: ra = 750, jump @1353\n      : @751 [@dyn 375] (gas: 6)\n 20930: u64 [s1 + 0x128] = a0\n 20934: a0 = u64 [s1 + 0x150]\n 20938: i32 a2 = a0 << 0x3\n 20941: a0 = u64 [s1 + 0x158]\n 20945: a1 = u64 [s1 + 0x138]\n 20949: ra = 752, jump @1353\n      : @752 [@dyn 376] (gas: 6)\n 20955: u64 [s1 + 0x150] = a0\n 20959: a1 = u64 [s1 + 0x148]\n 20963: i32 a2 = 0x80 - a1\n 20967: a0 = u64 [s1 + 0x120]\n 20971: a1 = u64 [s1 + 0x118]\n 20975: ra = 754, jump @1358\n      : @753 [@dyn 377] (gas: 20)\n 20981: a1 = u64 [s1 + 0x150]\n 20985: a0 = a0 | a1\n 20988: a2 = u64 [s1 + 0x148]\n 20992: a1 = a2 <u 0x80\n 20996: a3 = u64 [s1 + 0x128]\n 21000: a0 = a3 if a1 == 0\n 21003: a1 = u64 [s1 + 0x158]\n 21007: a0 = a1 if a2 == 0\n 21010: a0 = a0 & 0xffffffffffffffff\n 21013: a1 = u64 [s1 + 0x130]\n 21017: a0 = 0 if a1 != 0\n 21019: a2 = s1 + 0x7ff\n 21023: a2 = a2 + 0xf9\n 21027: u64 [a2 + 1920] = 0\n 21031: u64 [a2 + 1912] = 0\n 21035: u64 [a2 + 1904] = 0\n 21039: a1 = s1 + 0x1060\n 21043: u64 [a2 + 0x768] = a0\n 21047: a0 = 0\n 21049: ra = 756, jump @19\n      : @754 [@dyn 378] (gas: 10)\n 21055: a0 = s1 + 0x7ff\n 21059: a0 = a0 + 0xf9\n 21063: u64 [a0 + 1888] = 0\n 21067: u64 [a0 + 1880] = 0\n 21071: u64 [a0 + 1872] = 0\n 21075: a2 = a0\n 21077: a0 = 0x20\n 21080: a1 = s1 + 0x1040\n 21084: u64 [a2 + 1864] = 0\n 21088: ra = 758, jump @19\n      : @755 [@dyn 379] (gas: 6)\n 21094: a0 = sp + 0xffffffffffffffe0\n 21097: a0 = a0 & 0xffffffffffffffe0\n 21100: u64 [s1 + 0x148] = a0\n 21104: sp = a0\n 21106: a1 = i32 [0x20094]\n 21111: jump @757 if a1 >u 63\n      : @756 (gas: 4)\n 21115: a1 = 0x40\n 21118: u32 [0x20094] = a1\n 21123: t0 = 0x2f8\n 21127: jump @1346\n      : @757 (gas: 1)\n 21130: t0 = 760, jump @1346\n      : @758 [@dyn 380] (gas: 8)\n 21136: a0 = 0x200a0\n 21141: i32 a0 = a0 + 0\n 21143: i32 a2 = a2 + 0\n 21145: a1 = 0x40\n 21148: ra = 0x2fa\n 21152: ecalli 6 // 'hash_keccak_256'\n 21154: t0 = 0x2fc\n 21158: jump @1332\n      : @759 [@dyn 381] (gas: 1)\n 21161: t0 = 764, jump @1332\n      : @760 [@dyn 382] (gas: 12)\n 21167: u64 [s1 + 0x120] = a1\n 21171: a2 = u64 [s1 + 0x148]\n 21175: u64 [a2 + 0x18] = a1\n 21178: u64 [s1 + 0x128] = a0\n 21182: u64 [a2 + 0x10] = a0\n 21185: u64 [s1 + 0x118] = a4\n 21189: u64 [a2 + 0x8] = a4\n 21192: u64 [s1 + 0x110] = a5\n 21196: u64 [a2] = a5\n 21198: a0 = s1 + 0x1020\n 21202: a1 = 0x40\n 21205: ra = 766, jump @17\n      : @761 [@dyn 383] (gas: 19)\n 21211: a1 = s1 + 0x7ff\n 21215: a1 = a1 + 0xf9\n 21219: a5 = a1 + 0x700\n 21223: a0 = u64 [a5 + 0x40]\n 21226: u64 [s1 + 0x138] = a0\n 21230: a3 = u64 [a5 + 0x38]\n 21233: u64 [s1 + 0x130] = a3\n 21237: a2 = u64 [a5 + 0x30]\n 21240: u64 [s1 + 0x150] = a2\n 21244: a4 = u64 [a5 + 0x28]\n 21247: u64 [s1 + 0x158] = a4\n 21251: u64 [a5 + 0x20] = a0\n 21254: u64 [a5 + 0x18] = a3\n 21257: u64 [a5 + 0x10] = a2\n 21260: a0 = s1 + 0x1000\n 21264: u64 [a5 + 0x8] = a4\n 21267: ra = 0x300\n 21271: t0 = 0x47c\n 21275: jump @1328\n      : @762 [@dyn 384] (gas: 4)\n 21278: a0 = s1 + 0x7ff\n 21282: a0 = a0 + 0x7e1\n 21286: a1 = u64 [s1 + 0x148]\n 21290: ra = 770, jump @21\n      : @763 [@dyn 385] (gas: 13)\n 21296: a3 = s1 + 0x100\n 21300: a2 = u64 [a3 + 0x30]\n 21303: a0 = u64 [a3 + 0x38]\n 21306: a1 = u64 [a3 + 0x50]\n 21309: a0 = a0 | a1\n 21312: a1 = u64 [a3 + 0x58]\n 21315: a1 = a1 | a2\n 21318: a1 = a1 | a0\n 21321: a1 = a1 >> 0x20\n 21324: a0 = a0 | a2\n 21327: a0 = a0 << 0x20\n 21330: a0 = a0 | a1\n 21333: jump @765 if a0 == 0\n      : @764 (gas: 1)\n 21336: jump @911\n      : @765 (gas: 19)\n 21339: a3 = s1 + 0x7ff\n 21343: a3 = a3 + 0xf9\n 21347: a0 = u64 [a3 + 0x700]\n 21351: u64 [s1 + 0xc0] = a0\n 21355: a2 = a3 + 0x600\n 21359: a0 = u64 [a2 + 0xf8]\n 21363: u64 [s1 + 0xc8] = a0\n 21367: a0 = u64 [a2 + 0xe8]\n 21371: a1 = u64 [a2 + 0xf0]\n 21375: u64 [s1 + 0xb8] = a1\n 21379: a0 = a0 & 0xffffffffffffffff\n 21382: u64 [a3 + 1760] = 0\n 21386: u64 [a3 + 1752] = 0\n 21390: u64 [a3 + 1744] = 0\n 21394: a1 = s1 + 0x7ff\n 21398: a1 = a1 + 0x7c1\n 21402: u64 [a2 + 0xc8] = a0\n 21406: a0 = u64 [s1 + 0x158]\n 21410: ra = 772, jump @19\n      : @766 [@dyn 386] (gas: 12)\n 21416: a3 = s1 + 0x100\n 21420: a0 = u64 [a3 + 0x30]\n 21423: a1 = u64 [a3 + 0x38]\n 21426: a1 = a1 | a0\n 21429: a0 = u64 [s1 + 0x90]\n 21433: a2 = u64 [a3 + 0x58]\n 21436: a0 = a2 <u a0\n 21439: a2 = u64 [a3 + 0x50]\n 21442: a0 = 0 if a2 != 0\n 21444: u64 [a3 + 0x48] = a1\n 21447: a0 = 0 if a1 != 0\n 21449: jump @768 if a0 != 0\n      : @767 (gas: 1)\n 21452: jump @911\n      : @768 (gas: 19)\n 21455: a0 = u64 [s1 + 0x88]\n 21459: a2 = u64 [s1 + 0xc0]\n 21463: a2 = a2 & a0\n 21466: a1 = u64 [s1 + 0xc8]\n 21470: a1 = a1 & 0xffffffffffffffff\n 21473: a3 = u64 [s1 + 0xb8]\n 21477: a3 = a3 & 0xffffffffffffffff\n 21480: a0 = u64 [s1 + 0x158]\n 21484: i32 a0 = a0 + 0x20\n 21487: a4 = s1 + 0x7ff\n 21491: a4 = a4 + 0xf9\n 21495: u64 [a4 + 1728] = 0\n 21499: a5 = a4 + 0x600\n 21503: u64 [a5 + 0xa8] = a3\n 21507: u64 [a5 + 0xb0] = a1\n 21511: a1 = s1 + 0x7ff\n 21515: a1 = a1 + 0x7a1\n 21519: u64 [a5 + 0xb8] = a2\n 21523: ra = 774, jump @19\n      : @769 [@dyn 387] (gas: 24)\n 21529: a0 = u64 [s1 + 0x110]\n 21533: a0 = a0 + 0x1\n 21536: a1 = a0 <u 0x1\n 21539: a2 = u64 [s1 + 0x118]\n 21543: a1 = a1 + a2\n 21546: a2 = a0 | a1\n 21549: a2 = a2 <u 0x1\n 21552: a3 = u64 [s1 + 0x128]\n 21556: a2 = a2 + a3\n 21559: a3 = a2 <u a3\n 21562: a4 = u64 [s1 + 0x120]\n 21566: a3 = a3 + a4\n 21569: a4 = s1 + 0x7ff\n 21573: a4 = a4 + 0xf9\n 21577: a5 = a4 + 0x600\n 21581: u64 [a5 + 0x78] = a2\n 21584: u64 [a5 + 0x70] = a1\n 21587: u64 [a5 + 0x68] = a0\n 21590: a0 = s1 + 0x7ff\n 21594: a0 = a0 + 0x781\n 21598: a1 = s1 + 0x7ff\n 21602: a1 = a1 + 0x761\n 21606: u64 [a5 + 0x80] = a3\n 21610: ra = 776, jump @1131\n      : @770 [@dyn 388] (gas: 4)\n 21616: a2 = s1 + 0x100\n 21620: a0 = u64 [a2 + 0x40]\n 21623: a0 = a0 + 0xffffffffffffffc0\n 21626: t0 = 778, jump @1308\n      : @771 [@dyn 389] (gas: 1)\n 21632: jump @773 if a0 != 0\n      : @772 (gas: 1)\n 21635: jump @911\n      : @773 (gas: 16)\n 21638: a5 = s1 + 0x7ff\n 21642: a5 = a5 + 0xf9\n 21646: t0 = u64 [a5 + 0x6a0]\n 21650: a2 = a5 + 0x600\n 21654: a1 = u64 [a2 + 0x98]\n 21658: a3 = u64 [a2 + 0x90]\n 21662: a4 = u64 [a2 + 0x88]\n 21666: a0 = u64 [s1 + 0x158]\n 21670: i32 a0 = a0 + 0x40\n 21673: u64 [a2 + 0x48] = a4\n 21676: u64 [a2 + 0x50] = a3\n 21679: u64 [a2 + 0x58] = a1\n 21682: a1 = s1 + 0x7ff\n 21686: a1 = a1 + 0x741\n 21690: u64 [a5 + 0x660] = t0\n 21694: ra = 780, jump @19\n      : @774 [@dyn 390] (gas: 3)\n 21700: a1 = u64 [s1 + 0x110]\n 21704: a0 = a1 + 0x2\n 21707: t0 = 782, jump @1320\n      : @775 [@dyn 391] (gas: 8)\n 21713: u64 [a5 + 0x50] = a2\n 21716: u64 [a5 + 0x48] = a0\n 21719: u64 [a5 + 0x58] = a3\n 21722: u64 [a5 + 0x60] = a1\n 21725: a0 = s1 + 0x7ff\n 21729: a0 = a0 + 0x721\n 21733: a1 = s1 + 0x3040\n 21737: ra = 784, jump @21\n      : @776 [@dyn 392] (gas: 4)\n 21743: a2 = s1 + 0x100\n 21747: a0 = u64 [a2 + 0x40]\n 21750: a0 = a0 + 0xffffffffffffffa0\n 21753: t0 = 786, jump @1308\n      : @777 [@dyn 393] (gas: 1)\n 21759: jump @779 if a0 != 0\n      : @778 (gas: 1)\n 21762: jump @911\n      : @779 (gas: 20)\n 21765: a2 = s1 + 0x7ff\n 21769: a2 = a2 + 0xf9\n 21773: a3 = a2 + 0x600\n 21777: a0 = u64 [a3 + 0x40]\n 21780: u64 [s1 + 0xb8] = a0\n 21784: a0 = u64 [a3 + 0x28]\n 21787: a1 = u64 [a3 + 0x38]\n 21790: u64 [s1 + 0xc0] = a1\n 21794: a1 = u64 [a3 + 0x30]\n 21797: u64 [s1 + 0xc8] = a1\n 21801: a1 = a0 & 0xffffffffffffffff\n 21804: a0 = u64 [s1 + 0x158]\n 21808: i32 a0 = a0 + 0x60\n 21811: u64 [a2 + 1568] = 0\n 21815: u64 [a2 + 1560] = 0\n 21819: u64 [a3 + 0x8] = a1\n 21822: a1 = s1 + 0x7ff\n 21826: a1 = a1 + 0x701\n 21830: u64 [a2 + 1552] = 0\n 21834: ra = 788, jump @19\n      : @780 [@dyn 394] (gas: 4)\n 21840: a2 = s1 + 0x100\n 21844: a0 = u64 [a2 + 0x40]\n 21847: a0 = a0 + 0xffffffffffffff80\n 21850: t0 = 790, jump @1308\n      : @781 [@dyn 395] (gas: 1)\n 21856: jump @783 if a0 != 0\n      : @782 (gas: 1)\n 21859: jump @911\n      : @783 (gas: 13)\n 21862: a1 = u64 [s1 + 0xc8]\n 21866: a1 = a1 & 0xffffffffffffffff\n 21869: a0 = u64 [s1 + 0x158]\n 21873: i32 a0 = a0 + 0x80\n 21877: a2 = s1 + 0x7ff\n 21881: a2 = a2 + 0xf9\n 21885: u64 [a2 + 1536] = 0\n 21889: u64 [a2 + 1528] = 0\n 21893: u64 [a2 + 0x5e8] = a1\n 21897: a1 = s1 + 0x7ff\n 21901: a1 = a1 + 0x6e1\n 21905: u64 [a2 + 1520] = 0\n 21909: ra = 792, jump @19\n      : @784 [@dyn 396] (gas: 4)\n 21915: a2 = s1 + 0x100\n 21919: a0 = u64 [a2 + 0x40]\n 21922: a0 = a0 + 0xffffffffffffff60\n 21926: t0 = 794, jump @1308\n      : @785 [@dyn 397] (gas: 1)\n 21932: jump @787 if a0 != 0\n      : @786 (gas: 1)\n 21935: jump @911\n      : @787 (gas: 13)\n 21938: a0 = u64 [s1 + 0xc0]\n 21942: a1 = a0 & 0xffffffffffffffff\n 21945: a0 = u64 [s1 + 0x158]\n 21949: i32 a0 = a0 + 0xa0\n 21953: a2 = s1 + 0x7ff\n 21957: a2 = a2 + 0xf9\n 21961: u64 [a2 + 1504] = 0\n 21965: u64 [a2 + 1496] = 0\n 21969: u64 [a2 + 0x5c8] = a1\n 21973: a1 = s1 + 0x7ff\n 21977: a1 = a1 + 0x6c1\n 21981: u64 [a2 + 1488] = 0\n 21985: ra = 796, jump @19\n      : @788 [@dyn 398] (gas: 4)\n 21991: a2 = s1 + 0x100\n 21995: a0 = u64 [a2 + 0x40]\n 21998: a0 = a0 + 0xffffffffffffff40\n 22002: t0 = 798, jump @1308\n      : @789 [@dyn 399] (gas: 1)\n 22008: jump @791 if a0 != 0\n      : @790 (gas: 1)\n 22011: jump @911\n      : @791 (gas: 14)\n 22014: a1 = u64 [s1 + 0xb8]\n 22018: a0 = a1 & 0xff\n 22022: a1 = a0 >u 0\n 22024: a0 = u64 [s1 + 0x158]\n 22028: i32 a0 = a0 + 0xc0\n 22032: a2 = s1 + 0x7ff\n 22036: a2 = a2 + 0xf9\n 22040: u64 [a2 + 1472] = 0\n 22044: u64 [a2 + 1464] = 0\n 22048: u64 [a2 + 0x5a8] = a1\n 22052: a1 = s1 + 0x7ff\n 22056: a1 = a1 + 0x6a1\n 22060: u64 [a2 + 1456] = 0\n 22064: ra = 800, jump @19\n      : @792 [@dyn 400] (gas: 3)\n 22070: a1 = u64 [s1 + 0x110]\n 22074: a0 = a1 + 0x3\n 22077: t0 = 802, jump @1320\n      : @793 [@dyn 401] (gas: 8)\n 22083: u64 [a5 + 0x78] = a3\n 22086: u64 [a5 + 0x70] = a2\n 22089: u64 [a5 + 0x68] = a0\n 22092: u64 [a5 + 0x80] = a1\n 22096: a0 = s1 + 0x7ff\n 22100: a0 = a0 + 0x681\n 22104: a1 = s1 + 0x3060\n 22108: ra = 804, jump @21\n      : @794 [@dyn 402] (gas: 4)\n 22114: a2 = s1 + 0x100\n 22118: a0 = u64 [a2 + 0x40]\n 22121: a0 = a0 + 0xffffffffffffff20\n 22125: t0 = 806, jump @1308\n      : @795 [@dyn 403] (gas: 1)\n 22131: jump @797 if a0 != 0\n      : @796 (gas: 1)\n 22134: jump @911\n      : @797 (gas: 13)\n 22137: a2 = s1 + 0x7ff\n 22141: a2 = a2 + 0xf9\n 22145: a0 = u64 [a2 + 0x588]\n 22149: a1 = a0 & 0xffffffffffffffff\n 22152: a0 = u64 [s1 + 0x158]\n 22156: i32 a0 = a0 + 0xe0\n 22160: u64 [a2 + 1408] = 0\n 22164: u64 [a2 + 1400] = 0\n 22168: u64 [a2 + 0x568] = a1\n 22172: a1 = s1 + 0x7ff\n 22176: a1 = a1 + 0x661\n 22180: u64 [a2 + 1392] = 0\n 22184: ra = 808, jump @19\n      : @798 [@dyn 404] (gas: 26)\n 22190: a0 = u64 [s1 + 0xf8]\n 22194: a3 = s1 + 0x7ff\n 22198: a3 = a3 + 0xf9\n 22202: a5 = a3 + 0x500\n 22206: u64 [a5 + 0x20] = a0\n 22209: a0 = u64 [s1 + 0xf0]\n 22213: u64 [a5 + 0x18] = a0\n 22216: a0 = u64 [s1 + 0x100]\n 22220: u64 [a5 + 0x10] = a0\n 22223: a0 = u64 [s1 + 0x108]\n 22227: u64 [a5 + 0x8] = a0\n 22230: a0 = u64 [s1 + 0xe0]\n 22234: u64 [a5 + 0x40] = a0\n 22237: a0 = u64 [s1 + 0xd8]\n 22241: u64 [a5 + 0x38] = a0\n 22244: a0 = u64 [s1 + 0xd0]\n 22248: u64 [a5 + 0x30] = a0\n 22251: a0 = s1 + 0x7ff\n 22255: a0 = a0 + 0x641\n 22259: a1 = s1 + 0x7ff\n 22263: a1 = a1 + 0x621\n 22267: a2 = s1 + 0x7ff\n 22271: a2 = a2 + 0x601\n 22275: a4 = u64 [s1 + 0xe8]\n 22279: u64 [a5 + 0x28] = a4\n 22282: ra = 810, jump @1286\n      : @799 [@dyn 405] (gas: 15)\n 22288: a4 = s1 + 0x7ff\n 22292: a4 = a4 + 0xf9\n 22296: a5 = a4 + 0x500\n 22300: a1 = u64 [a5 + 0x60]\n 22303: a2 = u64 [a5 + 0x58]\n 22306: a3 = u64 [a5 + 0x50]\n 22309: a0 = u64 [a5 + 0x48]\n 22312: a1 = a1 | a3\n 22315: a3 = a0 | a2\n 22318: a3 = a3 | a1\n 22321: a3 = a3 >> 0x20\n 22324: a1 = a1 | a2\n 22327: a1 = a1 << 0x20\n 22330: a1 = a1 | a3\n 22333: jump @801 if a1 == 0\n      : @800 (gas: 1)\n 22336: jump @911\n      : @801 (gas: 12)\n 22339: a1 = u64 [s1 + 0x158]\n 22343: a2 = a4 + 0x400\n 22347: u64 [a2 + 0xe8] = a1\n 22351: a1 = u64 [s1 + 0x150]\n 22355: u64 [a2 + 0xf0] = a1\n 22359: a1 = u64 [s1 + 0x130]\n 22363: u64 [a2 + 0xf8] = a1\n 22367: a1 = s1 + 0x7ff\n 22371: a1 = a1 + 0x5e1\n 22375: a3 = u64 [s1 + 0x138]\n 22379: u64 [a4 + 0x500] = a3\n 22383: ra = 812, jump @19\n      : @802 [@dyn 406] (gas: 27)\n 22389: a0 = u64 [s1 + 0xf8]\n 22393: a1 = s1 + 0x7ff\n 22397: a1 = a1 + 0xf9\n 22401: a2 = a1 + 0x400\n 22405: u64 [a2 + 0xa0] = a0\n 22409: a0 = u64 [s1 + 0xf0]\n 22413: u64 [a2 + 0x98] = a0\n 22417: a0 = u64 [s1 + 0x100]\n 22421: u64 [a2 + 0x90] = a0\n 22425: a0 = u64 [s1 + 0x108]\n 22429: u64 [a2 + 0x88] = a0\n 22433: a0 = u64 [s1 + 0xe0]\n 22437: u64 [a2 + 0xc0] = a0\n 22441: a0 = u64 [s1 + 0xd8]\n 22445: u64 [a2 + 0xb8] = a0\n 22449: a0 = u64 [s1 + 0xd0]\n 22453: u64 [a2 + 0xb0] = a0\n 22457: a4 = a1\n 22459: a0 = s1 + 0x7ff\n 22463: a0 = a0 + 0x5c1\n 22467: a1 = s1 + 0x7ff\n 22471: a1 = a1 + 0x5a1\n 22475: a2 = s1 + 0x7ff\n 22479: a2 = a2 + 0x581\n 22483: a3 = u64 [s1 + 0xe8]\n 22487: u64 [a4 + 0x4a8] = a3\n 22491: ra = 814, jump @1286\n      : @803 [@dyn 407] (gas: 14)\n 22497: t0 = u64 [s1 + 0x108]\n 22501: t0 = t0 + 0x1\n 22504: a0 = t0 <u 0x1\n 22507: t2 = u64 [s1 + 0x100]\n 22511: t2 = t2 + a0\n 22514: a0 = t0 | t2\n 22517: a0 = a0 <u 0x1\n 22520: a1 = u64 [s1 + 0xf0]\n 22524: a0 = a0 + a1\n 22527: a1 = a0 <u a1\n 22530: a4 = u64 [s1 + 0xf8]\n 22534: a4 = a4 + a1\n 22537: a5 = a0\n 22539: jump @746\n      : @804 (gas: 3)\n 22542: a0 = s1 + 0x1ca0\n 22546: a1 = 0x40\n 22549: ra = 816, jump @17\n      : @805 [@dyn 408] (gas: 2)\n 22555: a2 = s1 + 0x18f8\n 22559: fallthrough\n      : @806 (gas: 13)\n 22560: t0 = u64 [a2 + 0x3c0]\n 22564: a1 = a2 + 0x300\n 22568: a5 = u64 [a1 + 0xb8]\n 22572: a4 = u64 [a1 + 0xb0]\n 22576: a0 = u64 [a1 + 0xa8]\n 22580: a3 = a4 | t0\n 22583: a1 = a0 | a5\n 22586: a1 = a1 | a3\n 22589: a1 = a1 >> 0x20\n 22592: a3 = a3 | a5\n 22595: a3 = a3 << 0x20\n 22598: a1 = a1 | a3\n 22601: jump @911 if a1 != 0\n      : @807 (gas: 11)\n 22605: u64 [a2 + 920] = 0\n 22609: u64 [a2 + 912] = 0\n 22613: u64 [a2 + 904] = 0\n 22617: a3 = 0x8c379a000000000\n 22627: a1 = s1 + 0x1c80\n 22631: u64 [a2 + 0x3a0] = a3\n 22635: u64 [s1 + 0x158] = a0\n 22639: u64 [s1 + 0x150] = a4\n 22643: u64 [s1 + 0x140] = t0\n 22647: u64 [s1 + 0x148] = a5\n 22651: ra = 818, jump @19\n      : @808 [@dyn 409] (gas: 1)\n 22657: t0 = 820, jump @1302\n      : @809 [@dyn 410] (gas: 1)\n 22663: jump @911 if a0 == 0\n      : @810 (gas: 1)\n 22667: t0 = 822, jump @1352\n      : @811 [@dyn 411] (gas: 8)\n 22673: u64 [a2 + 896] = 0\n 22677: u64 [a2 + 888] = 0\n 22681: u64 [a2 + 872] = 0x20\n 22686: a1 = s1 + 0x1c60\n 22690: u64 [a2 + 880] = 0\n 22694: u64 [s1 + 0x148] = a3\n 22698: u64 [s1 + 0x140] = a4\n 22702: ra = 824, jump @19\n      : @812 [@dyn 412] (gas: 1)\n 22708: t0 = 826, jump @1301\n      : @813 [@dyn 413] (gas: 1)\n 22714: jump @911 if a0 == 0\n      : @814 (gas: 1)\n 22718: t0 = 828, jump @1351\n      : @815 [@dyn 414] (gas: 6)\n 22724: u64 [a3 + 864] = 0\n 22728: u64 [a3 + 856] = 0\n 22732: u64 [a3 + 840] = 0xd\n 22737: a1 = s1 + 0x1c40\n 22741: u64 [a3 + 848] = 0\n 22745: ra = 830, jump @19\n      : @816 [@dyn 415] (gas: 1)\n 22751: t0 = 832, jump @1305\n      : @817 [@dyn 416] (gas: 1)\n 22757: jump @911 if a0 == 0\n      : @818 (gas: 11)\n 22761: i32 a0 = a2 + 0x44\n 22764: a1 = u64 [0x20040]\n 22769: a3 = s1 + 0x18f8\n 22773: u64 [a3 + 816] = 0\n 22777: u64 [a3 + 0x340] = a1\n 22781: a1 = 0x766f746564000000\n 22791: u64 [a3 + 0x338] = a1\n 22795: a1 = s1 + 0x1c20\n 22799: u64 [a3 + 808] = 0\n 22803: ra = 0x388\n 22807: jump @19\n      : @819 (gas: 3)\n 22810: a0 = s1 + 0x1b20\n 22814: a1 = 0x40\n 22817: ra = 834, jump @17\n      : @820 [@dyn 417] (gas: 2)\n 22823: a2 = s1 + 0x18f8\n 22827: fallthrough\n      : @821 (gas: 13)\n 22828: t0 = u64 [a2 + 0x240]\n 22832: a1 = a2 + 0x200\n 22836: a5 = u64 [a1 + 0x38]\n 22839: a4 = u64 [a1 + 0x30]\n 22842: a0 = u64 [a1 + 0x28]\n 22845: a3 = a4 | t0\n 22848: a1 = a0 | a5\n 22851: a1 = a1 | a3\n 22854: a1 = a1 >> 0x20\n 22857: a3 = a3 | a5\n 22860: a3 = a3 << 0x20\n 22863: a1 = a1 | a3\n 22866: jump @911 if a1 != 0\n      : @822 (gas: 11)\n 22870: u64 [a2 + 536] = 0\n 22874: u64 [a2 + 528] = 0\n 22878: u64 [a2 + 520] = 0\n 22882: a3 = 0x8c379a000000000\n 22892: a1 = s1 + 0x1b00\n 22896: u64 [a2 + 0x220] = a3\n 22900: u64 [s1 + 0x158] = a0\n 22904: u64 [s1 + 0x150] = a4\n 22908: u64 [s1 + 0x140] = t0\n 22912: u64 [s1 + 0x148] = a5\n 22916: ra = 836, jump @19\n      : @823 [@dyn 418] (gas: 1)\n 22922: t0 = 838, jump @1302\n      : @824 [@dyn 419] (gas: 1)\n 22928: jump @911 if a0 == 0\n      : @825 (gas: 1)\n 22932: t0 = 840, jump @1352\n      : @826 [@dyn 420] (gas: 8)\n 22938: u64 [a2 + 512] = 0\n 22942: u64 [a2 + 504] = 0\n 22946: u64 [a2 + 488] = 0x20\n 22951: a1 = s1 + 0x1ae0\n 22955: u64 [a2 + 496] = 0\n 22959: u64 [s1 + 0x148] = a3\n 22963: u64 [s1 + 0x140] = a4\n 22967: ra = 842, jump @19\n      : @827 [@dyn 421] (gas: 1)\n 22973: t0 = 844, jump @1301\n      : @828 [@dyn 422] (gas: 1)\n 22979: jump @911 if a0 == 0\n      : @829 (gas: 1)\n 22983: t0 = 846, jump @1351\n      : @830 [@dyn 423] (gas: 6)\n 22989: u64 [a3 + 480] = 0\n 22993: u64 [a3 + 472] = 0\n 22997: u64 [a3 + 456] = 0xc\n 23002: a1 = s1 + 0x1ac0\n 23006: u64 [a3 + 464] = 0\n 23010: ra = 848, jump @19\n      : @831 [@dyn 424] (gas: 1)\n 23016: t0 = 850, jump @1305\n      : @832 [@dyn 425] (gas: 1)\n 23022: jump @911 if a0 == 0\n      : @833 (gas: 11)\n 23026: i32 a0 = a2 + 0x44\n 23029: a1 = u64 [0x20048]\n 23034: a3 = s1 + 0x18f8\n 23038: u64 [a3 + 432] = 0\n 23042: u64 [a3 + 0x1c0] = a1\n 23046: a1 = 0x6e64656400000000\n 23056: u64 [a3 + 0x1b8] = a1\n 23060: a1 = s1 + 0x1aa0\n 23064: u64 [a3 + 424] = 0\n 23068: ra = 0x388\n 23072: jump @19\n      : @834 (gas: 7)\n 23075: a0 = a0 | a3\n 23078: a0 = a0 >> 0x20\n 23081: t1 = a1\n 23083: a1 = a1 | a3\n 23086: a1 = a1 << 0x20\n 23089: a0 = a0 | a1\n 23092: jump @911 if a0 != 0\n      : @835 (gas: 19)\n 23096: a0 = a2 + 0x20\n 23099: u64 [s1 + 0x138] = a0\n 23103: t0 = a0 <u a2\n 23106: a0 = a4 + t0\n 23109: u64 [s1 + 0x140] = a0\n 23113: a1 = a0 <u a4\n 23116: a1 = t0 if t0 == 0\n 23119: a1 = a1 + t1\n 23122: u64 [s1 + 0x128] = a1\n 23126: a0 = a1 <u t1\n 23129: a0 = a0 + t2\n 23132: u64 [s1 + 0x130] = a0\n 23136: u64 [s1 + 1464] = 0\n 23140: u64 [s1 + 1456] = 0\n 23144: u64 [s1 + 1448] = 0\n 23148: a1 = s1 + 0x5a0\n 23152: u64 [s1 + 1440] = 0x20\n 23157: a0 = a2\n 23159: ra = 852, jump @19\n      : @836 [@dyn 426] (gas: 3)\n 23165: a0 = s1 + 0x580\n 23169: a1 = u64 [s1 + 0x60]\n 23172: ra = 854, jump @17\n      : @837 [@dyn 427] (gas: 13)\n 23178: a5 = s1 + 0x100\n 23182: a0 = u64 [a5 + 0x38]\n 23185: a3 = u64 [a5 + 0x28]\n 23188: a2 = a0 | a3\n 23191: a1 = u64 [a5 + 0x40]\n 23194: a4 = u64 [a5 + 0x30]\n 23197: a1 = a1 | a4\n 23200: a2 = a2 | a1\n 23203: a2 = a2 >> 0x20\n 23206: a1 = a1 | a3\n 23209: a1 = a1 << 0x20\n 23212: a1 = a1 | a2\n 23215: jump @911 if a1 != 0\n      : @838 (gas: 15)\n 23219: a5 = s1 + 0x500\n 23223: a4 = u64 [a5 + 0x98]\n 23227: a1 = u64 [a5 + 0x90]\n 23231: a2 = u64 [a5 + 0x88]\n 23235: a3 = u64 [a5 + 0x80]\n 23239: u64 [s1 + 0xa0] = a3\n 23243: u64 [a5 + 0x60] = a3\n 23246: u64 [s1 + 0xa8] = a2\n 23250: u64 [a5 + 0x68] = a2\n 23253: u64 [s1 + 0xb8] = a1\n 23257: u64 [a5 + 0x70] = a1\n 23260: a1 = s1 + 0x560\n 23264: u64 [s1 + 0xc0] = a4\n 23268: u64 [a5 + 0x78] = a4\n 23271: ra = 856, jump @19\n      : @839 [@dyn 428] (gas: 28)\n 23277: t0 = 0\n 23279: a4 = 0\n 23281: ra = 0\n 23283: t2 = 0\n 23285: a3 = s1 + 0x100\n 23289: a1 = u64 [a3 + 0x58]\n 23292: a0 = a1 + 0x40\n 23295: u64 [a3 + 0x40] = a0\n 23298: a0 = a0 <u a1\n 23301: a2 = u64 [a3 + 0x50]\n 23304: a1 = a2 + a0\n 23307: u64 [a3 + 0x38] = a1\n 23310: a1 = a1 <u a2\n 23313: a1 = a0 if a0 == 0\n 23316: a0 = u64 [a3 + 0x48]\n 23319: a1 = a1 + a0\n 23322: u64 [a3 + 0x18] = a1\n 23325: a0 = a1 <u a0\n 23328: a1 = u64 [a3 + 0x10]\n 23331: a0 = a0 + a1\n 23334: u64 [a3 + 0x20] = a0\n 23337: a0 = 0x100000000\n 23347: u64 [s1 + 0xf8] = a0\n 23351: a0 = 0xffffffe0\n 23361: u64 [s1 + 0xf0] = a0\n 23365: a1 = u64 [s1 + 0x70]\n 23368: t1 = u64 [s1 + 0x68]\n 23371: fallthrough\n      : @840 (gas: 17)\n 23372: a0 = u64 [s1 + 0xa0]\n 23376: a0 = t0 <u a0\n 23379: a2 = u64 [s1 + 0xa8]\n 23383: a3 = a4 ^ a2\n 23386: u64 [s1 + 0xe8] = a4\n 23390: a2 = a4 <u a2\n 23393: a2 = a0 if a3 == 0\n 23396: a5 = u64 [s1 + 0xb8]\n 23400: a0 = ra <u a5\n 23403: a3 = u64 [s1 + 0xc0]\n 23407: a4 = t2 ^ a3\n 23410: a3 = t2 <u a3\n 23413: a3 = a0 if a4 == 0\n 23416: a0 = ra ^ a5\n 23419: a0 = a0 | a4\n 23422: a3 = a2 if a0 == 0\n 23425: jump @909 if a3 == 0\n      : @841 (gas: 10)\n 23429: a0 = a1 | t1\n 23432: a2 = u64 [s1 + 0x78]\n 23435: a3 = u64 [s1 + 0x80]\n 23439: a2 = a2 | a3\n 23442: a0 = a0 | a2\n 23445: a0 = a0 >> 0x20\n 23448: a2 = a2 | t1\n 23451: a2 = a2 << 0x20\n 23454: a0 = a0 | a2\n 23457: jump @911 if a0 != 0\n      : @842 (gas: 7)\n 23461: u64 [s1 + 0xc8] = ra\n 23465: u64 [s1 + 0xd0] = t2\n 23469: u64 [s1 + 0xd8] = t0\n 23473: u64 [s1 + 0x68] = t1\n 23476: a0 = s1 + 0x540\n 23480: u64 [s1 + 0x70] = a1\n 23483: ra = 858, jump @17\n      : @843 [@dyn 429] (gas: 14)\n 23489: a2 = s1 + 0x500\n 23493: a3 = u64 [a2 + 0x58]\n 23496: a4 = u64 [a2 + 0x50]\n 23499: a0 = u64 [a2 + 0x48]\n 23502: a1 = u64 [a2 + 0x40]\n 23505: u64 [s1 + 0x130] = a0\n 23509: a0 = a0 | a3\n 23512: a2 = a1 | a4\n 23515: a2 = a2 | a0\n 23518: a2 = a2 >> 0x20\n 23521: a0 = a0 | a4\n 23524: a0 = a0 << 0x20\n 23527: a0 = a0 | a2\n 23530: jump @911 if a0 != 0\n      : @844 (gas: 5)\n 23534: u64 [s1 + 0x100] = a4\n 23538: u64 [s1 + 0x108] = a3\n 23542: a0 = s1 + 0x520\n 23546: u64 [s1 + 0x128] = a1\n 23550: ra = 860, jump @17\n      : @845 [@dyn 430] (gas: 13)\n 23556: a5 = s1 + 0x100\n 23560: a0 = u64 [a5 + 0x40]\n 23563: a4 = u64 [a5 + 0x18]\n 23566: a2 = a0 | a4\n 23569: a1 = u64 [a5 + 0x20]\n 23572: a3 = u64 [a5 + 0x38]\n 23575: a1 = a1 | a3\n 23578: a2 = a2 | a1\n 23581: a2 = a2 >> 0x20\n 23584: a1 = a1 | a4\n 23587: a1 = a1 << 0x20\n 23590: a1 = a1 | a2\n 23593: jump @911 if a1 != 0\n      : @846 (gas: 15)\n 23597: a5 = s1 + 0x500\n 23601: a4 = u64 [a5 + 0x30]\n 23604: a1 = u64 [a5 + 0x28]\n 23607: a2 = u64 [a5 + 0x20]\n 23610: a3 = u64 [s1 + 0xb0]\n 23614: a4 = a4 & a3\n 23617: a1 = a1 & 0xffffffffffffffff\n 23620: a2 = a2 & 0xffffffffffffffff\n 23623: u64 [s1 + 1304] = 0\n 23627: u64 [a5] = a2\n 23629: u64 [a5 + 0x8] = a1\n 23632: a1 = s1 + 0x500\n 23636: u64 [a5 + 0x10] = a4\n 23639: u64 [s1 + 0x140] = a0\n 23643: ra = 862, jump @19\n      : @847 [@dyn 431] (gas: 12)\n 23649: a4 = s1 + 0x100\n 23653: a0 = u64 [a4 + 0x8]\n 23656: a3 = u64 [a4]\n 23658: a3 = a3 | a0\n 23661: a0 = u64 [s1 + 0xf0]\n 23665: a1 = u64 [a4 + 0x28]\n 23668: a0 = a1 <u a0\n 23671: a2 = u64 [a4 + 0x30]\n 23674: a0 = 0 if a2 != 0\n 23676: u64 [a4 + 0x8] = a3\n 23679: a0 = 0 if a3 != 0\n 23681: jump @911 if a0 == 0\n      : @848 (gas: 3)\n 23685: i32 a1 = a1 + 0x20\n 23688: a0 = s1 + 0x4e0\n 23692: ra = 864, jump @17\n      : @849 [@dyn 432] (gas: 12)\n 23698: a4 = s1 + 0x100\n 23702: a0 = u64 [a4 + 0x20]\n 23705: a1 = u64 [a4 + 0x18]\n 23708: a2 = a1 | a0\n 23711: a0 = u64 [s1 + 0xf0]\n 23715: a3 = u64 [a4 + 0x40]\n 23718: a0 = a3 <u a0\n 23721: a1 = u64 [a4 + 0x38]\n 23724: a0 = 0 if a1 != 0\n 23726: u64 [a4] = a2\n 23728: a0 = 0 if a2 != 0\n 23730: jump @911 if a0 == 0\n      : @850 (gas: 9)\n 23734: a0 = u64 [s1 + 0x4e0]\n 23738: a1 = a0 & 0xffffffffffffffff\n 23741: i32 a0 = a3 + 0x20\n 23744: u64 [s1 + 1240] = 0\n 23748: u64 [s1 + 1232] = 0\n 23752: u64 [s1 + 0x4c0] = a1\n 23756: a1 = s1 + 0x4c0\n 23760: u64 [s1 + 1224] = 0\n 23764: ra = 866, jump @19\n      : @851 [@dyn 433] (gas: 3)\n 23770: a0 = u64 [s1 + 0xf8]\n 23774: a3 = a0 + 0xffffffffffffffc0\n 23777: t0 = 868, jump @1327\n      : @852 [@dyn 434] (gas: 1)\n 23783: jump @911 if a0 == 0\n      : @853 (gas: 4)\n 23787: i32 a1 = a1 + 0x40\n 23790: a0 = s1 + 0x4a0\n 23794: u64 [s1 + 0xe0] = a3\n 23798: ra = 870, jump @17\n      : @854 [@dyn 435] (gas: 1)\n 23804: t0 = 872, jump @1336\n      : @855 [@dyn 436] (gas: 1)\n 23810: jump @911 if a0 == 0\n      : @856 (gas: 9)\n 23814: a0 = u64 [s1 + 0x4a0]\n 23818: a1 = a0 & 0xffffffffffffffff\n 23821: i32 a0 = a2 + 0x40\n 23824: u64 [s1 + 1176] = 0\n 23828: u64 [s1 + 1168] = 0\n 23832: u64 [s1 + 0x480] = a1\n 23836: a1 = s1 + 0x480\n 23840: u64 [s1 + 1160] = 0\n 23844: ra = 874, jump @19\n      : @857 [@dyn 437] (gas: 3)\n 23850: a0 = u64 [s1 + 0xf8]\n 23854: a3 = a0 + 0xffffffffffffffa0\n 23857: t0 = 876, jump @1327\n      : @858 [@dyn 438] (gas: 1)\n 23863: jump @911 if a0 == 0\n      : @859 (gas: 4)\n 23867: i32 a1 = a1 + 0x60\n 23870: a0 = s1 + 0x460\n 23874: u64 [s1 + 0xe0] = a3\n 23878: ra = 878, jump @17\n      : @860 [@dyn 439] (gas: 1)\n 23884: t0 = 880, jump @1336\n      : @861 [@dyn 440] (gas: 1)\n 23890: jump @911 if a0 == 0\n      : @862 (gas: 9)\n 23894: a0 = u64 [s1 + 0x460]\n 23898: a1 = a0 & 0xffffffffffffffff\n 23901: i32 a0 = a2 + 0x60\n 23904: u64 [s1 + 1112] = 0\n 23908: u64 [s1 + 1104] = 0\n 23912: u64 [s1 + 0x440] = a1\n 23916: a1 = s1 + 0x440\n 23920: u64 [s1 + 1096] = 0\n 23924: ra = 882, jump @19\n      : @863 [@dyn 441] (gas: 3)\n 23930: a0 = u64 [s1 + 0xf8]\n 23934: a3 = a0 + 0xffffffffffffff80\n 23937: t0 = 884, jump @1327\n      : @864 [@dyn 442] (gas: 1)\n 23943: jump @911 if a0 == 0\n      : @865 (gas: 4)\n 23947: i32 a1 = a1 + 0x80\n 23951: a0 = s1 + 0x420\n 23955: u64 [s1 + 0x130] = a3\n 23959: ra = 886, jump @17\n      : @866 [@dyn 443] (gas: 9)\n 23965: a2 = s1 + 0x100\n 23969: a4 = u64 [a2 + 0x40]\n 23972: a0 = u64 [a2 + 0x30]\n 23975: a0 = a4 <u a0\n 23978: a5 = u64 [a2 + 0x38]\n 23981: a0 = 0 if a5 != 0\n 23983: a1 = u64 [a2]\n 23985: a0 = 0 if a1 != 0\n 23987: jump @911 if a0 == 0\n      : @867 (gas: 16)\n 23991: a0 = u64 [s1 + 0x438]\n 23995: a1 = u64 [s1 + 0x430]\n 23999: a2 = u64 [s1 + 0x420]\n 24003: a3 = u64 [s1 + 0x428]\n 24007: a1 = a1 | a2\n 24010: a0 = a0 | a3\n 24013: a0 = a0 | a1\n 24016: a1 = a0 >u 0\n 24018: i32 a0 = a4 + 0x80\n 24022: u64 [s1 + 1048] = 0\n 24026: u64 [s1 + 1040] = 0\n 24030: u64 [s1 + 0x400] = a1\n 24034: a1 = s1 + 0x400\n 24038: u64 [s1 + 1032] = 0\n 24042: u64 [s1 + 0x138] = a5\n 24046: ra = 888, jump @19\n      : @868 [@dyn 444] (gas: 51)\n 24052: a1 = u64 [s1 + 0x140]\n 24056: a0 = a1 + 0xa0\n 24060: u64 [s1 + 0x130] = a0\n 24064: a2 = a0 <u a1\n 24067: a0 = u64 [s1 + 0x138]\n 24071: t1 = a0 + a2\n 24074: a3 = t1 <u a0\n 24077: a3 = a2 if a2 == 0\n 24080: a0 = u64 [s1 + 0x118]\n 24084: a2 = a0 + a3\n 24087: a3 = a2 <u a0\n 24090: a0 = u64 [s1 + 0x120]\n 24094: a0 = a0 + a3\n 24097: u64 [s1 + 0x120] = a0\n 24101: a0 = u64 [s1 + 0x70]\n 24104: a3 = a0 + 0x20\n 24107: a4 = a3 <u a0\n 24110: a0 = u64 [s1 + 0x80]\n 24114: a5 = a0 + a4\n 24117: a0 = a5 <u a0\n 24120: a0 = a4 if a4 == 0\n 24123: a1 = u64 [s1 + 0x68]\n 24126: a0 = a0 + a1\n 24129: a4 = a0 <u a1\n 24132: a1 = u64 [s1 + 0x78]\n 24135: a1 = a1 + a4\n 24138: u64 [s1 + 0x78] = a1\n 24141: t0 = u64 [s1 + 0xd8]\n 24145: t0 = t0 + 0x1\n 24148: a4 = t0 <u 0x1\n 24151: t2 = u64 [s1 + 0xe8]\n 24155: t2 = t2 + a4\n 24158: a4 = t0 | t2\n 24161: a4 = a4 <u 0x1\n 24164: a1 = u64 [s1 + 0xc8]\n 24168: a4 = a4 + a1\n 24171: a1 = a4 <u a1\n 24174: ra = u64 [s1 + 0xd0]\n 24178: ra = ra + a1\n 24181: a1 = u64 [s1 + 0x130]\n 24185: u64 [s1 + 0x140] = a1\n 24189: u64 [s1 + 0x138] = t1\n 24193: u64 [s1 + 0x118] = a2\n 24197: a1 = a3\n 24199: u64 [s1 + 0x80] = a5\n 24203: t1 = a0\n 24205: a0 = a4\n 24207: a4 = t2\n 24209: t2 = ra\n 24211: ra = a0\n 24213: jump @840\n      : @869 (gas: 3)\n 24216: a0 = s1 + 0x2920\n 24220: a1 = 0x40\n 24223: ra = 890, jump @17\n      : @870 [@dyn 445] (gas: 13)\n 24229: a2 = s1 + 0x28f8\n 24233: t0 = u64 [a2 + 0x40]\n 24236: a5 = u64 [a2 + 0x38]\n 24239: a4 = u64 [a2 + 0x30]\n 24242: a0 = u64 [a2 + 0x28]\n 24245: a3 = a4 | t0\n 24248: a1 = a0 | a5\n 24251: a1 = a1 | a3\n 24254: a1 = a1 >> 0x20\n 24257: a3 = a3 | a5\n 24260: a3 = a3 << 0x20\n 24263: a1 = a1 | a3\n 24266: jump @911 if a1 != 0\n      : @871 (gas: 11)\n 24270: u64 [a2 + 24] = 0\n 24273: u64 [a2 + 16] = 0\n 24276: u64 [a2 + 8] = 0\n 24279: a3 = 0x8c379a000000000\n 24289: a1 = s1 + 0x2900\n 24293: u64 [a2 + 0x20] = a3\n 24296: u64 [s1 + 0x158] = a0\n 24300: u64 [s1 + 0x150] = a4\n 24304: u64 [s1 + 0x140] = t0\n 24308: u64 [s1 + 0x148] = a5\n 24312: ra = 892, jump @19\n      : @872 [@dyn 446] (gas: 1)\n 24318: t0 = 894, jump @1302\n      : @873 [@dyn 447] (gas: 1)\n 24324: jump @911 if a0 == 0\n      : @874 (gas: 10)\n 24328: i32 a0 = a1 + 0x4\n 24331: a2 = s1 + 0x28f8\n 24335: u64 [a2 + 0] = 0\n 24337: u64 [a2 + 4294967288] = 0\n 24340: u64 [a2 + 4294967272] = 0x20\n 24344: a1 = s1 + 0x28e0\n 24348: u64 [a2 + 4294967280] = 0\n 24351: u64 [s1 + 0x148] = a3\n 24355: u64 [s1 + 0x140] = a4\n 24359: ra = 896, jump @19\n      : @875 [@dyn 448] (gas: 1)\n 24365: t0 = 898, jump @1301\n      : @876 [@dyn 449] (gas: 1)\n 24371: jump @911 if a0 == 0\n      : @877 (gas: 8)\n 24375: i32 a0 = a1 + 0x24\n 24378: a4 = s1 + 0x20f8\n 24382: u64 [a4 + 2016] = 0\n 24386: u64 [a4 + 2008] = 0\n 24390: u64 [a4 + 1992] = 0xf\n 24395: a1 = s1 + 0x28c0\n 24399: u64 [a4 + 2000] = 0\n 24403: ra = 900, jump @19\n      : @878 [@dyn 450] (gas: 1)\n 24409: t0 = 902, jump @1331\n      : @879 [@dyn 451] (gas: 1)\n 24415: jump @911 if a0 == 0\n      : @880 (gas: 10)\n 24419: i32 a0 = a3 + 0x44\n 24422: a1 = u64 [0x20000]\n 24427: a2 = u64 [0x20008]\n 24432: a4 = s1 + 0x20f8\n 24436: u64 [a4 + 0x7c0] = a1\n 24440: u64 [a4 + 1968] = 0\n 24444: u64 [a4 + 0x7b8] = a2\n 24448: a1 = s1 + 0x28a0\n 24452: u64 [a4 + 1960] = 0\n 24456: ra = 904, jump @19\n      : @881 [@dyn 452] (gas: 3)\n 24462: a1 = 0x64\n 24465: a0 = u64 [s1 + 0x158]\n 24469: ra = 906, jump @27\n      : @882 [@dyn 453] (gas: 5)\n 24475: i32 a1 = a0 + 0\n 24477: a0 = 0x1\n 24480: a2 = 0x64\n 24483: ecalli 7 // 'seal_return'\n 24485: fallthrough\n      : @883 (gas: 3)\n 24486: a0 = s1 + 0x1200\n 24490: a1 = 0x40\n 24493: ra = 908, jump @17\n      : @884 [@dyn 454] (gas: 14)\n 24499: a2 = s1 + 0x10f8\n 24503: t0 = u64 [a2 + 0x120]\n 24507: a1 = a2 + 0x100\n 24511: a5 = u64 [a1 + 0x18]\n 24514: a4 = u64 [a1 + 0x10]\n 24517: a0 = u64 [a1 + 0x8]\n 24520: a3 = a4 | t0\n 24523: a1 = a0 | a5\n 24526: a1 = a1 | a3\n 24529: a1 = a1 >> 0x20\n 24532: a3 = a3 | a5\n 24535: a3 = a3 << 0x20\n 24538: a1 = a1 | a3\n 24541: jump @911 if a1 != 0\n      : @885 (gas: 22)\n 24545: a1 = a0 + 0x20\n 24548: u64 [s1 + 0x150] = a1\n 24552: t1 = a1 <u a0\n 24555: a1 = a4 + t1\n 24558: u64 [s1 + 0x158] = a1\n 24562: a1 = a1 <u a4\n 24565: a1 = t1 if t1 == 0\n 24568: a1 = a1 + a5\n 24571: u64 [s1 + 0x140] = a1\n 24575: a1 = a1 <u a5\n 24578: a1 = a1 + t0\n 24581: u64 [s1 + 0x148] = a1\n 24585: u64 [a2 + 256] = 0\n 24589: u64 [a2 + 248] = 0\n 24593: u64 [a2 + 240] = 0\n 24597: a1 = s1 + 0x11e0\n 24601: u64 [a2 + 232] = 0x20\n 24606: u64 [s1 + 0xc0] = a0\n 24610: u64 [s1 + 0xb0] = t0\n 24614: u64 [s1 + 0xa8] = a5\n 24618: u64 [s1 + 0xb8] = a4\n 24622: ra = 910, jump @19\n      : @886 [@dyn 455] (gas: 3)\n 24628: a0 = s1 + 0x11c0\n 24632: a1 = u64 [s1 + 0xe8]\n 24636: ra = 912, jump @17\n      : @887 [@dyn 456] (gas: 13)\n 24642: a5 = s1 + 0x100\n 24646: a0 = u64 [a5 + 0x50]\n 24649: a3 = u64 [a5 + 0x40]\n 24652: a2 = a0 | a3\n 24655: a1 = u64 [a5 + 0x58]\n 24658: a4 = u64 [a5 + 0x48]\n 24661: a1 = a1 | a4\n 24664: a2 = a2 | a1\n 24667: a2 = a2 >> 0x20\n 24670: a1 = a1 | a3\n 24673: a1 = a1 << 0x20\n 24676: a1 = a1 | a2\n 24679: jump @911 if a1 != 0\n      : @888 (gas: 15)\n 24683: a5 = s1 + 0x10f8\n 24687: a4 = u64 [a5 + 0xe0]\n 24691: u64 [s1 + 0x98] = a4\n 24695: a2 = u64 [a5 + 0xd8]\n 24699: u64 [s1 + 0x90] = a2\n 24703: a1 = u64 [a5 + 0xd0]\n 24707: u64 [s1 + 0xa0] = a1\n 24711: a3 = u64 [a5 + 0xc8]\n 24715: u64 [s1 + 0x88] = a3\n 24719: u64 [a5 + 0xa8] = a3\n 24723: u64 [a5 + 0xb0] = a1\n 24727: u64 [a5 + 0xb8] = a2\n 24731: a1 = s1 + 0x11a0\n 24735: u64 [a5 + 0xc0] = a4\n 24739: ra = 914, jump @19\n      : @889 [@dyn 457] (gas: 59)\n 24745: t1 = 0\n 24747: a5 = 0\n 24749: u64 [s1 + 288] = 0\n 24753: ra = 0\n 24755: a0 = u64 [s1 + 0xc0]\n 24759: a3 = a0 + 0x40\n 24762: t2 = a3 <u a0\n 24765: a0 = u64 [s1 + 0xb8]\n 24769: a4 = a0 + t2\n 24772: a1 = u64 [s1 + 0x88]\n 24776: t0 = a1 >> 0x3b\n 24779: a2 = u64 [s1 + 0xa0]\n 24783: a2 = a2 << 0x5\n 24786: t0 = a2 | t0\n 24789: a2 = a1 << 0x5\n 24792: a1 = a4 + t0\n 24795: a2 = a2 + a3\n 24798: u64 [s1 + 0x158] = a3\n 24802: u64 [s1 + 0x150] = a2\n 24806: a2 = a2 <u a3\n 24809: t0 = a1 + a2\n 24812: a1 = t0 ^ a4\n 24815: a3 = t0 <u a4\n 24818: a3 = a2 if a1 == 0\n 24821: u64 [s1 + 0x138] = a4\n 24825: a1 = a4 <u a0\n 24828: a1 = t2 if t2 == 0\n 24831: a4 = u64 [s1 + 0x90]\n 24835: a0 = a4 >> 0x3b\n 24838: a2 = u64 [s1 + 0x98]\n 24842: a2 = a2 << 0x5\n 24845: t2 = a2 | a0\n 24848: a2 = u64 [s1 + 0xa0]\n 24852: a2 = a2 >> 0x3b\n 24855: a4 = a4 << 0x5\n 24858: a2 = a2 | a4\n 24861: u64 [s1 + 0x148] = a2\n 24865: a4 = u64 [s1 + 0x120]\n 24869: a0 = u64 [s1 + 0xa8]\n 24873: a2 = a0 + a1\n 24876: a1 = a2 <u a0\n 24879: a0 = u64 [s1 + 0xb0]\n 24883: a1 = a1 + a0\n 24886: a0 = u64 [s1 + 0x148]\n 24890: a0 = a0 + a2\n 24893: u64 [s1 + 0x130] = a1\n 24897: t2 = t2 + a1\n 24900: u64 [s1 + 0x128] = a2\n 24904: a1 = a0 <u a2\n 24907: a2 = t2 + a1\n 24910: a3 = a3 + a0\n 24913: u64 [s1 + 0x140] = a3\n 24917: a1 = a3 <u a0\n 24920: a1 = a1 + a2\n 24923: u64 [s1 + 0x148] = a1\n 24927: t2 = t0\n 24929: a0 = 0xffffffe0\n 24939: u64 [s1 + 0x80] = a0\n 24943: fallthrough\n      : @890 (gas: 39)\n 24944: t0 = u64 [s1 + 0xc0]\n 24948: a3 = u64 [s1 + 0xb8]\n 24952: a0 = u64 [s1 + 0x88]\n 24956: u64 [s1 + 0x108] = t1\n 24960: a0 = t1 <u a0\n 24963: a2 = u64 [s1 + 0xa0]\n 24967: a1 = a5 ^ a2\n 24970: u64 [s1 + 0x100] = a5\n 24974: a2 = a5 <u a2\n 24977: a2 = a0 if a1 == 0\n 24980: a5 = u64 [s1 + 0x90]\n 24984: t1 = a4 <u a5\n 24987: a0 = a4\n 24989: a4 = u64 [s1 + 0x98]\n 24993: a1 = ra ^ a4\n 24996: u64 [s1 + 0xf8] = ra\n 25000: a4 = ra <u a4\n 25003: a4 = t1 if a1 == 0\n 25006: u64 [s1 + 0x120] = a0\n 25010: a0 = a0 ^ a5\n 25013: a0 = a0 | a1\n 25016: a4 = a2 if a0 == 0\n 25019: a0 = u64 [s1 + 0x150]\n 25023: t1 = a0 <u t0\n 25026: a1 = t2 ^ a3\n 25029: u64 [s1 + 0x110] = a1\n 25033: ra = t2 <u a3\n 25036: a5 = u64 [s1 + 0x140]\n 25040: a1 = u64 [s1 + 0xa8]\n 25044: a2 = a5 - a1\n 25047: a1 = a5 <u a1\n 25050: u64 [s1 + 0x118] = a1\n 25054: a5 = u64 [s1 + 0x148]\n 25058: a1 = u64 [s1 + 0xb0]\n 25062: a1 = a5 - a1\n 25065: u64 [s1 + 0xf0] = t2\n 25069: t2 = t2 - a3\n 25072: a5 = a0 - t0\n 25075: jump @907 if a4 == 0\n      : @891 (gas: 12)\n 25079: t0 = u64 [s1 + 0x128]\n 25083: a0 = u64 [s1 + 0x158]\n 25087: a0 = a0 | t0\n 25090: a3 = u64 [s1 + 0x138]\n 25094: a4 = u64 [s1 + 0x130]\n 25098: a4 = a4 | a3\n 25101: a3 = a0 | a4\n 25104: a3 = a3 >> 0x20\n 25107: a4 = a4 | t0\n 25110: a4 = a4 << 0x20\n 25113: a3 = a3 | a4\n 25116: jump @911 if a3 != 0\n      : @892 (gas: 29)\n 25120: a0 = u64 [s1 + 0x110]\n 25124: ra = t1 if a0 == 0\n 25127: a3 = a2 <u ra\n 25130: a0 = u64 [s1 + 0x118]\n 25134: a4 = a1 - a0\n 25137: a4 = a4 - a3\n 25140: a2 = a2 - ra\n 25143: a0 = t2 - t1\n 25146: a1 = a2 <u 0x1\n 25149: t0 = a4 - a1\n 25152: a1 = a5 + 0xffffffffffffffc0\n 25155: a3 = a1 <u a5\n 25158: a5 = a0 + a3\n 25161: a5 = a5 + 0xffffffffffffffff\n 25164: a4 = a5 ^ a0\n 25167: a0 = a5 <u a0\n 25170: a0 = a3 if a4 == 0\n 25173: a2 = a2 + 0xffffffffffffffff\n 25176: a0 = a0 + a2\n 25179: a2 = a0 <u a2\n 25182: a2 = a2 + t0\n 25185: a3 = s1 + 0x10f8\n 25189: u64 [a3 + 0x88] = a1\n 25193: u64 [a3 + 0x90] = a5\n 25197: u64 [a3 + 0x98] = a0\n 25201: a1 = s1 + 0x1180\n 25205: u64 [a3 + 0xa0] = a2\n 25209: a0 = u64 [s1 + 0x158]\n 25213: ra = 916, jump @19\n      : @893 [@dyn 458] (gas: 10)\n 25219: a2 = u64 [s1 + 0xe0]\n 25223: a3 = u64 [s1 + 0xd8]\n 25227: a0 = a3 | a2\n 25230: a5 = u64 [s1 + 0xe8]\n 25234: a1 = u64 [s1 + 0x80]\n 25238: a1 = a5 <u a1\n 25241: a4 = u64 [s1 + 0xd0]\n 25245: a1 = 0 if a4 != 0\n 25247: a1 = 0 if a0 != 0\n 25249: jump @911 if a1 == 0\n      : @894 (gas: 14)\n 25253: a1 = a5 + 0x20\n 25256: a0 = a1 <u a5\n 25259: u64 [s1 + 0xc8] = a1\n 25263: a5 = a4 + a0\n 25266: u64 [s1 + 0x118] = a5\n 25270: a4 = a5 <u a4\n 25273: a4 = a0 if a0 == 0\n 25276: a4 = a4 + a3\n 25279: u64 [s1 + 0x110] = a4\n 25283: a0 = a4 <u a3\n 25286: a2 = a2 + a0\n 25289: u64 [s1 + 0xe0] = a2\n 25293: a0 = s1 + 0x1160\n 25297: ra = 918, jump @17\n      : @895 [@dyn 459] (gas: 21)\n 25303: a5 = s1 + 0x10f8\n 25307: a3 = u64 [a5 + 0x68]\n 25310: a0 = u64 [a5 + 0x70]\n 25313: a1 = u64 [a5 + 0x78]\n 25316: a2 = u64 [a5 + 0x80]\n 25320: a4 = u64 [s1 + 0x148]\n 25324: u64 [a5 + 0x20] = a4\n 25327: a4 = u64 [s1 + 0x140]\n 25331: u64 [a5 + 0x18] = a4\n 25334: a4 = u64 [s1 + 0xf0]\n 25338: u64 [a5 + 0x10] = a4\n 25341: a4 = u64 [s1 + 0x150]\n 25345: u64 [a5 + 0x8] = a4\n 25348: u64 [a5 + 0x40] = a2\n 25351: u64 [a5 + 0x38] = a1\n 25354: u64 [a5 + 0x30] = a0\n 25357: a0 = s1 + 0x1140\n 25361: a1 = s1 + 0x1120\n 25365: a2 = s1 + 0x1100\n 25369: u64 [a5 + 0x28] = a3\n 25372: ra = 920, jump @1167\n      : @896 [@dyn 460] (gas: 45)\n 25378: t0 = s1 + 0x10f8\n 25382: a0 = u64 [t0 + 0x60]\n 25385: u64 [s1 + 0x148] = a0\n 25389: a1 = u64 [s1 + 0x158]\n 25393: a0 = a1 + 0x20\n 25396: a2 = a0 <u a1\n 25399: a3 = u64 [s1 + 0x138]\n 25403: a1 = a3 + a2\n 25406: a3 = a1 <u a3\n 25409: a3 = a2 if a2 == 0\n 25412: a2 = u64 [t0 + 0x58]\n 25415: u64 [s1 + 0x140] = a2\n 25419: a2 = u64 [s1 + 0x128]\n 25423: a3 = a3 + a2\n 25426: a2 = a3 <u a2\n 25429: a4 = u64 [s1 + 0x130]\n 25433: a4 = a4 + a2\n 25436: u64 [s1 + 0x130] = a4\n 25440: t1 = u64 [s1 + 0x108]\n 25444: t1 = t1 + 0x1\n 25447: a2 = t1 <u 0x1\n 25450: a5 = u64 [s1 + 0x100]\n 25454: a5 = a5 + a2\n 25457: a2 = t1 | a5\n 25460: a2 = a2 <u 0x1\n 25463: t2 = u64 [t0 + 0x50]\n 25466: a4 = u64 [t0 + 0x48]\n 25469: u64 [s1 + 0x150] = a4\n 25473: a4 = u64 [s1 + 0x120]\n 25477: a2 = a2 + a4\n 25480: a4 = a2 <u a4\n 25483: ra = u64 [s1 + 0xf8]\n 25487: ra = ra + a4\n 25490: a4 = u64 [s1 + 0xc8]\n 25494: u64 [s1 + 0xe8] = a4\n 25498: a4 = u64 [s1 + 0x118]\n 25502: u64 [s1 + 0xd0] = a4\n 25506: a4 = u64 [s1 + 0x110]\n 25510: u64 [s1 + 0xd8] = a4\n 25514: a4 = s1 + 0x100\n 25518: u64 [a4 + 0x58] = a0\n 25521: u64 [a4 + 0x38] = a1\n 25524: u64 [a4 + 0x28] = a3\n 25527: a4 = a2\n 25529: jump @890\n      : @897 (gas: 6)\n 25532: a0 = t1 | a5\n 25535: a0 = a0 >> 0x20\n 25538: a1 = a1 | a5\n 25541: a1 = a1 << 0x20\n 25544: a0 = a0 | a1\n 25547: jump @911 if a0 != 0\n      : @898 (gas: 11)\n 25551: u64 [a2 + 1816] = 0\n 25555: u64 [a2 + 1808] = 0\n 25559: u64 [a2 + 1800] = 0\n 25563: a0 = 0x8c379a000000000\n 25573: a1 = s1 + 0x2800\n 25577: u64 [a2 + 0x720] = a0\n 25581: a0 = a3\n 25583: u64 [s1 + 0xf0] = a3\n 25587: u64 [s1 + 0xe8] = t0\n 25591: u64 [s1 + 0xe0] = t2\n 25595: ra = 922, jump @19\n      : @899 [@dyn 461] (gas: 9)\n 25601: a1 = u64 [s1 + 0xf0]\n 25605: a3 = 0x100000000\n 25615: a0 = 0xfffffffc\n 25625: a0 = a1 <u a0\n 25628: a2 = u64 [s1 + 0xe0]\n 25632: a0 = 0 if a2 != 0\n 25634: a2 = u64 [s1 + 0xe8]\n 25638: a0 = 0 if a2 != 0\n 25640: jump @911 if a0 == 0\n      : @900 (gas: 9)\n 25644: i32 a0 = a1 + 0x4\n 25647: a2 = s1 + 0x20f8\n 25651: u64 [a2 + 1792] = 0\n 25655: u64 [a2 + 1784] = 0\n 25659: u64 [a2 + 1768] = 0x20\n 25664: a1 = s1 + 0x27e0\n 25668: u64 [a2 + 1776] = 0\n 25672: u64 [s1 + 0x158] = a3\n 25676: ra = 924, jump @19\n      : @901 [@dyn 462] (gas: 9)\n 25682: a3 = u64 [s1 + 0xe0]\n 25686: a2 = u64 [s1 + 0xe8]\n 25690: a1 = u64 [s1 + 0xf0]\n 25694: a0 = u64 [s1 + 0x158]\n 25698: a0 = a0 + 0xffffffffffffffdc\n 25701: a0 = a1 <u a0\n 25704: a0 = 0 if a3 != 0\n 25706: a0 = 0 if a2 != 0\n 25708: jump @911 if a0 == 0\n      : @902 (gas: 8)\n 25712: i32 a0 = a1 + 0x24\n 25715: a4 = s1 + 0x20f8\n 25719: u64 [a4 + 1760] = 0\n 25723: u64 [a4 + 1752] = 0\n 25727: u64 [a4 + 1736] = 0xf\n 25732: a1 = s1 + 0x27c0\n 25736: u64 [a4 + 1744] = 0\n 25740: ra = 926, jump @19\n      : @903 [@dyn 463] (gas: 3)\n 25746: a3 = u64 [s1 + 0xf0]\n 25750: a0 = 0xffffffbc\n 25760: t0 = 928, jump @1338\n      : @904 [@dyn 464] (gas: 1)\n 25766: jump @911 if a0 == 0\n      : @905 (gas: 10)\n 25770: i32 a0 = a3 + 0x44\n 25773: a1 = u64 [0x20010]\n 25778: a2 = u64 [0x20018]\n 25783: a4 = s1 + 0x20f8\n 25787: u64 [a4 + 0x6c0] = a1\n 25791: u64 [a4 + 1712] = 0\n 25795: u64 [a4 + 0x6b8] = a2\n 25799: a1 = s1 + 0x27a0\n 25803: u64 [a4 + 1704] = 0\n 25807: ra = 930, jump @19\n      : @906 [@dyn 465] (gas: 4)\n 25813: a1 = 0x64\n 25816: a0 = u64 [s1 + 0xf0]\n 25820: ra = 0x38a\n 25824: jump @27\n      : @907 (gas: 18)\n 25827: a3 = u64 [s1 + 0x110]\n 25831: ra = t1 if a3 == 0\n 25834: a3 = a5\n 25836: a5 = a2 <u ra\n 25839: a4 = u64 [s1 + 0x118]\n 25843: a4 = a1 - a4\n 25846: a4 = a4 - a5\n 25849: a1 = a3\n 25851: a2 = a2 - ra\n 25854: a3 = t2 - t1\n 25857: a5 = a1 | a2\n 25860: a3 = a3 | a4\n 25863: a5 = a5 | a3\n 25866: a5 = a5 >> 0x20\n 25869: a2 = a2 | a3\n 25872: a2 = a2 << 0x20\n 25875: a2 = a2 | a5\n 25878: jump @911 if a2 != 0\n      : @908 (gas: 4)\n 25881: a0 = t0\n 25883: u64 [s1 + 0x158] = a1\n 25887: ra = 0x3da\n 25891: jump @27\n      : @909 (gas: 24)\n 25894: a0 = u64 [s1 + 0x158]\n 25898: t2 = u64 [s1 + 0x140]\n 25902: t0 = t2 <u a0\n 25905: a5 = u64 [s1 + 0x150]\n 25909: a1 = u64 [s1 + 0x138]\n 25913: a3 = a1 ^ a5\n 25916: a2 = a1 <u a5\n 25919: a2 = t0 if a3 == 0\n 25922: a3 = u64 [s1 + 0x148]\n 25926: a4 = u64 [s1 + 0x118]\n 25930: ra = a4 - a3\n 25933: t1 = a4 <u a3\n 25936: a4 = u64 [s1 + 0x110]\n 25940: a3 = u64 [s1 + 0x120]\n 25944: a4 = a3 - a4\n 25947: a4 = a4 - t1\n 25950: a3 = ra <u a2\n 25953: a3 = a4 - a3\n 25956: a4 = ra - a2\n 25959: a2 = a1 - a5\n 25962: a2 = a2 - t0\n 25965: a1 = t2 - a0\n 25968: a2 = a2 | a3\n 25971: fallthrough\n      : @910 (gas: 7)\n 25972: a3 = a1 | a4\n 25975: a3 = a3 | a2\n 25978: a2 = a2 | a4\n 25981: a3 = a3 >> 0x20\n 25984: a2 = a2 << 0x20\n 25987: a2 = a2 | a3\n 25990: jump @992 if a2 == 0\n      : @911 (gas: 1)\n 25994: trap\n      : @912 (gas: 9)\n 25995: a0 = u64 [s1 + 0x38]\n 25998: a0 = a0 ^ 0x1\n 26001: a1 = u64 [s1 + 0x50]\n 26004: a2 = u64 [s1 + 0x18]\n 26007: a0 = a2 if a1 != 0\n 26010: a1 = u64 [s1 + 0x20]\n 26013: a2 = u64 [s1 + 0xd0]\n 26017: a0 = a1 if a2 != 0\n 26020: jump @921 if a0 == 0\n      : @913 (gas: 16)\n 26024: a0 = u64 [s1 + 0x58]\n 26027: a0 = a0 & 0xffffffffffffffe0\n 26030: u64 [s1 + 0xd0] = a0\n 26034: a0 = s1 + 0x20f8\n 26038: a1 = u64 [s1 + 0x110]\n 26042: a3 = a0 + 0x300\n 26046: u64 [a3 + 0xc8] = a1\n 26050: a1 = u64 [s1 + 0x100]\n 26054: u64 [a3 + 0xd0] = a1\n 26058: a1 = u64 [s1 + 0xf8]\n 26062: u64 [a3 + 0xd8] = a1\n 26066: a1 = s1 + 0x24c0\n 26070: a2 = u64 [s1 + 0x108]\n 26074: u64 [a3 + 0xe0] = a2\n 26078: a0 = 0\n 26080: ra = 932, jump @19\n      : @914 [@dyn 466] (gas: 7)\n 26086: a0 = sp + 0xffffffffffffffe0\n 26089: a0 = a0 & 0xffffffffffffffe0\n 26092: u64 [s1 + 0x130] = a0\n 26096: sp = a0\n 26098: a1 = 0x20\n 26101: a0 = 0\n 26103: ra = 934, jump @27\n      : @915 [@dyn 467] (gas: 34)\n 26109: a1 = sp + 0xffffffffffffffe0\n 26112: a1 = a1 & 0xffffffffffffffe0\n 26115: u64 [s1 + 0x128] = a1\n 26119: sp = a1\n 26121: i32 a0 = a0 + 0\n 26123: i32 a2 = a1 + 0\n 26125: a1 = 0x20\n 26128: ecalli 6 // 'hash_keccak_256'\n 26130: u64 [s1 + 344] = 0x20\n 26135: a5 = 0\n 26137: u64 [s1 + 336] = 0\n 26141: u64 [s1 + 328] = 0\n 26145: u64 [s1 + 312] = 0\n 26149: u64 [s1 + 320] = 0\n 26153: a3 = u64 [s1 + 0x128]\n 26157: a0 = u64 [a3 + 0x18]\n 26160: a1 = u64 [a3 + 0x10]\n 26163: a2 = u64 [a3 + 0x8]\n 26166: a3 = u64 [a3]\n 26168: t1 = reverse a0\n 26170: t2 = reverse a1\n 26172: ra = reverse a2\n 26174: a2 = 0\n 26176: a4 = u64 [s1 + 0x138]\n 26180: a0 = reverse a3\n 26182: a3 = 0\n 26184: t0 = a0\n 26186: a1 = u64 [s1 + 0x130]\n 26190: u64 [a1 + 0x18] = a0\n 26193: u64 [s1 + 0x110] = ra\n 26197: u64 [a1 + 0x10] = ra\n 26200: u64 [a1 + 0x8] = t2\n 26203: u64 [a1] = t1\n 26205: fallthrough\n      : @916 (gas: 24)\n 26206: u64 [s1 + 0x128] = t0\n 26210: a0 = u64 [s1 + 0xd0]\n 26214: u64 [s1 + 0x138] = a4\n 26218: a0 = a4 <u a0\n 26221: a4 = a0 ^ 0x1\n 26224: u64 [s1 + 0x118] = a3\n 26228: a4 = 0x1 if a3 != 0\n 26231: u64 [s1 + 0x120] = a2\n 26235: a0 = u64 [s1 + 0x140]\n 26239: a0 = a0 | a2\n 26242: a4 = 0x1 if a0 != 0\n 26245: a1 = u64 [s1 + 0xf0]\n 26249: a0 = u64 [s1 + 0x158]\n 26253: a1 = a1 + a0\n 26256: a3 = u64 [s1 + 0xe8]\n 26260: a3 = a3 + a5\n 26263: a2 = u64 [s1 + 0xd8]\n 26267: a0 = u64 [s1 + 0x150]\n 26271: a2 = a2 + a0\n 26274: a0 = u64 [s1 + 0xe0]\n 26278: ra = a5\n 26280: a5 = u64 [s1 + 0x148]\n 26284: a0 = a0 + a5\n 26287: jump @925 if a4 != 0\n      : @917 (gas: 23)\n 26291: a4 = u64 [s1 + 0x158]\n 26295: a4 = a1 <u a4\n 26298: a3 = a3 + a4\n 26301: t0 = a3 ^ ra\n 26304: u64 [s1 + 0xf8] = ra\n 26308: a5 = a3 <u ra\n 26311: a5 = a4 if t0 == 0\n 26314: a5 = a5 + a2\n 26317: t0 = a5 <u a2\n 26320: a4 = u64 [s1 + 0x150]\n 26324: a2 = a2 <u a4\n 26327: a0 = a0 + a2\n 26330: a0 = a0 + t0\n 26333: a2 = a1 | a5\n 26336: a0 = a0 | a3\n 26339: a2 = a2 | a0\n 26342: a2 = a2 >> 0x20\n 26345: a0 = a0 | a5\n 26348: a0 = a0 << 0x20\n 26351: a0 = a0 | a2\n 26354: u64 [s1 + 0x108] = t1\n 26358: u64 [s1 + 0x100] = t2\n 26362: jump @911 if a0 != 0\n      : @918 (gas: 2)\n 26366: a0 = s1 + 0x2180\n 26370: ra = 936, jump @17\n      : @919 [@dyn 468] (gas: 14)\n 26376: a3 = s1 + 0x20f8\n 26380: a0 = u64 [a3 + 0xa0]\n 26384: a1 = u64 [a3 + 0x98]\n 26388: a2 = u64 [a3 + 0x90]\n 26392: a3 = u64 [a3 + 0x88]\n 26396: a4 = s1 + 0x30f8\n 26400: a5 = a4 + 0x300\n 26404: u64 [a5 + 0x40] = a0\n 26407: u64 [a5 + 0x38] = a1\n 26410: u64 [a5 + 0x30] = a2\n 26413: u64 [a5 + 0x28] = a3\n 26416: a1 = s1 + 0x3420\n 26420: a0 = u64 [s1 + 0x130]\n 26424: ra = 938, jump @23\n      : @920 [@dyn 469] (gas: 53)\n 26430: t1 = u64 [s1 + 0x108]\n 26434: t1 = t1 + 0x1\n 26437: a0 = t1 <u 0x1\n 26440: t2 = u64 [s1 + 0x100]\n 26444: t2 = t2 + a0\n 26447: a0 = t1 | t2\n 26450: a0 = a0 <u 0x1\n 26453: a1 = u64 [s1 + 0x110]\n 26457: ra = a1 + a0\n 26460: a1 = ra <u a1\n 26463: a0 = u64 [s1 + 0x128]\n 26467: a0 = a0 + a1\n 26470: a1 = u64 [s1 + 0x158]\n 26474: a2 = a1 + 0x20\n 26477: u64 [s1 + 0x128] = a2\n 26481: a3 = a2 <u a1\n 26484: a1 = u64 [s1 + 0xf8]\n 26488: a2 = a1 + a3\n 26491: u64 [s1 + 0x108] = a2\n 26495: a4 = a2 <u a1\n 26498: a4 = a3 if a3 == 0\n 26501: a1 = u64 [s1 + 0x150]\n 26505: a3 = a1 + a4\n 26508: a4 = a3 <u a1\n 26511: a1 = u64 [s1 + 0x148]\n 26515: a1 = a1 + a4\n 26518: u64 [s1 + 0x148] = a1\n 26522: a1 = u64 [s1 + 0x138]\n 26526: a4 = a1 + 0x20\n 26529: a5 = a4 <u a1\n 26532: a2 = u64 [s1 + 0x118]\n 26536: a1 = a2 + a5\n 26539: a2 = a1 <u a2\n 26542: a2 = a5 if a5 == 0\n 26545: a5 = u64 [s1 + 0x120]\n 26549: a2 = a2 + a5\n 26552: a5 = a2 <u a5\n 26555: t0 = u64 [s1 + 0x140]\n 26559: t0 = t0 + a5\n 26562: u64 [s1 + 0x140] = t0\n 26566: a5 = u64 [s1 + 0x130]\n 26570: u64 [a5 + 0x8] = t2\n 26573: u64 [a5] = t1\n 26575: u64 [a5 + 0x10] = ra\n 26578: t0 = a0\n 26580: u64 [a5 + 0x18] = a0\n 26583: u64 [s1 + 0x110] = ra\n 26587: a0 = u64 [s1 + 0x128]\n 26591: u64 [s1 + 0x158] = a0\n 26595: a5 = u64 [s1 + 0x108]\n 26599: u64 [s1 + 0x150] = a3\n 26603: a3 = a1\n 26605: jump @916\n      : @921 (gas: 8)\n 26608: a0 = u64 [s1 + 0x58]\n 26611: a1 = u64 [s1 + 0x40]\n 26614: a0 = a0 | a1\n 26617: a1 = u64 [s1 + 0x50]\n 26620: a2 = u64 [s1 + 0x30]\n 26623: a1 = a1 | a2\n 26626: a0 = a0 | a1\n 26629: jump @1009 if a0 == 0\n      : @922 (gas: 10)\n 26633: a0 = u64 [s1 + 0xe0]\n 26637: a1 = u64 [s1 + 0xd8]\n 26641: a0 = a0 | a1\n 26644: a1 = 0xffffffe0\n 26654: a2 = u64 [s1 + 0xf0]\n 26658: a1 = a2 <u a1\n 26661: a2 = u64 [s1 + 0xe8]\n 26665: a1 = 0 if a2 != 0\n 26667: a1 = 0 if a0 != 0\n 26669: jump @911 if a1 == 0\n      : @923 (gas: 4)\n 26673: a0 = u64 [s1 + 0xf0]\n 26677: i32 a1 = a0 + 0x20\n 26680: a0 = s1 + 0x24e0\n 26684: ra = 940, jump @17\n      : @924 [@dyn 470] (gas: 12)\n 26690: a0 = s1 + 0x20f8\n 26694: a1 = u64 [a0 + 0x400]\n 26698: a2 = s1 + 0x100\n 26702: u64 [a2 + 0x58] = a1\n 26705: a3 = a0 + 0x300\n 26709: a1 = u64 [a3 + 0xf8]\n 26713: u64 [a2 + 0x50] = a1\n 26716: a1 = u64 [a3 + 0xf0]\n 26720: u64 [a2 + 0x40] = a1\n 26723: a0 = u64 [a3 + 0xe8]\n 26727: u64 [a2 + 0x48] = a0\n 26730: jump @1010\n      : @925 (gas: 12)\n 26733: t2 = u64 [s1 + 0x150]\n 26737: t1 = u64 [s1 + 0x158]\n 26741: a4 = u64 [s1 + 0x58]\n 26744: a5 = u64 [s1 + 0xd0]\n 26748: a4 = a4 ^ a5\n 26751: a5 = u64 [s1 + 0x40]\n 26754: t0 = a4 | a5\n 26757: a5 = u64 [s1 + 0x50]\n 26760: a4 = u64 [s1 + 0x30]\n 26763: a5 = a5 | a4\n 26766: a4 = t0 | a5\n 26769: jump @932 if a4 == 0\n      : @926 (gas: 18)\n 26773: a4 = a1 <u t1\n 26776: a3 = a3 + a4\n 26779: t0 = a3 ^ ra\n 26782: a5 = a3 <u ra\n 26785: a5 = a4 if t0 == 0\n 26788: a5 = a5 + a2\n 26791: a4 = a5 <u a2\n 26794: a2 = a2 <u t2\n 26797: a0 = a0 + a2\n 26800: a0 = a0 + a4\n 26803: a2 = a1 | a5\n 26806: a0 = a0 | a3\n 26809: a2 = a2 | a0\n 26812: a2 = a2 >> 0x20\n 26815: a0 = a0 | a5\n 26818: a0 = a0 << 0x20\n 26821: a0 = a0 | a2\n 26824: jump @911 if a0 != 0\n      : @927 (gas: 2)\n 26828: a0 = s1 + 0x24a0\n 26832: ra = 942, jump @17\n      : @928 [@dyn 471] (gas: 18)\n 26838: a0 = s1 + 0x20f8\n 26842: a2 = a0 + 0x300\n 26846: a1 = u64 [a2 + 0xc0]\n 26850: u64 [s1 + 0x150] = a1\n 26854: a1 = u64 [a2 + 0xb8]\n 26858: u64 [s1 + 0x148] = a1\n 26862: a1 = u64 [a2 + 0xb0]\n 26866: u64 [s1 + 0x140] = a1\n 26870: a0 = u64 [a2 + 0xa8]\n 26874: u64 [s1 + 0x138] = a0\n 26878: a0 = u64 [s1 + 0x58]\n 26881: a0 = a0 << 0x3b\n 26884: a1 = a0 >> 0x38\n 26887: u64 [s1 + 0x158] = a1\n 26891: a2 = 0x80 - a1\n 26895: a0 = 0xffffffffffffffff\n 26898: a1 = 0xffffffffffffffff\n 26901: ra = 944, jump @1358\n      : @929 [@dyn 472] (gas: 6)\n 26907: u64 [s1 + 0x128] = a0\n 26911: u64 [s1 + 0x110] = a1\n 26915: a0 = 0xffffffffffffffff\n 26918: a1 = 0xffffffffffffffff\n 26921: a2 = u64 [s1 + 0x158]\n 26925: ra = 946, jump @1353\n      : @930 [@dyn 473] (gas: 10)\n 26931: u64 [s1 + 0x118] = a0\n 26935: u64 [s1 + 0x120] = a1\n 26939: a0 = u64 [s1 + 0x110]\n 26943: a0 = a0 | a1\n 26946: u64 [s1 + 0x110] = a0\n 26950: a0 = u64 [s1 + 0x158]\n 26954: a2 = a0 + 0xffffffffffffff80\n 26957: a0 = 0xffffffffffffffff\n 26960: a1 = 0xffffffffffffffff\n 26963: ra = 948, jump @1353\n      : @931 [@dyn 474] (gas: 30)\n 26969: a4 = u64 [s1 + 0x158]\n 26973: a2 = a4 <u 0x80\n 26977: a3 = u64 [s1 + 0x110]\n 26981: a1 = a3 if a2 != 0\n 26984: a5 = u64 [s1 + 0x118]\n 26988: a3 = u64 [s1 + 0x128]\n 26992: a3 = a3 | a5\n 26995: a3 = a0 if a2 == 0\n 26998: a1 = 0xffffffffffffffff if a4 == 0\n 27001: a3 = 0xffffffffffffffff if a4 == 0\n 27004: a4 = u64 [s1 + 0x120]\n 27008: a4 = 0 if a2 == 0\n 27010: a5 = 0 if a2 == 0\n 27012: a0 = u64 [s1 + 0x138]\n 27016: a0 = a0 & ~a3\n 27019: a2 = u64 [s1 + 0x140]\n 27023: a1 = a2 & ~a1\n 27026: a2 = u64 [s1 + 0x148]\n 27030: a2 = a2 & ~a5\n 27033: a3 = u64 [s1 + 0x150]\n 27037: a3 = a3 & ~a4\n 27040: a4 = s1 + 0x30f8\n 27044: a5 = a4 + 0x300\n 27048: u64 [a5 + 0x60] = a3\n 27051: u64 [a5 + 0x58] = a2\n 27054: u64 [a5 + 0x50] = a1\n 27057: u64 [a5 + 0x48] = a0\n 27060: a1 = s1 + 0x3440\n 27064: a0 = u64 [s1 + 0x130]\n 27068: ra = 950, jump @23\n      : @932 [@dyn 475] (gas: 23)\n 27074: a2 = u64 [s1 + 0x40]\n 27077: a0 = a2 >> 0x3f\n 27080: a1 = u64 [s1 + 0x30]\n 27083: a1 = a1 << 0x1\n 27086: a0 = a0 | a1\n 27089: a3 = u64 [s1 + 0x50]\n 27092: a1 = a3 >> 0x3f\n 27095: a2 = a2 << 0x1\n 27098: a1 = a1 | a2\n 27101: a4 = u64 [s1 + 0x58]\n 27104: a2 = a4 >> 0x3f\n 27107: a3 = a3 << 0x1\n 27110: a2 = a2 | a3\n 27113: a3 = a4 << 0x1\n 27116: a3 = a3 + 0x1\n 27119: a4 = s1 + 0x30f8\n 27123: a5 = a4 + 0x300\n 27127: u64 [a5 + 0x68] = a3\n 27130: u64 [a5 + 0x70] = a2\n 27133: u64 [a5 + 0x78] = a1\n 27136: u64 [a5 + 0x80] = a0\n 27140: a0 = 0x3460\n 27144: jump @1014\n      : @933 (gas: 4)\n 27147: a1 = 0x200a0\n 27152: i32 a1 = a1 + 0\n 27154: a0 = 0x1\n 27157: jump @935\n      : @934 (gas: 6)\n 27159: i32 a1 = a1 + 0\n 27161: a0 = 0x1\n 27164: a2 = 0\n 27166: ecalli 7 // 'seal_return'\n 27168: a1 = 0x200a0\n 27173: jump @934\n      : @935 (gas: 4)\n 27175: a2 = 0\n 27177: ecalli 7 // 'seal_return'\n 27179: a1 = 0x200a0\n 27184: jump @934\n      : @936 (gas: 2)\n 27186: a1 = 0x200a0\n 27191: jump @934\n      : @937 (gas: 2)\n 27193: a1 = 0x200a0\n 27198: jump @934\n      : @938 (gas: 2)\n 27200: a1 = 0x200a0\n 27205: jump @934\n      : @939 (gas: 2)\n 27207: a1 = 0x200a0\n 27212: jump @934\n      : @940 (gas: 2)\n 27214: a1 = 0x200a0\n 27219: jump @934\n      : @941 (gas: 2)\n 27221: a1 = 0x200a0\n 27226: jump @934\n      : @942 (gas: 2)\n 27228: a1 = 0x200a0\n 27233: jump @934\n      : @943 (gas: 2)\n 27235: a1 = 0x200a0\n 27240: jump @934\n      : @944 (gas: 2)\n 27242: a1 = 0x200a0\n 27247: jump @934\n      : @945 (gas: 2)\n 27249: a1 = 0x200a0\n 27254: jump @934\n      : @946 (gas: 2)\n 27256: a1 = 0x200a0\n 27261: jump @934\n      : @947 (gas: 2)\n 27263: a1 = 0x200a0\n 27268: jump @934\n      : @948 (gas: 2)\n 27270: a1 = 0x200a0\n 27275: jump @934\n      : @949 (gas: 2)\n 27277: a1 = 0x200a0\n 27282: jump @934\n      : @950 (gas: 2)\n 27284: a1 = 0x200a0\n 27289: jump @934\n      : @951 (gas: 5)\n 27292: a0 = s1 + 0x20f8\n 27296: u64 [a0 + 56] = 0\n 27299: u64 [a0 + 48] = 0\n 27302: u64 [a0 + 40] = 0\n 27305: t0 = 952, jump @1329\n      : @952 [@dyn 476] (gas: 5)\n 27311: i32 a1 = a1 + 0x120\n 27315: a1 = a1 + s1\n 27318: u64 [a2 + 0x40] = a0\n 27321: a0 = 0\n 27323: ra = 954, jump @19\n      : @953 [@dyn 477] (gas: 9)\n 27329: a1 = s1 + 0x20f8\n 27333: u64 [a1 + 32] = 0\n 27336: u64 [a1 + 24] = 0\n 27339: u64 [a1 + 8] = 0x41\n 27343: a2 = a1\n 27345: a0 = 0x4\n 27348: a1 = s1 + 0x2100\n 27352: u64 [a2 + 16] = 0\n 27355: ra = 956, jump @19\n      : @954 [@dyn 478] (gas: 2)\n 27361: a1 = i32 [0x20094]\n 27366: jump @956 if a1 >u 63\n      : @955 (gas: 2)\n 27370: u32 [0x20094] = 0x40\n 27376: fallthrough\n      : @956 (gas: 7)\n 27377: a1 = 0x200a0\n 27382: i32 a1 = a1 + 0\n 27384: a0 = 0x1\n 27387: a2 = 0x24\n 27390: ecalli 7 // 'seal_return'\n 27392: a1 = 0x200a0\n 27397: jump @934\n      : @957 (gas: 2)\n 27400: a1 = 0x200a0\n 27405: jump @934\n      : @958 (gas: 2)\n 27408: a1 = 0x200a0\n 27413: jump @934\n      : @959 (gas: 6)\n 27416: a1 = 0x200a0\n 27421: i32 a1 = a1 + 0\n 27423: a0 = 0x1\n 27426: ecalli 7 // 'seal_return'\n 27428: a1 = 0x200a0\n 27433: jump @934\n      : @960 (gas: 2)\n 27436: a1 = 0x200a0\n 27441: jump @934\n      : @961 (gas: 2)\n 27444: a1 = 0x200a0\n 27449: jump @934\n      : @962 (gas: 2)\n 27452: a1 = 0x200a0\n 27457: jump @934\n      : @963 (gas: 2)\n 27460: a1 = 0x200a0\n 27465: jump @934\n      : @964 (gas: 2)\n 27468: a1 = 0x200a0\n 27473: jump @934\n      : @965 (gas: 2)\n 27476: a1 = 0x200a0\n 27481: jump @934\n      : @966 (gas: 2)\n 27484: a1 = 0x200a0\n 27489: jump @934\n      : @967 (gas: 2)\n 27492: a1 = 0x200a0\n 27497: jump @934\n      : @968 (gas: 2)\n 27500: a1 = 0x200a0\n 27505: jump @934\n      : @969 (gas: 2)\n 27508: a1 = 0x200a0\n 27513: jump @934\n      : @970 (gas: 2)\n 27516: a1 = 0x200a0\n 27521: jump @934\n      : @971 (gas: 3)\n 27524: a0 = 0x1\n 27527: a1 = u64 [s1 + 0x110]\n 27531: jump @935\n      : @972 (gas: 2)\n 27534: a1 = 0x200a0\n 27539: jump @934\n      : @973 (gas: 11)\n 27542: a2 = s1 + 0x7ff\n 27546: a2 = a2 + 0xf9\n 27550: u64 [a2 + 384] = 0\n 27554: u64 [a2 + 376] = 0\n 27558: u64 [a2 + 368] = 0\n 27562: a1 = s1 + 0x7ff\n 27566: a1 = a1 + 0x261\n 27570: a0 = u64 [s1 + 0x158]\n 27574: u64 [a2 + 0x168] = a0\n 27578: a0 = 0\n 27580: ra = 958, jump @19\n      : @974 [@dyn 479] (gas: 11)\n 27586: a0 = s1 + 0x7ff\n 27590: a0 = a0 + 0xf9\n 27594: u64 [a0 + 352] = 0\n 27598: u64 [a0 + 344] = 0\n 27602: u64 [a0 + 336] = 0\n 27606: a2 = a0\n 27608: a0 = 0x20\n 27611: a1 = s1 + 0x7ff\n 27615: a1 = a1 + 0x241\n 27619: u64 [a2 + 328] = 0\n 27623: ra = 960, jump @19\n      : @975 [@dyn 480] (gas: 7)\n 27629: a0 = sp + 0xffffffffffffffe0\n 27632: a0 = a0 & 0xffffffffffffffe0\n 27635: u64 [s1 + 0x140] = a0\n 27639: sp = a0\n 27641: a0 = u64 [s1 + 0x148]\n 27645: a0 = i32 [a0]\n 27647: jump @977 if a0 >u 63\n      : @976 (gas: 3)\n 27651: a1 = u64 [s1 + 0x148]\n 27655: u32 [a1 + 0] = 0x40\n 27658: fallthrough\n      : @977 (gas: 4)\n 27659: a0 = sp + 0xffffffffffffffe0\n 27662: a0 = a0 & 0xffffffffffffffe0\n 27665: u64 [s1 + 0x138] = a0\n 27669: t0 = 962, jump @1316\n      : @978 [@dyn 481] (gas: 3)\n 27675: ra = 0x3c4\n 27679: ecalli 6 // 'hash_keccak_256'\n 27681: fallthrough\n      : @979 [@dyn 482] (gas: 11)\n 27682: a3 = u64 [s1 + 0x138]\n 27686: a0 = u64 [a3]\n 27688: a1 = u64 [a3 + 0x8]\n 27691: a2 = u64 [a3 + 0x10]\n 27694: a3 = u64 [a3 + 0x18]\n 27697: a0 = reverse a0\n 27699: a1 = reverse a1\n 27701: a2 = reverse a2\n 27703: a3 = reverse a3\n 27705: a4 = a3 + 0x2\n 27708: t0 = 966, jump @1343\n      : @980 [@dyn 483] (gas: 8)\n 27714: a1 = u64 [s1 + 0x140]\n 27718: u64 [a1] = a4\n 27720: u64 [a1 + 0x8] = a5\n 27723: u64 [a1 + 0x10] = a2\n 27726: u64 [a1 + 0x18] = a0\n 27729: a0 = s1 + 0x7ff\n 27733: a0 = a0 + 0x221\n 27737: ra = 968, jump @21\n      : @981 [@dyn 484] (gas: 18)\n 27743: a3 = s1 + 0x7ff\n 27747: a3 = a3 + 0xf9\n 27751: a4 = a3 + 0x100\n 27755: a0 = u64 [a4 + 0x40]\n 27758: a1 = u64 [a4 + 0x28]\n 27761: a2 = u64 [a4 + 0x38]\n 27764: a3 = u64 [a4 + 0x30]\n 27767: a0 = a0 & 0xffffffffffffff00\n 27771: a0 = a0 | 0x1\n 27774: a4 = s1 + 0x28f8\n 27778: a5 = a4 + 0x600\n 27782: u64 [a5 + 0xb8] = a2\n 27786: u64 [a5 + 0xb0] = a3\n 27790: u64 [a5 + 0xa8] = a1\n 27794: u64 [a5 + 0xc0] = a0\n 27798: a1 = s1 + 0x2fa0\n 27802: a0 = u64 [s1 + 0x140]\n 27806: ra = 970, jump @23\n      : @982 [@dyn 485] (gas: 11)\n 27812: a2 = s1 + 0x7ff\n 27816: a2 = a2 + 0xf9\n 27820: u64 [a2 + 288] = 0\n 27824: u64 [a2 + 280] = 0\n 27828: u64 [a2 + 272] = 0\n 27832: a1 = s1 + 0x7ff\n 27836: a1 = a1 + 0x201\n 27840: a0 = u64 [s1 + 0x158]\n 27844: u64 [a2 + 0x108] = a0\n 27848: a0 = 0\n 27850: ra = 972, jump @19\n      : @983 [@dyn 486] (gas: 11)\n 27856: a0 = s1 + 0x7ff\n 27860: a0 = a0 + 0xf9\n 27864: u64 [a0 + 256] = 0\n 27868: u64 [a0 + 248] = 0\n 27872: u64 [a0 + 240] = 0\n 27876: a2 = a0\n 27878: a0 = 0x20\n 27881: a1 = s1 + 0x7ff\n 27885: a1 = a1 + 0x1e1\n 27889: u64 [a2 + 232] = 0\n 27893: ra = 974, jump @19\n      : @984 [@dyn 487] (gas: 7)\n 27899: a0 = sp + 0xffffffffffffffe0\n 27902: a0 = a0 & 0xffffffffffffffe0\n 27905: u64 [s1 + 0x158] = a0\n 27909: sp = a0\n 27911: a0 = u64 [s1 + 0x148]\n 27915: a0 = i32 [a0]\n 27917: jump @986 if a0 >u 63\n      : @985 (gas: 3)\n 27921: a0 = u64 [s1 + 0x148]\n 27925: u32 [a0 + 0] = 0x40\n 27928: fallthrough\n      : @986 (gas: 4)\n 27929: a0 = sp + 0xffffffffffffffe0\n 27932: a0 = a0 & 0xffffffffffffffe0\n 27935: u64 [s1 + 0x148] = a0\n 27939: t0 = 976, jump @1316\n      : @987 [@dyn 488] (gas: 3)\n 27945: ra = 0x3d2\n 27949: ecalli 6 // 'hash_keccak_256'\n 27951: fallthrough\n      : @988 [@dyn 489] (gas: 11)\n 27952: a3 = u64 [s1 + 0x148]\n 27956: a0 = u64 [a3]\n 27958: a1 = u64 [a3 + 0x8]\n 27961: a2 = u64 [a3 + 0x10]\n 27964: a3 = u64 [a3 + 0x18]\n 27967: a0 = reverse a0\n 27969: a1 = reverse a1\n 27971: a2 = reverse a2\n 27973: a3 = reverse a3\n 27975: a4 = a3 + 0x3\n 27978: t0 = 980, jump @1343\n      : @989 [@dyn 490] (gas: 12)\n 27984: a3 = u64 [s1 + 0x158]\n 27988: u64 [a3] = a4\n 27990: u64 [a3 + 0x8] = a5\n 27993: u64 [a3 + 0x10] = a2\n 27996: u64 [a3 + 0x18] = a0\n 27999: a1 = u64 [s1 + 0x120]\n 28003: a0 = a1 & 0xffffffffffffffff\n 28006: u64 [s1 + 0x148] = a0\n 28010: a0 = s1 + 0x7ff\n 28014: a0 = a0 + 0x1c1\n 28018: a1 = a3\n 28020: ra = 982, jump @21\n      : @990 [@dyn 491] (gas: 15)\n 28026: a2 = s1 + 0x7ff\n 28030: a2 = a2 + 0xf9\n 28034: a0 = u64 [a2 + 0xe0]\n 28038: a1 = u64 [a2 + 0xd8]\n 28042: a2 = u64 [a2 + 0xd0]\n 28046: a3 = s1 + 0x28f8\n 28050: a4 = u64 [s1 + 0x148]\n 28054: a5 = a3 + 0x600\n 28058: u64 [a5 + 0xc8] = a4\n 28062: u64 [a5 + 0xe0] = a0\n 28066: u64 [a5 + 0xd8] = a1\n 28070: u64 [a5 + 0xd0] = a2\n 28074: a1 = s1 + 0x2fc0\n 28078: a0 = u64 [s1 + 0x158]\n 28082: ra = 984, jump @23\n      : @991 [@dyn 492] (gas: 3)\n 28088: a0 = 0\n 28090: a1 = u64 [s1 + 0x150]\n 28094: jump @935\n      : @992 (gas: 2)\n 28097: u64 [s1 + 0x158] = a1\n 28101: ra = 986, jump @27\n      : @993 [@dyn 493] (gas: 5)\n 28107: i32 a1 = a0 + 0\n 28109: a2 = i32 [s1 + 0x158]\n 28113: a0 = 0\n 28115: ecalli 7 // 'seal_return'\n 28117: jump @669\n      : @994 (gas: 2)\n 28120: a1 = 0x200a0\n 28125: jump @934\n      : @995 (gas: 2)\n 28128: a1 = 0x200a0\n 28133: jump @934\n      : @996 (gas: 2)\n 28136: a1 = 0x200a0\n 28141: jump @934\n      : @997 (gas: 2)\n 28144: a1 = 0x200a0\n 28149: jump @934\n      : @998 (gas: 5)\n 28152: a0 = s1 + 0x20f8\n 28156: u64 [a0 + 120] = 0\n 28159: u64 [a0 + 112] = 0\n 28162: u64 [a0 + 104] = 0\n 28165: t0 = 988, jump @1329\n      : @999 [@dyn 494] (gas: 5)\n 28171: i32 a1 = a1 + 0x160\n 28175: a1 = a1 + s1\n 28178: u64 [a2 + 0x80] = a0\n 28182: a0 = 0\n 28184: ra = 990, jump @19\n      : @1000 [@dyn 495] (gas: 10)\n 28190: a1 = s1 + 0x20f8\n 28194: u64 [a1 + 96] = 0\n 28197: u64 [a1 + 88] = 0\n 28200: u64 [a1 + 72] = 0x41\n 28204: a2 = a1\n 28206: a0 = 0x4\n 28209: a1 = s1 + 0x2140\n 28213: u64 [a2 + 80] = 0\n 28216: ra = 0x430\n 28220: jump @19\n      : @1001 (gas: 10)\n 28223: a0 = s1 + 0x10f8\n 28227: u64 [a0 + 1176] = 0\n 28231: u64 [a0 + 1168] = 0\n 28235: u64 [a0 + 1160] = 0\n 28239: a2 = a0\n 28241: a0 = 0x4e487b7100000000\n 28251: a1 = s1 + 0x1580\n 28255: u64 [a2 + 0x4a0] = a0\n 28259: a0 = 0\n 28261: ra = 992, jump @19\n      : @1002 [@dyn 496] (gas: 10)\n 28267: a1 = s1 + 0x10f8\n 28271: u64 [a1 + 1152] = 0\n 28275: u64 [a1 + 1144] = 0\n 28279: u64 [a1 + 1128] = 0x41\n 28284: a2 = a1\n 28286: a0 = 0x4\n 28289: a1 = s1 + 0x1560\n 28293: u64 [a2 + 1136] = 0\n 28297: ra = 0x3e6\n 28301: jump @19\n      : @1003 (gas: 5)\n 28304: a0 = s1 + 0x10f8\n 28308: u64 [a0 + 2008] = 0\n 28312: u64 [a0 + 2000] = 0\n 28316: u64 [a0 + 1992] = 0\n 28320: t0 = 994, jump @1329\n      : @1004 [@dyn 497] (gas: 5)\n 28326: i32 a1 = a1 + 0xfffffffffffff8c0\n 28330: a1 = a1 + s1\n 28333: u64 [a2 + 0x7e0] = a0\n 28337: a0 = 0\n 28339: ra = 996, jump @19\n      : @1005 [@dyn 498] (gas: 9)\n 28345: a0 = s1 + 0x10f8\n 28349: u64 [a0 + 1984] = 0\n 28353: u64 [a0 + 1976] = 0\n 28357: u64 [a0 + 1968] = 0\n 28361: a2 = a0\n 28363: a0 = 0x4\n 28366: a1 = s1 + 0x18a0\n 28370: u64 [a2 + 1960] = 0\n 28374: ra = 998, jump @19\n      : @1006 [@dyn 499] (gas: 3)\n 28380: a0 = u64 [s1 + 0x130]\n 28384: a0 = i32 [a0]\n 28386: jump @1008 if a0 >u 63\n      : @1007 (gas: 3)\n 28390: a1 = u64 [s1 + 0x130]\n 28394: u32 [a1 + 0] = 0x40\n 28397: fallthrough\n      : @1008 (gas: 5)\n 28398: a0 = 0x1\n 28401: a2 = 0x24\n 28404: a1 = u64 [s1 + 0x138]\n 28408: ecalli 7 // 'seal_return'\n 28410: fallthrough\n      : @1009 (gas: 5)\n 28411: u64 [s1 + 328] = 0\n 28415: u64 [s1 + 320] = 0\n 28419: u64 [s1 + 336] = 0\n 28423: u64 [s1 + 344] = 0\n 28427: fallthrough\n      : @1010 (gas: 24)\n 28428: a2 = u64 [s1 + 0x50]\n 28431: a0 = a2 >> 0x3f\n 28434: a3 = u64 [s1 + 0x40]\n 28437: a1 = a3 << 0x1\n 28440: a0 = a0 | a1\n 28443: u64 [s1 + 0x130] = a0\n 28447: a0 = a3 >> 0x3f\n 28450: a1 = u64 [s1 + 0x30]\n 28453: a1 = a1 << 0x1\n 28456: a0 = a0 | a1\n 28459: u64 [s1 + 0x128] = a0\n 28463: a3 = u64 [s1 + 0x58]\n 28466: a0 = a3 >> 0x3f\n 28469: a1 = a2 << 0x1\n 28472: a0 = a0 | a1\n 28475: u64 [s1 + 0x120] = a0\n 28479: a0 = a3 << 0x1\n 28482: u64 [s1 + 0x118] = a0\n 28486: a1 = a3 << 0x3\n 28489: u64 [s1 + 0x138] = a1\n 28493: i32 a2 = 0x80 - a1\n 28497: a0 = 0xffffffffffffffff\n 28500: a1 = 0xffffffffffffffff\n 28503: ra = 1000, jump @1358\n      : @1011 [@dyn 500] (gas: 7)\n 28509: u64 [s1 + 0xf8] = a0\n 28513: u64 [s1 + 0x110] = a1\n 28517: a0 = u64 [s1 + 0x58]\n 28520: i32 a2 = a0 << 0x3\n 28523: a0 = 0xffffffffffffffff\n 28526: a1 = 0xffffffffffffffff\n 28529: ra = 1002, jump @1353\n      : @1012 [@dyn 501] (gas: 10)\n 28535: u64 [s1 + 0x108] = a0\n 28539: u64 [s1 + 0x100] = a1\n 28543: a1 = u64 [s1 + 0xf8]\n 28547: a0 = a0 | a1\n 28550: u64 [s1 + 0xf8] = a0\n 28554: a0 = u64 [s1 + 0x138]\n 28558: i32 a2 = a0 + 0xffffffffffffff80\n 28561: a0 = 0xffffffffffffffff\n 28564: a1 = 0xffffffffffffffff\n 28567: ra = 1004, jump @1353\n      : @1013 [@dyn 502] (gas: 38)\n 28573: a4 = u64 [s1 + 0x138]\n 28577: a2 = a4 <u 0x80\n 28581: a3 = u64 [s1 + 0xf8]\n 28585: a0 = a3 if a2 != 0\n 28588: a5 = u64 [s1 + 0x100]\n 28592: a3 = u64 [s1 + 0x110]\n 28596: a3 = a3 | a5\n 28599: a3 = a1 if a2 == 0\n 28602: a0 = 0xffffffffffffffff if a4 == 0\n 28605: a3 = 0xffffffffffffffff if a4 == 0\n 28608: a5 = 0 if a2 == 0\n 28610: a4 = u64 [s1 + 0x108]\n 28614: a4 = 0 if a2 == 0\n 28616: a1 = u64 [s1 + 0x140]\n 28620: a1 = a1 & ~a3\n 28623: a2 = u64 [s1 + 0x148]\n 28627: a0 = a2 & ~a0\n 28630: a2 = u64 [s1 + 0x150]\n 28634: a2 = a2 & ~a4\n 28637: a3 = u64 [s1 + 0x158]\n 28641: a3 = a3 & ~a5\n 28644: a5 = s1 + 0x100\n 28648: a4 = u64 [a5 + 0x18]\n 28651: a0 = a0 | a4\n 28654: a4 = u64 [a5 + 0x20]\n 28657: a1 = a1 | a4\n 28660: a4 = u64 [a5 + 0x28]\n 28663: a3 = a3 | a4\n 28666: a4 = u64 [a5 + 0x30]\n 28669: a2 = a2 | a4\n 28672: a4 = s1 + 0x30f8\n 28676: a5 = a4 + 0x300\n 28680: u64 [a5 + 0x98] = a2\n 28684: u64 [a5 + 0xa0] = a3\n 28688: u64 [a5 + 0x90] = a1\n 28692: u64 [a5 + 0x88] = a0\n 28696: a0 = 0x3480\n 28700: fallthrough\n      : @1014 (gas: 3)\n 28701: a1 = s1 + a0\n 28704: a0 = u64 [s1 + 0x48]\n 28707: ra = 1006, jump @23\n      : @1015 [@dyn 503] (gas: 28)\n 28713: a0 = sp + 0xffffffffffffffe0\n 28716: a2 = a0 & 0xffffffffffffffe0\n 28719: sp = a2\n 28721: a0 = u64 [s1 + 0x60]\n 28724: a1 = a0 + 0x2\n 28727: a0 = a1 <u a0\n 28730: a3 = a1\n 28732: u64 [s1 + 0x150] = a1\n 28736: a1 = u64 [s1 + 0x68]\n 28739: a4 = a1 + a0\n 28742: u64 [s1 + 0x148] = a4\n 28746: a1 = a4 <u a1\n 28749: a1 = a0 if a0 == 0\n 28752: a0 = u64 [s1 + 0x78]\n 28755: a5 = a0 + a1\n 28758: u64 [s1 + 0x140] = a5\n 28762: a0 = a5 <u a0\n 28765: a1 = u64 [s1 + 0x70]\n 28768: a0 = a0 + a1\n 28771: u64 [s1 + 0x138] = a0\n 28775: u64 [s1 + 0x158] = a2\n 28779: u64 [a2 + 0x10] = a5\n 28782: u64 [a2 + 0x8] = a4\n 28785: u64 [a2] = a3\n 28787: u64 [a2 + 0x18] = a0\n 28790: a0 = s1 + 0x2480\n 28794: a1 = u64 [s1 + 0x98]\n 28798: ra = 1008, jump @17\n      : @1016 [@dyn 504] (gas: 7)\n 28804: a0 = s1 + 0x20f8\n 28808: a0 = u64 [a0 + 0x388]\n 28812: a0 = a0 & 0xffffffffffffffff\n 28815: u64 [s1 + 0x130] = a0\n 28819: a0 = s1 + 0x2460\n 28823: a1 = u64 [s1 + 0x158]\n 28827: ra = 1010, jump @21\n      : @1017 [@dyn 505] (gas: 18)\n 28833: a2 = s1 + 0x20f8\n 28837: a3 = a2 + 0x300\n 28841: a0 = u64 [a3 + 0x70]\n 28844: a1 = u64 [a3 + 0x78]\n 28847: a2 = u64 [a3 + 0x80]\n 28851: a0 = a0 & 0xffffffffffffffff\n 28854: a1 = a1 & 0xffffffffffffffff\n 28857: a2 = a2 & 0xffffffffffffffff\n 28860: a3 = s1 + 0x30f8\n 28864: a4 = u64 [s1 + 0x130]\n 28868: a5 = a3 + 0x300\n 28872: u64 [a5 + 0xa8] = a4\n 28876: u64 [a5 + 0xc0] = a2\n 28880: u64 [a5 + 0xb8] = a1\n 28884: u64 [a5 + 0xb0] = a0\n 28888: a1 = s1 + 0x34a0\n 28892: a0 = u64 [s1 + 0x158]\n 28896: ra = 1012, jump @23\n      : @1018 [@dyn 506] (gas: 3)\n 28902: a0 = s1 + 0x2440\n 28906: a1 = u64 [s1 + 0x90]\n 28910: ra = 1014, jump @17\n      : @1019 [@dyn 507] (gas: 20)\n 28916: a1 = s1 + 0x20f8\n 28920: a3 = a1 + 0x300\n 28924: a0 = u64 [a3 + 0x48]\n 28927: a0 = a0 & 0xffffffffffffffff\n 28930: u64 [a1 + 800] = 0\n 28934: u64 [a1 + 792] = 0\n 28938: u64 [a1 + 784] = 0\n 28942: u64 [a3 + 0x8] = a0\n 28945: a0 = u64 [s1 + 0x138]\n 28949: u64 [a3 + 0x40] = a0\n 28952: a0 = u64 [s1 + 0x140]\n 28956: u64 [a3 + 0x38] = a0\n 28959: a0 = u64 [s1 + 0x148]\n 28963: u64 [a3 + 0x30] = a0\n 28966: a3 = a1\n 28968: a0 = s1 + 0x2420\n 28972: a1 = s1 + 0x2400\n 28976: a2 = u64 [s1 + 0x150]\n 28980: u64 [a3 + 0x328] = a2\n 28984: ra = 1016, jump @1296\n      : @1020 [@dyn 508] (gas: 3)\n 28990: a0 = s1 + 0x23e0\n 28994: a1 = u64 [s1 + 0x88]\n 28998: ra = 1018, jump @17\n      : @1021 [@dyn 509] (gas: 6)\n 29004: a0 = s1 + 0x20f8\n 29008: a0 = u64 [a0 + 0x2e8]\n 29012: u64 [s1 + 0x150] = a0\n 29016: a0 = s1 + 0x23c0\n 29020: a1 = u64 [s1 + 0x158]\n 29024: ra = 1020, jump @21\n      : @1022 [@dyn 510] (gas: 15)\n 29030: a2 = s1 + 0x20f8\n 29034: a3 = a2 + 0x200\n 29038: a0 = u64 [a3 + 0xe0]\n 29042: a1 = u64 [a3 + 0xd0]\n 29046: a2 = u64 [a3 + 0xc8]\n 29050: a3 = s1 + 0x30f8\n 29054: a4 = u64 [s1 + 0x150]\n 29058: a5 = a3 + 0x300\n 29062: u64 [a5 + 0xd8] = a4\n 29066: u64 [a5 + 0xe0] = a0\n 29070: u64 [a5 + 0xd0] = a1\n 29074: u64 [a5 + 0xc8] = a2\n 29078: a1 = s1 + 0x34c0\n 29082: a0 = u64 [s1 + 0x158]\n 29086: ra = 1022, jump @23\n      : @1023 [@dyn 511] (gas: 3)\n 29092: a0 = s1 + 0x23a0\n 29096: a1 = u64 [s1 + 0x80]\n 29100: ra = 1024, jump @17\n      : @1024 [@dyn 512] (gas: 14)\n 29106: a3 = s1 + 0x20f8\n 29110: a4 = a3 + 0x200\n 29114: a0 = u64 [a4 + 0xc0]\n 29118: a1 = u64 [a4 + 0xb0]\n 29122: a2 = u64 [a4 + 0xb8]\n 29126: a3 = u64 [a4 + 0xa8]\n 29130: a0 = a0 | a1\n 29133: a2 = a2 | a3\n 29136: a0 = a0 | a2\n 29139: a0 = a0 >u 0\n 29141: u64 [s1 + 0x150] = a0\n 29145: a0 = s1 + 0x2380\n 29149: a1 = u64 [s1 + 0x158]\n 29153: ra = 1026, jump @21\n      : @1025 [@dyn 513] (gas: 18)\n 29159: a3 = s1 + 0x20f8\n 29163: a4 = a3 + 0x200\n 29167: a0 = u64 [a4 + 0xa0]\n 29171: a1 = u64 [a4 + 0x88]\n 29175: a2 = u64 [a4 + 0x98]\n 29179: a3 = u64 [a4 + 0x90]\n 29183: a0 = a0 & 0xffffffffffffff00\n 29187: a4 = u64 [s1 + 0x150]\n 29191: a0 = a0 | a4\n 29194: a4 = s1 + 0x30f8\n 29198: a5 = a4 + 0x300\n 29202: u64 [a5 + 0xf8] = a2\n 29206: u64 [a5 + 0xf0] = a3\n 29210: u64 [a5 + 0xe8] = a1\n 29214: u64 [a4 + 0x400] = a0\n 29218: a1 = s1 + 0x34e0\n 29222: a0 = u64 [s1 + 0x158]\n 29226: ra = 1028, jump @23\n      : @1026 [@dyn 514] (gas: 3)\n 29232: a0 = s1 + 0x2360\n 29236: a1 = u64 [s1 + 0x28]\n 29239: ra = 1030, jump @17\n      : @1027 [@dyn 515] (gas: 12)\n 29245: a0 = s1 + 0x20f8\n 29249: a0 = u64 [a0 + 0x268]\n 29253: a0 = a0 & 0xffffffffffffffff\n 29256: u64 [s1 + 0x158] = a0\n 29260: a0 = sp + 0xffffffffffffffe0\n 29263: a5 = a0 & 0xffffffffffffffe0\n 29266: sp = a5\n 29268: a1 = u64 [s1 + 0x60]\n 29271: a0 = a1 + 0x3\n 29274: a1 = a0 <u a1\n 29277: a3 = u64 [s1 + 0x68]\n 29280: t0 = 1032, jump @1337\n      : @1028 [@dyn 516] (gas: 13)\n 29286: a1 = u64 [s1 + 0x78]\n 29289: a3 = a3 + a1\n 29292: a1 = a3 <u a1\n 29295: a4 = u64 [s1 + 0x70]\n 29298: a4 = a4 + a1\n 29301: a1 = a5\n 29303: u64 [s1 + 0x150] = a5\n 29307: u64 [a5 + 0x18] = a4\n 29310: u64 [a5 + 0x10] = a3\n 29313: u64 [a5 + 0x8] = a2\n 29316: u64 [a5] = a0\n 29318: a0 = s1 + 0x2340\n 29322: ra = 1034, jump @21\n      : @1029 [@dyn 517] (gas: 18)\n 29328: a2 = s1 + 0x20f8\n 29332: a3 = a2 + 0x200\n 29336: a0 = u64 [a3 + 0x50]\n 29339: a1 = u64 [a3 + 0x58]\n 29342: a2 = u64 [a3 + 0x60]\n 29345: a0 = a0 & 0xffffffffffffffff\n 29348: a1 = a1 & 0xffffffffffffffff\n 29351: a2 = a2 & 0xffffffffffffffff\n 29354: a3 = s1 + 0x30f8\n 29358: a4 = u64 [s1 + 0x158]\n 29362: a5 = a3 + 0x400\n 29366: u64 [a5 + 0x8] = a4\n 29369: u64 [a5 + 0x20] = a2\n 29372: u64 [a5 + 0x18] = a1\n 29375: u64 [a5 + 0x10] = a0\n 29378: a1 = s1 + 0x3500\n 29382: a0 = u64 [s1 + 0x150]\n 29386: ra = 1036, jump @23\n      : @1030 [@dyn 518] (gas: 2)\n 29392: a0 = 0x30f8\n 29396: t0 = 1038, jump @1348\n      : @1031 [@dyn 519] (gas: 5)\n 29402: a1 = a0\n 29404: u64 [a1 + 1064] = 0x3\n 29409: a0 = s1 + 0x2320\n 29413: a1 = s1 + 0x3520\n 29417: ra = 1040, jump @21\n      : @1032 [@dyn 520] (gas: 14)\n 29423: a0 = s1 + 0x20f8\n 29427: a1 = a0 + 0x200\n 29431: a5 = u64 [a1 + 0x40]\n 29434: a3 = u64 [a1 + 0x38]\n 29437: a2 = u64 [a1 + 0x30]\n 29440: a0 = a5 >u 0\n 29442: a1 = a3 >u 0\n 29444: a1 = a0 if a5 != 0\n 29447: a4 = a3\n 29449: a0 = a3 | a5\n 29452: a3 = a2\n 29454: a2 = a2 >u 0\n 29456: a2 = a1 if a0 != 0\n 29459: jump @1036 if a2 == 0\n      : @1033 (gas: 5)\n 29462: a0 = s1 + 0x20f8\n 29466: u64 [a0 + 216] = 0\n 29470: u64 [a0 + 208] = 0\n 29474: u64 [a0 + 200] = 0\n 29478: t0 = 1042, jump @1329\n      : @1034 [@dyn 521] (gas: 5)\n 29484: i32 a1 = a1 + 0x1c0\n 29488: a1 = a1 + s1\n 29491: u64 [a2 + 0xe0] = a0\n 29495: a0 = 0\n 29497: ra = 1044, jump @19\n      : @1035 [@dyn 522] (gas: 10)\n 29503: a1 = s1 + 0x20f8\n 29507: u64 [a1 + 192] = 0\n 29511: u64 [a1 + 184] = 0\n 29515: u64 [a1 + 168] = 0x41\n 29520: a2 = a1\n 29522: a0 = 0x4\n 29525: a1 = s1 + 0x21a0\n 29529: u64 [a2 + 176] = 0\n 29533: ra = 0x430\n 29537: jump @19\n      : @1036 (gas: 27)\n 29540: a0 = s1 + 0x20f8\n 29544: a0 = u64 [a0 + 0x228]\n 29548: u64 [s1 + 0x158] = a0\n 29552: a0 = a0 + 0x1\n 29555: a2 = s1 + 0x30f8\n 29559: u64 [a2 + 1096] = 0x3\n 29564: a1 = a0 <u 0x1\n 29567: u64 [s1 + 0x150] = a3\n 29571: a1 = a1 + a3\n 29574: a3 = a2 + 0x400\n 29578: u64 [a3 + 0x68] = a0\n 29581: a0 = a0 | a1\n 29584: u64 [a3 + 0x70] = a1\n 29587: a0 = a0 <u 0x1\n 29590: u64 [s1 + 0x148] = a4\n 29594: a0 = a0 + a4\n 29597: u64 [a3 + 0x78] = a0\n 29600: a0 = a0 <u a4\n 29603: u64 [s1 + 0x140] = a5\n 29607: a0 = a0 + a5\n 29610: u64 [a3 + 0x80] = a0\n 29614: u64 [a2 + 1120] = 0\n 29618: u64 [a2 + 1112] = 0\n 29622: u64 [a2 + 1104] = 0\n 29626: a0 = s1 + 0x3540\n 29630: a1 = s1 + 0x3560\n 29634: ra = 1046, jump @23\n      : @1037 [@dyn 523] (gas: 17)\n 29640: a0 = sp + 0xffffffffffffffe0\n 29643: a0 = a0 & 0xffffffffffffffe0\n 29646: u64 [s1 + 0x138] = a0\n 29650: sp = a0\n 29652: a2 = s1 + 0x20f8\n 29656: a0 = u64 [s1 + 0x140]\n 29660: a4 = a2 + 0x100\n 29664: u64 [a4 + 0xe0] = a0\n 29668: a0 = u64 [s1 + 0x148]\n 29672: u64 [a4 + 0xd8] = a0\n 29676: a0 = u64 [s1 + 0x150]\n 29680: u64 [a4 + 0xd0] = a0\n 29684: a0 = s1 + 0x22e0\n 29688: a1 = s1 + 0x22c0\n 29692: a3 = u64 [s1 + 0x158]\n 29696: u64 [a4 + 0xc8] = a3\n 29700: ra = 1048, jump @1226\n      : @1038 [@dyn 524] (gas: 22)\n 29706: a1 = s1 + 0x20f8\n 29710: a2 = a1 + 0x200\n 29714: a0 = u64 [a2 + 0x20]\n 29717: u64 [s1 + 0x158] = a0\n 29721: a0 = u64 [a2 + 0x18]\n 29724: u64 [s1 + 0x150] = a0\n 29728: a0 = u64 [a2 + 0x10]\n 29731: u64 [s1 + 0x148] = a0\n 29735: a0 = u64 [a2 + 0x8]\n 29738: u64 [s1 + 0x130] = a0\n 29742: a4 = a1 + 0x100\n 29746: a0 = u64 [a4 + 0xf8]\n 29750: a5 = u64 [a2]\n 29752: a2 = u64 [a4 + 0xe8]\n 29756: a3 = u64 [a4 + 0xf0]\n 29760: a1 = u64 [s1 + 0x138]\n 29764: u64 [a1 + 0x10] = a0\n 29767: u64 [a1 + 0x18] = a5\n 29770: u64 [a1] = a2\n 29772: u64 [a1 + 0x8] = a3\n 29775: a0 = s1 + 0x22a0\n 29779: ra = 1050, jump @21\n      : @1039 [@dyn 525] (gas: 40)\n 29785: a0 = s1 + 0x20f8\n 29789: a2 = a0 + 0x100\n 29793: a1 = u64 [a2 + 0xb8]\n 29797: u64 [s1 + 0x120] = a1\n 29801: a1 = u64 [a2 + 0xc0]\n 29805: u64 [s1 + 0x118] = a1\n 29809: a1 = u64 [a2 + 0xa8]\n 29813: u64 [s1 + 0x110] = a1\n 29817: a0 = u64 [a2 + 0xb0]\n 29821: u64 [s1 + 0x108] = a0\n 29825: a4 = u64 [s1 + 0x130]\n 29829: a0 = a4 >> 0x3d\n 29832: a2 = u64 [s1 + 0x148]\n 29836: a1 = a2 << 0x3\n 29839: a0 = a0 | a1\n 29842: a1 = a2 >> 0x3d\n 29845: a3 = u64 [s1 + 0x150]\n 29849: a2 = a3 << 0x3\n 29852: a1 = a1 | a2\n 29855: a2 = a3 >> 0x3d\n 29858: a3 = u64 [s1 + 0x158]\n 29862: a3 = a3 << 0x3\n 29865: a2 = a2 | a3\n 29868: a5 = a4 << 0x3\n 29871: u64 [s1 + 0x148] = a5\n 29875: a3 = a0 >u 0\n 29877: a4 = a5 <u 0x100\n 29881: a4 = a4 ^ 0x1\n 29884: a4 = a3 if a0 != 0\n 29887: a0 = a2 >u 0\n 29889: a3 = a1 >u 0\n 29891: a3 = a0 if a2 != 0\n 29894: a1 = a1 | a2\n 29897: a4 = a3 if a1 != 0\n 29900: u64 [s1 + 0x128] = a4\n 29904: i32 a2 = a5 + 0xffffffffffffff80\n 29907: u64 [s1 + 0xf8] = a2\n 29911: a0 = u64 [s1 + 0xb0]\n 29915: a1 = 0\n 29917: ra = 1052, jump @1358\n      : @1040 [@dyn 526] (gas: 8)\n 29923: u64 [s1 + 0x158] = a0\n 29927: u64 [s1 + 0x150] = a1\n 29931: a1 = u64 [s1 + 0x148]\n 29935: i32 a2 = 0x80 - a1\n 29939: u64 [s1 + 0xf0] = a2\n 29943: a0 = u64 [s1 + 0xb0]\n 29947: a1 = 0\n 29949: ra = 1054, jump @1353\n      : @1041 [@dyn 527] (gas: 17)\n 29955: a2 = u64 [s1 + 0x148]\n 29959: a3 = a2 <u 0x80\n 29963: u64 [s1 + 0x140] = a3\n 29967: a4 = u64 [s1 + 0x158]\n 29971: a0 = a4 if a3 == 0\n 29974: a0 = 0 if a2 == 0\n 29976: u64 [s1 + 0x158] = a0\n 29980: a0 = u64 [s1 + 0x150]\n 29984: a1 = a0 if a3 == 0\n 29987: a1 = 0 if a2 == 0\n 29989: u64 [s1 + 0x150] = a1\n 29993: a0 = u64 [s1 + 0x130]\n 29997: i32 a2 = a0 << 0x3\n 30000: u64 [s1 + 0xe8] = a2\n 30004: a0 = u64 [s1 + 0xb0]\n 30008: a1 = 0\n 30010: ra = 1056, jump @1358\n      : @1042 [@dyn 528] (gas: 18)\n 30016: a2 = u64 [s1 + 0x140]\n 30020: a0 = 0 if a2 == 0\n 30022: a1 = 0 if a2 == 0\n 30024: a2 = u64 [s1 + 0x128]\n 30028: a1 = 0 if a2 != 0\n 30030: u64 [s1 + 0x130] = a1\n 30034: a0 = 0 if a2 != 0\n 30036: u64 [s1 + 0x100] = a0\n 30040: a1 = u64 [s1 + 0x150]\n 30044: a1 = 0 if a2 != 0\n 30046: u64 [s1 + 0x150] = a1\n 30050: a1 = u64 [s1 + 0x158]\n 30054: a1 = 0 if a2 != 0\n 30056: u64 [s1 + 0x158] = a1\n 30060: a0 = 0xffffffffffffffff\n 30063: a1 = 0\n 30065: a2 = u64 [s1 + 0xf8]\n 30069: ra = 1058, jump @1358\n      : @1043 [@dyn 529] (gas: 6)\n 30075: u64 [s1 + 0xf8] = a0\n 30079: u64 [s1 + 0xe0] = a1\n 30083: a0 = 0xffffffffffffffff\n 30086: a1 = 0\n 30088: a2 = u64 [s1 + 0xf0]\n 30092: ra = 1060, jump @1353\n      : @1044 [@dyn 530] (gas: 14)\n 30098: a3 = u64 [s1 + 0x140]\n 30102: a2 = u64 [s1 + 0xf8]\n 30106: a0 = a2 if a3 == 0\n 30109: a2 = u64 [s1 + 0x148]\n 30113: a0 = 0 if a2 == 0\n 30115: u64 [s1 + 0xf8] = a0\n 30119: a0 = u64 [s1 + 0xe0]\n 30123: a1 = a0 if a3 == 0\n 30126: a1 = 0 if a2 == 0\n 30128: u64 [s1 + 0x148] = a1\n 30132: a0 = 0xffffffffffffffff\n 30135: a1 = 0\n 30137: a2 = u64 [s1 + 0xe8]\n 30141: ra = 1062, jump @1358\n      : @1045 [@dyn 531] (gas: 40)\n 30147: a2 = u64 [s1 + 0x140]\n 30151: a0 = 0 if a2 == 0\n 30153: a1 = 0 if a2 == 0\n 30155: a1 = a1 ^ 0xffffffffffffffff\n 30158: a0 = a0 ^ 0xffffffffffffffff\n 30161: a2 = u64 [s1 + 0x148]\n 30165: a2 = a2 ^ 0xffffffffffffffff\n 30168: a3 = u64 [s1 + 0xf8]\n 30172: a3 = a3 ^ 0xffffffffffffffff\n 30175: a4 = u64 [s1 + 0x128]\n 30179: a3 = 0xffffffffffffffff if a4 != 0\n 30182: a2 = 0xffffffffffffffff if a4 != 0\n 30185: a0 = 0xffffffffffffffff if a4 != 0\n 30188: a1 = 0xffffffffffffffff if a4 != 0\n 30191: a5 = s1 + 0x100\n 30195: a4 = u64 [a5 + 0x8]\n 30198: a1 = a1 & a4\n 30201: a4 = u64 [a5 + 0x10]\n 30204: a0 = a0 & a4\n 30207: a4 = u64 [a5 + 0x18]\n 30210: a2 = a2 & a4\n 30213: a4 = u64 [a5 + 0x20]\n 30216: a3 = a3 & a4\n 30219: a4 = u64 [a5 + 0x58]\n 30222: a3 = a3 | a4\n 30225: a4 = u64 [a5 + 0x50]\n 30228: a2 = a2 | a4\n 30231: a4 = u64 [a5]\n 30233: a0 = a0 | a4\n 30236: a4 = u64 [a5 + 0x30]\n 30239: a1 = a1 | a4\n 30242: a4 = s1 + 0x30f8\n 30246: u64 [a4 + 0x490] = a1\n 30250: a1 = a4 + 0x400\n 30254: u64 [a1 + 0x88] = a0\n 30258: u64 [a1 + 0xa0] = a2\n 30262: u64 [a1 + 0x98] = a3\n 30266: a1 = s1 + 0x3580\n 30270: a0 = u64 [a5 + 0x38]\n 30273: ra = 1064, jump @23\n      : @1046 [@dyn 532] (gas: 9)\n 30279: a0 = s1 + 0x30f8\n 30283: u64 [a0 + 1216] = 0\n 30287: u64 [a0 + 1208] = 0\n 30291: u64 [a0 + 1200] = 0\n 30295: a1 = a0\n 30297: u64 [a1 + 1192] = 0x4\n 30302: a0 = s1 + 0x2280\n 30306: a1 = s1 + 0x35a0\n 30310: ra = 1066, jump @21\n      : @1047 [@dyn 533] (gas: 4)\n 30316: a0 = s1 + 0x20f8\n 30320: a0 = u64 [a0 + 0x188]\n 30324: a1 = a0 & 0xffffffffffffffff\n 30327: jump @1054 if a1 != 4294967295\n      : @1048 (gas: 5)\n 30331: a0 = s1 + 0x20f8\n 30335: u64 [a0 + 280] = 0\n 30339: u64 [a0 + 272] = 0\n 30343: u64 [a0 + 264] = 0\n 30347: t0 = 1068, jump @1329\n      : @1049 [@dyn 534] (gas: 5)\n 30353: i32 a1 = a1 + 0x200\n 30357: a1 = a1 + s1\n 30360: u64 [a2 + 0x120] = a0\n 30364: a0 = 0\n 30366: ra = 1070, jump @19\n      : @1050 [@dyn 535] (gas: 9)\n 30372: a1 = s1 + 0x20f8\n 30376: u64 [a1 + 256] = 0\n 30380: u64 [a1 + 248] = 0\n 30384: u64 [a1 + 232] = 0x11\n 30389: a2 = a1\n 30391: a0 = 0x4\n 30394: a1 = s1 + 0x21e0\n 30398: u64 [a2 + 240] = 0\n 30402: ra = 1072, jump @19\n      : @1051 [@dyn 536] (gas: 3)\n 30408: a0 = u64 [s1 + 0xa8]\n 30412: a0 = i32 [a0]\n 30414: jump @1053 if a0 >u 63\n      : @1052 (gas: 3)\n 30418: a1 = u64 [s1 + 0xa8]\n 30422: u32 [a1 + 0] = 0x40\n 30425: fallthrough\n      : @1053 (gas: 5)\n 30426: a0 = 0x1\n 30429: a2 = 0x24\n 30432: a1 = u64 [s1 + 0xa0]\n 30436: ecalli 7 // 'seal_return'\n 30438: fallthrough\n      : @1054 (gas: 23)\n 30439: a3 = s1 + 0x20f8\n 30443: a4 = a3 + 0x100\n 30447: a1 = u64 [a4 + 0xa0]\n 30451: a2 = u64 [a4 + 0x98]\n 30455: a3 = u64 [a4 + 0x90]\n 30459: a0 = a0 + 0x1\n 30462: a0 = a0 & 0xffffffffffffffff\n 30465: a1 = a1 & 0xffffffffffffffff\n 30468: a2 = a2 & 0xffffffffffffffff\n 30471: a3 = a3 & 0xffffffffffffffff\n 30474: a4 = s1 + 0x30f8\n 30478: u64 [a4 + 1248] = 0\n 30482: u64 [a4 + 1240] = 0\n 30486: u64 [a4 + 1232] = 0\n 30490: u64 [a4 + 1224] = 0x4\n 30495: a5 = a4 + 0x400\n 30499: u64 [a5 + 0xf0] = a3\n 30503: u64 [a5 + 0xe8] = a0\n 30507: u64 [a5 + 0xf8] = a2\n 30511: u64 [a4 + 0x500] = a1\n 30515: a0 = s1 + 0x35c0\n 30519: a1 = s1 + 0x35e0\n 30523: ra = 1074, jump @23\n      : @1055 [@dyn 537] (gas: 29)\n 30529: a4 = s1 + 0x20f8\n 30533: u64 [a4 + 320] = 0\n 30537: a0 = u64 [s1 + 0xb8]\n 30541: a5 = a4 + 0x100\n 30545: u64 [a5 + 0x38] = a0\n 30548: a0 = u64 [s1 + 0xc0]\n 30552: u64 [a5 + 0x30] = a0\n 30555: a0 = u64 [s1 + 0xc8]\n 30559: u64 [a5 + 0x28] = a0\n 30562: u64 [a4 + 352] = 0\n 30566: u64 [a4 + 344] = 0\n 30570: u64 [a4 + 336] = 0\n 30574: a0 = u64 [0x20020]\n 30579: a1 = u64 [0x20028]\n 30584: a2 = u64 [0x20030]\n 30589: a3 = u64 [s1 + 0xb0]\n 30593: u64 [a5 + 0x48] = a3\n 30596: u64 [a5 + 0x80] = a0\n 30600: u64 [a5 + 0x78] = a1\n 30603: u64 [a5 + 0x70] = a2\n 30606: a1 = a4\n 30608: a0 = u64 [0x20038]\n 30613: a2 = s1 + 0x2260\n 30617: a3 = s1 + 0x2240\n 30621: a4 = s1 + 0x2220\n 30625: u64 [a1 + 0x168] = a0\n 30629: a0 = 0\n 30631: a1 = 0\n 30633: ra = 1076, jump @24\n      : @1056 [@dyn 538] (gas: 3)\n 30639: a0 = 0\n 30641: a1 = u64 [s1 + 0xa0]\n 30645: jump @935\n      : @1057 [@dyn 539] (gas: 5)\n 30648: a1 = 0x4\n 30651: ra = 0x438\n 30655: ecalli 1 // 'call_data_load'\n 30657: t0 = 0x43a\n 30661: jump @1326\n      : @1058 [@dyn 540] (gas: 1)\n 30664: t0 = 1082, jump @1326\n      : @1059 [@dyn 541] (gas: 1)\n 30670: jump @1062 if a4 == 0\n      : @1060 (gas: 1)\n 30673: t0 = 1084, jump @1318\n      : @1061 [@dyn 542] (gas: 1)\n 30679: ret\n      : @1062 (gas: 8)\n 30681: a1 = 0x200a0\n 30686: i32 a1 = a1 + 0\n 30688: a0 = 0x1\n 30691: a2 = 0\n 30693: ra = 0x43e\n 30697: ecalli 7 // 'seal_return'\n 30699: t0 = 0x440\n 30703: jump @1330\n      : @1063 [@dyn 543] (gas: 1)\n 30706: t0 = 1088, jump @1330\n      : @1064 [@dyn 544] (gas: 5)\n 30712: a1 = 0x44\n 30715: ra = 0x442\n 30719: ecalli 1 // 'call_data_load'\n 30721: t0 = 0x444\n 30725: jump @1326\n      : @1065 [@dyn 545] (gas: 1)\n 30728: t0 = 1092, jump @1326\n      : @1066 [@dyn 546] (gas: 1)\n 30734: jump @1069 if a4 == 0\n      : @1067 (gas: 1)\n 30737: t0 = 1094, jump @1318\n      : @1068 [@dyn 547] (gas: 1)\n 30743: ret\n      : @1069 (gas: 8)\n 30745: a1 = 0x200a0\n 30750: i32 a1 = a1 + 0\n 30752: a0 = 0x1\n 30755: a2 = 0\n 30757: ra = 0x448\n 30761: ecalli 7 // 'seal_return'\n 30763: t0 = 0x44a\n 30767: jump @1342\n      : @1070 [@dyn 548] (gas: 1)\n 30770: t0 = 1098, jump @1342\n      : @1071 [@dyn 549] (gas: 4)\n 30776: ra = 0x44c\n 30780: ecalli 1 // 'call_data_load'\n 30782: t0 = 0x44e\n 30786: jump @1326\n      : @1072 [@dyn 550] (gas: 1)\n 30789: t0 = 1102, jump @1326\n      : @1073 [@dyn 551] (gas: 1)\n 30795: jump @1076 if a4 == 0\n      : @1074 (gas: 1)\n 30798: t0 = 1104, jump @1318\n      : @1075 [@dyn 552] (gas: 1)\n 30804: ret\n      : @1076 (gas: 8)\n 30806: a1 = 0x200a0\n 30811: i32 a1 = a1 + 0\n 30813: a0 = 0x1\n 30816: a2 = 0\n 30818: ra = 0x452\n 30822: ecalli 7 // 'seal_return'\n 30824: t0 = 0x454\n 30828: jump @1330\n      : @1077 [@dyn 553] (gas: 1)\n 30831: t0 = 1108, jump @1330\n      : @1078 [@dyn 554] (gas: 5)\n 30837: a1 = 0x64\n 30840: ra = 0x456\n 30844: ecalli 1 // 'call_data_load'\n 30846: t0 = 0x458\n 30850: jump @1326\n      : @1079 [@dyn 555] (gas: 1)\n 30853: t0 = 1112, jump @1326\n      : @1080 [@dyn 556] (gas: 1)\n 30859: jump @1083 if a4 == 0\n      : @1081 (gas: 1)\n 30862: t0 = 1114, jump @1318\n      : @1082 [@dyn 557] (gas: 1)\n 30868: ret\n      : @1083 (gas: 8)\n 30870: a1 = 0x200a0\n 30875: i32 a1 = a1 + 0\n 30877: a0 = 0x1\n 30880: a2 = 0\n 30882: ra = 0x45c\n 30886: ecalli 7 // 'seal_return'\n 30888: t0 = 0x45e\n 30892: jump @1342\n      : @1084 [@dyn 558] (gas: 1)\n 30895: t0 = 1118, jump @1342\n      : @1085 [@dyn 559] (gas: 2)\n 30901: ecalli 1 // 'call_data_load'\n 30903: fallthrough\n      : @1086 (gas: 10)\n 30904: a0 = u64 [sp + 0x10]\n 30907: a1 = u64 [sp + 0x18]\n 30910: a2 = 0x100000000\n 30920: a2 = a2 ^ a0\n 30923: a2 = a2 | a1\n 30926: a3 = a0 >> 0x20\n 30929: a3 = a3 <u 0x1\n 30932: a3 = 0 if a1 != 0\n 30934: a3 = 0 if a2 == 0\n 30936: jump @1088 if a3 == 0\n      : @1087 (gas: 12)\n 30939: a2 = u64 [sp]\n 30941: a3 = u64 [sp + 0x8]\n 30944: u64 [s1] = a2\n 30946: u64 [s1 + 0x8] = a3\n 30949: u64 [s1 + 0x10] = a0\n 30952: u64 [s1 + 0x18] = a1\n 30955: sp = s0 + 0xffffffffffffffc0\n 30958: ra = u64 [sp + 0x38]\n 30961: s0 = u64 [sp + 0x30]\n 30964: s1 = u64 [sp + 0x28]\n 30967: sp = sp + 0x40\n 30970: ret\n      : @1088 (gas: 7)\n 30972: a1 = 0x200a0\n 30977: i32 a1 = a1 + 0\n 30979: a0 = 0x1\n 30982: a2 = 0\n 30984: ra = 0x460\n 30988: ecalli 7 // 'seal_return'\n 30990: fallthrough\n      : @1089 [@dyn 560] (gas: 33)\n 30991: sp = sp + 0xffffffffffffffa0\n 30994: u64 [sp + 0x58] = ra\n 30997: u64 [sp + 0x50] = s0\n 31000: u64 [sp + 0x48] = s1\n 31003: s0 = sp + 0x60\n 31006: sp = sp & 0xfffffffffffffff0\n 31009: a2 = u64 [a1 + 0x10]\n 31012: a5 = u64 [a1 + 0x8]\n 31015: a4 = u64 [a1]\n 31017: a1 = u64 [a1 + 0x18]\n 31020: t0 = a2 << 0x3f\n 31023: a3 = a5 >> 0x1\n 31026: t0 = a3 | t0\n 31029: a3 = a1 << 0x3f\n 31032: a2 = a2 >> 0x1\n 31035: a3 = a3 | a2\n 31038: a5 = a5 << 0x3f\n 31041: a2 = a4 >> 0x1\n 31044: a5 = a5 | a2\n 31047: t1 = a1 >> 0x1\n 31050: a4 = a4 & 0x1\n 31053: a1 = -a4\n 31055: s1 = a4 <u 0x1\n 31058: a2 = a5 & 0x7f\n 31061: t2 = a1 & a3\n 31064: a3 = a1 & t0\n 31067: a2 = a5 if a4 != 0\n 31070: a4 = a1 & t1\n 31073: a1 = a2 <u 0x20\n 31076: a1 = 0 if a3 != 0\n 31078: a5 = t2 | a4\n 31081: a1 = 0 if a5 != 0\n 31083: jump @1092 if s1 != a1\n      : @1090 (gas: 5)\n 31086: u64 [a0] = a2\n 31088: u64 [a0 + 0x8] = a3\n 31091: u64 [a0 + 0x10] = t2\n 31094: u64 [a0 + 0x18] = a4\n 31097: t0 = 1122, jump @1347\n      : @1091 [@dyn 561] (gas: 1)\n 31103: ret\n      : @1092 (gas: 1)\n 31105: t0 = 1124, jump @1317\n      : @1093 [@dyn 562] (gas: 1)\n 31111: ra = 1126, jump @19\n      : @1094 [@dyn 563] (gas: 7)\n 31117: u64 [sp + 24] = 0\n 31120: u64 [sp + 16] = 0\n 31123: u64 [sp + 0] = 0x22\n 31126: a0 = 0x4\n 31129: a1 = sp\n 31131: u64 [sp + 8] = 0\n 31134: ra = 1128, jump @19\n      : @1095 [@dyn 564] (gas: 2)\n 31140: a1 = i32 [0x20094]\n 31145: jump @1097 if a1 >u 63\n      : @1096 (gas: 2)\n 31149: u32 [0x20094] = 0x40\n 31155: fallthrough\n      : @1097 (gas: 8)\n 31156: a1 = 0x200a0\n 31161: i32 a1 = a1 + 0\n 31163: a0 = 0x1\n 31166: a2 = 0x24\n 31169: ra = 0x46a\n 31173: ecalli 7 // 'seal_return'\n 31175: t0 = 0x46c\n 31179: jump @1328\n      : @1098 [@dyn 565] (gas: 1)\n 31182: t0 = 1132, jump @1328\n      : @1099 [@dyn 566] (gas: 7)\n 31188: t0 = a0 >u 0\n 31190: a4 = t1 <u 0xffffffffffffff60\n 31194: a4 = a4 ^ 0x1\n 31197: a4 = t0 if a0 != 0\n 31200: a1 = a2 | a3\n 31203: a4 = a5 if a1 != 0\n 31206: jump @1103 if a4 != 0\n      : @1100 (gas: 2)\n 31209: a1 = t1 + 0xa0\n 31213: t0 = 1134, jump @1325\n      : @1101 [@dyn 567] (gas: 1)\n 31219: ra = 1136, jump @19\n      : @1102 [@dyn 568] (gas: 5)\n 31225: sp = s0 + 0xffffffffffffff90\n 31228: ra = u64 [sp + 0x68]\n 31231: s0 = u64 [sp + 0x60]\n 31234: sp = sp + 0x70\n 31237: ret\n      : @1103 (gas: 1)\n 31239: t0 = 1138, jump @1317\n      : @1104 [@dyn 569] (gas: 1)\n 31245: ra = 1140, jump @19\n      : @1105 [@dyn 570] (gas: 1)\n 31251: t0 = 1142, jump @1340\n      : @1106 [@dyn 571] (gas: 1)\n 31257: ra = 1144, jump @19\n      : @1107 [@dyn 572] (gas: 2)\n 31263: a1 = i32 [0x20094]\n 31268: jump @1109 if a1 >u 63\n      : @1108 (gas: 2)\n 31272: u32 [0x20094] = 0x40\n 31278: fallthrough\n      : @1109 (gas: 8)\n 31279: a1 = 0x200a0\n 31284: i32 a1 = a1 + 0\n 31286: a0 = 0x1\n 31289: a2 = 0x24\n 31292: ra = 0x47a\n 31296: ecalli 7 // 'seal_return'\n 31298: t0 = 0x47c\n 31302: jump @1328\n      : @1110 [@dyn 573] (gas: 1)\n 31305: t0 = 1148, jump @1328\n      : @1111 [@dyn 574] (gas: 7)\n 31311: t0 = a0 >u 0\n 31313: a4 = t1 <u 0xffffffffffffff00\n 31317: a4 = a4 ^ 0x1\n 31320: a4 = t0 if a0 != 0\n 31323: a1 = a2 | a3\n 31326: a4 = a5 if a1 != 0\n 31329: jump @1115 if a4 != 0\n      : @1112 (gas: 2)\n 31332: a1 = t1 + 0x100\n 31336: t0 = 1150, jump @1325\n      : @1113 [@dyn 575] (gas: 1)\n 31342: ra = 1152, jump @19\n      : @1114 [@dyn 576] (gas: 5)\n 31348: sp = s0 + 0xffffffffffffff90\n 31351: ra = u64 [sp + 0x68]\n 31354: s0 = u64 [sp + 0x60]\n 31357: sp = sp + 0x70\n 31360: ret\n      : @1115 (gas: 1)\n 31362: t0 = 1154, jump @1317\n      : @1116 [@dyn 577] (gas: 1)\n 31368: ra = 1156, jump @19\n      : @1117 [@dyn 578] (gas: 1)\n 31374: t0 = 1158, jump @1340\n      : @1118 [@dyn 579] (gas: 1)\n 31380: ra = 1160, jump @19\n      : @1119 [@dyn 580] (gas: 2)\n 31386: a1 = i32 [0x20094]\n 31391: jump @1121 if a1 >u 63\n      : @1120 (gas: 2)\n 31395: u32 [0x20094] = 0x40\n 31401: fallthrough\n      : @1121 (gas: 7)\n 31402: a1 = 0x200a0\n 31407: i32 a1 = a1 + 0\n 31409: a0 = 0x1\n 31412: a2 = 0x24\n 31415: ra = 0x48a\n 31419: ecalli 7 // 'seal_return'\n 31421: fallthrough\n      : @1122 [@dyn 581] (gas: 46)\n 31422: sp = sp + 0xffffffffffffff70\n 31426: u64 [sp + 0x88] = ra\n 31430: u64 [sp + 0x80] = s0\n 31434: u64 [sp + 0x78] = s1\n 31437: s0 = sp + 0x90\n 31441: sp = sp & 0xfffffffffffffff0\n 31444: t0 = a0\n 31446: a2 = u64 [a1]\n 31448: t2 = u64 [a0 + 0x8]\n 31451: a5 = u64 [a1 + 0x8]\n 31454: t1 = u64 [a0]\n 31456: a3 = a2 + 0x1f\n 31459: ra = a3 <u a2\n 31462: a2 = a5 + ra\n 31465: a3 = a3 & 0xffffffffffffffe0\n 31468: u64 [sp + 0x8] = t1\n 31471: t1 = t1 + a3\n 31474: a4 = t1 <u a3\n 31477: a3 = a2 + t2\n 31480: a3 = a3 + a4\n 31483: s1 = a3 ^ a2\n 31486: a0 = a3 <u a2\n 31489: a0 = a4 if s1 == 0\n 31492: a4 = u64 [t0 + 0x18]\n 31495: a5 = a2 <u a5\n 31498: s1 = u64 [a1 + 0x10]\n 31501: t0 = u64 [t0 + 0x10]\n 31504: a1 = u64 [a1 + 0x18]\n 31507: a5 = ra if ra == 0\n 31510: a5 = a5 + s1\n 31513: s1 = a5 <u s1\n 31516: a2 = a5 + t0\n 31519: a0 = a0 + a2\n 31522: a5 = a2 <u a5\n 31525: a2 = a0 <u a2\n 31528: a1 = a1 + a4\n 31531: a1 = a1 + s1\n 31534: a1 = a1 + a5\n 31537: a5 = a1 + a2\n 31540: a1 = a5 >u 0\n 31542: a2 = a0 >u 0\n 31544: a2 = a1 if a5 != 0\n 31547: a1 = a0 | a5\n 31550: s1 = a3 >u 0\n 31552: s1 = a2 if a1 != 0\n 31555: jump @1126 if s1 != 0\n      : @1123 (gas: 13)\n 31558: a1 = u64 [sp + 0x8]\n 31561: a1 = t1 <u a1\n 31564: a2 = a3 ^ t2\n 31567: s1 = a3 <u t2\n 31570: s1 = a1 if a2 == 0\n 31573: a1 = a0 <u t0\n 31576: a2 = a5 ^ a4\n 31579: a4 = a5 <u a4\n 31582: a4 = a1 if a2 == 0\n 31585: a1 = a0 ^ t0\n 31588: a1 = a1 | a2\n 31591: a4 = s1 if a1 == 0\n 31594: jump @1126 if a4 != 0\n      : @1124 (gas: 7)\n 31597: u64 [sp + 0x50] = t1\n 31600: u64 [sp + 0x58] = a3\n 31603: u64 [sp + 0x60] = a0\n 31606: a0 = 0x40\n 31609: a1 = sp + 0x50\n 31612: u64 [sp + 0x68] = a5\n 31615: ra = 1164, jump @19\n      : @1125 [@dyn 582] (gas: 6)\n 31621: sp = s0 + 0xffffffffffffff70\n 31625: ra = u64 [sp + 0x88]\n 31629: s0 = u64 [sp + 0x80]\n 31633: s1 = u64 [sp + 0x78]\n 31636: sp = sp + 0x90\n 31640: ret\n      : @1126 (gas: 8)\n 31642: u64 [sp + 64] = 0\n 31645: u64 [sp + 56] = 0\n 31648: u64 [sp + 48] = 0\n 31651: a0 = 0x4e487b7100000000\n 31661: a1 = sp + 0x30\n 31664: u64 [sp + 0x48] = a0\n 31667: a0 = 0\n 31669: ra = 1166, jump @19\n      : @1127 [@dyn 583] (gas: 7)\n 31675: u64 [sp + 40] = 0\n 31678: u64 [sp + 32] = 0\n 31681: u64 [sp + 16] = 0x41\n 31685: a0 = 0x4\n 31688: a1 = sp + 0x10\n 31691: u64 [sp + 24] = 0\n 31694: ra = 1168, jump @19\n      : @1128 [@dyn 584] (gas: 2)\n 31700: a1 = i32 [0x20094]\n 31705: jump @1130 if a1 >u 63\n      : @1129 (gas: 2)\n 31709: u32 [0x20094] = 0x40\n 31715: fallthrough\n      : @1130 (gas: 7)\n 31716: a1 = 0x200a0\n 31721: i32 a1 = a1 + 0\n 31723: a0 = 0x1\n 31726: a2 = 0x24\n 31729: ra = 0x492\n 31733: ecalli 7 // 'seal_return'\n 31735: fallthrough\n      : @1131 [@dyn 585] (gas: 24)\n 31736: sp = sp + 0xfffffffffffffda0\n 31740: a2 = sp + 0x200\n 31744: u64 [a2 + 0x58] = ra\n 31747: u64 [a2 + 0x50] = s0\n 31750: u64 [a2 + 0x48] = s1\n 31753: s0 = sp + 0x260\n 31757: sp = sp & 0xffffffffffffffe0\n 31760: s1 = sp\n 31762: u64 [s1 + 0x10] = a0\n 31765: a0 = u64 [a1 + 0x18]\n 31768: a2 = u64 [a1 + 0x10]\n 31771: a3 = u64 [a1 + 0x8]\n 31774: a1 = u64 [a1]\n 31776: u64 [s1 + 0xb0] = a0\n 31780: u64 [s1 + 0x238] = a0\n 31784: u64 [s1 + 0xa8] = a2\n 31788: u64 [s1 + 0x230] = a2\n 31792: u64 [s1 + 0xa0] = a3\n 31796: u64 [s1 + 0x228] = a3\n 31800: u64 [s1 + 0x98] = a1\n 31804: u64 [s1 + 0x220] = a1\n 31808: a0 = s1 + 0x200\n 31812: a1 = 0x40\n 31815: ra = 1172, jump @17\n      : @1132 [@dyn 586] (gas: 12)\n 31821: a1 = s1 + 0x200\n 31825: a0 = u64 [a1 + 0x18]\n 31828: u64 [s1 + 0x18] = a0\n 31831: a0 = u64 [a1 + 0x10]\n 31834: u64 [s1 + 0x20] = a0\n 31837: a0 = u64 [a1 + 0x8]\n 31840: u64 [s1 + 0x28] = a0\n 31843: a0 = u64 [a1]\n 31845: u64 [s1 + 0x30] = a0\n 31848: a0 = s1 + 0x1e0\n 31852: a1 = s1 + 0x220\n 31856: ra = 1174, jump @21\n      : @1133 [@dyn 587] (gas: 16)\n 31862: a4 = s1 + 0x100\n 31866: a0 = u64 [a4 + 0xf8]\n 31870: a1 = u64 [a4 + 0xf0]\n 31874: a2 = u64 [a4 + 0xe8]\n 31878: a3 = u64 [a4 + 0xe0]\n 31882: u64 [s1 + 0x90] = a0\n 31886: u64 [a4 + 0xb8] = a0\n 31890: u64 [s1 + 0x88] = a1\n 31894: u64 [a4 + 0xb0] = a1\n 31898: u64 [s1 + 0x80] = a2\n 31902: u64 [a4 + 0xa8] = a2\n 31906: a0 = s1 + 0x1c0\n 31910: a1 = s1 + 0x1a0\n 31914: u64 [s1 + 0xb8] = a3\n 31918: u64 [a4 + 0xa0] = a3\n 31922: ra = 1176, jump @1089\n      : @1134 [@dyn 588] (gas: 12)\n 31928: a0 = u64 [s1 + 0x30]\n 31931: a1 = u64 [s1 + 0x18]\n 31934: a2 = u64 [s1 + 0x28]\n 31937: a2 = a2 | a1\n 31940: a3 = u64 [s1 + 0x20]\n 31943: a1 = a0 | a3\n 31946: a1 = a1 | a2\n 31949: a1 = a1 >> 0x20\n 31952: a2 = a2 | a3\n 31955: a2 = a2 << 0x20\n 31958: a1 = a1 | a2\n 31961: jump @1151 if a1 != 0\n      : @1135 (gas: 15)\n 31965: a5 = s1 + 0x100\n 31969: a2 = u64 [a5 + 0xd8]\n 31973: a3 = u64 [a5 + 0xd0]\n 31977: a1 = u64 [a5 + 0xc8]\n 31981: a4 = u64 [a5 + 0xc0]\n 31985: u64 [s1 + 0x60] = a4\n 31988: u64 [a5 + 0x80] = a4\n 31992: u64 [s1 + 0x70] = a1\n 31995: u64 [a5 + 0x88] = a1\n 31999: u64 [s1 + 0x68] = a3\n 32002: u64 [a5 + 0x90] = a3\n 32006: a1 = s1 + 0x180\n 32010: u64 [s1 + 0x78] = a2\n 32013: u64 [a5 + 0x98] = a2\n 32017: ra = 1178, jump @19\n      : @1136 [@dyn 589] (gas: 3)\n 32023: a3 = u64 [s1 + 0xb8]\n 32027: a0 = a3 & 0x1\n 32030: jump @1142 if a0 != 0\n      : @1137 (gas: 10)\n 32034: a0 = u64 [s1 + 0x20]\n 32037: a1 = u64 [s1 + 0x18]\n 32040: a0 = a0 | a1\n 32043: a1 = 0xffffffe0\n 32053: a4 = u64 [s1 + 0x30]\n 32056: a1 = a4 <u a1\n 32059: a2 = u64 [s1 + 0x28]\n 32062: a1 = 0 if a2 != 0\n 32064: a1 = 0 if a0 != 0\n 32066: jump @1151 if a1 == 0\n      : @1138 (gas: 12)\n 32070: a1 = a3 & 0xffffffffffffff00\n 32074: i32 a0 = a4 + 0x20\n 32077: a3 = u64 [s1 + 0x80]\n 32081: a2 = s1 + 0x100\n 32085: u64 [a2 + 0x8] = a3\n 32088: u64 [a2] = a1\n 32090: a1 = u64 [s1 + 0x88]\n 32094: u64 [a2 + 0x10] = a1\n 32097: a1 = s1 + 0x100\n 32101: a3 = u64 [s1 + 0x90]\n 32105: u64 [a2 + 0x18] = a3\n 32108: ra = 1180, jump @19\n      : @1139 [@dyn 590] (gas: 14)\n 32114: t2 = 0\n 32116: t1 = 0\n 32118: t0 = 0\n 32120: a0 = u64 [s1 + 0x68]\n 32123: a1 = u64 [s1 + 0x60]\n 32126: a0 = a0 | a1\n 32129: a1 = u64 [s1 + 0x78]\n 32132: a2 = u64 [s1 + 0x70]\n 32135: a1 = a1 | a2\n 32138: a0 = a0 | a1\n 32141: a0 = a0 >u 0\n 32143: a0 = a0 << 0x5\n 32146: u64 [s1 + 0xb8] = a0\n 32150: fallthrough\n      : @1140 (gas: 24)\n 32151: a1 = u64 [s1 + 0xb8]\n 32155: a0 = a1 + 0x20\n 32158: a1 = a0 <u a1\n 32161: a2 = t2 + a1\n 32164: a3 = a2 <u t2\n 32167: a3 = a1 if a1 == 0\n 32170: a3 = a3 + t1\n 32173: a1 = a3 <u t1\n 32176: a4 = t0 + a1\n 32179: a1 = u64 [s1 + 0x30]\n 32182: u64 [s1 + 0xe0] = a1\n 32186: u64 [s1 + 0xc0] = a0\n 32190: a0 = u64 [s1 + 0x28]\n 32193: u64 [s1 + 0xe8] = a0\n 32197: a0 = u64 [s1 + 0x20]\n 32200: u64 [s1 + 0xf0] = a0\n 32204: u64 [s1 + 0xc8] = a2\n 32208: a0 = u64 [s1 + 0x18]\n 32211: u64 [s1 + 0xf8] = a0\n 32215: u64 [s1 + 0xd0] = a3\n 32219: a0 = s1 + 0xe0\n 32223: a1 = s1 + 0xc0\n 32227: u64 [s1 + 0xd8] = a4\n 32231: ra = 1182, jump @1122\n      : @1141 [@dyn 591] (gas: 16)\n 32237: a0 = u64 [s1 + 0x10]\n 32240: a1 = u64 [s1 + 0x18]\n 32243: u64 [a0 + 0x18] = a1\n 32246: a1 = u64 [s1 + 0x20]\n 32249: u64 [a0 + 0x10] = a1\n 32252: a1 = u64 [s1 + 0x28]\n 32255: u64 [a0 + 0x8] = a1\n 32258: a1 = u64 [s1 + 0x30]\n 32261: u64 [a0] = a1\n 32263: sp = s0 + 0xfffffffffffffda0\n 32267: a0 = sp + 0x200\n 32271: ra = u64 [a0 + 0x58]\n 32274: s0 = u64 [a0 + 0x50]\n 32277: s1 = u64 [a0 + 0x48]\n 32280: sp = sp + 0x260\n 32284: ret\n      : @1142 (gas: 12)\n 32286: a0 = u64 [s1 + 0x98]\n 32290: a2 = s1 + 0x100\n 32294: u64 [a2 + 0x60] = a0\n 32297: a0 = u64 [s1 + 0xa0]\n 32301: u64 [a2 + 0x68] = a0\n 32304: a0 = u64 [s1 + 0xa8]\n 32308: u64 [a2 + 0x70] = a0\n 32311: a1 = s1 + 0x160\n 32315: a0 = u64 [s1 + 0xb0]\n 32319: u64 [a2 + 0x78] = a0\n 32322: a0 = 0\n 32324: ra = 1184, jump @19\n      : @1143 [@dyn 592] (gas: 6)\n 32330: a0 = sp + 0xffffffffffffffe0\n 32333: a0 = a0 & 0xffffffffffffffe0\n 32336: u64 [s1 + 0x58] = a0\n 32339: sp = a0\n 32341: a1 = i32 [0x20094]\n 32346: jump @1145 if a1 >u 31\n      : @1144 (gas: 2)\n 32350: u32 [0x20094] = 0x20\n 32356: fallthrough\n      : @1145 (gas: 49)\n 32357: a0 = sp + 0xffffffffffffffe0\n 32360: a2 = a0 & 0xffffffffffffffe0\n 32363: u64 [s1 + 0xb0] = a2\n 32367: sp = a2\n 32369: a0 = 0x200a0\n 32374: i32 a0 = a0 + 0\n 32376: i32 a2 = a2 + 0\n 32378: a1 = 0x20\n 32381: ecalli 6 // 'hash_keccak_256'\n 32383: u64 [s1 + 184] = 0\n 32387: t2 = 0\n 32389: t1 = 0\n 32391: t0 = 0\n 32393: a5 = u64 [s1 + 0xb0]\n 32397: a0 = u64 [a5 + 0x18]\n 32400: a1 = u64 [s1 + 0x30]\n 32403: a2 = a1 + 0x20\n 32406: u64 [s1 + 0x50] = a2\n 32409: a1 = a2 <u a1\n 32412: a2 = u64 [s1 + 0x28]\n 32415: a3 = a2 + a1\n 32418: u64 [s1 + 0x48] = a3\n 32421: a4 = a3 <u a2\n 32424: a4 = a1 if a1 == 0\n 32427: a1 = u64 [a5 + 0x10]\n 32430: a2 = u64 [a5 + 0x8]\n 32433: a3 = u64 [a5]\n 32435: a0 = reverse a0\n 32437: a1 = reverse a1\n 32439: ra = reverse a2\n 32441: a2 = reverse a3\n 32443: a5 = u64 [s1 + 0x58]\n 32446: a3 = a2\n 32448: u64 [a5 + 0x18] = a2\n 32451: a2 = ra\n 32453: u64 [s1 + 0x80] = a2\n 32457: u64 [a5 + 0x10] = a2\n 32460: u64 [s1 + 0x90] = a1\n 32464: u64 [a5 + 0x8] = a1\n 32467: a2 = a0\n 32469: u64 [a5] = a0\n 32471: a0 = u64 [s1 + 0x20]\n 32474: a4 = a4 + a0\n 32477: u64 [s1 + 0x40] = a4\n 32480: a0 = a4 <u a0\n 32483: a1 = u64 [s1 + 0x18]\n 32486: a0 = a0 + a1\n 32489: u64 [s1 + 0x38] = a0\n 32492: fallthrough\n      : @1146 (gas: 19)\n 32493: u64 [s1 + 0x88] = a3\n 32497: u64 [s1 + 0x98] = a2\n 32501: a0 = u64 [s1 + 0x60]\n 32504: a1 = u64 [s1 + 0xb8]\n 32508: a0 = a1 <u a0\n 32511: a2 = u64 [s1 + 0x70]\n 32514: a1 = t2 ^ a2\n 32517: a2 = t2 <u a2\n 32520: a2 = a0 if a1 == 0\n 32523: a4 = u64 [s1 + 0x68]\n 32526: a0 = t1 <u a4\n 32529: a3 = u64 [s1 + 0x78]\n 32532: a1 = t0 ^ a3\n 32535: a3 = t0 <u a3\n 32538: a3 = a0 if a1 == 0\n 32541: a0 = t1 ^ a4\n 32544: a0 = a0 | a1\n 32547: a3 = a2 if a0 == 0\n 32550: jump @1140 if a3 == 0\n      : @1147 (gas: 6)\n 32554: a0 = s1 + 0x140\n 32558: a1 = a5\n 32560: u64 [s1 + 0xb0] = t0\n 32564: u64 [s1 + 0xa8] = t1\n 32568: u64 [s1 + 0xa0] = t2\n 32572: ra = 1186, jump @21\n      : @1148 [@dyn 593] (gas: 30)\n 32578: a1 = u64 [s1 + 0x50]\n 32581: a0 = u64 [s1 + 0xb8]\n 32585: a0 = a0 + a1\n 32588: a1 = a0 <u a1\n 32591: a4 = u64 [s1 + 0x48]\n 32594: a2 = u64 [s1 + 0xa0]\n 32598: a2 = a2 + a4\n 32601: a2 = a2 + a1\n 32604: a3 = a2 ^ a4\n 32607: a4 = a2 <u a4\n 32610: a4 = a1 if a3 == 0\n 32613: a3 = u64 [s1 + 0x40]\n 32616: a1 = u64 [s1 + 0xa8]\n 32620: a1 = a1 + a3\n 32623: t0 = a1 <u a3\n 32626: a5 = u64 [s1 + 0x38]\n 32629: a3 = u64 [s1 + 0xb0]\n 32633: a5 = a5 + a3\n 32636: a3 = a5 + t0\n 32639: a4 = a4 + a1\n 32642: a1 = a4 <u a1\n 32645: a1 = a1 + a3\n 32648: a1 = a1 | a2\n 32651: a2 = a0 | a4\n 32654: a2 = a2 | a1\n 32657: a1 = a1 | a4\n 32660: a2 = a2 >> 0x20\n 32663: a1 = a1 << 0x20\n 32666: a1 = a1 | a2\n 32669: jump @1151 if a1 != 0\n      : @1149 (gas: 11)\n 32673: a5 = s1 + 0x100\n 32677: a2 = u64 [a5 + 0x58]\n 32680: a1 = u64 [a5 + 0x50]\n 32683: a3 = u64 [a5 + 0x48]\n 32686: a4 = u64 [a5 + 0x40]\n 32689: u64 [a5 + 0x20] = a4\n 32692: u64 [a5 + 0x28] = a3\n 32695: u64 [a5 + 0x30] = a1\n 32698: a1 = s1 + 0x120\n 32702: u64 [a5 + 0x38] = a2\n 32705: ra = 1188, jump @19\n      : @1150 [@dyn 594] (gas: 38)\n 32711: a3 = u64 [s1 + 0x98]\n 32715: a3 = a3 + 0x1\n 32718: a0 = a3 <u 0x1\n 32721: t2 = u64 [s1 + 0x90]\n 32725: t2 = t2 + a0\n 32728: a0 = a3 | t2\n 32731: a0 = a0 <u 0x1\n 32734: a1 = u64 [s1 + 0x80]\n 32738: t1 = a1 + a0\n 32741: a1 = t1 <u a1\n 32744: a0 = u64 [s1 + 0x88]\n 32748: a0 = a0 + a1\n 32751: a1 = u64 [s1 + 0xb8]\n 32755: ra = a1 + 0x20\n 32758: a2 = ra <u a1\n 32761: a4 = u64 [s1 + 0xa0]\n 32765: a1 = a4 + a2\n 32768: a4 = a1 <u a4\n 32771: a4 = a2 if a2 == 0\n 32774: a2 = u64 [s1 + 0xa8]\n 32778: a4 = a4 + a2\n 32781: a2 = a4 <u a2\n 32784: t0 = u64 [s1 + 0xb0]\n 32788: t0 = t0 + a2\n 32791: a2 = t2\n 32793: u64 [s1 + 0x90] = a2\n 32797: a5 = u64 [s1 + 0x58]\n 32800: u64 [a5 + 0x8] = a2\n 32803: a2 = a3\n 32805: u64 [a5] = a3\n 32807: u64 [a5 + 0x10] = t1\n 32810: a3 = a0\n 32812: u64 [a5 + 0x18] = a0\n 32815: u64 [s1 + 0x80] = t1\n 32819: u64 [s1 + 0xb8] = ra\n 32823: t2 = a1\n 32825: t1 = a4\n 32827: jump @1146\n      : @1151 (gas: 1)\n 32830: trap\n      : @1152 (gas: 21)\n 32831: sp = sp + 0xffffffffffffff10\n 32835: u64 [sp + 0xe8] = ra\n 32839: u64 [sp + 0xe0] = s0\n 32843: u64 [sp + 0xd8] = s1\n 32847: s0 = sp + 0xf0\n 32851: sp = sp & 0xfffffffffffffff0\n 32854: a5 = u64 [a1 + 0x10]\n 32857: a4 = u64 [a1 + 0x18]\n 32860: a3 = u64 [a1 + 0x8]\n 32863: a1 = u64 [a1]\n 32865: u64 [sp + 0x28] = a3\n 32868: u64 [sp + 0x18] = a4\n 32871: a4 = a4 | a3\n 32874: a3 = a1 | a5\n 32877: a3 = a3 | a4\n 32880: a3 = a3 >> 0x20\n 32883: u64 [sp + 0x20] = a5\n 32886: a4 = a4 | a5\n 32889: a4 = a4 << 0x20\n 32892: a3 = a3 | a4\n 32895: jump @1166 if a3 != 0\n      : @1153 (gas: 11)\n 32899: u64 [sp + 0x8] = a0\n 32902: a0 = u64 [a2 + 0x18]\n 32905: u64 [sp + 0x68] = a0\n 32908: s1 = u64 [a2 + 0x10]\n 32911: a0 = u64 [a2 + 0x8]\n 32914: u64 [sp + 0x60] = a0\n 32917: a0 = u64 [a2]\n 32919: u64 [sp + 0x58] = a0\n 32922: a0 = sp + 0xb0\n 32926: u64 [sp + 0x10] = a1\n 32929: ra = 1190, jump @17\n      : @1154 [@dyn 595] (gas: 12)\n 32936: a0 = u64 [sp + 0x58]\n 32939: a2 = a0 | s1\n 32942: a1 = u64 [sp + 0x68]\n 32945: a3 = u64 [sp + 0x60]\n 32948: a1 = a1 | a3\n 32951: a2 = a2 | a1\n 32954: a2 = a2 >> 0x20\n 32957: u64 [sp + 0x50] = s1\n 32960: a1 = a1 | s1\n 32963: a1 = a1 << 0x20\n 32966: a1 = a1 | a2\n 32969: jump @1166 if a1 != 0\n      : @1155 (gas: 15)\n 32973: a2 = u64 [sp + 0xc8]\n 32977: a3 = u64 [sp + 0xc0]\n 32981: a4 = u64 [sp + 0xb8]\n 32985: a1 = u64 [sp + 0xb0]\n 32989: u64 [sp + 0x30] = a1\n 32992: u64 [sp + 0x90] = a1\n 32996: u64 [sp + 0x38] = a4\n 32999: u64 [sp + 0x98] = a4\n 33003: u64 [sp + 0x40] = a3\n 33006: u64 [sp + 0xa0] = a3\n 33010: a1 = sp + 0x90\n 33014: u64 [sp + 0x48] = a2\n 33017: u64 [sp + 0xa8] = a2\n 33021: s1 = a0\n 33023: ra = 1192, jump @19\n      : @1156 [@dyn 596] (gas: 9)\n 33029: a0 = u64 [sp + 0x68]\n 33032: a1 = u64 [sp + 0x50]\n 33035: a1 = a1 | a0\n 33038: a0 = 0xffffffe0\n 33048: a2 = s1 <u a0\n 33051: a3 = u64 [sp + 0x60]\n 33054: a2 = 0 if a3 != 0\n 33056: a2 = 0 if a1 != 0\n 33058: jump @1166 if a2 == 0\n      : @1157 (gas: 9)\n 33062: a1 = u64 [sp + 0x20]\n 33065: a2 = u64 [sp + 0x18]\n 33068: a1 = a1 | a2\n 33071: a2 = u64 [sp + 0x10]\n 33074: a0 = a2 <u a0\n 33077: a3 = u64 [sp + 0x28]\n 33080: a0 = 0 if a3 != 0\n 33082: a0 = 0 if a1 != 0\n 33084: jump @1166 if a0 == 0\n      : @1158 (gas: 13)\n 33088: a5 = s1\n 33090: s1 = u64 [sp + 0x30]\n 33093: a3 = u64 [sp + 0x40]\n 33096: a0 = s1 | a3\n 33099: a1 = u64 [sp + 0x48]\n 33102: a4 = u64 [sp + 0x38]\n 33105: a1 = a1 | a4\n 33108: a0 = a0 | a1\n 33111: a0 = a0 >> 0x20\n 33114: a1 = a1 | a3\n 33117: a1 = a1 << 0x20\n 33120: a0 = a0 | a1\n 33123: jump @1166 if a0 != 0\n      : @1159 (gas: 5)\n 33127: i32 a0 = a5 + 0x20\n 33130: i32 a1 = a2 + 0x20\n 33133: u64 [sp + 0x28] = a1\n 33136: a1 = s1\n 33138: ra = 1194, jump @27\n      : @1160 [@dyn 597] (gas: 4)\n 33144: u64 [sp + 0x20] = a0\n 33147: a0 = u64 [sp + 0x28]\n 33150: a1 = s1\n 33152: ra = 1196, jump @27\n      : @1161 [@dyn 598] (gas: 4)\n 33158: a1 = a0\n 33160: a0 = u64 [sp + 0x20]\n 33163: a2 = s1\n 33165: ra = 1198, jump @0\n      : @1162 [@dyn 599] (gas: 27)\n 33172: a0 = u64 [sp + 0x58]\n 33175: a0 = a0 + s1\n 33178: a1 = a0 <u s1\n 33181: a2 = u64 [sp + 0x60]\n 33184: a4 = u64 [sp + 0x38]\n 33187: a2 = a2 + a4\n 33190: a2 = a2 + a1\n 33193: a3 = a2 ^ a4\n 33196: a4 = a2 <u a4\n 33199: a4 = a1 if a3 == 0\n 33202: a1 = u64 [sp + 0x50]\n 33205: a3 = u64 [sp + 0x40]\n 33208: a1 = a1 + a3\n 33211: a3 = a1 <u a3\n 33214: a5 = u64 [sp + 0x68]\n 33217: s1 = u64 [sp + 0x48]\n 33220: a5 = a5 + s1\n 33223: a3 = a3 + a5\n 33226: a4 = a4 + a1\n 33229: a1 = a4 <u a1\n 33232: a1 = a1 + a3\n 33235: a1 = a1 | a4\n 33238: a3 = 0xffffffe0\n 33248: a3 = a0 <u a3\n 33251: a3 = 0 if a2 != 0\n 33253: a3 = 0 if a1 != 0\n 33255: jump @1166 if a3 == 0\n      : @1163 (gas: 7)\n 33259: i32 a0 = a0 + 0x20\n 33262: u64 [sp + 136] = 0\n 33266: u64 [sp + 128] = 0\n 33270: u64 [sp + 120] = 0\n 33273: a1 = sp + 0x70\n 33276: u64 [sp + 112] = 0\n 33279: ra = 1200, jump @19\n      : @1164 [@dyn 600] (gas: 9)\n 33286: s1 = u64 [sp + 0x30]\n 33289: s1 = s1 + 0x1f\n 33292: a0 = 0x1ffffffe0\n 33302: a0 = a0 & s1\n 33305: a1 = u64 [sp + 0x58]\n 33308: a0 = a0 + a1\n 33311: a1 = a0 <u a1\n 33314: a3 = u64 [sp + 0x60]\n 33317: t0 = 1202, jump @1337\n      : @1165 [@dyn 601] (gas: 24)\n 33323: a1 = u64 [sp + 0x50]\n 33326: a3 = a3 + a1\n 33329: a1 = a3 <u a1\n 33332: a4 = u64 [sp + 0x68]\n 33335: a1 = a1 + a4\n 33338: a4 = a0 + 0x20\n 33341: a0 = a4 <u a0\n 33344: a5 = a2 + a0\n 33347: a2 = a5 <u a2\n 33350: a2 = a0 if a0 == 0\n 33353: a2 = a2 + a3\n 33356: a0 = a2 <u a3\n 33359: a0 = a0 + a1\n 33362: a1 = u64 [sp + 0x8]\n 33365: u64 [a1] = a4\n 33367: u64 [a1 + 0x8] = a5\n 33370: u64 [a1 + 0x10] = a2\n 33373: u64 [a1 + 0x18] = a0\n 33376: sp = s0 + 0xffffffffffffff10\n 33380: ra = u64 [sp + 0xe8]\n 33384: s0 = u64 [sp + 0xe0]\n 33388: s1 = u64 [sp + 0xd8]\n 33392: sp = sp + 0xf0\n 33396: ret\n      : @1166 (gas: 1)\n 33398: trap\n      : @1167 (gas: 23)\n 33399: sp = sp + 0xfffffffffffffd10\n 33403: a3 = sp + 0x200\n 33407: u64 [a3 + 0xe8] = ra\n 33411: u64 [a3 + 0xe0] = s0\n 33415: u64 [a3 + 0xd8] = s1\n 33419: s0 = sp + 0x2f0\n 33423: sp = sp & 0xfffffffffffffff0\n 33426: a5 = u64 [a1 + 0x10]\n 33429: a4 = u64 [a1 + 0x18]\n 33432: a3 = u64 [a1 + 0x8]\n 33435: a1 = u64 [a1]\n 33437: u64 [sp + 0x58] = a3\n 33440: u64 [sp + 0x40] = a4\n 33443: a4 = a4 | a3\n 33446: a3 = a1 | a5\n 33449: a3 = a3 | a4\n 33452: a3 = a3 >> 0x20\n 33455: u64 [sp + 0x48] = a5\n 33458: a4 = a4 | a5\n 33461: a4 = a4 << 0x20\n 33464: a3 = a3 | a4\n 33467: u64 [sp + 0x8] = a0\n 33470: jump @1214 if a3 != 0\n      : @1168 (gas: 10)\n 33474: a0 = u64 [a2 + 0x18]\n 33477: u64 [sp + 0x38] = a0\n 33480: s1 = u64 [a2 + 0x10]\n 33483: a0 = u64 [a2 + 0x8]\n 33486: u64 [sp + 0x60] = a0\n 33489: a0 = u64 [a2]\n 33491: u64 [sp + 0x68] = a0\n 33494: a0 = sp + 0x2b0\n 33498: u64 [sp + 0x50] = a1\n 33501: ra = 1204, jump @17\n      : @1169 [@dyn 602] (gas: 12)\n 33508: a0 = u64 [sp + 0x68]\n 33511: a0 = a0 | s1\n 33514: a1 = u64 [sp + 0x38]\n 33517: a2 = u64 [sp + 0x60]\n 33520: a1 = a1 | a2\n 33523: a0 = a0 | a1\n 33526: a0 = a0 >> 0x20\n 33529: u64 [sp + 0x30] = s1\n 33532: a1 = a1 | s1\n 33535: a1 = a1 << 0x20\n 33538: a0 = a0 | a1\n 33541: jump @1214 if a0 != 0\n      : @1170 (gas: 9)\n 33545: a2 = sp + 0x200\n 33549: a0 = u64 [a2 + 0xb0]\n 33553: u64 [a2 + 168] = 0\n 33557: u64 [a2 + 160] = 0\n 33561: u64 [a2 + 152] = 0\n 33565: a1 = sp + 0x290\n 33569: u64 [a2 + 0x90] = a0\n 33573: a0 = u64 [sp + 0x68]\n 33576: ra = 1206, jump @19\n      : @1171 [@dyn 603] (gas: 11)\n 33583: a0 = u64 [sp + 0x48]\n 33586: a3 = u64 [sp + 0x40]\n 33589: a3 = a3 | a0\n 33592: s1 = 0xffffffe0\n 33602: a1 = u64 [sp + 0x50]\n 33605: a0 = a1 <u s1\n 33608: a2 = u64 [sp + 0x58]\n 33611: a0 = 0 if a2 != 0\n 33613: u64 [sp + 0x48] = a3\n 33616: a0 = 0 if a3 != 0\n 33618: jump @1214 if a0 == 0\n      : @1172 (gas: 3)\n 33622: i32 a1 = a1 + 0x20\n 33625: a0 = sp + 0x270\n 33629: ra = 1208, jump @17\n      : @1173 [@dyn 604] (gas: 10)\n 33636: a0 = u64 [sp + 0x38]\n 33639: a2 = u64 [sp + 0x30]\n 33642: a2 = a2 | a0\n 33645: a0 = u64 [sp + 0x68]\n 33648: a0 = a0 <u s1\n 33651: a1 = u64 [sp + 0x60]\n 33654: a0 = 0 if a1 != 0\n 33656: u64 [sp + 0x40] = a2\n 33659: a0 = 0 if a2 != 0\n 33661: jump @1214 if a0 == 0\n      : @1174 (gas: 14)\n 33665: a4 = sp + 0x200\n 33669: a0 = u64 [a4 + 0x80]\n 33673: a1 = u64 [a4 + 0x78]\n 33676: a2 = u64 [a4 + 0x70]\n 33679: a0 = a0 << 0x20\n 33682: a3 = a0 >> 0x20\n 33685: a0 = u64 [sp + 0x68]\n 33688: i32 a0 = a0 + 0x20\n 33691: u64 [a4 + 104] = 0\n 33694: u64 [a4 + 0x50] = a2\n 33697: u64 [a4 + 0x58] = a1\n 33700: a1 = sp + 0x250\n 33704: u64 [a4 + 0x60] = a3\n 33707: ra = 1210, jump @19\n      : @1175 [@dyn 605] (gas: 2)\n 33714: s1 = 0xffffffc0\n 33724: t0 = 1212, jump @1310\n      : @1176 [@dyn 606] (gas: 1)\n 33730: jump @1214 if a0 == 0\n      : @1177 (gas: 3)\n 33734: i32 a1 = a1 + 0x40\n 33737: a0 = sp + 0x230\n 33741: ra = 1214, jump @17\n      : @1178 [@dyn 607] (gas: 1)\n 33748: t0 = 1216, jump @1309\n      : @1179 [@dyn 608] (gas: 1)\n 33754: jump @1214 if a0 == 0\n      : @1180 (gas: 17)\n 33758: a2 = sp + 0x200\n 33762: a0 = u64 [a2 + 0x48]\n 33765: u64 [sp + 0x10] = a0\n 33768: a0 = u64 [a2 + 0x40]\n 33771: u64 [sp + 0x18] = a0\n 33774: a0 = u64 [a2 + 0x38]\n 33777: u64 [sp + 0x20] = a0\n 33780: a0 = u64 [a2 + 0x30]\n 33783: u64 [sp + 0x28] = a0\n 33786: s1 = u64 [sp + 0x68]\n 33789: i32 a0 = s1 + 0x40\n 33792: u64 [a2 + 40] = 0\n 33795: u64 [a2 + 32] = 0\n 33798: u64 [a2 + 16] = 0x100\n 33803: a1 = sp + 0x210\n 33807: u64 [a2 + 24] = 0\n 33810: ra = 1218, jump @19\n      : @1181 [@dyn 609] (gas: 4)\n 33817: a0 = s1 + 0x100\n 33821: a1 = a0 <u s1\n 33824: a3 = u64 [sp + 0x60]\n 33827: t0 = 1220, jump @1337\n      : @1182 [@dyn 610] (gas: 21)\n 33833: a1 = u64 [sp + 0x30]\n 33836: a3 = a3 + a1\n 33839: a1 = a3 <u a1\n 33842: a4 = u64 [sp + 0x38]\n 33845: a4 = a4 + a1\n 33848: u64 [sp + 0x1b8] = a2\n 33852: u64 [sp + 0x1b0] = a0\n 33856: a0 = u64 [sp + 0x10]\n 33859: u64 [sp + 0x1e8] = a0\n 33863: a0 = u64 [sp + 0x18]\n 33866: u64 [sp + 0x1e0] = a0\n 33870: a0 = u64 [sp + 0x20]\n 33873: u64 [sp + 0x1d8] = a0\n 33877: a0 = u64 [sp + 0x28]\n 33880: u64 [sp + 0x1d0] = a0\n 33884: u64 [sp + 0x1c0] = a3\n 33888: a0 = sp + 0x1f0\n 33892: a1 = sp + 0x1d0\n 33896: a2 = sp + 0x1b0\n 33900: u64 [sp + 0x1c8] = a4\n 33904: ra = 1222, jump @1152\n      : @1183 [@dyn 611] (gas: 2)\n 33910: s1 = 0xffffffa0\n 33920: t0 = 1224, jump @1310\n      : @1184 [@dyn 612] (gas: 1)\n 33926: jump @1214 if a0 == 0\n      : @1185 (gas: 11)\n 33930: a0 = u64 [sp + 0x208]\n 33934: u64 [sp + 0x20] = a0\n 33937: a0 = u64 [sp + 0x200]\n 33941: u64 [sp + 0x28] = a0\n 33944: a0 = u64 [sp + 0x1f8]\n 33948: u64 [sp + 0x30] = a0\n 33951: a0 = u64 [sp + 0x1f0]\n 33955: u64 [sp + 0x38] = a0\n 33958: i32 a1 = a1 + 0x60\n 33961: a0 = sp + 0x190\n 33965: ra = 1226, jump @17\n      : @1186 [@dyn 613] (gas: 1)\n 33972: t0 = 1228, jump @1309\n      : @1187 [@dyn 614] (gas: 1)\n 33978: jump @1214 if a0 == 0\n      : @1188 (gas: 10)\n 33982: a0 = u64 [sp + 0x190]\n 33986: a1 = a0 & 0xffffffffffffffff\n 33989: a0 = u64 [sp + 0x68]\n 33992: i32 a0 = a0 + 0x60\n 33995: u64 [sp + 392] = 0\n 33999: u64 [sp + 384] = 0\n 34003: u64 [sp + 0x170] = a1\n 34007: a1 = sp + 0x170\n 34011: u64 [sp + 376] = 0\n 34015: ra = 1230, jump @19\n      : @1189 [@dyn 615] (gas: 2)\n 34022: s1 = 0xffffff80\n 34032: t0 = 1232, jump @1310\n      : @1190 [@dyn 616] (gas: 1)\n 34038: jump @1214 if a0 == 0\n      : @1191 (gas: 3)\n 34042: i32 a1 = a1 + 0x80\n 34046: a0 = sp + 0x150\n 34050: ra = 1234, jump @17\n      : @1192 [@dyn 617] (gas: 1)\n 34057: t0 = 1236, jump @1309\n      : @1193 [@dyn 618] (gas: 1)\n 34063: jump @1214 if a0 == 0\n      : @1194 (gas: 10)\n 34067: a0 = u64 [sp + 0x150]\n 34071: a1 = a0 & 0xffffffffffffffff\n 34074: a0 = u64 [sp + 0x68]\n 34077: i32 a0 = a0 + 0x80\n 34081: u64 [sp + 328] = 0\n 34085: u64 [sp + 320] = 0\n 34089: u64 [sp + 0x130] = a1\n 34093: a1 = sp + 0x130\n 34097: u64 [sp + 312] = 0\n 34101: ra = 1238, jump @19\n      : @1195 [@dyn 619] (gas: 2)\n 34108: s1 = 0xffffff60\n 34118: t0 = 1240, jump @1310\n      : @1196 [@dyn 620] (gas: 1)\n 34124: jump @1214 if a0 == 0\n      : @1197 (gas: 3)\n 34128: i32 a1 = a1 + 0xa0\n 34132: a0 = sp + 0x110\n 34136: ra = 1242, jump @17\n      : @1198 [@dyn 621] (gas: 1)\n 34143: t0 = 1244, jump @1309\n      : @1199 [@dyn 622] (gas: 1)\n 34149: jump @1214 if a0 == 0\n      : @1200 (gas: 10)\n 34153: a0 = u64 [sp + 0x110]\n 34157: a1 = a0 & 0xffffffffffffffff\n 34160: a0 = u64 [sp + 0x68]\n 34163: i32 a0 = a0 + 0xa0\n 34167: u64 [sp + 264] = 0\n 34171: u64 [sp + 256] = 0\n 34175: u64 [sp + 0xf0] = a1\n 34179: a1 = sp + 0xf0\n 34183: u64 [sp + 248] = 0\n 34187: ra = 1246, jump @19\n      : @1201 [@dyn 623] (gas: 2)\n 34194: s1 = 0xffffff40\n 34204: t0 = 1248, jump @1310\n      : @1202 [@dyn 624] (gas: 1)\n 34210: jump @1214 if a0 == 0\n      : @1203 (gas: 3)\n 34214: i32 a1 = a1 + 0xc0\n 34218: a0 = sp + 0xd0\n 34222: ra = 1250, jump @17\n      : @1204 [@dyn 625] (gas: 1)\n 34229: t0 = 1252, jump @1309\n      : @1205 [@dyn 626] (gas: 1)\n 34235: jump @1214 if a0 == 0\n      : @1206 (gas: 16)\n 34239: a0 = u64 [sp + 0xe8]\n 34243: a1 = u64 [sp + 0xe0]\n 34247: a2 = u64 [sp + 0xd0]\n 34251: a3 = u64 [sp + 0xd8]\n 34255: a1 = a1 | a2\n 34258: a0 = a0 | a3\n 34261: a0 = a0 | a1\n 34264: a1 = a0 >u 0\n 34266: a0 = u64 [sp + 0x68]\n 34269: i32 a0 = a0 + 0xc0\n 34273: u64 [sp + 200] = 0\n 34277: u64 [sp + 192] = 0\n 34281: u64 [sp + 0xb0] = a1\n 34285: a1 = sp + 0xb0\n 34289: u64 [sp + 184] = 0\n 34293: ra = 1254, jump @19\n      : @1207 [@dyn 627] (gas: 2)\n 34300: s1 = 0xffffff20\n 34310: t0 = 1256, jump @1310\n      : @1208 [@dyn 628] (gas: 1)\n 34316: jump @1214 if a0 == 0\n      : @1209 (gas: 3)\n 34319: i32 a1 = a1 + 0xe0\n 34323: a0 = sp + 0x90\n 34327: ra = 1258, jump @17\n      : @1210 [@dyn 629] (gas: 1)\n 34334: t0 = 1260, jump @1309\n      : @1211 [@dyn 630] (gas: 1)\n 34340: jump @1214 if a0 == 0\n      : @1212 (gas: 10)\n 34343: a0 = u64 [sp + 0x90]\n 34347: a1 = a0 & 0xffffffffffffffff\n 34350: a0 = u64 [sp + 0x68]\n 34353: i32 a0 = a0 + 0xe0\n 34357: u64 [sp + 136] = 0\n 34361: u64 [sp + 128] = 0\n 34365: u64 [sp + 0x70] = a1\n 34368: a1 = sp + 0x70\n 34371: u64 [sp + 120] = 0\n 34374: ra = 1262, jump @19\n      : @1213 [@dyn 631] (gas: 16)\n 34381: a0 = u64 [sp + 0x8]\n 34384: a1 = u64 [sp + 0x20]\n 34387: u64 [a0 + 0x18] = a1\n 34390: a1 = u64 [sp + 0x28]\n 34393: u64 [a0 + 0x10] = a1\n 34396: a1 = u64 [sp + 0x30]\n 34399: u64 [a0 + 0x8] = a1\n 34402: a1 = u64 [sp + 0x38]\n 34405: u64 [a0] = a1\n 34407: sp = s0 + 0xfffffffffffffd10\n 34411: a0 = sp + 0x200\n 34415: ra = u64 [a0 + 0xe8]\n 34419: s0 = u64 [a0 + 0xe0]\n 34423: s1 = u64 [a0 + 0xd8]\n 34427: sp = sp + 0x2f0\n 34431: ret\n      : @1214 (gas: 1)\n 34433: trap\n      : @1215 (gas: 31)\n 34434: sp = sp + 0xfffffffffffffee0\n 34438: u64 [sp + 0x118] = ra\n 34442: u64 [sp + 0x110] = s0\n 34446: u64 [sp + 0x108] = s1\n 34450: s0 = sp + 0x120\n 34454: sp = sp & 0xffffffffffffffe0\n 34457: s1 = sp\n 34459: u64 [s1 + 0x38] = a0\n 34462: a0 = u64 [a2]\n 34464: u64 [s1 + 0x58] = a0\n 34467: a0 = u64 [a2 + 0x8]\n 34470: u64 [s1 + 0x50] = a0\n 34473: a0 = u64 [a2 + 0x10]\n 34476: u64 [s1 + 0x48] = a0\n 34479: a0 = u64 [a2 + 0x18]\n 34482: u64 [s1 + 0x40] = a0\n 34485: a0 = u64 [a1 + 0x18]\n 34488: a2 = u64 [a1 + 0x10]\n 34491: a3 = u64 [a1 + 0x8]\n 34494: a1 = u64 [a1]\n 34496: u64 [s1 + 0x30] = a0\n 34499: u64 [s1 + 0xf8] = a0\n 34503: u64 [s1 + 0x28] = a2\n 34506: u64 [s1 + 0xf0] = a2\n 34510: u64 [s1 + 0x20] = a3\n 34513: u64 [s1 + 0xe8] = a3\n 34517: u64 [s1 + 0x18] = a1\n 34520: u64 [s1 + 0xe0] = a1\n 34524: a0 = s1 + 0xc0\n 34528: a1 = s1 + 0xe0\n 34532: ra = 1264, jump @21\n      : @1216 [@dyn 632] (gas: 20)\n 34539: a0 = u64 [s1 + 0xd8]\n 34543: t0 = u64 [s1 + 0xc0]\n 34547: a2 = u64 [s1 + 0xd0]\n 34551: a3 = u64 [s1 + 0xc8]\n 34555: a1 = u64 [s1 + 0x40]\n 34558: a4 = a0 ^ a1\n 34561: a1 = a1 <u a0\n 34564: a0 = u64 [s1 + 0x48]\n 34567: a5 = a0 <u a2\n 34570: a5 = a1 if a4 != 0\n 34573: a1 = u64 [s1 + 0x50]\n 34576: t1 = a3 ^ a1\n 34579: a3 = a1 <u a3\n 34582: a1 = u64 [s1 + 0x58]\n 34585: a1 = a1 <u t0\n 34588: a1 = a3 if t1 != 0\n 34591: a0 = a0 ^ a2\n 34594: a0 = a0 | a4\n 34597: a1 = a5 if a0 != 0\n 34600: jump @1221 if a1 == 0\n      : @1217 (gas: 11)\n 34604: a0 = u64 [s1 + 0x18]\n 34607: u64 [s1 + 0x60] = a0\n 34610: a0 = u64 [s1 + 0x20]\n 34613: u64 [s1 + 0x68] = a0\n 34616: a0 = u64 [s1 + 0x28]\n 34619: u64 [s1 + 0x70] = a0\n 34622: a1 = s1 + 0x60\n 34625: a0 = u64 [s1 + 0x30]\n 34628: u64 [s1 + 0x78] = a0\n 34631: a0 = 0\n 34633: ra = 1266, jump @19\n      : @1218 [@dyn 633] (gas: 2)\n 34640: a1 = i32 [0x20094]\n 34645: jump @1220 if a1 >u 31\n      : @1219 (gas: 2)\n 34649: u32 [0x20094] = 0x20\n 34655: fallthrough\n      : @1220 (gas: 62)\n 34656: a0 = sp + 0xffffffffffffffe0\n 34659: a2 = a0 & 0xffffffffffffffe0\n 34662: u64 [s1 + 0x30] = a2\n 34665: sp = a2\n 34667: a0 = 0x200a0\n 34672: i32 a0 = a0 + 0\n 34674: i32 a2 = a2 + 0\n 34676: a1 = 0x20\n 34679: ecalli 6 // 'hash_keccak_256'\n 34681: a3 = u64 [s1 + 0x30]\n 34684: a0 = u64 [a3]\n 34686: a1 = u64 [a3 + 0x8]\n 34689: a2 = u64 [a3 + 0x18]\n 34692: a3 = u64 [a3 + 0x10]\n 34695: t0 = reverse a0\n 34697: a1 = reverse a1\n 34699: a2 = reverse a2\n 34701: a3 = reverse a3\n 34703: a0 = u64 [s1 + 0x48]\n 34706: a4 = a0 >> 0x3f\n 34709: a5 = u64 [s1 + 0x40]\n 34712: a5 = a5 << 0x1\n 34715: t1 = a5 | a4\n 34718: a4 = u64 [s1 + 0x50]\n 34721: a5 = a4 >> 0x3f\n 34724: a0 = a0 << 0x1\n 34727: t2 = a0 | a5\n 34730: a0 = u64 [s1 + 0x58]\n 34733: a5 = a0 >> 0x3f\n 34736: a4 = a4 << 0x1\n 34739: a4 = a4 | a5\n 34742: a5 = a0 << 0x1\n 34745: a4 = a4 + a3\n 34748: a5 = a5 + a2\n 34751: a2 = a5 <u a2\n 34754: a4 = a4 + a2\n 34757: a0 = a4 ^ a3\n 34760: a3 = a4 <u a3\n 34763: a3 = a2 if a0 == 0\n 34766: t2 = t2 + a1\n 34769: a3 = a3 + t2\n 34772: a0 = a3 <u t2\n 34775: t0 = t0 + t1\n 34778: a1 = t2 <u a1\n 34781: a1 = a1 + t0\n 34784: a0 = a0 + a1\n 34787: a1 = u64 [s1 + 0x38]\n 34790: a2 = 0\n 34792: u64 [a1 + 56] = 0\n 34795: u64 [a1 + 48] = 0\n 34798: u64 [a1 + 40] = 0\n 34801: u64 [a1 + 32] = 0\n 34804: u64 [a1] = a5\n 34806: u64 [a1 + 0x8] = a4\n 34809: u64 [a1 + 0x10] = a3\n 34812: u64 [a1 + 0x18] = a0\n 34815: sp = s0 + 0xfffffffffffffee0\n 34819: ra = u64 [sp + 0x118]\n 34823: s0 = u64 [sp + 0x110]\n 34827: s1 = u64 [sp + 0x108]\n 34831: sp = sp + 0x120\n 34835: ret\n      : @1221 (gas: 8)\n 34837: u64 [s1 + 176] = 0\n 34841: u64 [s1 + 168] = 0\n 34845: u64 [s1 + 160] = 0\n 34849: a0 = 0x4e487b7100000000\n 34859: a1 = s1 + 0xa0\n 34863: u64 [s1 + 0xb8] = a0\n 34867: a0 = 0\n 34869: ra = 1268, jump @19\n      : @1222 [@dyn 634] (gas: 7)\n 34876: u64 [s1 + 152] = 0\n 34880: u64 [s1 + 144] = 0\n 34884: u64 [s1 + 128] = 0x32\n 34889: a0 = 0x4\n 34892: a1 = s1 + 0x80\n 34896: u64 [s1 + 136] = 0\n 34900: ra = 1270, jump @19\n      : @1223 [@dyn 635] (gas: 2)\n 34907: a1 = i32 [0x20094]\n 34912: jump @1225 if a1 >u 63\n      : @1224 (gas: 2)\n 34916: u32 [0x20094] = 0x40\n 34922: fallthrough\n      : @1225 (gas: 7)\n 34923: a1 = 0x200a0\n 34928: i32 a1 = a1 + 0\n 34930: a0 = 0x1\n 34933: a2 = 0x24\n 34936: ra = 0x4f8\n 34940: ecalli 7 // 'seal_return'\n 34942: fallthrough\n      : @1226 [@dyn 636] (gas: 23)\n 34943: sp = sp + 0xffffffffffffff00\n 34947: u64 [sp + 0xf8] = ra\n 34951: u64 [sp + 0xf0] = s0\n 34955: u64 [sp + 0xe8] = s1\n 34959: s0 = sp + 0x100\n 34963: sp = sp & 0xffffffffffffffe0\n 34966: s1 = sp\n 34968: u64 [s1 + 0x18] = a0\n 34971: a0 = u64 [a1]\n 34973: u64 [s1 + 0x38] = a0\n 34976: a0 = u64 [a1 + 0x8]\n 34979: u64 [s1 + 0x20] = a0\n 34982: a0 = u64 [a1 + 0x10]\n 34985: u64 [s1 + 0x28] = a0\n 34988: a0 = u64 [a1 + 0x18]\n 34991: u64 [s1 + 0x30] = a0\n 34994: u64 [s1 + 216] = 0\n 34998: u64 [s1 + 208] = 0\n 35002: u64 [s1 + 200] = 0\n 35006: u64 [s1 + 192] = 0x3\n 35011: a0 = s1 + 0xa0\n 35015: a1 = s1 + 0xc0\n 35019: ra = 1274, jump @21\n      : @1227 [@dyn 637] (gas: 20)\n 35026: a0 = u64 [s1 + 0xb8]\n 35030: t0 = u64 [s1 + 0xa0]\n 35034: a2 = u64 [s1 + 0xb0]\n 35038: a3 = u64 [s1 + 0xa8]\n 35042: a1 = u64 [s1 + 0x30]\n 35045: a4 = a0 ^ a1\n 35048: a1 = a1 <u a0\n 35051: a0 = u64 [s1 + 0x28]\n 35054: a5 = a0 <u a2\n 35057: a5 = a1 if a4 != 0\n 35060: a1 = u64 [s1 + 0x20]\n 35063: t1 = a3 ^ a1\n 35066: a3 = a1 <u a3\n 35069: a1 = u64 [s1 + 0x38]\n 35072: a1 = a1 <u t0\n 35075: a1 = a3 if t1 != 0\n 35078: a0 = a0 ^ a2\n 35081: a0 = a0 | a4\n 35084: a1 = a5 if a0 != 0\n 35087: jump @1232 if a1 == 0\n      : @1228 (gas: 7)\n 35091: u64 [s1 + 88] = 0\n 35094: u64 [s1 + 80] = 0\n 35097: u64 [s1 + 72] = 0\n 35100: a1 = s1 + 0x40\n 35103: u64 [s1 + 64] = 0x3\n 35107: a0 = 0\n 35109: ra = 1276, jump @19\n      : @1229 [@dyn 638] (gas: 2)\n 35116: a1 = i32 [0x20094]\n 35121: jump @1231 if a1 >u 31\n      : @1230 (gas: 2)\n 35125: u32 [0x20094] = 0x20\n 35131: fallthrough\n      : @1231 (gas: 64)\n 35132: a0 = sp + 0xffffffffffffffe0\n 35135: a2 = a0 & 0xffffffffffffffe0\n 35138: u64 [s1 + 0x10] = a2\n 35141: sp = a2\n 35143: a0 = 0x200a0\n 35148: i32 a0 = a0 + 0\n 35150: i32 a2 = a2 + 0\n 35152: a1 = 0x20\n 35155: ecalli 6 // 'hash_keccak_256'\n 35157: t2 = u64 [s1 + 0x10]\n 35160: a0 = u64 [t2 + 0x18]\n 35163: a1 = u64 [t2 + 0x10]\n 35166: a2 = reverse a0\n 35168: a3 = reverse a1\n 35170: t1 = u64 [s1 + 0x38]\n 35173: a0 = t1 >> 0x2\n 35176: a4 = u64 [s1 + 0x20]\n 35179: a1 = a4 << 0x3e\n 35182: a0 = a0 | a1\n 35185: a1 = a4 >> 0x2\n 35188: a5 = u64 [s1 + 0x28]\n 35191: a4 = a5 << 0x3e\n 35194: a1 = a1 | a4\n 35197: a1 = a1 + a3\n 35200: t0 = a2 + a0\n 35203: a2 = t0 <u a2\n 35206: a1 = a1 + a2\n 35209: a4 = a1 ^ a3\n 35212: a3 = a1 <u a3\n 35215: a3 = a2 if a4 == 0\n 35218: a2 = u64 [t2]\n 35220: a4 = a5 >> 0x2\n 35223: a0 = u64 [s1 + 0x30]\n 35226: a5 = a0 << 0x3e\n 35229: a4 = a4 | a5\n 35232: a5 = u64 [t2 + 0x8]\n 35235: a2 = reverse a2\n 35237: a0 = a0 >> 0x2\n 35240: a0 = a0 + a2\n 35243: a2 = reverse a5\n 35245: a4 = a4 + a2\n 35248: a2 = a4 <u a2\n 35251: a0 = a0 + a2\n 35254: a3 = a3 + a4\n 35257: a2 = a3 <u a4\n 35260: a0 = a0 + a2\n 35263: a2 = t1 << 0x3\n 35266: a2 = a2 & 0x18\n 35269: a4 = u64 [s1 + 0x18]\n 35272: u64 [a4 + 0x20] = a2\n 35275: u64 [a4] = t0\n 35277: u64 [a4 + 0x8] = a1\n 35280: u64 [a4 + 0x10] = a3\n 35283: u64 [a4 + 0x18] = a0\n 35286: a0 = 0\n 35288: u64 [a4 + 56] = 0\n 35291: u64 [a4 + 48] = 0\n 35294: u64 [a4 + 40] = 0\n 35297: sp = s0 + 0xffffffffffffff00\n 35301: ra = u64 [sp + 0xf8]\n 35305: s0 = u64 [sp + 0xf0]\n 35309: s1 = u64 [sp + 0xe8]\n 35313: sp = sp + 0x100\n 35317: ret\n      : @1232 (gas: 8)\n 35319: u64 [s1 + 144] = 0\n 35323: u64 [s1 + 136] = 0\n 35327: u64 [s1 + 128] = 0\n 35331: a0 = 0x4e487b7100000000\n 35341: a1 = s1 + 0x80\n 35345: u64 [s1 + 0x98] = a0\n 35349: a0 = 0\n 35351: ra = 1278, jump @19\n      : @1233 [@dyn 639] (gas: 7)\n 35358: u64 [s1 + 120] = 0\n 35361: u64 [s1 + 112] = 0\n 35364: u64 [s1 + 96] = 0x32\n 35368: a0 = 0x4\n 35371: a1 = s1 + 0x60\n 35374: u64 [s1 + 104] = 0\n 35377: ra = 1280, jump @19\n      : @1234 [@dyn 640] (gas: 2)\n 35384: a1 = i32 [0x20094]\n 35389: jump @1236 if a1 >u 63\n      : @1235 (gas: 2)\n 35393: u32 [0x20094] = 0x40\n 35399: fallthrough\n      : @1236 (gas: 7)\n 35400: a1 = 0x200a0\n 35405: i32 a1 = a1 + 0\n 35407: a0 = 0x1\n 35410: a2 = 0x24\n 35413: ra = 0x502\n 35417: ecalli 7 // 'seal_return'\n 35419: fallthrough\n      : @1237 [@dyn 641] (gas: 10)\n 35420: a4 = u64 [a1 + 0x18]\n 35423: a3 = u64 [a1 + 0x10]\n 35426: t1 = u64 [a1 + 0x8]\n 35429: t0 = a4 >u 0\n 35431: a5 = a3 >u 0\n 35433: a5 = t0 if a4 != 0\n 35436: t0 = a3 | a4\n 35439: a2 = t1 >u 0\n 35441: a2 = a5 if t0 != 0\n 35444: jump @1239 if a2 != 0\n      : @1238 (gas: 24)\n 35447: a1 = u64 [a1]\n 35449: a2 = a3 >> 0x3b\n 35452: a4 = a4 << 0x5\n 35455: t0 = a4 | a2\n 35458: a4 = t1 >> 0x3b\n 35461: a3 = a3 << 0x5\n 35464: a3 = a3 | a4\n 35467: a4 = a1 >> 0x3b\n 35470: t1 = t1 << 0x5\n 35473: a4 = t1 | a4\n 35476: a1 = a1 << 0x5\n 35479: a5 = a1 + 0x20\n 35482: a1 = a5 <u a1\n 35485: a2 = a4 + a1\n 35488: a4 = a2 <u a4\n 35491: a4 = a1 if a1 == 0\n 35494: a4 = a4 + a3\n 35497: a1 = a4 <u a3\n 35500: a1 = a1 + t0\n 35503: u64 [a0] = a5\n 35505: u64 [a0 + 0x8] = a2\n 35508: u64 [a0 + 0x10] = a4\n 35511: u64 [a0 + 0x18] = a1\n 35514: ret\n      : @1239 (gas: 6)\n 35516: sp = sp + 0xffffffffffffffb0\n 35519: u64 [sp + 0x48] = ra\n 35522: u64 [sp + 0x40] = s0\n 35525: s0 = sp + 0x50\n 35528: sp = sp & 0xfffffffffffffff0\n 35531: t0 = 1284, jump @1317\n      : @1240 [@dyn 642] (gas: 1)\n 35537: ra = 1286, jump @19\n      : @1241 [@dyn 643] (gas: 1)\n 35544: t0 = 1288, jump @1340\n      : @1242 [@dyn 644] (gas: 1)\n 35550: ra = 1290, jump @19\n      : @1243 [@dyn 645] (gas: 2)\n 35557: a1 = i32 [0x20094]\n 35562: jump @1245 if a1 >u 63\n      : @1244 (gas: 2)\n 35566: u32 [0x20094] = 0x40\n 35572: fallthrough\n      : @1245 (gas: 7)\n 35573: a1 = 0x200a0\n 35578: i32 a1 = a1 + 0\n 35580: a0 = 0x1\n 35583: a2 = 0x24\n 35586: ra = 0x50c\n 35590: ecalli 7 // 'seal_return'\n 35592: fallthrough\n      : @1246 [@dyn 646] (gas: 14)\n 35593: sp = sp + 0xffffffffffffff20\n 35597: u64 [sp + 0xd8] = ra\n 35601: u64 [sp + 0xd0] = s0\n 35605: u64 [sp + 0xc8] = s1\n 35609: s0 = sp + 0xe0\n 35613: sp = sp & 0xfffffffffffffff0\n 35616: a1 = u64 [a0 + 0x10]\n 35619: a2 = u64 [a0 + 0x18]\n 35622: a3 = u64 [a0 + 0x8]\n 35625: a0 = u64 [a0]\n 35627: a2 = a2 | a3\n 35630: a0 = a0 | a1\n 35633: a0 = a0 | a2\n 35636: jump @1248 if a0 == 0\n      : @1247 (gas: 6)\n 35639: sp = s0 + 0xffffffffffffff20\n 35643: ra = u64 [sp + 0xd8]\n 35647: s0 = u64 [sp + 0xd0]\n 35651: s1 = u64 [sp + 0xc8]\n 35655: sp = sp + 0xe0\n 35659: ret\n      : @1248 (gas: 3)\n 35661: a0 = sp + 0xa0\n 35665: a1 = 0x40\n 35668: ra = 1294, jump @17\n      : @1249 [@dyn 647] (gas: 15)\n 35675: a2 = u64 [sp + 0xb8]\n 35679: s1 = u64 [sp + 0xb0]\n 35683: a0 = u64 [sp + 0xa8]\n 35687: a1 = u64 [sp + 0xa0]\n 35691: u64 [sp + 0x10] = a0\n 35694: u64 [sp + 0x8] = a2\n 35697: a0 = a0 | a2\n 35700: u64 [sp + 0x18] = a1\n 35703: a1 = a1 | s1\n 35706: a1 = a1 | a0\n 35709: a1 = a1 >> 0x20\n 35712: a0 = a0 | s1\n 35715: a0 = a0 << 0x20\n 35718: a0 = a0 | a1\n 35721: jump @1256 if a0 != 0\n      : @1250 (gas: 8)\n 35725: u64 [sp + 144] = 0\n 35729: u64 [sp + 136] = 0\n 35733: u64 [sp + 128] = 0\n 35737: a0 = 0x8c379a000000000\n 35747: a1 = sp + 0x80\n 35751: u64 [sp + 0x98] = a0\n 35755: a0 = u64 [sp + 0x18]\n 35758: ra = 1296, jump @19\n      : @1251 [@dyn 648] (gas: 11)\n 35765: a2 = u64 [sp + 0x8]\n 35768: a2 = a2 | s1\n 35771: s1 = 0x100000000\n 35781: a0 = 0xfffffffc\n 35791: a1 = u64 [sp + 0x18]\n 35794: a0 = a1 <u a0\n 35797: a1 = u64 [sp + 0x10]\n 35800: a0 = 0 if a1 != 0\n 35802: u64 [sp + 0x8] = a2\n 35805: a0 = 0 if a2 != 0\n 35807: jump @1256 if a0 == 0\n      : @1252 (gas: 8)\n 35810: a0 = u64 [sp + 0x18]\n 35813: i32 a0 = a0 + 0x4\n 35816: u64 [sp + 120] = 0\n 35819: u64 [sp + 112] = 0\n 35822: u64 [sp + 96] = 0x20\n 35826: a1 = sp + 0x60\n 35829: u64 [sp + 104] = 0\n 35832: ra = 1298, jump @19\n      : @1253 [@dyn 649] (gas: 8)\n 35839: a0 = s1 + 0xffffffffffffffdc\n 35842: a1 = u64 [sp + 0x18]\n 35845: a0 = a1 <u a0\n 35848: a1 = u64 [sp + 0x10]\n 35851: a0 = 0 if a1 != 0\n 35853: a1 = u64 [sp + 0x8]\n 35856: a0 = 0 if a1 != 0\n 35858: jump @1256 if a0 == 0\n      : @1254 (gas: 8)\n 35861: s1 = u64 [sp + 0x18]\n 35864: i32 a0 = s1 + 0x24\n 35867: u64 [sp + 88] = 0\n 35870: u64 [sp + 80] = 0\n 35873: u64 [sp + 64] = 0x12\n 35877: a1 = sp + 0x40\n 35880: u64 [sp + 72] = 0\n 35883: ra = 1300, jump @19\n      : @1255 [@dyn 650] (gas: 7)\n 35890: a0 = 0xffffffbc\n 35900: a0 = s1 <u a0\n 35903: a1 = u64 [sp + 0x10]\n 35906: a0 = 0 if a1 != 0\n 35908: a1 = u64 [sp + 0x8]\n 35911: a0 = 0 if a1 != 0\n 35913: jump @1257 if a0 != 0\n      : @1256 (gas: 1)\n 35916: trap\n      : @1257 (gas: 11)\n 35917: s1 = u64 [sp + 0x18]\n 35920: i32 a0 = s1 + 0x44\n 35923: a1 = u64 [0x20080]\n 35928: a2 = u64 [0x20088]\n 35933: u64 [sp + 0x38] = a1\n 35936: u64 [sp + 0x30] = a2\n 35939: a1 = 0x6e64000000000000\n 35949: u64 [sp + 0x28] = a1\n 35952: a1 = sp + 0x20\n 35955: u64 [sp + 32] = 0\n 35958: ra = 1302, jump @19\n      : @1258 [@dyn 651] (gas: 3)\n 35965: a1 = 0x64\n 35968: a0 = s1\n 35970: ra = 1304, jump @27\n      : @1259 [@dyn 652] (gas: 6)\n 35977: i32 a1 = a0 + 0\n 35979: a0 = 0x1\n 35982: a2 = 0x64\n 35985: ra = 0x51a\n 35989: ecalli 7 // 'seal_return'\n 35991: fallthrough\n      : @1260 [@dyn 653] (gas: 10)\n 35992: sp = sp + 0xfffffffffffffe60\n 35996: u64 [sp + 0x198] = ra\n 36000: u64 [sp + 0x190] = s0\n 36004: u64 [sp + 0x188] = s1\n 36008: s0 = sp + 0x1a0\n 36012: sp = sp & 0xfffffffffffffff0\n 36015: u64 [sp + 0x8] = a0\n 36018: a0 = sp + 0x160\n 36022: a1 = 0x40\n 36025: ra = 1308, jump @17\n      : @1261 [@dyn 654] (gas: 15)\n 36032: a0 = u64 [sp + 0x178]\n 36036: u64 [sp + 0x20] = a0\n 36039: s1 = u64 [sp + 0x170]\n 36043: a2 = u64 [sp + 0x168]\n 36047: u64 [sp + 0x38] = a2\n 36050: a1 = u64 [sp + 0x160]\n 36054: u64 [sp + 0x30] = a1\n 36057: u64 [sp + 0x158] = a0\n 36061: u64 [sp + 0x150] = s1\n 36065: u64 [sp + 0x148] = a2\n 36069: a0 = sp + 0x140\n 36073: u64 [sp + 0x140] = a1\n 36077: ra = 0x51e\n 36081: t0 = 0x47c\n 36085: jump @1328\n      : @1262 [@dyn 655] (gas: 12)\n 36088: a0 = u64 [sp + 0x20]\n 36091: a1 = u64 [sp + 0x38]\n 36094: a0 = a0 | a1\n 36097: a1 = u64 [sp + 0x30]\n 36100: a1 = a1 | s1\n 36103: a1 = a1 | a0\n 36106: a1 = a1 >> 0x20\n 36109: u64 [sp + 0x18] = s1\n 36112: a0 = a0 | s1\n 36115: a0 = a0 << 0x20\n 36118: a0 = a0 | a1\n 36121: jump @1285 if a0 != 0\n      : @1263 (gas: 8)\n 36125: u64 [sp + 312] = 0\n 36129: u64 [sp + 304] = 0\n 36133: u64 [sp + 296] = 0\n 36137: a1 = sp + 0x120\n 36141: u64 [sp + 288] = 0\n 36145: s1 = u64 [sp + 0x30]\n 36148: a0 = s1\n 36150: ra = 1312, jump @19\n      : @1264 [@dyn 656] (gas: 12)\n 36157: a0 = u64 [sp + 0x20]\n 36160: a2 = u64 [sp + 0x18]\n 36163: a2 = a2 | a0\n 36166: a0 = 0x100000000\n 36176: u64 [sp + 0x10] = a0\n 36179: a0 = 0xffffffe0\n 36189: a0 = s1 <u a0\n 36192: a1 = u64 [sp + 0x38]\n 36195: a0 = 0 if a1 != 0\n 36197: u64 [sp + 0x28] = a2\n 36200: a0 = 0 if a2 != 0\n 36202: jump @1285 if a0 == 0\n      : @1265 (gas: 8)\n 36206: s1 = u64 [sp + 0x30]\n 36209: i32 a0 = s1 + 0x20\n 36212: u64 [sp + 280] = 0\n 36216: u64 [sp + 272] = 0\n 36220: u64 [sp + 264] = 0\n 36224: a1 = sp + 0x100\n 36228: u64 [sp + 256] = 0\n 36232: ra = 1314, jump @19\n      : @1266 [@dyn 657] (gas: 3)\n 36239: a0 = u64 [sp + 0x10]\n 36242: a0 = a0 + 0xffffffffffffffc0\n 36245: t0 = 1316, jump @1321\n      : @1267 [@dyn 658] (gas: 1)\n 36251: jump @1285 if a0 == 0\n      : @1268 (gas: 8)\n 36255: s1 = u64 [sp + 0x30]\n 36258: i32 a0 = s1 + 0x40\n 36261: u64 [sp + 248] = 0\n 36265: u64 [sp + 240] = 0\n 36269: u64 [sp + 224] = 0x60\n 36274: a1 = sp + 0xe0\n 36278: u64 [sp + 232] = 0\n 36282: ra = 1318, jump @19\n      : @1269 [@dyn 659] (gas: 4)\n 36289: a0 = 0x100000000\n 36299: u64 [sp + 0x10] = a0\n 36302: a0 = 0xffffffa0\n 36312: t0 = 1320, jump @1321\n      : @1270 [@dyn 660] (gas: 1)\n 36318: jump @1285 if a0 == 0\n      : @1271 (gas: 8)\n 36322: s1 = u64 [sp + 0x30]\n 36325: i32 a0 = s1 + 0x60\n 36328: u64 [sp + 216] = 0\n 36332: u64 [sp + 208] = 0\n 36336: u64 [sp + 200] = 0\n 36340: a1 = sp + 0xc0\n 36344: u64 [sp + 192] = 0\n 36348: ra = 1322, jump @19\n      : @1272 [@dyn 661] (gas: 3)\n 36355: a0 = u64 [sp + 0x10]\n 36358: a0 = a0 + 0xffffffffffffff80\n 36361: t0 = 1324, jump @1321\n      : @1273 [@dyn 662] (gas: 1)\n 36367: jump @1285 if a0 == 0\n      : @1274 (gas: 8)\n 36371: s1 = u64 [sp + 0x30]\n 36374: i32 a0 = s1 + 0x80\n 36378: u64 [sp + 184] = 0\n 36382: u64 [sp + 176] = 0\n 36386: u64 [sp + 168] = 0\n 36390: a1 = sp + 0xa0\n 36394: u64 [sp + 160] = 0\n 36398: ra = 1326, jump @19\n      : @1275 [@dyn 663] (gas: 4)\n 36405: a0 = 0x100000000\n 36415: u64 [sp + 0x10] = a0\n 36418: a0 = 0xffffff60\n 36428: t0 = 1328, jump @1321\n      : @1276 [@dyn 664] (gas: 1)\n 36434: jump @1285 if a0 == 0\n      : @1277 (gas: 8)\n 36438: s1 = u64 [sp + 0x30]\n 36441: i32 a0 = s1 + 0xa0\n 36445: u64 [sp + 152] = 0\n 36449: u64 [sp + 144] = 0\n 36453: u64 [sp + 136] = 0\n 36457: a1 = sp + 0x80\n 36461: u64 [sp + 128] = 0\n 36465: ra = 1330, jump @19\n      : @1278 [@dyn 665] (gas: 3)\n 36472: a0 = u64 [sp + 0x10]\n 36475: a0 = a0 + 0xffffffffffffff40\n 36479: t0 = 1332, jump @1321\n      : @1279 [@dyn 666] (gas: 1)\n 36485: jump @1285 if a0 == 0\n      : @1280 (gas: 8)\n 36488: s1 = u64 [sp + 0x30]\n 36491: i32 a0 = s1 + 0xc0\n 36495: u64 [sp + 120] = 0\n 36498: u64 [sp + 112] = 0\n 36501: u64 [sp + 104] = 0\n 36504: a1 = sp + 0x60\n 36507: u64 [sp + 96] = 0\n 36510: ra = 1334, jump @19\n      : @1281 [@dyn 667] (gas: 2)\n 36517: a0 = 0xffffff20\n 36527: t0 = 1336, jump @1321\n      : @1282 [@dyn 668] (gas: 1)\n 36533: jump @1285 if a0 == 0\n      : @1283 (gas: 8)\n 36536: s1 = u64 [sp + 0x30]\n 36539: i32 a0 = s1 + 0xe0\n 36543: u64 [sp + 88] = 0\n 36546: u64 [sp + 80] = 0\n 36549: u64 [sp + 72] = 0\n 36552: a1 = sp + 0x40\n 36555: u64 [sp + 64] = 0\n 36558: ra = 1338, jump @19\n      : @1284 [@dyn 669] (gas: 14)\n 36565: a0 = u64 [sp + 0x8]\n 36568: a1 = u64 [sp + 0x20]\n 36571: u64 [a0 + 0x18] = a1\n 36574: a1 = u64 [sp + 0x18]\n 36577: u64 [a0 + 0x10] = a1\n 36580: a1 = u64 [sp + 0x38]\n 36583: u64 [a0 + 0x8] = a1\n 36586: u64 [a0] = s1\n 36588: sp = s0 + 0xfffffffffffffe60\n 36592: ra = u64 [sp + 0x198]\n 36596: s0 = u64 [sp + 0x190]\n 36600: s1 = u64 [sp + 0x188]\n 36604: sp = sp + 0x1a0\n 36608: ret\n      : @1285 (gas: 1)\n 36610: trap\n      : @1286 (gas: 22)\n 36611: sp = sp + 0xffffffffffffff40\n 36615: u64 [sp + 0xb8] = ra\n 36619: u64 [sp + 0xb0] = s0\n 36623: u64 [sp + 0xa8] = s1\n 36627: s0 = sp + 0xc0\n 36631: sp = sp & 0xfffffffffffffff0\n 36634: a4 = u64 [a1 + 0x10]\n 36637: a3 = u64 [a1 + 0x18]\n 36640: a5 = u64 [a1 + 0x8]\n 36643: a1 = u64 [a1]\n 36645: u64 [sp + 0x28] = a3\n 36648: u64 [sp + 0x20] = a5\n 36651: a5 = a5 | a3\n 36654: a3 = a1 | a4\n 36657: a3 = a3 | a5\n 36660: a3 = a3 >> 0x20\n 36663: u64 [sp + 0x30] = a4\n 36666: a4 = a4 | a5\n 36669: a4 = a4 << 0x20\n 36672: a3 = a3 | a4\n 36675: u64 [sp + 0x38] = a0\n 36678: jump @1290 if a3 != 0\n      : @1287 (gas: 10)\n 36682: a0 = u64 [a2 + 0x18]\n 36685: u64 [sp + 0x10] = a0\n 36688: s1 = u64 [a2 + 0x10]\n 36691: a0 = u64 [a2 + 0x8]\n 36694: u64 [sp + 0x8] = a0\n 36697: a0 = u64 [a2]\n 36699: u64 [sp] = a0\n 36701: a0 = sp + 0x80\n 36705: u64 [sp + 0x18] = a1\n 36708: ra = 1340, jump @17\n      : @1288 [@dyn 670] (gas: 19)\n 36715: t0 = u64 [sp + 0x10]\n 36718: a5 = u64 [sp + 0x8]\n 36721: t1 = u64 [sp]\n 36723: a0 = u64 [sp + 0x88]\n 36727: a1 = u64 [sp + 0x98]\n 36731: a2 = u64 [sp + 0x80]\n 36735: a3 = u64 [sp + 0x90]\n 36739: a4 = a0 ^ a5\n 36742: a0 = a5 <u a0\n 36745: a2 = t1 <u a2\n 36748: a2 = a0 if a4 != 0\n 36751: a0 = s1 <u a3\n 36754: a4 = a1 ^ t0\n 36757: a1 = t0 <u a1\n 36760: a1 = a0 if a4 == 0\n 36763: a3 = a3 ^ s1\n 36766: a3 = a3 | a4\n 36769: a1 = a2 if a3 == 0\n 36772: jump @1291 if a1 == 0\n      : @1289 (gas: 47)\n 36776: a0 = s1 >> 0x3b\n 36779: a1 = t0 << 0x5\n 36782: t0 = a1 | a0\n 36785: a1 = a5 >> 0x3b\n 36788: s1 = s1 << 0x5\n 36791: a1 = a1 | s1\n 36794: a2 = t1 >> 0x3b\n 36797: a3 = a5 << 0x5\n 36800: a2 = a2 | a3\n 36803: a3 = t1 << 0x5\n 36806: a0 = u64 [sp + 0x18]\n 36809: a3 = a3 + a0\n 36812: a4 = a3 <u a0\n 36815: a5 = u64 [sp + 0x20]\n 36818: a2 = a2 + a5\n 36821: a2 = a2 + a4\n 36824: a0 = a2 ^ a5\n 36827: s1 = a2 <u a5\n 36830: s1 = a4 if a0 == 0\n 36833: a5 = u64 [sp + 0x30]\n 36836: a1 = a1 + a5\n 36839: s1 = s1 + a1\n 36842: a4 = s1 <u a1\n 36845: a1 = a1 <u a5\n 36848: a5 = u64 [sp + 0x28]\n 36851: a0 = a5 + t0\n 36854: a0 = a0 + a1\n 36857: a0 = a0 + a4\n 36860: a1 = a3 + 0x20\n 36863: a3 = a1 <u a3\n 36866: a4 = a2 + a3\n 36869: a2 = a4 <u a2\n 36872: a2 = a3 if a3 == 0\n 36875: a2 = a2 + s1\n 36878: a3 = a2 <u s1\n 36881: a0 = a0 + a3\n 36884: a3 = u64 [sp + 0x38]\n 36887: u64 [a3] = a1\n 36889: u64 [a3 + 0x8] = a4\n 36892: u64 [a3 + 0x10] = a2\n 36895: u64 [a3 + 0x18] = a0\n 36898: sp = s0 + 0xffffffffffffff40\n 36902: ra = u64 [sp + 0xb8]\n 36906: s0 = u64 [sp + 0xb0]\n 36910: s1 = u64 [sp + 0xa8]\n 36914: sp = sp + 0xc0\n 36918: ret\n      : @1290 (gas: 1)\n 36920: trap\n      : @1291 (gas: 8)\n 36921: u64 [sp + 112] = 0\n 36924: u64 [sp + 104] = 0\n 36927: u64 [sp + 96] = 0\n 36930: a0 = 0x4e487b7100000000\n 36940: a1 = sp + 0x60\n 36943: u64 [sp + 0x78] = a0\n 36946: a0 = 0\n 36948: ra = 1342, jump @19\n      : @1292 [@dyn 671] (gas: 7)\n 36955: u64 [sp + 88] = 0\n 36958: u64 [sp + 80] = 0\n 36961: u64 [sp + 64] = 0x32\n 36965: a0 = 0x4\n 36968: a1 = sp + 0x40\n 36971: u64 [sp + 72] = 0\n 36974: ra = 1344, jump @19\n      : @1293 [@dyn 672] (gas: 2)\n 36981: a1 = i32 [0x20094]\n 36986: jump @1295 if a1 >u 63\n      : @1294 (gas: 2)\n 36990: u32 [0x20094] = 0x40\n 36996: fallthrough\n      : @1295 (gas: 7)\n 36997: a1 = 0x200a0\n 37002: i32 a1 = a1 + 0\n 37004: a0 = 0x1\n 37007: a2 = 0x24\n 37010: ra = 0x542\n 37014: ecalli 7 // 'seal_return'\n 37016: fallthrough\n      : @1296 [@dyn 673] (gas: 18)\n 37017: sp = sp + 0xffffffffffffff80\n 37020: u64 [sp + 0x78] = ra\n 37023: u64 [sp + 0x70] = s0\n 37026: u64 [sp + 0x68] = s1\n 37029: s0 = sp + 0x80\n 37033: sp = sp & 0xffffffffffffffe0\n 37036: s1 = u64 [a1]\n 37038: a1 = u64 [a0 + 0x18]\n 37041: a2 = u64 [a0 + 0x10]\n 37044: a3 = u64 [a0 + 0x8]\n 37047: a0 = u64 [a0]\n 37049: u64 [sp + 0x38] = a1\n 37052: u64 [sp + 0x30] = a2\n 37055: u64 [sp + 0x28] = a3\n 37058: u64 [sp + 0x20] = a0\n 37061: a0 = sp\n 37063: a1 = sp + 0x20\n 37066: ra = 1348, jump @21\n      : @1297 [@dyn 674] (gas: 10)\n 37073: a0 = u64 [sp + 0x18]\n 37076: a1 = u64 [sp + 0x10]\n 37079: a2 = u64 [sp]\n 37081: u64 [sp + 0x48] = s1\n 37084: u64 [sp + 0x58] = a0\n 37087: u64 [sp + 0x50] = a1\n 37090: u64 [sp + 0x40] = a2\n 37093: a0 = sp + 0x20\n 37096: a1 = sp + 0x40\n 37099: ra = 1350, jump @23\n      : @1298 [@dyn 675] (gas: 6)\n 37106: sp = s0 + 0xffffffffffffff80\n 37109: ra = u64 [sp + 0x78]\n 37112: s0 = u64 [sp + 0x70]\n 37115: s1 = u64 [sp + 0x68]\n 37118: sp = sp + 0x80\n 37122: ret\n      : @1299 [export #0: 'call'] (gas: 2)\n 37124: a0 = 0\n 37126: ra = 1352, jump @33\n      : @1300 [@dyn 676] [export #1: 'deploy'] (gas: 2)\n 37133: a0 = 0x1\n 37136: ra = 1354, jump @33\n      : @1301 [@dyn 677] (gas: 10)\n 37143: a4 = s1 + 0x100\n 37147: a3 = u64 [a4 + 0x48]\n 37150: a2 = u64 [a4 + 0x50]\n 37153: a1 = u64 [a4 + 0x58]\n 37156: a0 = u64 [a4 + 0x40]\n 37159: a0 = a0 + 0xffffffffffffffdc\n 37162: a0 = a1 <u a0\n 37165: a0 = 0 if a2 != 0\n 37167: a0 = 0 if a3 != 0\n 37169: jump [t0]\n      : @1302 (gas: 12)\n 37171: a5 = s1 + 0x100\n 37175: a1 = u64 [a5 + 0x58]\n 37178: a0 = u64 [a5 + 0x48]\n 37181: a3 = u64 [a5 + 0x40]\n 37184: a3 = a3 | a0\n 37187: a4 = 0x100000000\n 37197: a0 = 0xfffffffc\n 37207: a0 = a1 <u a0\n 37210: a2 = u64 [a5 + 0x50]\n 37213: a0 = 0 if a2 != 0\n 37215: a0 = 0 if a3 != 0\n 37217: jump [t0]\n      : @1303 (gas: 8)\n 37219: a0 = sp + 0xffffffffffffffe0\n 37222: a0 = a0 & 0xffffffffffffffe0\n 37225: u64 [s1 + 0x128] = a0\n 37229: sp = a0\n 37231: i32 a2 = a0 + 0\n 37233: a1 = 0x40\n 37236: a0 = u64 [s1 + 0x138]\n 37240: jump [t0]\n      : @1304 (gas: 7)\n 37242: a4 = 0x100000000\n 37252: a0 = 0xfffffffc\n 37262: a0 = a1 <u a0\n 37265: a2 = u64 [a5 + 0x50]\n 37268: a0 = 0 if a2 != 0\n 37270: a0 = 0 if a3 != 0\n 37272: jump [t0]\n      : @1305 (gas: 9)\n 37274: a3 = s1 + 0x100\n 37278: a2 = u64 [a3 + 0x58]\n 37281: a0 = 0xffffffbc\n 37291: a0 = a2 <u a0\n 37294: a1 = u64 [a3 + 0x50]\n 37297: a0 = 0 if a1 != 0\n 37299: a1 = u64 [a3 + 0x48]\n 37302: a0 = 0 if a1 != 0\n 37304: jump [t0]\n      : @1306 (gas: 21)\n 37306: a3 = u64 [s1 + 0x140]\n 37310: a0 = u64 [a3 + 0x18]\n 37313: a1 = u64 [a3 + 0x10]\n 37316: a2 = u64 [a3 + 0x8]\n 37319: a3 = u64 [a3]\n 37321: a0 = reverse a0\n 37323: u64 [s1 + 0x138] = a0\n 37327: a0 = reverse a1\n 37329: u64 [s1 + 0x130] = a0\n 37333: a0 = reverse a2\n 37335: u64 [s1 + 0x128] = a0\n 37339: a0 = reverse a3\n 37341: u64 [s1 + 0x120] = a0\n 37345: a0 = sp + 0xffffffffffffffe0\n 37348: a0 = a0 & 0xffffffffffffffe0\n 37351: u64 [s1 + 0x140] = a0\n 37355: sp = a0\n 37357: a0 = u64 [s1 + 0x148]\n 37361: a1 = 0xffffffffffffffff\n 37364: a0 = a0 & a1\n 37367: jump [t0]\n      : @1307 (gas: 14)\n 37369: a0 = u64 [a2 + 0x8]\n 37372: a1 = u64 [a2]\n 37374: a2 = i32 [a2 + 0x10]\n 37377: a0 = reverse a0\n 37379: a3 = a0 >> 0x20\n 37382: a1 = reverse a1\n 37384: a4 = a1 << 0x20\n 37387: a3 = a3 | a4\n 37390: a0 = a0 << 0x20\n 37393: a2 = reverse a2\n 37395: a2 = a2 >> 0x20\n 37398: a0 = a0 | a2\n 37401: a1 = a1 >> 0x20\n 37404: jump [t0]\n      : @1308 (gas: 7)\n 37406: a1 = u64 [a2 + 0x58]\n 37409: a0 = a1 <u a0\n 37412: a1 = u64 [a2 + 0x50]\n 37415: a0 = 0 if a1 != 0\n 37417: a1 = u64 [a2 + 0x48]\n 37420: a0 = 0 if a1 != 0\n 37422: jump [t0]\n      : @1309 (gas: 7)\n 37424: a0 = u64 [sp + 0x68]\n 37427: a0 = a0 <u s1\n 37430: a1 = u64 [sp + 0x60]\n 37433: a0 = 0 if a1 != 0\n 37435: a1 = u64 [sp + 0x40]\n 37438: a0 = 0 if a1 != 0\n 37440: jump [t0]\n      : @1310 (gas: 7)\n 37442: a1 = u64 [sp + 0x50]\n 37445: a0 = a1 <u s1\n 37448: a2 = u64 [sp + 0x58]\n 37451: a0 = 0 if a2 != 0\n 37453: a2 = u64 [sp + 0x48]\n 37456: a0 = 0 if a2 != 0\n 37458: jump [t0]\n      : @1311 (gas: 8)\n 37460: a0 = sp + 0xffffffffffffffe0\n 37463: a0 = a0 & 0xffffffffffffffe0\n 37466: u64 [s1 + 0x140] = a0\n 37470: sp = a0\n 37472: i32 a2 = a0 + 0\n 37474: a1 = 0x40\n 37477: a0 = u64 [s1 + 0x150]\n 37481: jump [t0]\n      : @1312 (gas: 10)\n 37483: a0 = u64 [a3 + 0x18]\n 37486: a1 = u64 [a3 + 0x10]\n 37489: a2 = u64 [a3 + 0x8]\n 37492: a3 = u64 [a3]\n 37494: a0 = reverse a0\n 37496: a1 = reverse a1\n 37498: a2 = reverse a2\n 37500: a3 = reverse a3\n 37502: a4 = s1 + 0x30f8\n 37506: jump [t0]\n      : @1313 (gas: 9)\n 37508: a0 = u64 [a3 + 0x18]\n 37511: a1 = u64 [a3 + 0x10]\n 37514: a2 = u64 [a3 + 0x8]\n 37517: a3 = u64 [a3]\n 37519: a0 = reverse a0\n 37521: a4 = reverse a1\n 37523: a2 = reverse a2\n 37525: a3 = reverse a3\n 37527: jump [t0]\n      : @1314 (gas: 18)\n 37529: a0 = u64 [a3]\n 37531: a1 = u64 [a3 + 0x8]\n 37534: a2 = u64 [a3 + 0x10]\n 37537: a3 = u64 [a3 + 0x18]\n 37540: a0 = reverse a0\n 37542: a1 = reverse a1\n 37544: a2 = reverse a2\n 37546: a3 = reverse a3\n 37548: a4 = a3 + 0x2\n 37551: a3 = a4 <u a3\n 37554: a5 = a2 + a3\n 37557: a2 = a5 <u a2\n 37560: a2 = a3 if a3 == 0\n 37563: a2 = a2 + a1\n 37566: a1 = a2 <u a1\n 37569: a0 = a0 + a1\n 37572: a1 = 0x3000\n 37576: jump [t0]\n      : @1315 (gas: 17)\n 37578: a3 = u64 [s1 + 0x128]\n 37582: a0 = u64 [a3 + 0x18]\n 37585: a1 = u64 [a3 + 0x10]\n 37588: a2 = u64 [a3 + 0x8]\n 37591: a3 = u64 [a3]\n 37593: a0 = reverse a0\n 37595: u64 [s1 + 0x128] = a0\n 37599: a0 = reverse a1\n 37601: u64 [s1 + 0x120] = a0\n 37605: a0 = reverse a2\n 37607: u64 [s1 + 0x118] = a0\n 37611: a0 = reverse a3\n 37613: u64 [s1 + 0x110] = a0\n 37617: a0 = u64 [s1 + 0x130]\n 37621: a0 = a0 << 0x20\n 37624: a0 = a0 >> 0x20\n 37627: jump [t0]\n      : @1316 (gas: 5)\n 37629: sp = a0\n 37631: i32 a2 = a0 + 0\n 37633: a1 = 0x40\n 37636: a0 = u64 [s1 + 0x150]\n 37640: jump [t0]\n      : @1317 (gas: 8)\n 37642: u64 [sp + 48] = 0\n 37645: u64 [sp + 40] = 0\n 37648: u64 [sp + 32] = 0\n 37651: a0 = 0x4e487b7100000000\n 37661: a1 = sp + 0x20\n 37664: u64 [sp + 0x38] = a0\n 37667: a0 = 0\n 37669: jump [t0]\n      : @1318 (gas: 11)\n 37671: a3 = u64 [sp]\n 37673: u64 [s1] = a3\n 37675: u64 [s1 + 0x8] = a2\n 37678: u64 [s1 + 0x10] = a1\n 37681: u64 [s1 + 0x18] = a0\n 37684: sp = s0 + 0xffffffffffffffc0\n 37687: ra = u64 [sp + 0x38]\n 37690: s0 = u64 [sp + 0x30]\n 37693: s1 = u64 [sp + 0x28]\n 37696: sp = sp + 0x40\n 37699: jump [t0]\n      : @1319 (gas: 13)\n 37701: a1 = a0 <u a1\n 37704: a3 = u64 [s1 + 0x120]\n 37708: a2 = a3 + a1\n 37711: a3 = a2 <u a3\n 37714: a3 = a1 if a1 == 0\n 37717: a1 = u64 [s1 + 0x130]\n 37721: a3 = a3 + a1\n 37724: a1 = a3 <u a1\n 37727: a4 = u64 [s1 + 0x128]\n 37731: a1 = a1 + a4\n 37734: a4 = s1 + 0x30f8\n 37738: a5 = a4 + 0x500\n 37742: jump [t0]\n      : @1320 (gas: 13)\n 37744: a1 = a0 <u a1\n 37747: a3 = u64 [s1 + 0x118]\n 37751: a2 = a3 + a1\n 37754: a3 = a2 <u a3\n 37757: a3 = a1 if a1 == 0\n 37760: a1 = u64 [s1 + 0x128]\n 37764: a3 = a3 + a1\n 37767: a1 = a3 <u a1\n 37770: a4 = u64 [s1 + 0x120]\n 37774: a1 = a1 + a4\n 37777: a4 = s1 + 0x28f8\n 37781: a5 = a4 + 0x700\n 37785: jump [t0]\n      : @1321 (gas: 6)\n 37787: a0 = s1 <u a0\n 37790: a1 = u64 [sp + 0x38]\n 37793: a0 = 0 if a1 != 0\n 37795: a1 = u64 [sp + 0x28]\n 37798: a0 = 0 if a1 != 0\n 37800: jump [t0]\n      : @1322 (gas: 15)\n 37802: a3 = u64 [s1 + 0x158]\n 37806: a0 = u64 [a3 + 0x18]\n 37809: a1 = u64 [a3 + 0x10]\n 37812: a2 = u64 [a3 + 0x8]\n 37815: a3 = u64 [a3]\n 37817: a0 = reverse a0\n 37819: a4 = reverse a1\n 37821: a2 = reverse a2\n 37823: a3 = reverse a3\n 37825: a1 = u64 [s1 + 0x140]\n 37829: u64 [a1 + 0x18] = a3\n 37832: u64 [a1 + 0x10] = a2\n 37835: u64 [a1 + 0x8] = a4\n 37838: u64 [a1] = a0\n 37840: jump [t0]\n      : @1323 (gas: 12)\n 37842: a3 = u64 [s1 + 0x140]\n 37846: a0 = u64 [a3 + 0x18]\n 37849: a1 = u64 [a3 + 0x10]\n 37852: a2 = u64 [a3 + 0x8]\n 37855: a3 = u64 [a3]\n 37857: a0 = reverse a0\n 37859: a1 = reverse a1\n 37861: a2 = reverse a2\n 37863: a3 = reverse a3\n 37865: a4 = s1 + 0x28f8\n 37869: a5 = a4 + 0x600\n 37873: jump [t0]\n      : @1324 (gas: 7)\n 37875: a1 = u64 [s1 + 0xf0]\n 37879: a0 = a1 <u a0\n 37882: a1 = u64 [s1 + 0xe0]\n 37886: a0 = 0 if a1 != 0\n 37888: a1 = u64 [s1 + 0xe8]\n 37892: a0 = 0 if a1 != 0\n 37894: jump [t0]\n      : @1325 (gas: 14)\n 37896: a4 = a1 <u t1\n 37899: a5 = a0 + a4\n 37902: a0 = a5 <u a0\n 37905: a0 = a4 if a4 == 0\n 37908: a0 = a0 + a2\n 37911: a2 = a0 <u a2\n 37914: a2 = a2 + a3\n 37917: u64 [sp + 0x40] = a1\n 37920: u64 [sp + 0x48] = a5\n 37923: u64 [sp + 0x50] = a0\n 37926: a0 = 0x40\n 37929: a1 = sp + a0\n 37932: u64 [sp + 0x58] = a2\n 37935: jump [t0]\n      : @1326 (gas: 7)\n 37937: a0 = u64 [sp + 0x18]\n 37940: a1 = u64 [sp + 0x10]\n 37943: a2 = u64 [sp + 0x8]\n 37946: a3 = a1 | a0\n 37949: a4 = a2 <u 0x1\n 37952: a4 = 0 if a3 != 0\n 37954: jump [t0]\n      : @1327 (gas: 8)\n 37956: a4 = s1 + 0x100\n 37960: a1 = u64 [a4 + 0x28]\n 37963: a0 = a1 <u a3\n 37966: a2 = u64 [a4 + 0x30]\n 37969: a0 = 0 if a2 != 0\n 37971: a2 = u64 [a4 + 0x8]\n 37974: a0 = 0 if a2 != 0\n 37976: jump [t0]\n      : @1328 (gas: 13)\n 37978: sp = sp + 0xffffffffffffff90\n 37981: u64 [sp + 0x68] = ra\n 37984: u64 [sp + 0x60] = s0\n 37987: s0 = sp + 0x70\n 37990: sp = sp & 0xfffffffffffffff0\n 37993: a3 = u64 [a0 + 0x18]\n 37996: a2 = u64 [a0 + 0x10]\n 37999: t1 = u64 [a0]\n 38001: a0 = u64 [a0 + 0x8]\n 38004: a4 = a3 >u 0\n 38006: a5 = a2 >u 0\n 38008: a5 = a4 if a3 != 0\n 38011: jump [t0]\n      : @1329 (gas: 4)\n 38013: a2 = a0\n 38015: a0 = 0x4e487b7100000000\n 38025: a1 = 0x2000\n 38029: jump [t0]\n      : @1330 (gas: 9)\n 38031: sp = sp + 0xffffffffffffffc0\n 38034: u64 [sp + 0x38] = ra\n 38037: u64 [sp + 0x30] = s0\n 38040: u64 [sp + 0x28] = s1\n 38043: s0 = sp + 0x40\n 38046: sp = sp & 0xffffffffffffffe0\n 38049: s1 = a0\n 38051: i32 a0 = sp + 0\n 38053: jump [t0]\n      : @1331 (gas: 9)\n 38055: a2 = s1 + 0x100\n 38059: a3 = u64 [a2 + 0x58]\n 38062: a0 = 0xffffffbc\n 38072: a0 = a3 <u a0\n 38075: a1 = u64 [a2 + 0x50]\n 38078: a0 = 0 if a1 != 0\n 38080: a1 = u64 [a2 + 0x48]\n 38083: a0 = 0 if a1 != 0\n 38085: jump [t0]\n      : @1332 (gas: 10)\n 38087: a3 = u64 [s1 + 0x158]\n 38091: a0 = u64 [a3 + 0x18]\n 38094: a1 = u64 [a3 + 0x10]\n 38097: a2 = u64 [a3 + 0x8]\n 38100: a3 = u64 [a3]\n 38102: a5 = reverse a0\n 38104: a4 = reverse a1\n 38106: a0 = reverse a2\n 38108: a1 = reverse a3\n 38110: jump [t0]\n      : @1333 (gas: 7)\n 38112: a1 = u64 [a2 + 0x58]\n 38115: a0 = a1 <u a0\n 38118: a1 = u64 [a2 + 0x48]\n 38121: a0 = 0 if a1 != 0\n 38123: a1 = u64 [a2]\n 38125: a0 = 0 if a1 != 0\n 38127: jump [t0]\n      : @1334 (gas: 10)\n 38129: a4 = s1 + 0x100\n 38133: u64 [a4 + 0x18] = a0\n 38136: u64 [a4 + 0x10] = a1\n 38139: a0 = a0 | a1\n 38142: u64 [a4 + 0x8] = a2\n 38145: a1 = a2 <u 0x2\n 38148: u64 [a4] = a3\n 38150: a1 = 0 if a3 != 0\n 38152: a1 = 0 if a0 != 0\n 38154: jump [t0]\n      : @1335 (gas: 4)\n 38156: a0 = 0x30f8\n 38160: a3 = s1 + a0\n 38163: a4 = a3 + 0x200\n 38167: jump [t0]\n      : @1336 (gas: 9)\n 38169: a3 = s1 + 0x100\n 38173: a2 = u64 [a3 + 0x40]\n 38176: a0 = u64 [s1 + 0xe0]\n 38180: a0 = a2 <u a0\n 38183: a1 = u64 [a3 + 0x38]\n 38186: a0 = 0 if a1 != 0\n 38188: a1 = u64 [a3]\n 38190: a0 = 0 if a1 != 0\n 38192: jump [t0]\n      : @1337 (gas: 4)\n 38194: a2 = a3 + a1\n 38197: a3 = a2 <u a3\n 38200: a3 = a1 if a1 == 0\n 38203: jump [t0]\n      : @1338 (gas: 6)\n 38205: a0 = a3 <u a0\n 38208: a1 = u64 [s1 + 0xe0]\n 38212: a0 = 0 if a1 != 0\n 38214: a1 = u64 [s1 + 0xe8]\n 38218: a0 = 0 if a1 != 0\n 38220: jump [t0]\n      : @1339 (gas: 6)\n 38222: a0 = a2 <u a0\n 38225: a1 = u64 [a3 + 0x50]\n 38228: a0 = 0 if a1 != 0\n 38230: a1 = u64 [a3 + 0x40]\n 38233: a0 = 0 if a1 != 0\n 38235: jump [t0]\n      : @1340 (gas: 7)\n 38237: u64 [sp + 24] = 0\n 38240: u64 [sp + 16] = 0\n 38243: u64 [sp + 0] = 0x41\n 38246: a0 = 0x4\n 38249: a1 = sp\n 38251: u64 [sp + 8] = 0\n 38254: jump [t0]\n      : @1341 (gas: 8)\n 38256: a4 = a4 | a2\n 38259: a2 = a0 | a1\n 38262: a2 = a2 | a4\n 38265: a2 = a2 >> 0x20\n 38268: a1 = a1 | a4\n 38271: a1 = a1 << 0x20\n 38274: a1 = a1 | a2\n 38277: jump [t0]\n      : @1342 (gas: 10)\n 38279: sp = sp + 0xffffffffffffffc0\n 38282: u64 [sp + 0x38] = ra\n 38285: u64 [sp + 0x30] = s0\n 38288: u64 [sp + 0x28] = s1\n 38291: s0 = sp + 0x40\n 38294: sp = sp & 0xffffffffffffffe0\n 38297: s1 = a0\n 38299: i32 a0 = sp + 0\n 38301: a1 = 0x24\n 38304: jump [t0]\n      : @1343 (gas: 8)\n 38306: a3 = a4 <u a3\n 38309: a5 = a2 + a3\n 38312: a2 = a5 <u a2\n 38315: a2 = a3 if a3 == 0\n 38318: a2 = a2 + a1\n 38321: a1 = a2 <u a1\n 38324: a0 = a0 + a1\n 38327: jump [t0]\n      : @1344 (gas: 8)\n 38329: a3 = s1 + 0x100\n 38333: a1 = u64 [a3 + 0x58]\n 38336: a0 = a1 <u a0\n 38339: a1 = u64 [a3 + 0x48]\n 38342: a0 = 0 if a1 != 0\n 38344: a1 = u64 [a3]\n 38346: a0 = 0 if a1 != 0\n 38348: jump [t0]\n      : @1345 (gas: 7)\n 38350: a2 = a3 + a1\n 38353: a3 = a2 <u a3\n 38356: a3 = a1 if a1 == 0\n 38359: a1 = u64 [s1 + 0x140]\n 38363: a3 = a3 + a1\n 38366: a1 = a3 <u a1\n 38369: jump [t0]\n      : @1346 (gas: 5)\n 38371: a0 = sp + 0xffffffffffffffe0\n 38374: a2 = a0 & 0xffffffffffffffe0\n 38377: u64 [s1 + 0x158] = a2\n 38381: sp = a2\n 38383: jump [t0]\n      : @1347 (gas: 6)\n 38385: sp = s0 + 0xffffffffffffffa0\n 38388: ra = u64 [sp + 0x58]\n 38391: s0 = u64 [sp + 0x50]\n 38394: s1 = u64 [sp + 0x48]\n 38397: sp = sp + 0x60\n 38400: jump [t0]\n      : @1348 (gas: 5)\n 38402: a0 = a0 + s1\n 38405: u64 [a0 + 1088] = 0\n 38409: u64 [a0 + 1080] = 0\n 38413: u64 [a0 + 1072] = 0\n 38417: jump [t0]\n      : @1349 (gas: 4)\n 38419: i32 a0 = a0 + 0xfffffffffffff8f8\n 38423: a3 = s1 + a0\n 38426: a4 = a3 + 0x500\n 38430: jump [t0]\n      : @1350 (gas: 4)\n 38432: a0 = 0x30f8\n 38436: a3 = s1 + a0\n 38439: a4 = a3 + 0x100\n 38443: jump [t0]\n      : @1351 (gas: 4)\n 38445: i32 a0 = a1 + 0x24\n 38448: a1 = 0x18f8\n 38452: a3 = s1 + a1\n 38455: jump [t0]\n      : @1352 (gas: 4)\n 38457: i32 a0 = a1 + 0x4\n 38460: a1 = 0x18f8\n 38464: a2 = s1 + a1\n 38467: jump [t0]\n      : @1353 (gas: 2)\n 38469: a3 = a2 & 0x40\n 38472: jump @1357 if a3 != 0\n      : @1354 (gas: 1)\n 38475: jump @1356 if a2 == 0\n      : @1355 (gas: 6)\n 38478: i32 a3 = 0x40 - a2\n 38481: a3 = a1 << a3\n 38484: a1 = a1 >> a2\n 38487: a0 = a0 >> a2\n 38490: a0 = a0 | a3\n 38493: ret\n      : @1356 (gas: 1)\n 38495: ret\n      : @1357 (gas: 4)\n 38497: a0 = a2 + 0xffffffffffffffc0\n 38500: a0 = a1 >> a0\n 38503: a1 = 0\n 38505: ret\n      : @1358 (gas: 2)\n 38507: a3 = a2 & 0x40\n 38510: jump @1362 if a3 != 0\n      : @1359 (gas: 1)\n 38513: jump @1361 if a2 == 0\n      : @1360 (gas: 6)\n 38516: i32 a3 = 0x40 - a2\n 38519: a3 = a0 >> a3\n 38522: a0 = a0 << a2\n 38525: a1 = a1 << a2\n 38528: a1 = a1 | a3\n 38531: ret\n      : @1361 (gas: 1)\n 38533: ret\n      : @1362 (gas: 4)\n 38535: a1 = a2 + 0xffffffffffffffc0\n 38538: a1 = a0 << a1\n 38541: a0 = 0\n 38543: ret\n",
        "bytecode": {
          "object": "50564d000037b0000000000000010700c1c000c000800380902064696c61766e4900726f74616572636c61736f706f72500073747369786520003e393817a549ad53e9bb0b10f0faa4ea2444ee2510aca4a26a3e64c180cbf72079646165726c416520676e69746f56e53e0132ca10819674d202a59e6adb0aa109c7d7af417f132d9e8984bb7cfb736165726320746f4e64656873696e69666c61736f706f7250756f6620746f6e200480bd0b000000000e0000001c0000002a000000300000003d000000480000005700000062000000740000007f00000063616c6c5f646174615f636f707963616c6c5f646174615f6c6f616463616c6c5f646174615f73697a6563616c6c65726465706f7369745f6576656e746765745f73746f72616765686173685f6b656363616b5f3235367365616c5f72657475726e7365745f696d6d757461626c655f646174617365745f73746f7261676576616c75655f7472616e73666572726564051302c004910463616c6cc00d91066465706c6f7906c0b4ae82a502c091969b00e3012703f603fe03d404d904ff0469057505b405d905bb06e70617077e07ca07f007d10869098209bf09c5093d0ab20a1c0b580b620bf10b0a0c240c700ceb0c030d1e0d6f0d790db30dca0df10d180e350e760e7c0e9f0eca0ee40ef00ef60e110f3d0f5b0f670f6d0f760f8a0f061010104d106c108910da10e4100d114b117811cd1121127f129713f71305146d14c51413152715611574159e15b115df15461625172b176917841721186818e01839191c1aa41ab31ad71add1a151b1b1b531b591b6c1b8b1b911bdd1be71b331c561c811ca21cac1cce1cea1c4d1d941db21df01d471e691e9b1ea81ede1efc1e331f411f8b1f9b1fd11ff51f18208d20aa20e520f3201d216121b82109225d228c220723ee24c125dc25f72516262c2652265f268626a626af26cf2636275f27932716284928632874287e289728a028ca28ed280729182922293c294529682971299129b429ce29df29e9290b2a142a3e2a472a672a8d2ad22a112b692bd12b1c2c782cda2ce82c5a2dbc2d232e5e2ea22eb02efc2e592f762fad2fbb2f0a3018304d308f30b330d730f13047317a319431ed312432583262327b32bc32c9321d33b933c633e43333343d347e34aa34d234fc344e35bc35f435253647369336b0363037ae37003819387c38023947399e39e3392c3a9f3ae43a073b3b3b663ba83bae3bcc3bfb3b273c523c6c3c793c7f3c9e3cd03cdd3c273d523d6c3d7d3d873db43dd73d433e593e913e973ec73ecd3e633f793f9d3fc03f064010402f4056407a4084409740d340d94005414a415841c8413f4289429942d242df42fd42174368437843ab43c543fc434844554473448744ba44c7442145994518461e465b467546a546ae46ce46d746f74639473f4768479c47b647c347c947e9471c483a4847484d48574870488e48b848c5483949574989499d49c1490a4a144a3d4ad94a1a4b8f4bba4b2a4c9e4ce64c404d884d964db44d204e364e6e4e744ea44eaa4ef64e5b4f614f6d4f904f964fa24fbd4fc34f2b50ed503e51c251db51f5513f5266529052a952af52db521e533053a853195470548054c454d154ef54ff54505560559b55ac55e755f8553656435662567356ae5610577557e1571b58815887589158b458ba58c458df58e55827598a5990599a59bd59c359cd59e859ee597d5a8a5aed5ac15b045c615c925cda5ce75cfc5c025d2a5d375d4c5d525d7a5d875d9d5df45da55efe5e045f2d5f335f595f5f5f8e5f9b5fb35f34604260a9608362d7622263016452649264a664d564e665fd6508673e674268d6681b6933695969c269af6ac16ae16ac26bed6b1b6c226c426c5f6ca46cd06cfb6c296d306d506d7a6db86dcb6d0b6e1e6e6b6ea66eb96edc6e5d6f776f9d6f29708470a170e670f4703e714c716671a471b271e77130723d7266729072d072da72ef722c733f73c8730a745974e374037540757b759275c37547766c769176a476c8764177af77b877c877ce77d777f277f87708780e7817783278387845784b7854786f78757885788b789478af78b5780f797f7987798d79a479ce79d479f379f9790d7a137a197a1f7a497a4f7a6e7a747a887a8e7a947a9a7abe7a857bbb7bd47bf87b4d7c767cb87c177d727ded7d4a7e427fc77fa880058178818681948106822b82e4822f836483b283c283d483da831984298476848684b484ba84e684f68409850f853c854c855f8565859285a285b585bb85fc850c861e8624864d86eb8650873c885b887f88d2882c891e8a388a5c8ad18ad88ade8ae58a098b5b8bb58bff8b328c7d8c898c988cc08cf88c3d8d8f8d9b8dc18dde8d038e0f8e358e528e788e858ea58eb58ed58e6b8f5b9075909990d190f2900d911791aa876e978a2098aa20977b2098bb20c89b0bc9ba0a979b019abbaeab20ae873751094ec87909647a017c8b95880195ac0178ab64caab9cf42836510934c87909647a017c8b95880195ac0178ab64caab9cf4281c51091a839aff01c8a80b7cbb9599ffc8a70c78cb83aaff5209f0320039089800025108e9043307c0000383770a0828dc049511f07b10087b15648964753308206497501002ef037c78017c797c7a027c7b03978808d4980897aa1097bb18d4ba0ad4a8087c79057c7a047c7b067c7c07979908d4a90997bb1097cc18d4cb0bd4b909979920d489027c79097c7a087c7b0a7c7c0b979908d4a90997bb1097cc18d4cb0bd4b9097c7a0d7c7b0c7c7c0e7c780f97aa08d4ba0a97cc10978818d4c808d4a808978820d498037c78117c7a107c7b127c7c13978808d4a80897bb1097cc18d4cb0bd4b8087c7a157c7b147c7c167c791797aa08d4ba0a97cc10979918d4c909d4a909979920d4890a7c78197c79187c7b1a7c7c1b978808d4980897bb1097cc18d4cb0bd4b8087c791d7c7b1c7c7c1e7c771f979908d4b90997cc10977718d4c707d49707977720d487076f776fa86f396f2a7b5a187b59107b58087b57821008821595111032009511d87b10207b15187b161082897b19088289087b19828510828618330820501004a7026f686f59821a6faa821b086fbb787b18787a10787908787898bc38787c1f98bc30787c1e98bc28787c1d98bc20787c1c98bc18787c1b98bc10787c1a98bb08787b1998ab38787b1798ab30787b1698ab28787b1598ab20787b1498ab18787b1398ab10787b1298aa08787a11989a38787a0f989a30787a0e989a28787a0d989a20787a0c989a18787a0b989a10787a0a98990878790998893878790798893078790698892878790598892078790498891878790398891078790298880878780182102082151882161095112832009511a07b10587b15507b16489515608411e06476828718828910828a0882886f776f996faa6f887b18187b1a107b19087b17491138491130491128491120481140208318831a20831b403309ff33070a05821738821830821928821a206f776f886f996faa7b6a187b69107b68087b67501206d0920032009511a07b10587b15509515608411e08272827a08827b108277188283828908828c108288186f746fbb6faa6f276f826fcc6f996f387b17187b1a107b1b087b147b18387b19307b1c287b12208318831a203309ff330b2033070a099551a08210588215509511603200951120ff7b10d8007b15d0007b16c8009515e0008411e082bc7b1c4082bc087b1c4882bc107b1c5082bb187b1b5833020882ab7b1b1882ab087b1b2082ab107b1b2882aa187b1a308296829a087b1a829a107b1a088299187b19107b183833000a2892007b183850100a8c006f687b187882186f887b18708218086f887b18688218106f887b18608218186f887b1898008218206f887b1890008218286f887b1888008218306f887b1880008218406f887b18b8008218486f887b18b0008218506f887b18a8008218586f887b18a0008379811a388317603308030a04955120ff8210d8008215d0008216c8009511e00032008b7910520931c8780883881f8488e05638000001253309940002390a940002ae8a093d08940002013308a000028377c887073200009511f07b10087b158475010a02013d0790000251050750100c0950100ea1009511a07b10587b15509515608411e0491118491110490180003307406418491108501010c5fc4911384911304911284911208317200a0a01821730821838821928821a20d49808d4a707d487075107163308a00002838833070133093300140a07283b390894000256187f0c20039400028000013307a0000283778000330833090a2815fb33078000330850101221ff8378330733093300140a0701951110fe7b10e8017b15e0017b16d8019515f001951110cb8411e064169569f82849294005492938054929280580003307409568202e4929300550101610fc33079000027b67580139079000025517040728456495670030837740fe33083300180a0101956af82881a7640552477c260e9b0a28331f5147234a649bac039569f83052477d6888a60a28f53f5247fd7b1cb50a28f810514764c635da73065247280a61f10a28ed385147a002cb112a07514773b25830b9095247c8eec5310a28d62d5247cc4710540a2842345147484c56620a288742492a0007492af806492af006492ae806956700308377e00a0a01956af82895ab000682b7f80082a8000782b9f00082bae800d49808d4a707d4870751070628a9638267580181775617030728a3639568f8284928200749281807492810074928080704956740139568003050101afbfb9567f81082794802492720024927180249271002647a95672013956800137b6958017ba9080250101c7b83009567f810957900028298287b6850018298307b6848018298387b6840018298407b6838019567e01233084050101e73f99567f810827900027b69e000827af8017b6ad800827bf0017b6bd000827ce8017b6ce800826838017b78c001826840017b78b801826848017b78b001826850017b78a801957800017b89e0007b8ad8007b8bd00064799567c0129568a0127b9cc80150102045738267e8008268d0008269d800826ce000d48c0cd49708d4c808988820d49c0c97cc20d4c80851080628e45d956af810492aa001492a9801492a900195688012826958017ba98801501022faf99569f8104929600149295801826758017b974801956760129568401249295001501024728200956af81095ac000182c768330233033300330b82c87082c97864ac957ae07b6a3801d87a07c8780a95aaffd38a047b6a3001d88a08da470882c78001959affc8a808956c00017bc828d8a808889901c99707c887077bc7208268e8009587207bc718d887078269d000c879087bc810d89808da77088267d800c878087bc808d878078268e000c887077bc70182673801d8720782693001d39308d89309da870982672801d8700c826a2001d3ab08d8ab0ada8c0ad37007d48707da790a520a06284a479567ff07957761057b6b58017b6050017b6248017b634001501026cd830082644001826048018263500182681801c80807d88708826b1001c84b09c88909d3b90cd8b90bdac80b826c0801c83c08d8c802826c5801826a0001c8ac0cc82c0cc88b0bd88b08c8c808d49808d4b709d48909d4b808989920978820d4980851080628575c956cff0795ccf90082c2800495ca000482a87882a97082ab687bab487ba9507ba8589568ff07958841057bc260045010285bf8956c000182cb5882c848958720d8870882ca4050122ab68b0082c850c88a0ad88a08c88b0b6472649364a028e8fe9567f83049276001492758014927500149274801956700308377400233002c0a0a33022e28658c0050122e618c0082b75882b86082b95082ba48d49808d4a707d4870751070628636082675801817756172307285d6095670030837760023308040a019568f83095890001829780007b6748018297787b6758018297707b6740018297687b6738014928a001492898014928900149298800039567601f9568803250103079f88264480182634001826238019560f818950b000682b77082b86882b97882ba8000d3730bd87307d88208dbb708d3a407d8a40c826a5801d89a0bdb7c0bd3a909d49707db7b0852080628c85f9517e08477e07b67500164717b0420067b0a18067b0310069567201f9568001f7b020806501032d27d9567f818827760067b6720019567f818827758067b6730019567f818827750067b6728019567f818827748067b6748019567f818827738069568f818828840069569f81882992806956af81882aa3006826b50017bb7107bb8187bb97bba0864b89567e01e5010349af79567f81882770006956800017b87509567f8188277f8057b87409567f8188277f0057b87389567f8188277e8057b87589567c01e33084050103632f533070020501238b78a0082b7e00082b8d80082b9d00082bac800d49707d48a09d47909989920d48707977720d4970751070628005a826c480198c93d82672801977803d49802826b300198b83d82692001979903d4980898793d7b6a280197ba03d4a90997c7037b6730018e9a8e8bda8a0b8e2a887c000185cc01db2a0cd49808db8b0c7b6c2001837980826740018268500150103a5a8a007b671801826748018a7903826758018268380150103c418a007b674801826830018d898000826740018268500150103e4d8a00330882694801d49707826a300188a98000826b1801da9b0782695801daa90782692001949793989569f818959a00057ba8c0007ba8b8007ba8b0009568a01e7ba7a8008267280150104054f5330820826728013300a202280af84929200549291805492910054929080595670030837700060a0a01956af83095ab000582b71882b82082b91082ba08d49808d4a707d48707510706289c5d8267580181775617030728965d9568f83049284005492838054928300549282805049567802a95682036501042cbf59567f828827788017b6758019567602a33084050104487f3956af82895ac000182cb800082c87882c97082c768501246588800510806286958492a6001492a5801826858017ba848019568402a492a50017b6758013300a002287bf4492a8005492a7805492a7005492a680595670030837760fe3300480a0a3307003033024a28a888003307003050124aa0880082b77882b8800082b97082ba68d49808d4a707d4870751070628d15c826758018177330863ac780628c95c9567c00233004c3302360428e086008267c0027b6758019567a00233004e33025e0428c187008267b0027b6730018267a8027b6738018267a0027b674001956780023300503302400428a28600826780027b67480149267802492670024926680295686002826758017b6760023307501052acf34926580249265002492640020133072095684002492648025010548ff33308940002390794000256173f0b200394000240019517e08479e07b69280164913307a00002837783997b6858013308407b6750013300560a0633025828588400501258548400492638027b673002826738017b67280295682002826740017b672002330750105a25f382671001956a00027ba718826718017ba710826720017ba70833072095680002826928017ba950105cfaf282685801818756173f0e48084033025e287a830050125e7683003300600a0633026228ce8200501262ca82004926f8014926f0014926e8019568e0017b67e0013307501064b3f2826720017b67d801826728017b67d001826730017b67c8013307209568c001826938017b69c00150106687f282685801818755174008480840019517e08477e07b675801501268a8830033006a0a0633026c2847840050126c4384009567a00150106e40f38267a0017b6758019567800133084050107000f1956b000182ba980082b8900082b9880082b78000d49a0ad48709d4a909989920d4a808978820d4980851080628d4557c6858018e89492678014926700149266801956860017b6960017b6758013300a00228e4f1492aa005492a9805492a9005492a880595670030837780fe3300720a0a33070030330274281186003307003050127409860082b7980082b8a00082b9900082ba8800d49808d4a707d4870751070628455a826758018177330823ac7806283d5a95672007330076330236042846840082672007492618074926100749260807956800077b670007330750107858f14926f8064926f0064926e006023307209568e0064926e80650107a3bf19517e08477e07b67580164713309940002390794000256173f0b200394000240017b6918019517e08479e07b69500164913307a00002837783993308407b67200133007c0a06826a500133027e28ae8100826a500150127ea681007b6af800826858017b8a187b6900017b89107b6b08017b8b087b6710017b879567c00650208000aaf18267d8068268d0068269c806826ac0067b67a8007b6798067b68a0007b6890067b6998007b6988069567a006956880067b6a90007b6a80065020820017798267a0067b6740018267a8067b6738018267b0067b6730018267b8067b672801956760063308405020840013ef956c000682c8787b68580182c7707b67500182ca687b6a480182cb607b6b60826928017bc938826930017bc930826938017bc928826940017bc9207bc8587bc7507bca4895674006956820067bcb4050208600f768826760956b000182b85882b948d4890982ba50d4a708d49808988820d4a909979920d4980851080628955382689000956a00067ba8826898007ba8088268a0007ba810956800068269a8007ba91850208800a4ef8268609587207b6770d8870782694801c879087b688000d89808da770882675001c878087b6868d878077b6750018267f800956900057b97f800826700017b97f000826708017b97e8009568e005826710017b97e000330750208a0046ef9517e08477e07b67e800647182691801819756171f08480920018267580182685001c887077b67781407ffffffff000000007b67b0009517e08477e07b67580164718379330820826720010a063309330a330c330282675801827418827810827b0882736f446f806fbb6f388267e8007b6808017b7818956800017b8b7b7b10640b7b6bf0007b7b08644b7b6bf8007b7b140700000000010000007b87181407e0ffffff000000007b6788008267707b8728826780007b87208267687b87308267787b873801826790007b69d000d8790782699800d39a087b6ac800d89a09da8709826ba000d8bc07826aa800d3a2087b62c000d8a20ada870a7b6cb800d3bc07d48707da790a7b6a40019567c00533084050208c00f4ec8264d805956700058278d0008279c000827bc800d48907d44b0a7b6958017b6b5001826c40017b6410017b684801520c06285b46956c00037bc9e0007bcbe8007bc8f0007b6740019567e0037b64f8037b6ae00033008e0033026c04286780009567c0038268e80050209000b2ee826740018269e000d4970798772082684801d49808978820d48707510706286751956b000382bad00082b7c80082b8c00082b9d8007b69d8008269b0007b6ae000d2a9098477ff8488ff4926b8037bb8a0007bb7a8009568a0037bb9b000826758015020920058ed956b000182b71082b848d478088267880082ba58d87a0782b95094977bb840948752070628f9508267e0009877208268d800978820d487078478ff83a72049269803492690037b68800395688003492688035020940000ed8267f8009577018878018269f000c89808d48709889901826a0001c8a909d8a90a826b0801c8ba0a956bf82895bc00057bcac0007bc9b8007bc8b0007bc7a800956760039568a02e50209600a4ed956a000182a95882a7189577c0502298002e8000520706286050956a000382a76082a8707b68d80082a8687b68e0008478ff83974049265803492650037ba840956840034926480350209a0064ec956a000182a95882a7189577a050229c00e07f5207062813508268e0008488ff83976049263803492630037b682003956820034926280350209e0027ec956a000182a95882a7189577805022a000a37f52070628d64f8268d8008487ff008e788397800049261803492610037b68000395680003492608035020a200e6eb95680001828a30828b28d4ab07828938828c20d49c08d48707987720d4a808978820d4870751070628834f826758017b67e002826750017b67e802826748017b67f0029568e002826710017b67f80264b77b6938017b6a30017b6b28017b6c20015020a4007feb826828019587207b675801d8870982682001c898077b675001d8870ada990a82673001c8a704d8740a82673801c8a7077b6738018267f800957002d8700b8267f000c8b703d8730cdabb0c82670001c87c0cd87c0b82670801c8b7078269d000959901889b01826ac800c8ba0ad4a90b88bb018268b800c88b0bd88b088262c000c882028268e8007b83087b807b8c107b6708017b8718956800018287587b87288287507b87207b6430017b60f8007b63f0007b8c64bc2848fc4929e0014929d8014929d0014929c801956700308377c0023300a6000a0a3302a80028fe7e5022a800fb7e82b7d80082b8e00082b9d00082bac800d49808d4a707d4870751070628385382675801817733080301ac7806282f539567202a3300aa003302360428297d9567f828827728017b67e8009567002a3300ac0033025e0428067e9568f828958900018297187b67f0008297107b67c0008297087b67c800956700308377e0023308440a01019569f83082930002829af801829bf001d43a0788b801947852080628c352829ce80182675801807795c823d8c809c89b027b6bf800d8b20bda990bc8ab0b7b6a0001d8ab097b630801c83909d4b909d8780794279497520706288c527b6c100183c80495670030837700033300ae000a0101956cf83095c70002827920827a18827b108e978ea8db97087b6920017b6a1801d49a077b6b48018eb9db7809510906284c5282c708027b6750019567e0293308405020b00023e8956cf82882c300017b63400182c2f8007b62380182c4f0007b64300182c0e8007b6028018268500195871fd8870882694801c898088488018477e0957920d87907c8780ad88a0bda770b492cc0007bc9a8007bc3e0007bc2d8007bc4d0007bc0c8007bcab0009567c0299568a0297bcbb8005020b200e46195690001829728829830829b40d48b0b829c38d4c708d4b808988820d4cb0b97bb20d4b80851080628824c9569f828826850017b988800826848017b989000826818017b98980095688029826a20017b9aa0005020b4008ce882641801826320018268100182605001c80807d88708826bf80082624801c82b09c88909d3b90ad8b90bdaa80b826a0001c84a08c88b0bd8a80ad88b08826c0801c83c0cc8ca0ac8a808957a24d87a07c8790cd89c09da7709826758018077c8b909d8b90bc8b808d8a7078ecadbca078e9a8e8bda8a0bd49808db8b0751070628d5516408d44007d43209d49707987720d44909979920d49707956c000182cb4082c93882ca3051070628a74bd4b9001402e0ffffff00000000826b2801d82b0794a7940752070628894b826710018377247b67100183b7207b6258015020b6006fea837781685001826910010a01826b30018267280182625001c87202d8720882694801c8b909c88909d3b90ad8b90bdaa80b826a380182681801c8a808d8a80a826c400182672001c87c0cc8ca0ac88b0bd88b08c8a808d4b808826a5801d8a20a949a948a520a0628074b8327209569f82849298000491978491970956860294919685020b80021e7956740293300ba003302540428df799567f8288277487b6750019567003083772003330884003300bc000a013302be0028387a5022be00357a82b74082b83882b930d48707889801947852080628e75282a728027b67480195670030837740033308a4003300c0000a013302c20028fa795022c200f77982b76082b85882b950d48707889801947852080628b15282a748027b67200195670030837760033308c4003300c4000a013302c60028bc795022c600b97982b7800082b87882b96882ba705022c8008b7952080628795295670030837780033308e4003300ca000a013302cc002884795022cc00817982b7a00082b8980082b99000d48707889801947852080628485282a788027b67f8008267f0009777209877207b67b8003307a000037b67580183773300ce000a03826958013302d000281f76826958015022d00018768269b800d398088269c800d39707d487078268c000d3a808d487075107062893428269e8008499ff9567f8204927a0074927980749279007956880287b69b0007b79880733075020d20092e59567f820492780074927780749277007647933072095686028492968075020d4006fe53309940002390794000233083fac78142003940002407b69a8003302d600286f797b69a8005022d60068793307a00002837783993308407b67a0003300d8000a06826a58013302da0028cc75826a58015022da00c57595bc00027bcac0007bc9b8007bc8b0007bc7a800956740289568a0335020dc00e9e59567f820827748078477ff7b675801956720283308405020de00a1e39569f820959b000782b74082b83882ba2882943007d48a03d4740cd47802826b5801510b0628ad467b62e800959b00067bba88007b9490067bb7a000956780277bb898007b6af0007b64e0007b6858017b6cd0007b63d8003300e00033027c042810778269d0008267d800d4970798772082685801d49808978820d48707510706281f489569f820492980064929780649297006956860278267b0007b9768068267f0005020e20031e4140900000000010000001407e0ffffff00000000826af0005022e400917752070628d54783ab20956cf820492c60068267c80095ca00067ba7488267c0007ba750956840278267b8007ba7587b6bd80064b77b6958015020e600d5e3826be000826ae8008268f000826758019577c0d8780794b794a7520706287d4783894082672801956cf82095ca00067ba728826730017ba730826738017ba73895682027826740017ba7407b69400164975020e8007ee3826af000140700000000010000007b6758011407a0ffffff000000005022ea00da76520706281e47826950018499ff83a760956bf820492b2006492b1806492b1006956800277bb908067b6798005020ec002ae3826758019577805022ee00517552070628df468267f000837980009567f820492700064927f8054927f0059568e026826a48017b7ae8057b69900064975020f000e7e2140700000000010000007b675801140760ffffff000000005022f200fd74520706288b46826a200184aaff8267f0008377a0009569f8204929e0054929d8054929d0059568c0267b9ac8057b6788005020f40092e282675801957740ff5022f600b874520706284646956a000182a71082a808d4870782a81882a9d49808d487078e7a8267f0008377c0009569f8204929c0054929b8054929b0059568a0267b9aa8057b6780005020f8003ae2140720ffffff000000005022fa005e7452070628ec458269f8008499ff8267f0008377e000956af820492aa005492a9805492a9005956880267ba988057b67285020fc00f4e19569f820492980054929780549297005956860268267b0007b97680533075020fe00d0e19567f8204927600549275805492750056479330720956840264929480550200001ade19517e08477e07b67580164718267a800817756173f0c8268a800480840019517e08477e07b675001647183793308408267a0000a06826a500182a71882a81082a90882aa6f7c7b6c606f8b7b6b686f987b68786fa77b6770826958017b97187b98107b9b087b9c956720268268f00050200201fedf9567f820827728058477ff7b6750019567002682685801502004010de29569f820959a000582a72082a81882a910956af830826b500195ac00027bcbc8007bc7e0007bc8d8007bc9d0009568c03382675801502006014ae29567e0258268d8005020080198df9567f8208278e8047b6850018278f0047b6848018078f8047b6838019567c0258268580150200a019ae19568f8208087e4049777208288c80482693801d497079569f830826a4801959b00027bbaf800826a50017bbaf0007bb8e8007b9700039568e0338267580150200c01cee19517e08478e06481826960959901889701826a68c87a0ad4a907887701826c78c87c0bd8cb07826c70c8c707956c00017bc7087b87187b6bf8007b8b107bca7b8a087b68487bc9107b899567a02582c84050200e01d3de9568f820958b000482b9c00082bab80082b7b00082b8a8007b67e8007b69e000d497077b68f000d4a808d478089888207b6ad800d4a707977720d48707510706289243956780258268f0005020100182de9567f820957b000482baa00082b9980082b890008ea78e9bdba70b7b68508e877b69407b6a30d4a9097b67187b6b207b69d000db9b0751070628b64b9567f820827788047b675895676025826848502012015ae0956bf82095bc000482c96882c77082c87882ca80007bca407bc8387bc73095674025956820257bc9285020140189569567f82095780004828a60828b58828c508289488ea78eb8dba7088ec77b6938018899208599017b6c4001dbc7097b6a48017b6b5001d4ab07db78098267588877207b673852090628b7429567f820956a000182a810957b00047bb80882a87bb8108268f8007bb8189568002582a9087bb920330750201601bede8267a800817756171f0c8268a800480820019517e08477e07b672001647183793308208267a0000a0682675895781fd87807826c50c87c09d8c90ada770a826b40c8ba0a7b6a180197aa3b989b05d4ab0b8267200182731897993b827a10988805d498076f346fa982683894c8826ad00094a8948b9487c87402d84207c8790cc8cb0b7b6b5801d39b0cd89b0adac70a7b6a108267380195701fd8700b826a4001c8ba07d8a70cdabb0c82635001c8c303973b3b987a05d4ba0a97773b980b05d4b707c847077b673001d847076424c8790bc8ab0bd39b0a7b6b2801d89b09daa709826b1801826740d87b07826a30c8a70798ba05977b3bd4ba0a826b200182b282bb08987705948a94876fb86f2bc8b707c88a0ad88a0cc8c707826010c8a000d8a00ac8a70282675001d87307826a4801c8a707983a05977c3bd4ca0a987705c8b707956c000182cb58c88a0ad88a08c88707c8a9097bc920d8a908c887077bc7189517e08477e07bc75064710182673001d8740782692801d39b08d89b09da8709826c2001d8c007826a1801d3a208d8a20ada870ad3c007d48707da790a7b644801826750017b747b6b58017b7b087b6038017b70107b6240017b7218520a0628c2409567f8304927200349271803492710034927080395680034826750015020180141de82644801954401884701826b5801c87b0bd4b40788770182683801c88707d8870882624001c882026470285eff9567f83049074917f84917f04917e8956700308377e0000a0a01956af83095ab00ff82b7f80082a882b9f00082bae800d49808d4a707d4870751070628b1458267580181775627a3000828ab4595670030837700013308040a0101956af83082a91882a72014080000000001000000d39808d478087b6948019899208899019479938952090628774582a7107b67500182a7087b6758019567801e33001a0133024a0428c96f9567f818827788057b6720019567601e33001c013302400428b66e9567f818827768057b6740019567401e33001e0133025404289b6e9567f818827748057b672801956700308377200133088400330020010a0101956af83082a74082a83882a92882aa3050222201cb6e52080628fd44826748019777209877207b6748013307a000037b6738018377330024010a0301956c000182c93850222601a06b82c948d3980882c958d39707d4870782c850d3a808d48707510706286f28330228019569f818014929a00449299804492990049568801d826740017b978804330750202a011fdb33022c019568f818014928800449287804492868040164893307209568601d4929700450202e01f6da3308940002390794000256173f0b200394000240019517e08479e07b69f80064913307a0000283777b68300183993308407b6738010a06826af80082a71882a81082a90882aa6f777b67f8006f877b67f0006f977b67e8006fa77b67e000330230019569f818014929600482674801959a00047ba758826750017ba7509568401d826758017ba74833075020320166da8267e0009568f818958900047b97408267e8007b97388267f0007b9730648a3307209568201d8269f8007ba928045020340132da82683001818756173f08480840019517e08477e07b67f80064718379330840826738010a06826af80082a71882a81082a90882aa6f777b67f0006f877b67e8006f977b67e0006fa77b67d8009517e08477e07b67f8006471826928018499ff9567f8184927200449271804492710049568001d7b69d0007b790804330750203601afd98267d8009568f8187b8700048267e0007b87f8038267e8007b87f003648a3307209568e01c8269f0007ba9e803502038017cd98268300181875517400e48084033023a0128096950223a01066933003c010a06826a280133023e0128136a826a280150223e010c6a8268f8007b8a187b89107b8b087b879567c01c5020400120da330242019569f818017c97c80351070628672f4929200349291803492910039568001c826740017b970803330750204401fbd89567f818492700034927f8024927f00264793307209568e01b4929e80250204601d8d882683001818756173f0e4808403302480128656850224801626833004a010a06826a280133024c01285669826a280150224c014f697bba607bb9587bb8507bb7489567c01b9568403150204e017bd9330250019569f818018297c8028477ff8e774929c0024929b8027b97a8029567a01b4929b00250205201a761330254019569f818014929a00249299802492990029568801b826740017b97880233075020560134d89567f81849278002492778024927700264793307209568601b492968025020580111d882683001818756173f0e48084033025a01289e6750225a019b6733005c010a06826a280133025e0128bd68826a280150225e01b6688388f800c868087b8b687b8c707b89787b8780009567401b9568603150206001acd8330262019569f818017c97600251070628ff2e4929a00149299801492990019568801a826740017b97880133075020640187d7330266019568f818014928800149287801492868010264893307209568601a49297001502068015ed79517e08477e07b67e000647182693001819756173f0e48094033026a0128df6650226a01dc660a06826a280182a71882a81082a90882aa6f7b6f886f996faa8267e0007b6ab8007b7a187b69c0007b79107b68c8007b78087b6bd8007b7b9567401a33084050206c01b9d59568f818958c000182c7607b67f00082c9587b69e80082ca507b6af80082cb487b6b28017bc7407bc9387bca309567201a7bcb2833006e0133026c04284c69826928018267f0008268f800d48707826ae800d4a908d47808988820d4a707977720d4870751070628513a956af818492a20018267580195ab00017bb708826750017bb7109568001a826748017bb7186497502070015cd6826928018267f000826ae800d47a0a140b00000000010000001407e0ffffff00000000d879078268f800948794a752070628f039826820017b6af000848aff8397209569f818492900014929f8004929f0009568e0197b9ae8007b67e8007b6b200150207201f4d582682801826720019577c0d878078269f80094978269f0009497520706289c39838940956af818492ae000492ad800492ad0009568c019826740017ba7c8007b692001649750207401a9d5826af00082682801140b00000000010000001407a0ffffff00000000d878078269f800949794a7520706284439838960956af818492ac000492ab800492ab0009568a0198267d0007ba7a8007b69a80064977b6bb000502076014dd5826a28018267b000957780d87a078268f80094878268f000948752070628f538956b000182b71082b808d4870782b81882b9d49808d487078e7983a78000956af818492aa000492a9800492a9000956880197b69b0007ba988007bb750207801ebd4956760198268e00050207a01cfd59562f8186427827c8000827b78827a708ec78eb8dbc708d4cb078ea9db78095109062835418227687b671001957701887801c8a808d48709889901c8b9097b6a0801d8b90ac8ca0a7b6bf800956bf8307bb788007bb890007bb998007bbaa000956880318267e0007b6cf00050207c01d5d59517e08477e07b67180164719568f8188267f0007b878267f800958900ff7b97f800826708017b97f000826710017b97e8008267b8007b87208267c0007b87188267c8007b8710648b95672019956800199569e018826ad8007bba0850207e01cc589568f81801828258828348828460828950828b38828c408287288288307b6bf800826a18017bab107b6cf0007bac187b67d8007ba7d44909d42307d497077b68e0007ba808510706288c401407ffffffff000000007b67080195678018826828015020800168d29569f810959a000782a7880082a8900082a998008477ff7b6728018487ff7b67100182670801d297077b67080195676018826818015020820159d49568f81080877c07977720828a80077b6ac80082680801d487079569f830826810017b98b000826828017b98a8007b9ac0007b97b8009568a03182671801502084018dd4956740188268e80050208601dbd19567f810827748079778209877208269c800989920979920d4970782690801d498089569f830826a10017b9ad000826a28017b9ac8007b97e0007b98d8009568c031826718015020880133d49517e08478e064818267d800957a0188a7018269e000c8790b7b6b1001d4ba077b6a18018877018269f800c8790c7b6c0801d89c078269f000c897077b67f8007b6828017b87187b8c107b8b087b8a956720188268200150208a0132d19567f810827728078477ff7b672001956700188268280150208c0141d39569f810959a000782a72082a81882a910956af830826b20017babe8007ba700017ba8f8007ba9f0009568e0318267280150208e0182d39567e0178268a80050209001d0d09568f810958a000682a7e8008477ff4928c0064928b8064928b0067ba7a8008267f8007ba7e000826708017ba7d800826710017ba7d000648a9567c0179568a017826918017ba9c80650209201956095678017826800015020940173d0956af81095ab000682b7a00082b8900082b9980082ba8800d48707d4a909d497078e777b6720019567601782682801502096016ad2956af81095ab000682b77882b86882b9800082ba70847700ff826b2001d4b707956bf83095bc00017bc9207bca107bc8087bc718956800328267280150209801a0d29569f81049296006492958064929500695684017826740017b974806330750209a0112d19568f810492840064928380649282806016489330720956820174929300650209c01eed082683001818756173f0e48084033029e01287b6050229e0178600a06826a280182a71882a81082a90882aa6f777b6728016f877b6720016f977b6718016fa77b6710019569f8104929200682674801959a00067ba718826750017ba71095680017826758017ba70833075020a0017ed0826710019568f8107b870006826718017b87f805826720017b87f005648a3307209568e016826928017ba9e8055020a2014bd082683001818756173f0e4808403302a40128d85f5022a401d55f0a06826a280182a71882a81082a90882aa6f777b6720016f877b6718016f977b6710016fa77b6708019517e08477e07b67280164719569f8104929e0054929d8054929d0059568c0168267d0007b97c80533075020a601d8cf826708019568f810958900057b97c000826710017b97b800826718017b97b000648a3307209568a016826920017ba9a8055020a801a1cf82683001818755174008480840019517e08477e07b67300164718379330840826738013300aa010a06826a30013302ac01282f60826a30015022ac012860826828017b8a187b89107b8b087b87956780165020ae013cd0956af81095ab000582b7880082b8900082b9a00082ba9800847700ff867701956bf83095bc00017bc9407bca387bc8307bc72895682032826728015020b00173d0956760163308405020b201c2cd956af81095ac000582c7800082c87882c97082cb68d49707d48b09d47909989920d48707977720d49707510706289432492a6005492a5805492a5005956840168267b0007ba7480564b77b6b38015020b401a8ce9567f810492700059567f8104927f8049567f8104927f0049567f810956c000182c8407b78e8049567f81082c8487b7818059567f81082c8507b7810059567f81082c8587b7808053a075000023a085800023a096000023a0a680002956bf8107bb740059567f8107b7838059567f8107b7930059567f8107b7a280533082095692016956a0016956be0159567f8104927200582c7385020b601dfcf9567c0153308405020b801c5cc956af81095ac000482cbe00082c8d80082c9d00082c7c8005022ba01926151080628a331492ac004492ab804492aa804019568a015492ab0047b6758013300a00228b8cd492ae005492ad805492ad005492ac805956700308377c0fe3300bc010a0a330700303302be0128e361330700305022be01dc6182b7d80082b8e00082b9d00082bac800d49808d4a707d4870751070628db36826758018177330823ac780628d4369567ff079577a1013300c001330236042814609569ff079599f9008297a8004929a00049299800492990009568ff07958881017b97880033075020c2011bcd9567ff079577f9004927800049177849177064793307209568ff07958861014919685020c401f3cc9517e08477e07b6738016471390894000256183f133308403d089400023302c60128f0605022c601ed603307a00002837783993308400a06826a580182a71882a81082a90882aa6f7c7b6c48016f8b7b6b50016f997b6940016fa77b675801826838017b87187b89107b8b087b8c9567ff07957741015020c80169cd956cff0795ccf90082c7607b67200182c7587b67300182c7507b67280182c7487b6738018267480195770188780182695001c89808d48709889901826a4001c8a909d8a90a826b5801c8ba0a7bc8107bc7087bc9189567ff07957721019568ff07958801017bca205020ca0142469568ff079588f9008287407b6700018287387b6708018287307b6710018287287b67180182684801958702d88708826a50015022cc01e05f826b5801c8b808956bf8287bb8000695b800057b8af8007b89f0007b87e8009567ff079577e1009568e02e5020ce0192cc956cff0795ccf90082c77b67e00082684801958703d88708826a50015022d001f15e82c8f87b68e80082684001c88a0ad88a08826b5801c8b80882cbf07b6bf00082cbe87b6bf800956bf82895bc00067bc8207bca187bc9107bc7089567ff079577c1009568002f5020d20124cc956700108277c0f87b67d8009567ff079577a1003308405020d401dbc995670010827ab8f895670010827bb0f8956700108278a8f8956700108277a0f87b685801d4a809d4b708d49808988820d4b909979920d49808510806289e2e826938018499ff95680010492898f895680010492890f895680010492888f89568ff0795888100956c00107bc980f87b6750017b6a48017b6b40015020d60195ca956c000182c85082c74882c940d4790a140b00000000010000001407e0ffffff00000000d8780782c958949794a752070628292e8267200197772098792083872095680010492878f882682801956c00107bc860f882683001956c00107bc868f89568ff07958861956c00107bc970f87b6a38017b6b30015020d80117ca956a000182a85082a7309577c0d8780782a958949782a938949752070628bf2d83874095680010492858f895680010492850f895690010492940f800019568ff0795884195690010492948f85020da01c5c9826750019577000182685001d88708826a58015022dc01bb5d826b4801c88b0b956c00077bc9e8007bc7e00082670001956800107b8718f882670801956800107b8710f882671001956800107b8708f882671801956800107b8700f87bcaf0009567ff079577219568ff079588019569e0077bcbf8005020de01c947956b000182b950140a00000000010000001407a0ffffff00000000d8790782b858948782b838948752070628e32c95670010827738f87b67180195670010827730f87b67100195670010827728f87b67200195670010827720f87b6728018267f8008478ff8397604926d8074926d0077b68c0079568c0074926c8077b6a30015020e001c3c8956a000182a95082a730957780d8790782a858948782a8389487520706286b2c8267f0008478ff839780004926b8074926b0077b68a0079568a0074926a8075020e2017ec8956b000182b950140a0000000001000000140760ffffff00000000d8790782b858948782b838948752070628182c8267e8008478ff8397a00049269807492690077b68800795688007492688077b6a30015020e40127c8956b000182ba3882b95082b730957740ffd8790782b858948794a752070628ce2b7c67e0008e788397c00049267807492670077b68600795686007492668075020e601e2c7956a000182a950140720ffffff00000000d8790782a858948782a838948752070628862b8267d8008478ff8397e00049265807492650077b68400795684007492648075020e80199c78267500182632801d87302826c580182682001d3c807d8c809da720982674001826a1001c97a04d87a0a82674801826b1801c97b0bc9ab0bd8940ac9ab0a82675001c9940bc9c809c92909c97308d4a90928f72a492a4006492a3806492a3006492a280695670030837720ff3300ea010a0a01956af82895ab000682b73882b84082b93082ba28d49808d4a707d48707510706288530826758018177330843ac7806287e309567ff07957721053300ec013302360428ae599567ff079577f900827728047b6758019567ff07957701053300ee0133024a0428835a9569ff079599f900829708047b672001492900044929f8034929f0039568ff079588e104826758017b97e80333075020f0018ac69567ff079577f9004927e0034927d8034927d00364793307209568ff079588c1044929c8035020f2015fc63308940002390794000256173f0b200394000240019517e08479e07b69400164913307a0000283777b68480183993308407b6750013300f4010a063302f601282d585022f6012a587bca607bc9587bc8507bc7489567ff079577a1049568402f5020f801ebc69569ff079599f9008297a8038477ff8e774929a003492998037b9788039567ff0795778104492990035020fa01144f9569ff079599f9004929800349297803492970039568ff0795886104826758017b97680333075020fc019ec59567ff079577f90049276003492758034927500364793307209568ff0795884104492948035020fe0173c582684801818756173f0e4808403302000228f15550220002ee55330002020a0633020402285c575022040259577bca80007bc9787bc8707bc7689567ff07957721049568602f5020060219c69567ff079577f900827838037b684001827830037b683801807740037b6730013307a000037b6728018377330008020a0301956c000182c92850220a02225582c930d3980882c938d39707d4870782c840d3a808d4870751070628ab109569ff079599f9004929800249297802492970029568ff0795886103826758017b976802330750200c029ec49567ff079577f90049276002492758024927500264793307209568ff07958841034929480250200e0273c482694801819756173f0e4809403302100228f15450221002ee54330012020a06826a400133021402281f55826a40015022140218558388f8f8c86808958a00067bab88007bac90007ba998007ba7a0009567ff07957721039568802f5020160203c59567ff079577f9007c77400252070628d32d9567ff079577010333084050201802b4c2956bff0795bbf90082b2200295b80002828c18828a10828708d42a09d4c708d49808988820d4c909979920d49808510806288227492bf801492bf001492be8017b6a5001140a00000000a079c3089568ff079588e1027bba00027b6758017b6248017b6c400150201a0282c3956c000182c85882c74882ca40d47a0a50221c022753520706282e278387049569ff079599f9004929e0014929d8014929c801209568ff079588c1024929d0017b6a48017b6b400150201e0234c350222002865252070628f026838724956aff0795aaf900492ac001492ab801492aa801109568ff079588a102492ab00150202202fec250222402e05552070628ba2683a7443a084000023a09780002956bff0795bbf9007bb8a001492b90017bb998019568ff0795888102492b88013300880328bbc24929600549295805492950054929480595670030837740060a0a01956af83095ab000582b75882b86082b95082ba48d49808d4a707d4870751070628122c826758018177330823ac7806280b2c9567002e3300260233023604282f559567f828827708057b6758019567e02d50202802254d9567f8284927e0044927d8044927d0049568c02d826958017b79c804330750202a0228c29567f8284927c0044927b8044927b00464793307209568a02d4929a80450202c0205c23308940002390794000256173f0b200394000240019517e08479e07b69500164913307a00002837783997b6848013308407b67400133002e020a06826a500133023002286852826a500150223002615295bc00057bca80007bc9787bc8707bc7689567802d956860365020320288c29569f828829788048477ff8e7749298004492978047b9768049567602d4929700450203402b94a9569f8284929600449295804492950049568402d826758017b9748043307502036024bc13307f82850223802845564793307209568202d4929280450203a022ec1826848019517e08477e07b6750016471818756173f08480840019517e08477e07b675801647183793308408267400133003c020a0633023e0228f75350223e02f4537b682801826950017b98187b6730017b97107b6b20017b9b087b6c18017b9c9567002d3308405020400286bf9568f828958c000482c7207b67380182ca187b6a400182c9107b69480182cb087b6b58017bc7958c00037bcaf8007bc9f0009567e02c7bcbe8003300420233027c042813539567c02c82685001502044025fc1956a000182a94082a73882a848d4870782a858d49808d47808988820d49707977720d48707510706280a24956af82895a900038297e0007b6708018297d8007b6750018297c8008298d0007b6810018477ff492ac003492ab803492ab0039568a02c7b97a8008267580150204602fdbf956b000182b74082ba38d47a0a140900000000010000001407e0ffffff0000000082b858d8780782b848948794a7520706289123826708019777207b690801987920826758018377207b6a0001956af828492aa0038268100195ab00037bb88800826850017bb890009568802c7bb998005020480286bf8269180195990188970182682001c88707d47908888801826a3001c8a808d8a80a826b2801c8ba0a956bf82895bc00037bca607bc8587bc7509567602c9568402c7bc94850204a027539956900018297089577c050224c024d5252070628ee22956cf82882c2800395c90003829878829a70829b68826758018377407b9b287b9a307b98389568202c7bc2400350204e02f3be82681801958702502250026c507bc990007bc788007bca98007bc8a0009567002c9568803650205202babf140900000000010000001407a0ffffff0000000050225402a8525207062870229567f8287b6950016479827720037b67f800959a000382a70882a8187b68080182a8107b6810018478ff82675801837760492900034929f8027b98e8029568e02b4929f002502056025dbe95690001829750957780502258026e51520706280f22826810018488ff82675801837780009569f8284929e0024929d8027b98c8029568c02b4929d00250205a021abe14090000000001000000140760ffffff0000000050225c02fa5152070628c221826708018478ff826758018377a0007b6950019569f8284929c0024929b8027b98a8029568a02b4929b00250205e02c9bd95690001829a829750957740ff829858d87807829848948794a75207062871217c67f8008e78826758018377c0009569f8284929a002492998027b9888029568802b49299002502060027dbd8268180195870350226202f64e7bcab8007bc9b0007bc7a8007bc8c0009567602b9568a0365020640244be140720ffffff0000000095690001502266025f505207062800219569f828829768028478ff826758018377e00049296002492958027b9848029568402b49295002502068020bbd9567202b33084050206a02c4bb9562f82895280002828a40828c38828b30828728d4ab09d4c708d49808988820d4c909979920d498085108062897204922200249221802492210027b6a30019568002b49220802207b6750017b6b20017b6c280150206c02a4bc8267500195772082685001d88708826a2001c88a09d8a90ada880a82682801c88a0ad88a08826b3001c88b0b9568f828958c00017bc9b0007bc7a800826738017bc7e000826740017bc7d800826748017bc7d000826758017bc7c8007bcab800648a9567e02a9568c02a9569a02a7babc00150206e02e43c9567f8288278f001827200028273e801827af80182672001d3780bd8780c647082675001d87304dab40c82672801c97a0bd87a0a82673001c97209c9a909d8cb0ac9a90982675001c9cb0bc90808c9480ac97308d4a90928841f4929c0014929b8014929b0014929a801956700308377a002330070020a0a33027202280b5050227202085082b7b80082b8c00082b9b00082baa800d49808d4a707d48707510706282a25826758018177330863ac78062823259567e020330074023302360428374e9567f8208277e87b6748019567c0203300760233025e0428154f9568f818958900078297d800956800017b87308297d0007b87388297c8007b87409567a020330078023302400428ed4d33027a029569f818018297a8074929a0074929980749299007956880207b978807330750207c02f7ba33027e029568f81801492880074928780749286807016489330720956860204929700750208002ceba3308940002390794000256173f0b200394000240019517e08479e07b69280164913307a00002837783997b6858013308407b675001330082020a063302840228944b50228402914b9569f81849296007959a00077ba758826738017ba75095684020826740017ba7483307502086025dba826710019568f818958900077b9740826718017b9738826720017b9730648a33072095682020826928017ba928075020880229ba82685801818756173f0e48084033028a0228a74a50228a02a44a33008c020a0633028e0228fa4950228e02f7499569f818492920074929180749291007956800207b970807330750209002dcb9826720019568f8187b870007826728017b87f806826730017b87f006648a3307209568e01f826938017ba9e80650209202a9b982685801818755174008480840019517e08477e07b67580150229402c94a330096020a063302980228664b50229802634b9567c01f50209a0260ba9567f8188277c8067b6758019567a01f33084050209c021bb8956af81895ac000682cbc00082c8b80082c9b00082c7a80050229e02e84c51080628f91c7c6858018e88492aa006492a98067ba888069568801f492a90067b6758015020a0020db9330820826758015020a202c6bb837833092033070a070151476baf69640a283521492aa007492a9807492a9007492a880795670030837780000a0a01956af82895ab000782b7980082b8a00082b9900082ba8800d49808d4a707d48707510706285c22826758018177330843ac7806285522956740153300a4023302360428594b9567f810827748047b673801956700308377a0003308243300a6020a01019567f828957900078298c0007b6840018298b8007b6848018298b0007b6850018297a8007b6758013307f8105022a8027f4c95682015826938017b79280433075020aa0228b89568f81049282004492818044928080402648933072095680015492910045020ac0204b89517e08477e07b6720016471390894000256183f0b200394000240019517e08479e07b69380164913307a00002837783993308407b6710013300ae020a06826a38013302b002287d48826a38015022b0027648826820017b6a18017b8a187b6928017b89107b6b30017b8b087b6738017b879567e0145020b2027ab8956cf81082c7f00382c8e80382c3f80382ca000482645001d3740bd8740782625801d88208dbb70882604001d3a007d8a009826a4801d83a0bdb790bd33a09d49707db7b0852080628ff209517e08477e07b67200164717bc0800395cb00037bba787bc470037bc26803826718017bb7a000826728017bb79800826730017bb790009567a0149568801495696014826a38017bba88005020b402af3b9567f81095780003828ab8007b6a50018289c0007b695801828ca8007b6c4001828bb0007b6b4801826820017b8a107b89187b8c7b8b08956740145020b6029db79568f810958900038297607b6728018297587b673801829750648c7b6730018267400195770188780182694801c89808d48709889901826a5001c8a909d8a90a826b5801c8ba0a82cb48037b6b5801956bf82895bc00077bc8d0007bc7c8007bc9d8007bcae000956720149568c0305020b80228b79568f81095890003829738956800017b87188297307b87208297287b8740956700143308405020ba02d1b4956bf81082b2200395b80003828c18828a10828708d42a09d4c708d49808988820d4c909979920d4980851080628a319826838019788207b6a4801988a20492b00038268580195b900027b98e800826830017b98f0009568e0137b9af8007b6750017b6258017b6c30015020bc029bb5956c000182c95082c75882ca30d47a0a140b00000000010000001407e0ffffff00000000d8790782c848948794a7520706282f197b6b3001330bff8267380198772082682801978820d48707d2b7088397209569f8104929e0024929d8027b98c8029568c0134929d0027b6a58015020be0227b5956a000182a95082a7309577c0d8790782a848948782a858948752070628cf18826740018478ff8397409569f8104929c0024929b8027b98a8029568a0134929b0025020c002dfb495670001827b58827a48827950140800000000010000001407a0ffffff00000000d8790794a794b7520706287918826720017b6840018478ff8397609569f8104929a002492998027b98880295688013492990025020c20285b4956a000182a95082a740957780d8790782a848948782a8589487520706282d187c6718018e7883978000956af810492a8002492a78027ba8680295686013492a70025020c4023db43308a000826750015020c602f5b683783309a00033070a07282ffb9567ff07957701043308405020c802d7b2956bff0795bbf90082b2200395b80003828c18828a10828708d42a09d4c708d49808988820d4c909979920d4980851080628a517492bf802492bf002492be8027b6a5001140a00000000a079c3089568ff079588e1037bba00037b6758017b6248017b6c40015020ca02a5b3956c000182c85882c74882ca40d47a0a5022cc024a435207062851178387049569ff079599f9004929e0024929d8024929c802209568ff079588c1034929d0027b6a48017b6b40015020ce0257b35022d002a942520706281317838724956aff0795aaf900492ac002492ab802492aa8020b9568ff079588a103492ab0025020d20221b35022d402f64252070628dd168397443a08700002956aff0795aaf900492a90027ba8a00214080000000000726f747ba898029568ff0795888103492a88023300880328d9b29567201e3308405020d60295b19569f818018292400595980005828c38828b30828728d42b0ad4c708d4a808988820d4ca0a97aa20d4a808510806286616492918054929100549290805140a00000000a079c3089568001e7b9a20057b6758017b6b50017b6240017b6c48015020d8026ab25022da02d8415207062826165022dc02d246492900054929f8044929e804209568e01d4929f0047b6a48017b6b40015020de0235b25022e002874152070628f1155022e2029146492ae004492ad804492ac8040d9568c01d492ad0045020e40208b25022e602dd4152070628c4158397443a08000002956af818492ab0047ba8c00414080000007265746f767ba8b8049568a01d492aa8043300880328c8b11407ffffffff000000007b6788009568f828492840074928380749283007492828070395672012956820305020e8028cb233023304330c330b9567f810957900018298407b68b0008298387b68a8008298307b68a0008297287b679800140700000000010000007b6740011407e0ffffff000000007b6790000182679800d872078269a000d39408d89409da87098267a800d87c03826ab000d3ab08d8ab0ada830ad3c707d48707da790a9569ff079599f900520a0628f60e9517e08477e07b67580164717b6bf8007b9bc0077b6cf0007b9cb8077b6400017b94b0079567c0109568a0107b6208017b92a8075020ea029837956af81082a77b67480195ab00ff82b7f8007b67300182b7f0007b67280182b7e8007b67500182b7d80082b8e00082b9c80082bad000826b58017bb7107bb8187bb97bba0864b8956780105020ec0279b19569ff079599f900959a000782a888007b68580182a790007b67380182a798007b67200182a8a0007b6818018264500198493d826a280197ac03d49c0398aa3d826c300197c903d4a90298c93d826a480197aa03d4a9099744037b6448018e3a884b000185bc01db3a0c8e9b8e2adb9b0ad49209db9a0c7b6c30018349805020ee0289447b672801826750018a790382675801826838015020f00270447b675001826848018d89800082672001826818015020f2027c4482685001d487078269480188988000826a2801da8a0782685801da98078477ff8268300194879569ff079599f900492980074929780749297007956860107b97680733075020f40286af9567ff079577f900492760074927580749275007647933072095684010492948075020f6025faf9517e08477e07b6748016471390894000256183f133308403d089400023302f802285c435022f80259433307a00002837783993308403300fa020a063302fc022821425022fc021e427b682001826948017b98187b6728017b97107b6b18017b9b087b6c10017b9c956720103308405020fe02b0ad9568ff079588f900958c000782c7407b67380182ca387b6a300182c9307b69500182cb287b6b58017bc7207bca187bc910956700107bcb083300000333027c04283f419567ff079577e107826848015020020387af956a000182a93082a73882a850d4870782a858d49808d47808988820d49707977720d48707510706283212956aff0795aaf90082a700077b67c00095a900068297f8007b67c8008297e8008298f0007b68b8008477ff492ae006492ad806492ad0069568ff079588c1077b97c80082675801502004031dae956a000182a73082a838d478088267900082a958d8790782a95094977ba848948752070628be11826788008269c000d279098268c8008488ff826ab80084aaff82675801837720956bff0795bbf900492bc00695bc00067bcaa8007bc8b0009568ff079588a1077bc9b80050200603acad8267100195770188780182691801c89808d48709889901826a2801c8a909d8a90a826b2001c8ba0a956bff0795bbf90095bc00067bc9787bc8707bc7689567ff07957781079568ff07958861077bca8000502008038e27956900018297409577c050220a03a43d520706280711956cff0795ccf90082c2a00695c9000682989800829a9000829b8800826758018377407b9b487b9a507b98589568ff07958841077bc2600650200c0301ad8268100195870250220e03a53e7bc9507bc7487bca587bc8609567ff07957721079568403050201003c8ad956900018297409577a050221203253d5207062888109569ff079599f900959a000682a7407b67b80082a72882a8387b68c00082a8307b68c8008478ff8267580183776049292006492918067ba8089568ff0795880107492910065020140375ac9569000182974095778050221603c43c5207062827108268c8008488ff82675801837780009569ff079599f900492900064929f8057b98e8059568ff079588e1064929f005502018032aac95690001829740957760ff50221a03783c52070628db0f8267c0008478ff826758018377a0009569ff079599f9004929e0054929d8057b98c8059568ff079588c1064929d00550201c03deab95690001829740957740ff50221e032c3c520706288f0f8268b8008487ff008e78826758018377c0009569ff079599f9004929c0054929b8057b98a8059568ff079588a1064929b005502020038fab8268100195870350222203333d7bca787bc9707bc7687bc880009567ff0795778106956860305020240355ac95690001829740957720ff50222603b13b52070628140f9569ff079599f900829788058478ff826758018377e00049298005492978057b9868059568ff0795886106492970055020280317ab8267f800956aff0795aaf90095ac00057bc7208267f0007bc718826700017bc710826708017bc7088267e0007bc7408267d8007bc7388267d0007bc7309567ff07957741069568ff07958821069569ff0795990106826be8007bcb2850202a03f937956bff0795bbf90095bc000582c86082c95882ca5082c748d4a808d4970ad48a0a98aa20d49808978820d4a808510806284a0e8268580195b900047b98e800826850017b98f000826830017b98f8009568ff079588e105826a38017bba000550202c0350aa8267f8009568ff079588f900958900047b97a0008267f0007b979800826700017b979000826708017b9788008267e0007b97c0008267d8007b97b8008267d0007b97b000648b9567ff079577c1059568ff079588a1059569ff0795998105826ae8007bbaa80450202e0328378262080195220188270182640001c87404d442078877018268f000c88707d88708826bf800c88b0b647c2869f89567a01c3308405020300370a89569f818018292c00395980003828cb800828bb0008287a800d42b0ad4c708d4a808988820d4ca0a97aa20d4a8085208410d492998034929900349298803140a00000000a079c3089568801c7b9aa0037b6758017b6b50017b6240017b6c48015020320344a950223403b2385107030d50223603ae3d492980034929780349296803209568601c492970037b6a48017b6b40015020380311a950223a0363385107d00c50223c036f3d492a6003492a5803492a48030d9568401c492a500350203e03e6a850224003bb385107a50c8397443a08400002956af818492a30037ba8400314080000006465746f767ba838039568201c492a28033300880328a8a89567201b3308405020420364a79569f818018292400295980002828c38828b30828728d42b0ad4c708d4a808988820d4ca0a97aa20d4a8085208380c492918024929100249290802140a00000000a079c3089568001b7b9a20027b6758017b6b50017b6240017b6c4801502044033ba850224603a9375107fa0b50224803a53c492900024929f8014929e801209568e01a4929f0017b6a48017b6b400150204a0308a850224c035a375107c70b50224e03663c492ae001492ad801492ac8010c9568c01a492ad00150205003dda750225203b23751079c0b8397443a08480002956af818492ab0017ba8c0011408000000006465646e7ba8b8019568a01a492aa80133008803289fa7d4a7079877206483d4a808978820d487075207560b9597207b673801d89702c82b077b674001d8b708da2208c838087b682801d83807c847077b6730014926b8054926b0054926a8059568a0054926a0052064975020540348a7956780058268605020560301a6956c000182c73882ca28d4a70982c84082cb30d4b808d48909989920d4a808978820d498085208db0a956c000582cb980082c8900082c9880082ca80007b6aa0007bca607b69a8007bc9687b68b8007bc870956860057b6bc0007bcb7850205803d8a63302330b33003304956a000182a8589587407ba740d8870782a950c879087ba838d89808da770882a748c878087ba818d8780782a810c887077ba720140700000000010000007b67f8001407e0ffffff000000007b67f000826870826368018267a000d872078269a800d39b0a7b6be800d89b09daa709826cb800d8c007826ac000d3a40bd8a40adab70ad3c007d4b707da790a510aa509d43807826978826a8000d4a909d49707987720d43909979920d497075207e9097b60c8007b64d0007b62d8007b6368956740057b687050205a03caa495690005829a58829b508297488298407b673001d4a707d4b809d47909989920d4b707977720d497075207a0097b6b00017b6a0801956720057b68280150205c0387a4956c000182c74082cb18d4b70982c82082ca38d4a808d48909989920d4b808978820d4980852086109956c000582cb3082c82882c920826ab000d2ab0b8488ff8499ff492618057bc97bc808956800057bcb107b67400150205e0364a5956b000182b70882bad47a0a8267f00082b828d8780782b93094977bba0894a7510709098388209567e00450206003f9a3956b000182b72082b818d478098267f00082ba40d87a0782b83894877bb994975107d8088267e0048478ff83a7204926d8044926d0047b68c0049568c0044926c80450206203eba48267f800957ac05022640363375107a3088388409567a0047b6ae000502066038fa3502268031d38510788088267a0048478ff83974049269804492690047b688004956880044926880450206a039ba48267f800957aa050226c03133751075308838860956760047b6ae00050206e033fa350227003cd3751073808826760048478ff83976049265804492650047b6840049568400449264804502072034ba48267f800957a8050227403c3365107030883888000956720047b6a300150207603eea295690001829b40829730d87b07829c3894c7829894875107d707826738048268300482692004826a2804d49808d4a707d487078e7883b7800049261804492610047b68000495680004492608047b6c380150207803d1a3826840019587a0007b673001d8870982673801c89703d8730ada990a82671801c8a709d8790a82672001c8a7077b672001826770957a20d87a0b82678000c8b70cd87c07dabb07826868c88707d8870b826878c8b8087b68788262d800952201882b018264e800c8b404d4420b88bb018268c800c88b0bd88b088260d000c88000826830017b6840017b6338017b69180164a87b6c8000647364b7644b6404647028b7fc9567202933084050207a03e6a19569f828829240829c38829b30829728d42b0ad4c708d4a808988820d4ca0a97aa20d4a8085208c006491918491910491908140a00000000a079c308956800297b9a207b6758017b6b50017b6240017b6c480150207c03c7a250227e033532510786068387049569f82849094919f84919e8209568e0284919f07b6a48017b6b40015020800398a250228203ea3151075706838724956bf820492be007492bd807492bc8070f9568c028492bd007502084036ca2502286034e3551072b0683a7443a080000023a09080002956bf8207bb8c007492bb0077bb9b8079568a028492ba8075020880337a23308648267580150208a03f0a483783307013309640a07019567001233084050208c03d8a09569f8108292200195980001828c18828b10828708d42b0ad4c708d4a808988820d4ca0a97aa20d4a8085208ad059578207b685001d87803c83b087b685801d8b808da3308c8c8087b684001d8c808c828087b684801492900014929f8004929f0009568e0114929e800207b67c0007b62b0007b6ca8007b6bb80050208e0391a19567c0118268e8005020900349a0956c000182c75082ca40d4a70982c85882cb48d4b808d48909989920d4a808978820d4980852082305956cf81082cbe0007b6b980082c9d8007b69900082c8d0007b68a00082cac8007b6a88007bcaa8007bc8b0007bc9b8009568a0117bcbc000502092031ca13303330c4926200133008267c000957a40d87a048267b800c8470b8268880098823b8269a000979905d42902978905c82b08c8a9097b6a58017b695001d8a909c89802d3b208d8b20ada890a7b6b3801d87b08da4408826b900098b73b82699800979905d479048269a00098993b97bb05d4b9097b694801826b20018267a800c88709d879088267b000c8780882674801c897077b683001c884047b692801d89708c88409c87a0a7b6a4001d87a08c898087b68480164241407e0ffffff000000007b678000018262c000826ab800826788007b630801d873078269a000d39c087b6c0001d89c09da8709826c9000d8cb0364b7826b9800d3b0087b60f800d8b00bda830b7b672001d3c707d48707da790b82675001d82703d3a4087b681001d8a400826c40018268a800c98c09d88c087b681801826c48018268b000c98c087b64f000c9a404c9270c510bf0028262280182675801d42707826a3801826b3001d4ab0bd4b70a98aa20d42b0b97bb20d4ba0a520a6e0382671001da7300d8090a82671801c9780bc9ab0bc90909c93407889801c98b0295c8c0d8c80ac8a70c95ccffd37c0bd87c07daba079599ffc89707d89709c82909956af8107ba888007bac90007ba79800956880117ba9a0008267580150209403429f8269e000826ad800d49a07826ce80082688000d88c08826bd00094b894785108e90295c820d8c8077b68c800c87b0c7b6c1801d8bc0bda770bc8ab0b7b6b1001d8ab07c879097b69e0009567601150209603b49d956cf81082ca6882c77082c87882c98000826b48017bcb20826b40017bcb18826bf0007bcb10826b50017bcb087bc9407bc8387bc7309567401195682011956900117bca28502098035b1f9562f8108227607b67480182685801958720d88709826a3801c89a08d8a80ada990a8229587b69400182692801c89a0ad89a09826b3001c89b0b7b6b300182630801953301883901826c0001c89c0cd4c309889901822450822b487b6b5001826b2001c8b909d8b90b8260f800c8b000826bc8007b6be800826b18017b6bd000826b10017b6bd800956b00017bb7587bb8387bba28649b28b7fdd4c307987720d4c808978820d487075207bf01492918074929100749290807140700000000a079c308956800287b97200764a77b6af0007b62e8007b64e00050209a03c49d8268f000140a00000000010000001407fcffffff00000000d878078269e00094978269e8009497510762018387049569f820492900074929f8064929e806209568e0274929f0067b6a580150209c03739d826ae0008269e8008268f000826758019577dcd8780794a7949751071e01838724956bf820492be006492bd806492bc8060f9568c027492bd00650209e03339d826af0001407bcffffff000000005022a0039d305107e40083a7443a081000023a09180002956bf8207bb8c006492bb0067bb9b8069568a027492ba8065020a203f09c3308648267f00033008a0328a59f826a1001daa30064cad8090c826b1801c9b80bc9cb0b64a8c90909c9340ad4980cd4ba0ad4ac0c98cc20d4a909979920d4c90952097464277b6858013300da0328629f8267580182644001d87402826c500182683801d3c80ad8c809daa209826a4801826b1801c9ab00d8ab03826b1001826a2001c9ba0bc93b0bd8900ac9ab0ac9900bc9c809c92909c97408d4a90901d4b80ad49a0ad4b90998aa20979920d4a90951093b0800826738857701826850826918db89078268208269d000db980751074c028267588477e07b67d0009567f82082681001957a00037ba8c800826800017ba8d0008268f8007ba8d8009568c024826908017ba9e00033075020a403df9b9517e08477e07b673001647133082033075020a6038e9e9518e08488e07b6828016481837783893308200a064926580120330c49265001492648014926380149264001826a280182a71882a81082a90882aa6f736f846f903309826b38016fa7330a6472826830017b87187b6010017b80107b84087b83017b6228018267d0007b6b3801d87b07857b017b6a180194ab017b69200182674001d49707947b018268f00082675801c87808826ae800c8ca0a8269d80082675001c879098267e00064c0826c4801c8c707520bbe01826b5801d8b80bc8ba0ad30a027b60f800d80a0cda2b0cc89c0cd89c02826b5001d8b909c89707c82707d4c809d4a707d47909989920d4c707977720d497077b6308017b640001520790fe956780215020a8038399956af82082a7a00082a8980082a9900082aa8800956bf83095bc00037bc7407bc8387bc9307bca2895682034826730015020aa03f19b8263080195330188370182640001c87404d4430788770182681001c87800d8800882672801c88707826858019589207b692801d8890a8268f800c8a8097b690801d8890bdaaa0b82685001c8b80ad88a0b82684801c8b8087b68480182683801958b20d88b0c82691801c8c908d89809dacc09826c2001c8c909d8c90c82624001c8c2027b624001826c30017bc4087bc37bc01064727bc7187b601001826728017b675801826c08017b6a5001648a2871fe826758826840d48707826850826930d49808d487075107f6068267e0008268d800d487071408e0ffffff000000008269f000d889088269e8009498947851085dfd8267f0008378209567e0245020ac0349989567f82082780004956900017b9858957a000382a8f8007b985082a8f0007b984082a7e8007b974828a2068264500182635801826b58826cd000d3cb0b826c40d4cb02826c50826b30d4bc0cd4c20b510b3101d8380bc8ba0ad30a02d80a0cda2b0cc89c0cd89c0bd84909c89707c8b707d4c809d4a707d47909989920d4c707977720d497075207c2fc9567a0245020ae03b5979567f820957900038298c0007b6850018298b8007b6848018298b0007b6840018297a8007b67380182675897773b9878387b6858019a8980003307ff3308ff5020b003562d7b6728017b6810013307ff3308ff826958015020b203182d7b6718017b68200182671001d487077b671001826758019579803307ff3308ff5020b403f22c826b580188b98000826a1001db9a08826c1801826a2801d4ca0ada970a93b8ff93baff826b2001939b939c82673801e0a70782694001e0890882694801e0c909826a5001e0ba0a956bf83095bc00037bca607bc9587bc8507bc74895684034826730015020b6036d9982694098973f826830978801d48707826a5098a83f979901d49808826b5898b93f97aa01d4a90997ba0195aa01956bf83095bc00037bca687bc9707bc8787bc78000330760342815063308a0000283883307012812838833070133090a073308a0000228f233090a073308a0000228e73308a0000228e03308a0000228d93308a0000228d23308a0000228cb3308a0000228c43308a0000228bd3308a0000228b63308a0000228af3308a0000228a83308a0000228a13308a00002289a3308a0000228933308a00002288c3308a0000228853308a00002287eff9567f8204917384917304917285022b803d42983882001c868087b974033075020ba0304979568f820491820491818491808416489330704956800214919105020bc03e496390894000256183f0b200394000240013308a0000283883307013309240a073308a000022812ff3308a00002280aff3308a000022802ff3308a0000283883307010a073308a0000228eefe3308a0000228e6fe3308a0000228defe3308a0000228d6fe3308a0000228cefe3308a0000228c6fe3308a0000228befe3308a0000228b6fe3308a0000228aefe3308a0000228a6fe3308a00002289efe3308a000022896fe33070182681001289cfe3308a000022884fe9569ff079599f9004929800149297801492970019568ff0795886102826758017b97680133075020be0303969567ff079577f90049276001492758014927500164793307209568ff0795884102492948015020c003d8959517e08477e07b674001647182674801817756173f0c82684801480840019517e08477e07b6738015022c203e8263300c4030a0601826a380182a782a80882a91082aa186f776f886f996faa95ab025022c6036629826840017b8b7b8c087b89107b87189567ff07957721025020c8035896956aff0795aaf90095ab000182b74082b82882b93882ba30847700ff867701956bf82895bc00067bc9b8007bcab0007bc8a8007bc7c0009568a02f826740015020ca038b969569ff079599f9004929200149291801492910019568ff0795880102826758017b97080133075020cc03f5949567ff079577f900492700014927f8004927f00064793307209568ff079588e1014929e8005020ce03ca949517e08477e07b675801647182674801817756173f0c82674801480740019517e08477e07b6748015022d003da253300d2030a0601826a480182a782a80882a91082aa186f776f886f996faa95ab035022d4035828826a58017bab7bac087ba9107ba718826820018487ff7b6748019567ff079577c10164a85020d6033d959569ff079599f9008297e0008298d8008299d000956af828826b480195ac00067bcbc8007bc7e0007bc8d8007bc9d0009568c02f826758015020d80377953307826850012869fc7b6858015020da03c09683788169580133070a0728fada3308a00002283afc3308a000022832fc3308a00002282afc3308a000022822fc9567f8204917784917704917685022dc03782683886001c868087b97800033075020de03a7939568f82049186049185849184841648933070495684021491950330030042883939567f8104927980449279004492788046479140700000000717b484e956880157b97a00433075020e0035a939568f81049288004492878044928680441648933070495686015492970043300e6032832939567f8104927d8074927d0074927c8075022e203dd258388c0f8c868087b97e00733075020e4030c939567f8104927c0074927b8074927b00764793307049568a0184929a8075020e603e99282673001817756173f0c8268300148084001330701330924826838010a0701492648014926400149265001492658010182695098973f826a4097a801d487077b67300198a73f826830978801d487077b672801826a5898a73f979801d487077b67200197a7017b67180197a8037b6838018d8980003307ff3308ff5020e80314277b67f8007b6810018267588a79033307ff3308ff5020ea03d4267b6708017b6800018268f800d487077b67f800826738018379803307ff3308ff5020ec03ae26826b380188b98000826af800db9a07826c0001826a1001d4ca0ada980a93b7ff93baff939c826b0801939b82684001e0a80882694801e0790782695001e0b909826a5801e0ca0a956c000182cb18d4b70782cb20d4b80882cb28d4ba0a82cb30d4b909956bf83095bc00037bc998007bcaa0007bc890007bc788003307803401c876088267485020ee0306939517e08479e06491826760957802d87807648a7b685001826868c8780b7b6b4801d88b08da7708826778c8870c7b6c4001d87c07826870c887077b6738017b6958017b9c107b9b087b9a7b971895678024826898005020f00307909567f820827788038477ff7b67300195676024826858015020f20316929569f820959a000382a77082a87882a980008477ff8488ff8499ff956af830826b300195ac00037bcba8007bc9c0007bc8b8007bc7b0009568a034826758015020f403499295674024826890005020f603978f9568f820958a000382a7488477ff4928200349281803492810037ba708826738017ba740826740017ba738826748017ba730648a9567202495680024826950017ba928035020f803611f9567e023826888005020fa033f8f9567f8208277e8027b6750019567c023826858015020fc0351919569f820959a000282a7e00082a8d00082a9c800956af830826b500195ac00037bcbd8007bc7e0007bc8d0007bc9c8009568c034826758015020fe038b919567a0238268800050200004d98e956af82095ab000282b7c00082b8b00082b9b80082baa800d48707d4a909d497078e777b675001956780238268580150200204d090956af82095ab000282b7a00082b8880082b9980082ba9000847700ff826b5001d4b707956bf83095bc00037bc9f8007bcaf0007bc8e8007bb700049568e0348267580150200404ff9095676023826828502006044e8e9567f820827768028477ff7b6758019517e0847ce064c1826860958703d88708826a6850220804d222826878c88a0ad88a08826b70c88b0b64c87b6c50017bcb187bca107bc9087bc79567402350200a0427909569f820959a000282a75082a85882a9608477ff8488ff8499ff956af830826b580195ac00047bcb087bc9207bc8187bc710956800358267500150200c045f903307f83050220e042e2364784928280403956720239568203550201004c88f9567f82095780002828c40828a388289308ec78ea8dbc70864abd4ca07649a8e99db78095109519567f8204927d8004927d0004927c8005022120457218388c001c868087b97e000330750201404868e9568f8204928c0004928b8004928a8004164893307049568a0214929b00033003004285e8e9567f820827728027b6758019577019569f83049294804038878017b6a5001c8a808959a00047ba768d487077ba8708877017b6b4801c8b7077ba778d8b7077b6c4001c8c7077ba78000492960044929580449295004956740359568603550201604678f9517e08477e07b67380164719569f82082674001959b00017bb7e000826748017bb7d800826750017bb7d0009567e0229568c022826a58017bbac800502018047b149568f820958900028297207b6758018297187b6750018297107b6748018297087b673001958b000182b7f800829c82b9e80082baf000826838017b87107b8c187b897b8a089567a02250201a045e8e9567f820957900018298b8007b6820018298c0007b6818018298a8007b6810018297b0007b670801826b300198b73d82694801979803d4870798983d826a500197a903d4980898a93d826a580197aa03d4a90997bc037b6c48018e7a88cb000185bb01db7a0b8e978e8adb970ad49808db8a0b7b6b280183c9807b69f8008267b000330850201c048e217b6758017b685001826848018d8980007b69f0008267b000330850201e04482182694801889a80007b6a4001826b5801daab0793977b67580182675001daa70893987b685001826730018a79037b69e8008267b000330850202004312182694001939793988269280194987b68300194977b6700018268500194987b6850018268580194987b6858013307ff33088269f80050202204f6207b67f8007b68e0003307ff33088269f00050202404b920826a40018269f800daa9078269480193977b67f8008267e000daa70893987b6848013307ff33088269e80050202604ae2082694001939793988588ff8577ff826948018599ff826af80085aaff826b280194baff94b9ff94b7ff94b8ff956c000182cb08d2b80882cb10d2b70782cb18d2b90982cb20d2ba0a82cb58d4ba0a82cb50d4b90982cbd4b70782cb30d4b808956bf8307bb8900495b800047b8788007b89a0007b8a98009568803582c73850202804e88c9567f8304927c0044927b8044927b00464784928a80404956780229568a03550202a044b8c9567f820827788018478ff5218ff709567f82049271801492710014927080150222c04f21d83880002c868087b972001330750202e04218b9568f820492800014928f8004928e8001164893307049568e0214929f00050203004fd8a8267a800817756173f0c8268a800480840013307013309248268a0000a0701956af82095ab000182b8a00082b9980082ba90009577018477ff8488ff8499ff84aaff956bf830492be004492bd804492bd004492bc8040495bc00047bcaf0007bc7e8007bc9f8007bb800059567c0359568e03550203204ee8b956bf820492b40018267b80095bc00017bc7388267c0007bc7308267c8007bc728492b6001492b5801492b50013a072000023a082800023a09300002826ab0007bca487bc780007bc8787bc97064b83a0738000295696022956a4022956b20227b8768013307330850203404e98b33078268a0002872f2330804330038040a0133023a04286c1c50223a04691c510b0b50223c04561b32003308a000028388330701330933003e040a073302400428a01c502240049d1c330844330042040a0133024404282c1c50224404291c510b0b50224604161b32003308a0000283883307013309330048040a0733024a0428581d50224a04551d33004c040a0133024e0428ef1b50224e04ec1b510b0b50225004d91a32003308a0000283883307013309330052040a073302540428231c50225404201c330864330056040a013302580428af1b50225804ac1b510b0b50225a04991a32003308a000028388330701330933005c040a0733025e0428db1c50225e04d81c0a010182171082181814090000000001000000d37909d48909987a2088aa01948a939a510a248219821a087b697b6a087b67107b68189551c082103882153082162895114032003308a0000283883307013309330060040a07019511a07b10587b15507b16489515608411f0828910828c08828b82881897923f98ca01d42a02978a3f989901d49a0a97cc3f98b901d49c0c98830184bb019ab888b60184c97fd2a804d2280adbbc09d2380b88982094a8d4b40c94c8ab86167b797b7a087b74107b7b1850226204781c32005022640489195020660438884911184911104901223307046418491108502068042188390894000256183f0b200394000240013308a00002838833070133092433006a040a0733026c04288f1a50226c048c1a8e72883b60ff85bb01db720bd4a908db8c0b520b219538a00050226e041b1a50207004cc87955190821068821560951170320050227204031950207404b287502276044a1b50207804a687390894000256183f0b200394000240013308a00002838833070133092433007a040a0733027c0428141a50227c04111a8e72883b00ff85bb01db720bd4a908db8c0b520b219538000150227e04a019502080045187955190821068821560951170320050228204881850208404378750228604cf1a502088042b87390894000256183f0b200394000240013308a00002838833070133092433008a040a0701951170ff7b1088007b1580007b1678951590008411f064728289827408828c088273959a1fd89a00c80c0984aae07b1308c8a303d8a30bc8490ac8ba0ad39a06d89a07da6b07822b18d8c90c828610822210828818da000cc86c0cd86c06c82c09c89707d8c90cd89709c8b808c86808c8c808c8980c8ec88e79dbc809d4c7088ea6db8906520657821808d88308d34a09d84a06da9806d82708d3bc09d8bc0bda980bd32708d49808da860b520b307b13507b1a587b17603307409518507b1c6850208c044086955170ff8210880082158000821678951190003200491140491138491130140700000000717b484e9518307b1748330750208e040a864911284911204911104133070495181049111850209004f185390894000256183f0b200394000240013308a000028388330701330924330092040a07019511a0fd951900027b90587b95507b9648951560028411e064167b6710828718828910828a0882887b67b0007b6738027b69a8007b6930027b6aa0007b6a28027b6898007b68200295670002330840502094043e84956800028287187b67188287107b67208287087b672882877b67309567e00195682002502096044186956b000182b7f80082b8f00082b9e80082bae0007b6790007bb7b8007b6888007bb8b0007b6980007bb9a8009567c0019568a0017b6ab8007bbaa000502098045dfc826730826818826928d48909826a20d4a708d49808988820d4a909979920d4980852086503956c000182c9d80082cad00082c8c80082cbc0007b6b607bcb80007b68707bc888007b6a687bca9000956880017b69787bc9980050209a04ae84826ab80084a70152070001826720826818d487071408e0ffffff00000000826b30d88b08826928949894785108fc0284a800ff83b720826a8000956900017b9a087b98826888007b981095680001826a90007b9a1850209c045384330433033302826768826860d48707826878826970d49808d487078e779777057b67b800018268b800958720d88708c88409d8490ada880ac83a0ad83a08c8820b8268307b68e0007b67c0008267287b67e8008267207b67f0007b69c8008267187b67f8007b6ad0009567e0009568c0007b6bd80050209e04d7fc8267108268187b78188268207b78108268287b78088268307b789551a0fd9517000282705882755082764895116002320082679800956900017b97608267a0007b97688267a8007b9770956860018267b0007b977833075020a0047b839517e08477e07b67586471390894000256181f0b200394000220019517e08479e07b69b00064913307a00002837783993308200a064926b800330433033302826cb00082c7188268309589207b6950d88908826928c8890a7b6a48d89a0bda880b82c81082c90882ca6f776f886f906fa9826c58649a7bc91864097b6980007bc9107b6890007bc80864797bc7826720c87b0b7b6b40d87b07826818c887077b6738017b6a88007b6998008267608268b800d87807826970d39408d89409da8709826b68d8b307826a78d3a208d8a20ada870ad3b307d48707da790a510a71fe9567400164c87b62b0007b63a8007b64a0005020a20475838268508267b800c88707d88708826b488269a000c8b909c88909d3b90ad8b90bdaa80b826a408268a800c8a808d8a802826c38826ab000c8ac0cc82c0ac88b0bd88b08c8a808d49808d4b709d48909d4b808989920978820d498085208a100956c000182c95882c85082ca4882cb407bcb207bca287bc830956820017bc9385020a404fe81826a980095aa0188a70182649000c87404d44a0788770182688000c87803d8830882678800c887078268b800958020d88009826ba000c89b08d8b80bda990b8269a800c89b0bd89b098262b000c8920264497b699000826c587bc90864a97bca7bc310647a7bc7187b6380007b60b800648464b328b2fe00951110ff7b10e8007b15e0007b16d8009515f0008411f0828c10828b18828a0882887b1a287b1b18d4ab0bd4c80ad4ba0a98aa207b1c20d4cb0b97bb20d4ba0a520af7017b17088297187b17688296108297087b176082977b17589517b0007b18105020a604e47fff821758d46709821868821a60d4a808d489099899207b1650d46808978820d498085208ad018219c800821ac000821bb8008218b0007b18307b1890007b1b387b1b98007b1a407b1aa000951890007b19487b19a80064765020a804c080821768821850d478081407e0ffffff00000000d87609821a6094a9948951095401821820821918d49808821910d87907821a2894a7948751073a01646c821630821a40d4a607821848821b38d4b808d48707987720d4a808978820d487075207130183c7208398207b182864685020aa0413837b172082172864685020ac040583647882172064695020ae04737eff821758c86707d86708821960821b38c8b909c88909d3b90ad8b90bdaa80b821850821a40c8a808d8a80a821c68821648c86c0cc8ca0ac88b0bd88b08c8a808d4b808140ae0ffffff00000000d8a70a949a948a510a8f0083772049218800492180004911789518704911705020b004c07fff82163095661f1407e0ffffff01000000d26707821858c88707d88708821a605022b2040d13821850c88a0ad88a08821b68c8b808957b20d87b07c8790cd89c09da7709c8a909d8a907c887078218087b8b7b8c087b89107b8718955110ff8210e8008215e0008216d8009511f000320000951110fd951a00027ba0e8007ba5e0007ba6d8009515f0028411f0828c10828b18828a0882887b1a587b1b40d4ab0bd4c80ad4ba0a98aa207b1c48d4cb0b97bb20d4ba0a7b1708520ac3038297187b17388296108297087b176082977b17689517b0027b18505020b404a87dff821768d46707821838821960d49808d487079877207b1630d46808978820d4870752077c03951900028297b0004929a8004929a00049299800951890027b9790008217685020b604977eff821748821a40d47a0a1406e0ffffff00000000821850d8680782195894977b1a4894a751072f03838820951770025020b804287dff821738821930d47909821768d8670782186094877b1940949751070403951b000282b7800082b87882b970977720987a20821768837720491b687bb9507bb858951850027bba605020ba04147eff1406c0ffffff000000005022bc04860e5107bf02838840951730025020be04b87cff5022c0045c0e5107a702951900028297487b17108297407b17188297387b17208297307b17288216688367404919284919204919100001951810024919185020c204ad7dff95670001d86708821a605022c4040f11821830c88a0ad88a08821b38c88b0b7b19b8017b17b0018217107b17e8018217187b17e0018217207b17d8018217287b17d0017b1ac0019517f0019518d0019519b0017b1bc8015020c604cffb1406a0ffffff000000005022c804c20d5107fb01821708027b1720821700027b17288217f8017b17308217f0017b1738838860951790015020ca04d87bff5022cc047c0d5107c701821790018478ff82176883776049218801492180017b18700195187001492178015020ce04e07cff140680ffffff000000005022d004520d51078b0183888000951750015020d204837bff5022d404270d51077201821750018478ff8217688377800049214801492140017b18300195183001492138015020d6048a7cff140660ffffff000000005022d804fc0c510735018388a000951710015020da042d7bff5022dc04d10c51071c01821710018478ff8217688377a00049210801492100017b18f0009518f0004921f8005020de04347cff140640ffffff000000005022e004a60c5107df008388c0009517d0005020e204d77aff5022e4047b0c5107c6008217e8008218e0008219d000821ad800d49808d4a707d487078e788217688377c0004921c8004921c0007b18b0009518b0004921b8005020e604ca7bff140620ffffff000000005022e8043c0c5107758388e000951790005020ea046e7aff5022ec04120c51075d821790008478ff8217688377e00049218800492180007b18709518704911785020ee04797bff8217088218207b78188218287b78108218307b78088218387b78955110fd951700028270e8008275e0008276d8009511f0023200009511e0fe7b1018017b1510017b160801951520018411e064167b673882977b67588297087b67508297107b67488297187b6740828718828910828a0882887b67307b67f8007b69287b69f0007b6a207b6ae8007b68187b68e0009567c0009568e0005020f004cd7bff8267d8008262c0008269d000826ac800826840d3870bd87808826748d8970cdbb80c826850d38a03d8a80a826858d82808db3a08d39707d4b707db7c085108ed008267187b67608267207b67688267287b67709568608267307b677833075020f204767aff390894000256181f0b200394000220019517e08479e07b693064913307a00002837783993308200a06826a3082a782a80882a91882aa106f726f886f996faa826748987b3f826c4097cc01d4bc03826b5098bc3f977701d4c704826758987c3f97bb01d4cb0b977c01c8ab0bc89c0cd89c09c89b0bd3ab07d8ab0ada790ac88404c84a0ad84a07c83202d88408c82808c8870782683833094918384918304918284918207b8c7b8b087b8a107b87189551e0fe8210180182151001821608019511200132004926b0004926a8004926a000140700000000717b484e9568a0007b67b80033075020f4048a79ff4926980049269000492680003233070495688000492688005020f6046b79ff390894000256183f0b200394000240013308a0000283883307013309243300f8040a0701951100ff7b10f8007b15f0007b16e800951500018411e064167b671882877b67388287087b67208287107b67288287187b67304926d8004926d0004926c8004926c000039567a0009568c0005020fa04e679ff8267b8008262a0008269b000826aa800826830d3870bd87808826728d8970cdbb80c826820d38a03d8a80a826838d82808db3a08d39707d4b707db7c085108e8004916584916504916489568404916400333075020fc049a78ff390894000256181f0b200394000220019517e08479e07b691064913307a00002837783993308200a068264108247188248106f796f8a826338983702826b2097b83ed4870798b802826c2897cb3ed4b808c8a808c87902d89209c89808d3a80bd8a80adab90a824998cb02826730977c3ed4cb0b824c086f99987702c897076fc9c89b0bd89b09c89707c8ba0ad8ba09c89707973903849918826b187bb9207bb27bb8087bba107bb7183307491b38491b30491b28955100ff8210f8008215f0008216e800951100013200492690004926880049268000140700000000717b484e956880007b67980033075020fe04a877ff49167849167049166032330704956860491668502000058e77ff390894000256183f0b200394000240013308a000028388330701330924330002050a0701828b18828a108283088eb28eacdbb20cd4ba028e39db2c09520948828898a93b97bb05d49b02983b3b97aa05d4ba0a988b3b973305d4b30b978805958c20d88c08c88b09d8b90bda880bc8ab0bd8ab08c828087b7c7b79087b7b107b781832009511b07b10487b15409515508411f0502204053f0850200605ee76ff50220805850a50200a05e176ff390894000256183f0b200394000240013308a00002838833070133092433000c050a0701951120ff7b10d8007b15d0007b16c8009515e0008411f0827810827918827a088277d4a909d48707d49707510719955120ff8210d8008215d0008216c8009511e00032009517a00033084050200e053175ff8219b8008216b0008217a8008218a0007b17107b1908d497077b1818d46808d47808988820d46707977720d487075207c300492190004921880049218000140700000000a079c308951880007b179800821718502010051176ff821908d46909140600000000010000001407fcffffff00000000821818d8780782181094877b1908949751076d8217188377044911784911704911602095186049116850201205c775ff9567dc821818d878078218109487821808948751073a82161883672449115849115049114012951840491148502014059475ff1407bcffffff00000000d8760782181094878218089487520704008216188367443a088000023a098800027b18387b19301408000000000000646e7b1828951820491120502016054975ff3308646467502018050378ff837833070133096433001a050a0701951160fe7b1098017b1590017b1688019515a0018411f07b17089517600133084050201c05cc73ff821778017b172082167001821968017b1938821860017b18307b1758017b1650017b194801951740017b18400133001e0533027c04286507821720821838d48707821830d46808d478089888207b1618d46707977720d487075207e90149213801492130014921280195182001492120018216306467502020058974ff821720821918d47909140700000000010000007b17101407e0ffffff00000000d8760782183894877b19289497510798018216308367204921180149211001492108019518000149210001502022053774ff8217109577c0502224050606510767018216308367404921f8004921f0004921e000609518e0004921e800502026050574ff140700000000010000007b17101407a0ffffff0000000050222805c305510724018216308367604921d8004921d0004921c8009518c0004921c00050202a05c373ff82171095778050222c0592055107f300821630836780004921b8004921b0004921a8009518a0004921a00050202e059173ff140700000000010000007b1710140760ffffff00000000502230054f055107b0008216308367a0004921980049219000492188009518800049218000502032054e73ff821710957740ff502234051c0551077d8216308367c000491178491170491168951860491160502036052173ff140720ffffff0000000050223805ec0451074d8216308367e00049115849115049114895184049114050203a05f172ff8217088218207b78188218187b78108218387b78087b76955160fe8210980182159001821688019511a001320000951140ff7b10b8007b15b0007b16a8009515c0008411f0828b10828a18828c0882887b1a287b1c20d4ac0cd4b80ad4ca0a98aa207b1b30d4cb0b97bb20d4ba0a7b1738520af2008297187b17108296108297087b170882977b17951780007b181850203c052171ff821210821c088213821788008218980082198000821a9000d3c70bd87c07d89309dbb709d8a607d3280bd88208dab708d36a0ad4ba0adaa9085108950098673b972805d4780298c83b976605d4680898393b97ca05d4a909973a05821718c87a0ad87a0b821c20c8c909c8b909d3c907d8c906da7b06821c30c8c808c88606d8860bd8c808821c28c82c07c88707c8b70795a820d8a80ac8a90bd89b09daaa09c86909d8690ac8a707821a387ba87bab087ba9107ba718955140ff8210b8008215b0008216a8009511c000320000491170491168491160140700000000717b484e9518607b1778330750203e056b71ff49115849115049114032330704951840491148502040055171ff390894000256183f0b200394000240013308a000028388330701330924330042050a07019511807b10787b15707b1668951580008411e08286827818827910827a0882777b18387b19307b1a287b1720641795182050204405e771ff82171882181082197b16487b17587b18507b1940951720951840502046053e72ff955180821078821570821668951180003200330750204805b473ff33070150204a05aa73ff956b000182ba4882b95082b85882b7409577dcd87807949794a73202956c000182c85882c74882ca40d47a0a140b00000000010000001407fcffffff00000000d8780782c950949794a732029517e08477e07b67280164718379330840826738013202140b00000000010000001407fcffffff00000000d8780782c950949794a73202956a000182a9581407bcffffff00000000d8790782a850948782a84894873202826a400182a71882a81082a90882aa6f777b6738016f877b6730016f977b6728016fa77b6720019517e08477e07b6740016471826748013308ffd28707320282970882988199106f77987a206f88978b20d4ba0a9777206f99989920d497079888203202829858d87807829850948782984894873202821768d86707821860948782184094873202821850d868078219589497821948949732029517e08477e07b6740016471837933084082675001320282a71882a81082a90882aa6f776f886f996faa956bf830320282a71882a81082a90882aa6f776f8b6f996faa320282a782a80882a91082aa186f776f886f996faa95ab02d8ab0ac8a90cd89c09daaa09c88909d88908c88707330800303202826a280182a71882a81082a90882aa6f777b6728016f877b6720016f977b6718016fa77b67100182673001977720987720320264718379330840826750013202491130491128491120140700000000717b484e9518207b173833073202821a7b6a7b69087b68107b67189551c08210388215308216289511403202d88708826a2001c88a09d8a90ada880a82683001c88a0ad88a08826b2801c8b808956bf83095bc00053202d88708826a1801c88a09d8a90ada880a82682801c88a0ad88a08826b2001c8b808956bf82895bc00073202d87607821838948782182894873202826a580182a71882a81082a90882aa6f776f8b6f996faa826840017b8a187b89107b8b087b873202826a400182a71882a81082a90882aa6f776f886f996faa956bf82895bc000632028268f000d878078268e00094878268e80094873202d8380bc8b70cd87c07dabb07c89707d89709c8a9097b18407b1c487b1750330740c871087b19583202821718821810821908d4780a889b0194ab3202956b000182b828d8a80782b930949782b908949732029511907b10687b15609515708411f0827a1882791082738277088eab8e9cdbab0c32026479140700000000717b484e3308002032029511c07b10387b15307b16289515408411e064768317320295690001829a581407bcffffff00000000d87a07829850948782984894873202826a580182a71882a81082a90882aa6f7c6f8b6f976fa83202829858d878078298489487829894873202956b00017bb7187bb810d487077bb9088898027bba94a8947832023307f830c8760a95ab00023202956a000182a9408267e000d8790782a838948782a894873202c88a09d8a90ada880a3202d87a078268e00094878268e80094873202d8790782a850948782a8409487320249111849111049014133070464184911083202d49b0bd48709d4b909989920d4b808978820d4980832029511c07b10387b15307b16289515408411e0647683173308243202d8ab0ac8a90cd89c09daaa09c88909d88908c887073202956a000182a858d8780782a848948782a894873202c88a09d8a90ada880a82684001c88a0ad88a0832029517e08479e07b695801649132029551a08210588215508216489511603202c8670749274004492738044927300432028377f8f8c8760a95ab000532023307f830c8760a95ab000132028387243308f818c8860a32028387043308f818c886093202849a40520a195109148d9a40cfa80ad09808d09707d4a707320032009597c0d0780733083200849a40520a195109148d9a40d0a70acf9707cf9808d4a808320032009598c0cf87083307320049922425494b2a252da9944c4949214225a952484992244992244992244992244992244992244992244992244992244992244992542529a524292949a84a494a922449922449922449922449922449922449922449929224294955494a9228492549559282922425294955559292a42495244544444a92242949929492244942a9a4a4a4489122458a14295294a488882849128490309426a52111922449a48424499324494229152230444d14aa3422222245449088102244224a2302098840020908242020904002898888342222224912452222424488888822228288442291888488888888888888888888282242444492244922222222444444440411a94a4a244924914492249124922492441a892491489224898888082222924892441291244992244944449224111122491224499588888848892049922451242245442412898808112122229244922491244992282222224444444444444444444444528a101189484422120911444424499224124924924492a8144912890822121144444450242212898a88888808894844444423922449124522224244888848888824411211111191888888148908124992244a12898888444444444422222222220a1121112184082651a848a444101111118588442289284491449012414444142222221211218a4c22488920424424444444922449a2888888484444448a440411114992284924222222a210111211922884084612854aa44844109148248a2022222222222222888888888804914824924824124912912091244992241145221109922412492489888888888882248a2223920022894a541549aa8a489422450124804822493222914822914822494482888848222222898888888888882022892449444444449288888820924492521289248988882092481249242222222288248124924824118908224990441211114124099288222222824892244992444444444411114124128924924844124922894412492289444a249224222a111111512488884892449144442222221291482422d28888a424a224912412492a894444239254221225898804111111111149244992444444444404912449922489888888880822229288244924492449924449522a4952922489244902885412894450c41191449224228948922452492292481011894444449120495212111151244892944444441409224990444414092222298988244214452482482491249188888828888828114108491091084225a288441011111141442212442489249144444444444444242289244944444444104000112489884824225104111149258988442211898208200208924822222222880449444444444441001140904422222222228808924892922222222222082048221111111109222222a22022a244044914456412952892544a2991a4882022111144248988888888202288888888882022118988888888089292244992249248498a04111111118924912489082222a2929224912422912022492489481091249522894424499288444a249282282293a84449922489249124a9145592449244124922499224529248224992444955922449249224892449922469249244224992882291481211111141249124924889924434228a48924421116924012491549248444422222212111191888888682449904412218a4682244992246244444441c48850228210229844a1285124a9288a22624424129182884824522222882293a84491a4a2288a248a4444444441444444948808a248248822124124298288914444441444449488208a4482282211244944103152444404112322220a22224a44104522411491082249222288184944444441c488502282248a2291a048525544229128124424128944924844222291244912119148440a2222010490a8242289888888082292284a121111115110114000894a121111115104114914259124254544444414440451249594249124492411111111112451441111111189448a884810932449221289924492002222888888442212114144222211111111114404114924894444444444901449241289442211498a08221211414492888888882022888844444444441411114404111111498a882022894424224922828888882888885022822812098a241545514444241291828888882811114491485024a9288a2289222222a220222222a244441045265189282211449222888888884424494410092222499224492222228a202222222211894844228410222222221211110922414444449044848888444444441189202222491225898848444444441444445222122451888448102a45928aa22822491141442291484412492289248988481091482412914410898888888820a288248244249144222249222288888804111111119124499248444444444444049124010490541249222222222211114124494a4922222288440411910822111111111111111191484410092080a49444444444444444121111114492a494442222228248000124a52412111111412489a492282222228804909492484444441091882411494492449224111111d18824499244492222121111119188888888882888888812114108114ca250948822419244441011292222228888888888828888281111449148104582481211414444444488a2912049922489888888888288882811114491481045248248444444441011494482888824499224898808202222228824099244448488880882241111212282204908111111119188888846244992244a1211898808222222a22022a24404214430894245228a4804114922828814111141444444144450228248a22293a8441409221289449120229148248a8888884404912449922489888888884444440491248000925412894422222222228248224924918824110922099288481249121144828888882080008224a28848229148444404910449242222222208208020894444444444102592541245444444049120222222082082242211111111448288244992244944448488082291481249242222222222228a88082222229222892492249224898888882241444492244a1211894444242222914844246244444441c48850228210229844a1221145828848242205119148a444441045224114092222220a222222a24444104526114491208288880411111141124544440489a0d4402222221a1111912489924444222222d188888888880822a2202242890892284430894225a28844109148248a202222228924924892244914918888888888880822222222222229114424122922892491442222222222828844922412444492244992442211111111111144920410405249241249121111114124494a4924111111412409208054129144444404912429255144444404114151894810119124499224111101444444049124419288881011114190242222444410240911110144444422418c48922449928808202222220892202244440441124484882048122222808888041011112122a88a48241289002280188924914892242249a28888888888208a888888888888a414414444444444442249248924512495241244242288888820121189248a8888888288882811411285488804a112458288442251248888442291481289484404912449922489888888884844444404912492949288442291888888880822892491442222494444049104494444444492444410099224228248822422124924128948440491044924222222222288449044222222222282480449441111111111412448121111442248222211111111414444229148241289888888041191244992248988888888882022222222222222228a8888880822892491444a248811119124492222028888880882082242444410441011228220122222808888448218912449924444041011111104114484888820882022440441244444001111494a1289249244121111a12012449224499288888848241291a02a9224499224490288002219894412892449228924492222120922492249924444441049922449229244922891082225929422114492485245241111114482484410442411111144824844104424111111448288882092a48a88882445444444101189249144224924499224924812492422a2a82a9120922449924492002211114110891291882088444488088248081111114122286924888824499224124924892422224244441011449224499288888888888888082a8a241289244944922492482491242292482412492289028811118944122912492489241291444422898844244912914492244992244922222222884844a22289449248228248129148249224221244229248928824129144922422894444444492922489880820a28808228000124591880811114444241589881011440041248488888820118994484a9224498a484422924424114992249924494c922412494444444444444112a520892a85222222495551452269442491882422918844918824912491244992444404111111912411412491249248241289249248441249228944a494888828499224221240242a221144442212892422912449224992244992241141444444444492882488482288884424092222114912158944221149121124499224499288241109a552a10a8542a15028140a8542a1502814124982480a2289120942044349212121a1141212121212121212121212924848444444441444444489882089a2884c22884649aa12444922828848924844444444101111111105111151222248a228229308a25192aa04519248441444444444444444044522282a2121212191248844412451229188880288288888502222111141240a22224a44104564128d889824892489248944229220224982884844922022129124459148241249922411111131099292144924492489484a441091880822924812111111114144109144442291481111414410111141444444444444441011444444242922828888888844444444049120229194244192a4485204114992444492440411142282882495524944441089828808252212118990482449248944444404491411111111111144241289444411919408222222222222912492449228924a1289288888882888884811292211055151145144912288481144248a489122884a22914892489224499292444444448288884244109188880822511011a14404514426d18888489244448488888808222212894444082112492122a282228922418242298a048922418242298a04512448502845912051244850284591a04900495229254992144ad124499292244992a42449524a49828220494a1022184aa248502449220892a420088210c1501245822249124190240541108408869268442452494992244992244992244952494992244992244992202212250920294822491022184aa21149222549111111119120922429114144444444444444044992244922222212894424824824092049452422452212544992a4c448922449442211898888204992a48824514422918814242944308942a5a82249922449aa4a2912a92449322291244992244944111124924492249124922449922422499244824822492491482249249122a99488ca88884892922449924892a4440249922449222222914844a220490049459224152549922489240549412990244992244992244900a948449240124092244892244992a4241111d188888824294992244924494a2490244992242222222281240124294522902449292292244912090410442210442449922449880422099224118944221111114100414422914822104424898888400041440482882422222210401011812022898888080410444420888888242522222210409088409048222249204992a48888884644444a499224498944221111888848922449922491244992022182490a955292aa2449922449922449922449495292888828220288281011121108110c25d1888848294992444488084444244992244992489228102298a4502949254992244992942429294992242949492222a2880820a2401249022182a1249aa49292922449922449929294240902412044309444232222494a928888281288884892244922220288482009208024a52449248124292549220904909432092109204920054aa211119144029188442222222249922449222222522049000920294512111181248824224404024800412411111148824844444420800410442222220289208924492080208924492049921411118d888824294992244924492a12488a8848922449124992244992244992244992244992924444449304901448224920443094449324529292a4049292240924495420814892a48a24092080a44aa212051040524502484a45928aa228922892524a494a529252494a25299544254a525594a4aa4a529524491245928aa22822a912250920a94a922429912492484489249144224a4a4592aa22494592aa228a44514992244992922415494a25499252a900a22449aa480049a948525549aa224952158922915425295154522a494a4992a424492a25499222495592484aa2922425228a4491289112294992a4924a9224a9a40000"
        },
        "methodIdentifiers": {
          "accountVoted(uint64,address,uint64)": "a688687d",
          "createProposal(uint64,address,string,uint64,uint64,uint64,bool,uint64)": "b51c7bfd",
          "finishProposal(uint64,uint64)": "541047cc",
          "getProposal(uint64)": "f1610a28",
          "getProposalVotes(uint64)": "3058b273",
          "getProposals()": "62564c48",
          "hasVoted(uint64,address,uint64)": "11cb02a0",
          "proposalCount()": "da35c664",
          "proposalIds(uint256)": "9b644a23",
          "proposalVotes(uint64,uint256)": "6469af6b",
          "proposals(uint64)": "31c5eec8",
          "vote(address,uint64,uint64,uint64,bool)": "9b0e267c"
        }
      },
      "hash": "5947905006d3819b36a85773dd5a02375ffbcd04ef4eaf48298a48fbfa87b55d",
      "factoryDependencies": {}
    }
  }
}