{"abi":[{"type":"constructor","inputs":[{"name":"_generator","type":"uint256","internalType":"uint256"},{"name":"_modulus","type":"uint256","internalType":"uint256"}],"stateMutability":"nonpayable"},{"type":"function","name":"generator","inputs":[],"outputs":[{"name":"","type":"uint256","internalType":"uint256"}],"stateMutability":"view"},{"type":"function","name":"modAdd","inputs":[{"name":"a","type":"uint256","internalType":"uint256"},{"name":"b","type":"uint256","internalType":"uint256"}],"outputs":[{"name":"","type":"uint256","internalType":"uint256"}],"stateMutability":"view"},{"type":"function","name":"modDiv","inputs":[{"name":"a","type":"uint256","internalType":"uint256"},{"name":"b","type":"uint256","internalType":"uint256"}],"outputs":[{"name":"","type":"uint256","internalType":"uint256"}],"stateMutability":"view"},{"type":"function","name":"modExp","inputs":[{"name":"base","type":"uint256","internalType":"uint256"},{"name":"exponent","type":"uint256","internalType":"uint256"}],"outputs":[{"name":"result","type":"uint256","internalType":"uint256"}],"stateMutability":"view"},{"type":"function","name":"modInv","inputs":[{"name":"a","type":"uint256","internalType":"uint256"}],"outputs":[{"name":"","type":"uint256","internalType":"uint256"}],"stateMutability":"view"},{"type":"function","name":"modMul","inputs":[{"name":"a","type":"uint256","internalType":"uint256"},{"name":"b","type":"uint256","internalType":"uint256"}],"outputs":[{"name":"","type":"uint256","internalType":"uint256"}],"stateMutability":"view"},{"type":"function","name":"modSub","inputs":[{"name":"a","type":"uint256","internalType":"uint256"},{"name":"b","type":"uint256","internalType":"uint256"}],"outputs":[{"name":"","type":"uint256","internalType":"uint256"}],"stateMutability":"view"},{"type":"function","name":"modulus","inputs":[],"outputs":[{"name":"","type":"uint256","internalType":"uint256"}],"stateMutability":"view"}],"bytecode":{"object":"0x60c060405234801561000f575f5ffd5b5060405161060038038061060083398101604081905261002e916100de565b5f81116100825760405162461bcd60e51b815260206004820152601360248201527f4d6f64756c7573206d757374206265203e20300000000000000000000000000060448201526064015b60405180910390fd5b5f8211801561009057508082105b6100d05760405162461bcd60e51b815260206004820152601160248201527024b73b30b634b21033b2b732b930ba37b960791b6044820152606401610079565b60809190915260a052610100565b5f5f604083850312156100ef575f5ffd5b505080516020909101519092909150565b60805160a05161049a6101665f395f818161013901528181610168015281816101d701528181610204015281816102350152818161026001528181610290015281816102de0152818161031b0152818161035d015261039101525f60ec015261049a5ff3fe608060405234801561000f575f5ffd5b5060043610610085575f3560e01c80637afa1eed116100585780637afa1eed146100e7578063805be31d1461010e578063e01140b814610121578063ff4b040014610134575f5ffd5b80630366956e1461008957806341692bbb146100ae5780636eeb86dd146100c157806376f26c26146100d4575b5f5ffd5b61009c6100973660046103d4565b61015b565b60405190815260200160405180910390f35b61009c6100bc3660046103eb565b610201565b61009c6100cf3660046103eb565b61028d565b61009c6100e23660046103eb565b6102c6565b61009c7f000000000000000000000000000000000000000000000000000000000000000081565b61009c61011c3660046103eb565b6102db565b61009c61012f3660046103eb565b610314565b61009c7f000000000000000000000000000000000000000000000000000000000000000081565b5f811580159061018a57507f000000000000000000000000000000000000000000000000000000000000000082105b6101cc5760405162461bcd60e51b815260206004820152600f60248201526e496e76616c696420696e766572736560881b604482015260640160405180910390fd5b6101fb8261012f60027f000000000000000000000000000000000000000000000000000000000000000061040b565b92915050565b5f7f0000000000000000000000000000000000000000000000000000000000000000806102305761023061042a565b61025a7f00000000000000000000000000000000000000000000000000000000000000008461043e565b610284907f000000000000000000000000000000000000000000000000000000000000000061040b565b84089392505050565b5f7f0000000000000000000000000000000000000000000000000000000000000000806102bc576102bc61042a565b8284089392505050565b5f6102d48361011c8461015b565b9392505050565b5f7f00000000000000000000000000000000000000000000000000000000000000008061030a5761030a61042a565b8284099392505050565b60016103407f00000000000000000000000000000000000000000000000000000000000000008461043e565b92505b81156101fb5761035460028361043e565b60010361038f577f0000000000000000000000000000000000000000000000000000000000000000806103895761038961042a565b83820990505b7f0000000000000000000000000000000000000000000000000000000000000000806103bd576103bd61042a565b83840992506103cd600283610451565b9150610343565b5f602082840312156103e4575f5ffd5b5035919050565b5f5f604083850312156103fc575f5ffd5b50508035926020909101359150565b818103818111156101fb57634e487b7160e01b5f52601160045260245ffd5b634e487b7160e01b5f52601260045260245ffd5b5f8261044c5761044c61042a565b500690565b5f8261045f5761045f61042a565b50049056fea26469706673582212206cb9367f0533474d6a68226c528dca3b6b60f326fa32aaedd88c271155fdc3aa64736f6c634300081d0033","linkReferences":{}},"methodIdentifiers":{"generator()":"7afa1eed","modAdd(uint256,uint256)":"6eeb86dd","modDiv(uint256,uint256)":"76f26c26","modExp(uint256,uint256)":"e01140b8","modInv(uint256)":"0366956e","modMul(uint256,uint256)":"805be31d","modSub(uint256,uint256)":"41692bbb","modulus()":"ff4b0400"},"id":22}